{
  "contractName": "Arbitrator",
  "abi": [
    {
      "inputs": [],
      "payable": false,
      "stateMutability": "nonpayable",
      "type": "constructor"
    },
    {
      "anonymous": false,
      "inputs": [
        {
          "indexed": true,
          "internalType": "bytes32",
          "name": "question_id",
          "type": "bytes32"
        },
        {
          "indexed": false,
          "internalType": "uint256",
          "name": "fee_paid",
          "type": "uint256"
        },
        {
          "indexed": false,
          "internalType": "address",
          "name": "requester",
          "type": "address"
        },
        {
          "indexed": false,
          "internalType": "uint256",
          "name": "remaining",
          "type": "uint256"
        }
      ],
      "name": "LogRequestArbitration",
      "type": "event"
    },
    {
      "anonymous": false,
      "inputs": [
        {
          "indexed": true,
          "internalType": "bytes32",
          "name": "question_id",
          "type": "bytes32"
        },
        {
          "indexed": false,
          "internalType": "uint256",
          "name": "fee",
          "type": "uint256"
        }
      ],
      "name": "LogSetCustomDisputeFee",
      "type": "event"
    },
    {
      "anonymous": false,
      "inputs": [
        {
          "indexed": false,
          "internalType": "uint256",
          "name": "fee",
          "type": "uint256"
        }
      ],
      "name": "LogSetDisputeFee",
      "type": "event"
    },
    {
      "anonymous": false,
      "inputs": [
        {
          "indexed": false,
          "internalType": "uint256",
          "name": "fee",
          "type": "uint256"
        }
      ],
      "name": "LogSetQuestionFee",
      "type": "event"
    },
    {
      "anonymous": false,
      "inputs": [
        {
          "indexed": false,
          "internalType": "address",
          "name": "realitio",
          "type": "address"
        }
      ],
      "name": "LogSetRealitio",
      "type": "event"
    },
    {
      "payable": true,
      "stateMutability": "payable",
      "type": "fallback"
    },
    {
      "constant": true,
      "inputs": [
        {
          "internalType": "bytes32",
          "name": "",
          "type": "bytes32"
        }
      ],
      "name": "arbitration_bounties",
      "outputs": [
        {
          "internalType": "uint256",
          "name": "",
          "type": "uint256"
        }
      ],
      "payable": false,
      "stateMutability": "view",
      "type": "function"
    },
    {
      "constant": true,
      "inputs": [],
      "name": "metadata",
      "outputs": [
        {
          "internalType": "string",
          "name": "",
          "type": "string"
        }
      ],
      "payable": false,
      "stateMutability": "view",
      "type": "function"
    },
    {
      "constant": true,
      "inputs": [],
      "name": "owner",
      "outputs": [
        {
          "internalType": "address",
          "name": "",
          "type": "address"
        }
      ],
      "payable": false,
      "stateMutability": "view",
      "type": "function"
    },
    {
      "constant": true,
      "inputs": [],
      "name": "realitio",
      "outputs": [
        {
          "internalType": "contract Realitio",
          "name": "",
          "type": "address"
        }
      ],
      "payable": false,
      "stateMutability": "view",
      "type": "function"
    },
    {
      "constant": false,
      "inputs": [
        {
          "internalType": "address",
          "name": "newOwner",
          "type": "address"
        }
      ],
      "name": "transferOwnership",
      "outputs": [],
      "payable": false,
      "stateMutability": "nonpayable",
      "type": "function"
    },
    {
      "constant": true,
      "inputs": [],
      "name": "realitycheck",
      "outputs": [
        {
          "internalType": "contract Realitio",
          "name": "",
          "type": "address"
        }
      ],
      "payable": false,
      "stateMutability": "view",
      "type": "function"
    },
    {
      "constant": false,
      "inputs": [
        {
          "internalType": "address",
          "name": "addr",
          "type": "address"
        }
      ],
      "name": "setRealitio",
      "outputs": [],
      "payable": false,
      "stateMutability": "nonpayable",
      "type": "function"
    },
    {
      "constant": false,
      "inputs": [
        {
          "internalType": "uint256",
          "name": "fee",
          "type": "uint256"
        }
      ],
      "name": "setDisputeFee",
      "outputs": [],
      "payable": false,
      "stateMutability": "nonpayable",
      "type": "function"
    },
    {
      "constant": false,
      "inputs": [
        {
          "internalType": "bytes32",
          "name": "question_id",
          "type": "bytes32"
        },
        {
          "internalType": "uint256",
          "name": "fee",
          "type": "uint256"
        }
      ],
      "name": "setCustomDisputeFee",
      "outputs": [],
      "payable": false,
      "stateMutability": "nonpayable",
      "type": "function"
    },
    {
      "constant": true,
      "inputs": [
        {
          "internalType": "bytes32",
          "name": "question_id",
          "type": "bytes32"
        }
      ],
      "name": "getDisputeFee",
      "outputs": [
        {
          "internalType": "uint256",
          "name": "",
          "type": "uint256"
        }
      ],
      "payable": false,
      "stateMutability": "view",
      "type": "function"
    },
    {
      "constant": false,
      "inputs": [
        {
          "internalType": "uint256",
          "name": "fee",
          "type": "uint256"
        }
      ],
      "name": "setQuestionFee",
      "outputs": [],
      "payable": false,
      "stateMutability": "nonpayable",
      "type": "function"
    },
    {
      "constant": false,
      "inputs": [
        {
          "internalType": "bytes32",
          "name": "question_id",
          "type": "bytes32"
        },
        {
          "internalType": "bytes32",
          "name": "answer",
          "type": "bytes32"
        },
        {
          "internalType": "address",
          "name": "answerer",
          "type": "address"
        }
      ],
      "name": "submitAnswerByArbitrator",
      "outputs": [],
      "payable": false,
      "stateMutability": "nonpayable",
      "type": "function"
    },
    {
      "constant": false,
      "inputs": [
        {
          "internalType": "bytes32",
          "name": "question_id",
          "type": "bytes32"
        },
        {
          "internalType": "uint256",
          "name": "max_previous",
          "type": "uint256"
        }
      ],
      "name": "requestArbitration",
      "outputs": [
        {
          "internalType": "bool",
          "name": "",
          "type": "bool"
        }
      ],
      "payable": true,
      "stateMutability": "payable",
      "type": "function"
    },
    {
      "constant": false,
      "inputs": [
        {
          "internalType": "address",
          "name": "addr",
          "type": "address"
        }
      ],
      "name": "withdraw",
      "outputs": [],
      "payable": false,
      "stateMutability": "nonpayable",
      "type": "function"
    },
    {
      "constant": false,
      "inputs": [
        {
          "internalType": "contract IERC20",
          "name": "_token",
          "type": "address"
        },
        {
          "internalType": "address",
          "name": "addr",
          "type": "address"
        }
      ],
      "name": "withdrawERC20",
      "outputs": [],
      "payable": false,
      "stateMutability": "nonpayable",
      "type": "function"
    },
    {
      "constant": false,
      "inputs": [],
      "name": "callWithdraw",
      "outputs": [],
      "payable": false,
      "stateMutability": "nonpayable",
      "type": "function"
    },
    {
      "constant": false,
      "inputs": [
        {
          "internalType": "string",
          "name": "_metadata",
          "type": "string"
        }
      ],
      "name": "setMetaData",
      "outputs": [],
      "payable": false,
      "stateMutability": "nonpayable",
      "type": "function"
    }
  ],
  "bytecode": "0x608060405234801561001057600080fd5b50336000806101000a81548173ffffffffffffffffffffffffffffffffffffffff021916908373ffffffffffffffffffffffffffffffffffffffff160217905550336000806101000a81548173ffffffffffffffffffffffffffffffffffffffff021916908373ffffffffffffffffffffffffffffffffffffffff16021790555061164a806100a06000396000f3fe6080604052600436106100fe5760003560e01c80639456fbcc11610095578063bc8802a211610064578063bc8802a2146104fa578063d821f81a14610551578063dad901be14610619578063f2fde38b14610630578063fe92049d14610681576100fe565b80639456fbcc1461039b578063a20dd43b1461040c578063a22352e21461045b578063a829c3d1146104aa576100fe565b80634df6ca2a116100d15780634df6ca2a1461026757806351cff8d9146102a257806379ca21a2146102f35780638da5cb5b14610344576100fe565b80630c2a48e21461010057806317299c0414610157578063392f37e9146101925780634381a07b14610222575b005b34801561010c57600080fd5b506101156106e6565b604051808273ffffffffffffffffffffffffffffffffffffffff1673ffffffffffffffffffffffffffffffffffffffff16815260200191505060405180910390f35b34801561016357600080fd5b506101906004803603602081101561017a57600080fd5b8101908080359060200190929190505050610710565b005b34801561019e57600080fd5b506101a76107aa565b6040518080602001828103825283818151815260200191508051906020019080838360005b838110156101e75780820151818401526020810190506101cc565b50505050905090810190601f1680156102145780820380516001836020036101000a031916815260200191505b509250505060405180910390f35b34801561022e57600080fd5b506102656004803603604081101561024557600080fd5b810190808035906020019092919080359060200190929190505050610848565b005b34801561027357600080fd5b506102a06004803603602081101561028a57600080fd5b81019080803590602001909291905050506108f5565b005b3480156102ae57600080fd5b506102f1600480360360208110156102c557600080fd5b81019080803573ffffffffffffffffffffffffffffffffffffffff169060200190929190505050610a15565b005b3480156102ff57600080fd5b506103426004803603602081101561031657600080fd5b81019080803573ffffffffffffffffffffffffffffffffffffffff169060200190929190505050610aea565b005b34801561035057600080fd5b50610359610bea565b604051808273ffffffffffffffffffffffffffffffffffffffff1673ffffffffffffffffffffffffffffffffffffffff16815260200191505060405180910390f35b3480156103a757600080fd5b5061040a600480360360408110156103be57600080fd5b81019080803573ffffffffffffffffffffffffffffffffffffffff169060200190929190803573ffffffffffffffffffffffffffffffffffffffff169060200190929190505050610c0f565b005b34801561041857600080fd5b506104456004803603602081101561042f57600080fd5b8101908080359060200190929190505050610dec565b6040518082815260200191505060405180910390f35b34801561046757600080fd5b506104946004803603602081101561047e57600080fd5b8101908080359060200190929190505050610e04565b6040518082815260200191505060405180910390f35b6104e0600480360360408110156104c057600080fd5b810190808035906020019092919080359060200190929190505050610e44565b604051808215151515815260200191505060405180910390f35b34801561050657600080fd5b5061050f6111bb565b604051808273ffffffffffffffffffffffffffffffffffffffff1673ffffffffffffffffffffffffffffffffffffffff16815260200191505060405180910390f35b34801561055d57600080fd5b506106176004803603602081101561057457600080fd5b810190808035906020019064010000000081111561059157600080fd5b8201836020820111156105a357600080fd5b803590602001918460018302840111640100000000831117156105c557600080fd5b91908080601f016020809104026020016040519081016040528093929190818152602001838380828437600081840152601f19601f8201169050808301925050505050505091929192905050506111e1565b005b34801561062557600080fd5b5061062e611254565b005b34801561063c57600080fd5b5061067f6004803603602081101561065357600080fd5b81019080803573ffffffffffffffffffffffffffffffffffffffff169060200190929190505050611331565b005b34801561068d57600080fd5b506106e4600480360360608110156106a457600080fd5b810190808035906020019092919080359060200190929190803573ffffffffffffffffffffffffffffffffffffffff1690602001909291905050506113cd565b005b6000600160009054906101000a900473ffffffffffffffffffffffffffffffffffffffff16905090565b6000809054906101000a900473ffffffffffffffffffffffffffffffffffffffff1673ffffffffffffffffffffffffffffffffffffffff163373ffffffffffffffffffffffffffffffffffffffff161461076957600080fd5b806003819055507fbc1292d8ca346c1397b1176ce2935afd34c4365fece415b14e3a9242eae388f5816040518082815260200191505060405180910390a150565b60058054600181600116156101000203166002900480601f0160208091040260200160405190810160405280929190818152602001828054600181600116156101000203166002900480156108405780601f1061081557610100808354040283529160200191610840565b820191906000526020600020905b81548152906001019060200180831161082357829003601f168201915b505050505081565b6000809054906101000a900473ffffffffffffffffffffffffffffffffffffffff1673ffffffffffffffffffffffffffffffffffffffff163373ffffffffffffffffffffffffffffffffffffffff16146108a157600080fd5b806004600084815260200190815260200160002081905550817fe4887440991624b147d2129ab0befa8c1df4cff87b22513c8eea7cb16ed2aaf2826040518082815260200191505060405180910390a25050565b6000809054906101000a900473ffffffffffffffffffffffffffffffffffffffff1673ffffffffffffffffffffffffffffffffffffffff163373ffffffffffffffffffffffffffffffffffffffff161461094e57600080fd5b600160009054906101000a900473ffffffffffffffffffffffffffffffffffffffff1673ffffffffffffffffffffffffffffffffffffffff16634df6ca2a826040518263ffffffff1660e01b815260040180828152602001915050600060405180830381600087803b1580156109c357600080fd5b505af11580156109d7573d6000803e3d6000fd5b505050507f173ec7037500587e8ac3402cac8426c5c2bac605eabd93f790422e621633d711816040518082815260200191505060405180910390a150565b6000809054906101000a900473ffffffffffffffffffffffffffffffffffffffff1673ffffffffffffffffffffffffffffffffffffffff163373ffffffffffffffffffffffffffffffffffffffff1614610a6e57600080fd5b60008173ffffffffffffffffffffffffffffffffffffffff16476108fc90604051806000019050600060405180830381858888f193505050503d8060008114610ad3576040519150601f19603f3d011682016040523d82523d6000602084013e610ad8565b606091505b5050905080610ae657600080fd5b5050565b6000809054906101000a900473ffffffffffffffffffffffffffffffffffffffff1673ffffffffffffffffffffffffffffffffffffffff163373ffffffffffffffffffffffffffffffffffffffff1614610b4357600080fd5b80600160006101000a81548173ffffffffffffffffffffffffffffffffffffffff021916908373ffffffffffffffffffffffffffffffffffffffff1602179055507f568b4ce4fc4d09c939362effe33053025b93088cab521fc476f469966c7efdd581604051808273ffffffffffffffffffffffffffffffffffffffff1673ffffffffffffffffffffffffffffffffffffffff16815260200191505060405180910390a150565b6000809054906101000a900473ffffffffffffffffffffffffffffffffffffffff1681565b6000809054906101000a900473ffffffffffffffffffffffffffffffffffffffff1673ffffffffffffffffffffffffffffffffffffffff163373ffffffffffffffffffffffffffffffffffffffff1614610c6857600080fd5b60008273ffffffffffffffffffffffffffffffffffffffff166370a08231306040518263ffffffff1660e01b8152600401808273ffffffffffffffffffffffffffffffffffffffff1673ffffffffffffffffffffffffffffffffffffffff16815260200191505060206040518083038186803b158015610ce757600080fd5b505afa158015610cfb573d6000803e3d6000fd5b505050506040513d6020811015610d1157600080fd5b810190808051906020019092919050505090508273ffffffffffffffffffffffffffffffffffffffff1663a9059cbb83836040518363ffffffff1660e01b8152600401808373ffffffffffffffffffffffffffffffffffffffff1673ffffffffffffffffffffffffffffffffffffffff16815260200182815260200192505050602060405180830381600087803b158015610dab57600080fd5b505af1158015610dbf573d6000803e3d6000fd5b505050506040513d6020811015610dd557600080fd5b810190808051906020019092919050505050505050565b60026020528060005260406000206000915090505481565b600080600460008481526020019081526020016000205411610e2857600354610e3d565b60046000838152602001908152602001600020545b9050919050565b600080610e5084610e04565b905060008111610eab576040517f08c379a000000000000000000000000000000000000000000000000000000000815260040180806020018281038252603c8152602001806115b1603c913960400191505060405180910390fd5b34600260008681526020019081526020016000206000828254019250508190555060006002600086815260200190815260200160002054905081811061103457600160009054906101000a900473ffffffffffffffffffffffffffffffffffffffff1673ffffffffffffffffffffffffffffffffffffffff1663f6a94ecb8633876040518463ffffffff1660e01b8152600401808481526020018373ffffffffffffffffffffffffffffffffffffffff1673ffffffffffffffffffffffffffffffffffffffff1681526020018281526020019350505050600060405180830381600087803b158015610f9c57600080fd5b505af1158015610fb0573d6000803e3d6000fd5b50505050847fdf8a830581aa05b0b824a0c184007c33a1ad9100a41751c9ded9f2b4fefb16ba34336000604051808481526020018373ffffffffffffffffffffffffffffffffffffffff1673ffffffffffffffffffffffffffffffffffffffff168152602001828152602001935050505060405180910390a26001925050506111b5565b600160009054906101000a900473ffffffffffffffffffffffffffffffffffffffff1673ffffffffffffffffffffffffffffffffffffffff16637f8d429e866040518263ffffffff1660e01b81526004018082815260200191505060206040518083038186803b1580156110a757600080fd5b505afa1580156110bb573d6000803e3d6000fd5b505050506040513d60208110156110d157600080fd5b810190808051906020019092919050505015611138576040517f08c379a00000000000000000000000000000000000000000000000000000000081526004018080602001828103825260298152602001806115ed6029913960400191505060405180910390fd5b847fdf8a830581aa05b0b824a0c184007c33a1ad9100a41751c9ded9f2b4fefb16ba3433848603604051808481526020018373ffffffffffffffffffffffffffffffffffffffff1673ffffffffffffffffffffffffffffffffffffffff168152602001828152602001935050505060405180910390a26000925050505b92915050565b600160009054906101000a900473ffffffffffffffffffffffffffffffffffffffff1681565b6000809054906101000a900473ffffffffffffffffffffffffffffffffffffffff1673ffffffffffffffffffffffffffffffffffffffff163373ffffffffffffffffffffffffffffffffffffffff161461123a57600080fd5b806005908051906020019061125092919061150b565b5050565b6000809054906101000a900473ffffffffffffffffffffffffffffffffffffffff1673ffffffffffffffffffffffffffffffffffffffff163373ffffffffffffffffffffffffffffffffffffffff16146112ad57600080fd5b600160009054906101000a900473ffffffffffffffffffffffffffffffffffffffff1673ffffffffffffffffffffffffffffffffffffffff16633ccfd60b6040518163ffffffff1660e01b8152600401600060405180830381600087803b15801561131757600080fd5b505af115801561132b573d6000803e3d6000fd5b50505050565b6000809054906101000a900473ffffffffffffffffffffffffffffffffffffffff1673ffffffffffffffffffffffffffffffffffffffff163373ffffffffffffffffffffffffffffffffffffffff161461138a57600080fd5b806000806101000a81548173ffffffffffffffffffffffffffffffffffffffff021916908373ffffffffffffffffffffffffffffffffffffffff16021790555050565b6000809054906101000a900473ffffffffffffffffffffffffffffffffffffffff1673ffffffffffffffffffffffffffffffffffffffff163373ffffffffffffffffffffffffffffffffffffffff161461142657600080fd5b6002600084815260200190815260200160002060009055600160009054906101000a900473ffffffffffffffffffffffffffffffffffffffff1673ffffffffffffffffffffffffffffffffffffffff1663fe92049d8484846040518463ffffffff1660e01b8152600401808481526020018381526020018273ffffffffffffffffffffffffffffffffffffffff1673ffffffffffffffffffffffffffffffffffffffff1681526020019350505050600060405180830381600087803b1580156114ee57600080fd5b505af1158015611502573d6000803e3d6000fd5b50505050505050565b828054600181600116156101000203166002900490600052602060002090601f016020900481019282601f1061154c57805160ff191683800117855561157a565b8280016001018555821561157a579182015b8281111561157957825182559160200191906001019061155e565b5b509050611587919061158b565b5090565b6115ad91905b808211156115a9576000816000905550600101611591565b5090565b9056fe5468652061726269747261746f72206d7573742068617665207365742061206e6f6e2d7a65726f2066656520666f7220746865207175657374696f6e546865207175657374696f6e206d757374206e6f742068617665206265656e2066696e616c697a6564a265627a7a723158209fe837036fed071564a1d45d0c057163a733abf1aedbcaf4d193080476c13ef064736f6c63430005100032",
  "source": "pragma solidity >=0.4.24;\n\nimport './Owned.sol';\nimport './Realitio.sol';\nimport './IERC20.sol';\n\ncontract Arbitrator is Owned {\n\n    Realitio public realitio;\n\n    mapping(bytes32 => uint256) public arbitration_bounties;\n\n    uint256 dispute_fee;\n    mapping(bytes32 => uint256) custom_dispute_fees;\n\n    string public metadata;\n\n    event LogRequestArbitration(\n        bytes32 indexed question_id,\n        uint256 fee_paid,\n        address requester,\n        uint256 remaining\n    );\n\n    event LogSetRealitio(\n        address realitio\n    );\n\n    event LogSetQuestionFee(\n        uint256 fee\n    );\n\n\n    event LogSetDisputeFee(\n        uint256 fee\n    );\n\n    event LogSetCustomDisputeFee(\n        bytes32 indexed question_id,\n        uint256 fee\n    );\n\n    /// @notice Constructor. Sets the deploying address as owner.\n    constructor() \n    public {\n        owner = msg.sender;\n    }\n\n    /// @notice Returns the Realitio contract address - deprecated in favour of realitio()\n    function realitycheck() \n    external view returns(Realitio) {\n        return realitio;\n    }\n\n    /// @notice Set the Reality Check contract address\n    /// @param addr The address of the Reality Check contract\n    function setRealitio(address addr) \n        onlyOwner \n    public {\n        realitio = Realitio(addr);\n        emit LogSetRealitio(addr);\n    }\n\n    /// @notice Set the default fee\n    /// @param fee The default fee amount\n    function setDisputeFee(uint256 fee) \n        onlyOwner \n    public {\n        dispute_fee = fee;\n        emit LogSetDisputeFee(fee);\n    }\n\n    /// @notice Set a custom fee for this particular question\n    /// @param question_id The question in question\n    /// @param fee The fee amount\n    function setCustomDisputeFee(bytes32 question_id, uint256 fee) \n        onlyOwner \n    public {\n        custom_dispute_fees[question_id] = fee;\n        emit LogSetCustomDisputeFee(question_id, fee);\n    }\n\n    /// @notice Return the dispute fee for the specified question. 0 indicates that we won't arbitrate it.\n    /// @param question_id The question in question\n    /// @dev Uses a general default, but can be over-ridden on a question-by-question basis.\n    function getDisputeFee(bytes32 question_id) \n    public view returns (uint256) {\n        return (custom_dispute_fees[question_id] > 0) ? custom_dispute_fees[question_id] : dispute_fee;\n    }\n\n    /// @notice Set a fee for asking a question with us as the arbitrator\n    /// @param fee The fee amount\n    /// @dev Default is no fee. Unlike the dispute fee, 0 is an acceptable setting.\n    /// You could set an impossibly high fee if you want to prevent us being used as arbitrator unless we submit the question.\n    /// (Submitting the question ourselves is not implemented here.)\n    /// This fee can be used as a revenue source, an anti-spam measure, or both.\n    function setQuestionFee(uint256 fee) \n        onlyOwner \n    public {\n        realitio.setQuestionFee(fee);\n        emit LogSetQuestionFee(fee);\n    }\n\n    /// @notice Submit the arbitrator's answer to a question.\n    /// @param question_id The question in question\n    /// @param answer The answer\n    /// @param answerer The answerer. If arbitration changed the answer, it should be the payer. If not, the old answerer.\n    function submitAnswerByArbitrator(bytes32 question_id, bytes32 answer, address answerer) \n        onlyOwner \n    public {\n        delete arbitration_bounties[question_id];\n        realitio.submitAnswerByArbitrator(question_id, answer, answerer);\n    }\n\n    /// @notice Request arbitration, freezing the question until we send submitAnswerByArbitrator\n    /// @dev The bounty can be paid only in part, in which case the last person to pay will be considered the payer\n    /// Will trigger an error if the notification fails, eg because the question has already been finalized\n    /// @param question_id The question in question\n    /// @param max_previous If specified, reverts if a bond higher than this was submitted after you sent your transaction.\n    function requestArbitration(bytes32 question_id, uint256 max_previous) \n    external payable returns (bool) {\n\n        uint256 arbitration_fee = getDisputeFee(question_id);\n        require(arbitration_fee > 0, \"The arbitrator must have set a non-zero fee for the question\");\n\n        arbitration_bounties[question_id] += msg.value;\n        uint256 paid = arbitration_bounties[question_id];\n\n        if (paid >= arbitration_fee) {\n            realitio.notifyOfArbitrationRequest(question_id, msg.sender, max_previous);\n            emit LogRequestArbitration(question_id, msg.value, msg.sender, 0);\n            return true;\n        } else {\n            require(!realitio.isFinalized(question_id), \"The question must not have been finalized\");\n            emit LogRequestArbitration(question_id, msg.value, msg.sender, arbitration_fee - paid);\n            return false;\n        }\n\n    }\n\n    /// @notice Withdraw any accumulated ETH fees to the specified address\n    /// @param addr The address to which the balance should be sent\n    function withdraw(address addr) \n        onlyOwner \n    public {\n        // should use addr.transfer(address(this).balance) here\n        // but solc 0.5 requires addr to be address payable type\n        (bool success,) = addr.call.value(address(this).balance).gas(2300)(\"\");\n        require(success); \n    }\n\n    /// @notice Withdraw any accumulated token fees to the specified address\n    /// @param addr The address to which the balance should be sent\n    /// @dev Only needed if the Realitio contract used is using an ERC20 token\n    /// @dev Also only normally useful if a per-question fee is set, otherwise we only have ETH.\n    function withdrawERC20(IERC20 _token, address addr) \n        onlyOwner \n    public {\n        uint256 bal = _token.balanceOf(address(this));\n        IERC20(_token).transfer(addr, bal); \n    }\n\n    function() \n    external payable {\n    }\n\n    /// @notice Withdraw any accumulated question fees from the specified address into this contract\n    /// @dev Funds can then be liberated from this contract with our withdraw() function\n    /// @dev This works in the same way whether the realitio contract is using ETH or an ERC20 token\n    function callWithdraw() \n        onlyOwner \n    public {\n        realitio.withdraw(); \n    }\n\n    /// @notice Set a metadata string, expected to be JSON, containing things like arbitrator TOS address\n    function setMetaData(string memory _metadata) \n        onlyOwner\n    public {\n        metadata = _metadata;\n    }\n\n}\n",
  "sourcePath": "@realitio/realitio-contracts/truffle/contracts/Arbitrator.sol",
  "compiler": {
    "name": "solc",
    "version": "0.5.16+commit.9c3226ce.Emscripten.clang"
  },
  "schemaVersion": "3.3.2",
  "updatedAt": "2021-05-21T17:19:15.234Z",
  "networkType": "ethereum",
  "devdoc": {
    "methods": {
      "callWithdraw()": {
        "details": "Funds can then be liberated from this contract with our withdraw() functionThis works in the same way whether the realitio contract is using ETH or an ERC20 token"
      },
      "getDisputeFee(bytes32)": {
        "details": "Uses a general default, but can be over-ridden on a question-by-question basis.",
        "params": {
          "question_id": "The question in question"
        }
      },
      "requestArbitration(bytes32,uint256)": {
        "details": "The bounty can be paid only in part, in which case the last person to pay will be considered the payer Will trigger an error if the notification fails, eg because the question has already been finalized",
        "params": {
          "max_previous": "If specified, reverts if a bond higher than this was submitted after you sent your transaction.",
          "question_id": "The question in question"
        }
      },
      "setCustomDisputeFee(bytes32,uint256)": {
        "params": {
          "fee": "The fee amount",
          "question_id": "The question in question"
        }
      },
      "setDisputeFee(uint256)": {
        "params": {
          "fee": "The default fee amount"
        }
      },
      "setQuestionFee(uint256)": {
        "details": "Default is no fee. Unlike the dispute fee, 0 is an acceptable setting. You could set an impossibly high fee if you want to prevent us being used as arbitrator unless we submit the question. (Submitting the question ourselves is not implemented here.) This fee can be used as a revenue source, an anti-spam measure, or both.",
        "params": {
          "fee": "The fee amount"
        }
      },
      "setRealitio(address)": {
        "params": {
          "addr": "The address of the Reality Check contract"
        }
      },
      "submitAnswerByArbitrator(bytes32,bytes32,address)": {
        "params": {
          "answer": "The answer",
          "answerer": "The answerer. If arbitration changed the answer, it should be the payer. If not, the old answerer.",
          "question_id": "The question in question"
        }
      },
      "withdraw(address)": {
        "params": {
          "addr": "The address to which the balance should be sent"
        }
      },
      "withdrawERC20(address,address)": {
        "details": "Only needed if the Realitio contract used is using an ERC20 tokenAlso only normally useful if a per-question fee is set, otherwise we only have ETH.",
        "params": {
          "addr": "The address to which the balance should be sent"
        }
      }
    }
  },
  "userdoc": {
    "methods": {
      "callWithdraw()": {
        "notice": "Withdraw any accumulated question fees from the specified address into this contract"
      },
      "constructor": "Constructor. Sets the deploying address as owner.",
      "getDisputeFee(bytes32)": {
        "notice": "Return the dispute fee for the specified question. 0 indicates that we won't arbitrate it."
      },
      "realitycheck()": {
        "notice": "Returns the Realitio contract address - deprecated in favour of realitio()"
      },
      "requestArbitration(bytes32,uint256)": {
        "notice": "Request arbitration, freezing the question until we send submitAnswerByArbitrator"
      },
      "setCustomDisputeFee(bytes32,uint256)": {
        "notice": "Set a custom fee for this particular question"
      },
      "setDisputeFee(uint256)": {
        "notice": "Set the default fee"
      },
      "setMetaData(string)": {
        "notice": "Set a metadata string, expected to be JSON, containing things like arbitrator TOS address"
      },
      "setQuestionFee(uint256)": {
        "notice": "Set a fee for asking a question with us as the arbitrator"
      },
      "setRealitio(address)": {
        "notice": "Set the Reality Check contract address"
      },
      "submitAnswerByArbitrator(bytes32,bytes32,address)": {
        "notice": "Submit the arbitrator's answer to a question."
      },
      "withdraw(address)": {
        "notice": "Withdraw any accumulated ETH fees to the specified address"
      },
      "withdrawERC20(address,address)": {
        "notice": "Withdraw any accumulated token fees to the specified address"
      }
    }
  }
}