{
  "contractName": "FixedProductMarketMaker",
  "abi": [
    {
      "anonymous": false,
      "inputs": [
        {
          "indexed": true,
          "internalType": "address",
          "name": "owner",
          "type": "address"
        },
        {
          "indexed": true,
          "internalType": "address",
          "name": "spender",
          "type": "address"
        },
        {
          "indexed": false,
          "internalType": "uint256",
          "name": "value",
          "type": "uint256"
        }
      ],
      "name": "Approval",
      "type": "event"
    },
    {
      "anonymous": false,
      "inputs": [
        {
          "indexed": true,
          "internalType": "address",
          "name": "buyer",
          "type": "address"
        },
        {
          "indexed": false,
          "internalType": "uint256",
          "name": "investmentAmount",
          "type": "uint256"
        },
        {
          "indexed": false,
          "internalType": "uint256",
          "name": "feeAmount",
          "type": "uint256"
        },
        {
          "indexed": true,
          "internalType": "uint256",
          "name": "outcomeIndex",
          "type": "uint256"
        },
        {
          "indexed": false,
          "internalType": "uint256",
          "name": "outcomeTokensBought",
          "type": "uint256"
        }
      ],
      "name": "FPMMBuy",
      "type": "event"
    },
    {
      "anonymous": false,
      "inputs": [
        {
          "indexed": true,
          "internalType": "address",
          "name": "funder",
          "type": "address"
        },
        {
          "indexed": false,
          "internalType": "uint256[]",
          "name": "amountsAdded",
          "type": "uint256[]"
        },
        {
          "indexed": false,
          "internalType": "uint256",
          "name": "sharesMinted",
          "type": "uint256"
        }
      ],
      "name": "FPMMFundingAdded",
      "type": "event"
    },
    {
      "anonymous": false,
      "inputs": [
        {
          "indexed": true,
          "internalType": "address",
          "name": "funder",
          "type": "address"
        },
        {
          "indexed": false,
          "internalType": "uint256[]",
          "name": "amountsRemoved",
          "type": "uint256[]"
        },
        {
          "indexed": false,
          "internalType": "uint256",
          "name": "collateralRemovedFromFeePool",
          "type": "uint256"
        },
        {
          "indexed": false,
          "internalType": "uint256",
          "name": "sharesBurnt",
          "type": "uint256"
        }
      ],
      "name": "FPMMFundingRemoved",
      "type": "event"
    },
    {
      "anonymous": false,
      "inputs": [
        {
          "indexed": true,
          "internalType": "address",
          "name": "seller",
          "type": "address"
        },
        {
          "indexed": false,
          "internalType": "uint256",
          "name": "returnAmount",
          "type": "uint256"
        },
        {
          "indexed": false,
          "internalType": "uint256",
          "name": "feeAmount",
          "type": "uint256"
        },
        {
          "indexed": true,
          "internalType": "uint256",
          "name": "outcomeIndex",
          "type": "uint256"
        },
        {
          "indexed": false,
          "internalType": "uint256",
          "name": "outcomeTokensSold",
          "type": "uint256"
        }
      ],
      "name": "FPMMSell",
      "type": "event"
    },
    {
      "anonymous": false,
      "inputs": [
        {
          "indexed": true,
          "internalType": "address",
          "name": "from",
          "type": "address"
        },
        {
          "indexed": true,
          "internalType": "address",
          "name": "to",
          "type": "address"
        },
        {
          "indexed": false,
          "internalType": "uint256",
          "name": "value",
          "type": "uint256"
        }
      ],
      "name": "Transfer",
      "type": "event"
    },
    {
      "constant": true,
      "inputs": [
        {
          "internalType": "address",
          "name": "owner",
          "type": "address"
        },
        {
          "internalType": "address",
          "name": "spender",
          "type": "address"
        }
      ],
      "name": "allowance",
      "outputs": [
        {
          "internalType": "uint256",
          "name": "",
          "type": "uint256"
        }
      ],
      "payable": false,
      "stateMutability": "view",
      "type": "function"
    },
    {
      "constant": false,
      "inputs": [
        {
          "internalType": "address",
          "name": "spender",
          "type": "address"
        },
        {
          "internalType": "uint256",
          "name": "amount",
          "type": "uint256"
        }
      ],
      "name": "approve",
      "outputs": [
        {
          "internalType": "bool",
          "name": "",
          "type": "bool"
        }
      ],
      "payable": false,
      "stateMutability": "nonpayable",
      "type": "function"
    },
    {
      "constant": true,
      "inputs": [
        {
          "internalType": "address",
          "name": "account",
          "type": "address"
        }
      ],
      "name": "balanceOf",
      "outputs": [
        {
          "internalType": "uint256",
          "name": "",
          "type": "uint256"
        }
      ],
      "payable": false,
      "stateMutability": "view",
      "type": "function"
    },
    {
      "constant": true,
      "inputs": [],
      "name": "collateralToken",
      "outputs": [
        {
          "internalType": "contract IERC20",
          "name": "",
          "type": "address"
        }
      ],
      "payable": false,
      "stateMutability": "view",
      "type": "function"
    },
    {
      "constant": true,
      "inputs": [
        {
          "internalType": "uint256",
          "name": "",
          "type": "uint256"
        }
      ],
      "name": "conditionIds",
      "outputs": [
        {
          "internalType": "bytes32",
          "name": "",
          "type": "bytes32"
        }
      ],
      "payable": false,
      "stateMutability": "view",
      "type": "function"
    },
    {
      "constant": true,
      "inputs": [],
      "name": "conditionalTokens",
      "outputs": [
        {
          "internalType": "contract ConditionalTokens",
          "name": "",
          "type": "address"
        }
      ],
      "payable": false,
      "stateMutability": "view",
      "type": "function"
    },
    {
      "constant": false,
      "inputs": [
        {
          "internalType": "address",
          "name": "spender",
          "type": "address"
        },
        {
          "internalType": "uint256",
          "name": "subtractedValue",
          "type": "uint256"
        }
      ],
      "name": "decreaseAllowance",
      "outputs": [
        {
          "internalType": "bool",
          "name": "",
          "type": "bool"
        }
      ],
      "payable": false,
      "stateMutability": "nonpayable",
      "type": "function"
    },
    {
      "constant": true,
      "inputs": [],
      "name": "fee",
      "outputs": [
        {
          "internalType": "uint256",
          "name": "",
          "type": "uint256"
        }
      ],
      "payable": false,
      "stateMutability": "view",
      "type": "function"
    },
    {
      "constant": false,
      "inputs": [
        {
          "internalType": "address",
          "name": "spender",
          "type": "address"
        },
        {
          "internalType": "uint256",
          "name": "addedValue",
          "type": "uint256"
        }
      ],
      "name": "increaseAllowance",
      "outputs": [
        {
          "internalType": "bool",
          "name": "",
          "type": "bool"
        }
      ],
      "payable": false,
      "stateMutability": "nonpayable",
      "type": "function"
    },
    {
      "constant": true,
      "inputs": [
        {
          "internalType": "bytes4",
          "name": "interfaceId",
          "type": "bytes4"
        }
      ],
      "name": "supportsInterface",
      "outputs": [
        {
          "internalType": "bool",
          "name": "",
          "type": "bool"
        }
      ],
      "payable": false,
      "stateMutability": "view",
      "type": "function"
    },
    {
      "constant": true,
      "inputs": [],
      "name": "totalSupply",
      "outputs": [
        {
          "internalType": "uint256",
          "name": "",
          "type": "uint256"
        }
      ],
      "payable": false,
      "stateMutability": "view",
      "type": "function"
    },
    {
      "constant": false,
      "inputs": [
        {
          "internalType": "address",
          "name": "recipient",
          "type": "address"
        },
        {
          "internalType": "uint256",
          "name": "amount",
          "type": "uint256"
        }
      ],
      "name": "transfer",
      "outputs": [
        {
          "internalType": "bool",
          "name": "",
          "type": "bool"
        }
      ],
      "payable": false,
      "stateMutability": "nonpayable",
      "type": "function"
    },
    {
      "constant": false,
      "inputs": [
        {
          "internalType": "address",
          "name": "sender",
          "type": "address"
        },
        {
          "internalType": "address",
          "name": "recipient",
          "type": "address"
        },
        {
          "internalType": "uint256",
          "name": "amount",
          "type": "uint256"
        }
      ],
      "name": "transferFrom",
      "outputs": [
        {
          "internalType": "bool",
          "name": "",
          "type": "bool"
        }
      ],
      "payable": false,
      "stateMutability": "nonpayable",
      "type": "function"
    },
    {
      "constant": true,
      "inputs": [],
      "name": "collectedFees",
      "outputs": [
        {
          "internalType": "uint256",
          "name": "",
          "type": "uint256"
        }
      ],
      "payable": false,
      "stateMutability": "view",
      "type": "function"
    },
    {
      "constant": true,
      "inputs": [
        {
          "internalType": "address",
          "name": "account",
          "type": "address"
        }
      ],
      "name": "feesWithdrawableBy",
      "outputs": [
        {
          "internalType": "uint256",
          "name": "",
          "type": "uint256"
        }
      ],
      "payable": false,
      "stateMutability": "view",
      "type": "function"
    },
    {
      "constant": false,
      "inputs": [
        {
          "internalType": "address",
          "name": "account",
          "type": "address"
        }
      ],
      "name": "withdrawFees",
      "outputs": [],
      "payable": false,
      "stateMutability": "nonpayable",
      "type": "function"
    },
    {
      "constant": false,
      "inputs": [
        {
          "internalType": "uint256",
          "name": "addedFunds",
          "type": "uint256"
        },
        {
          "internalType": "uint256[]",
          "name": "distributionHint",
          "type": "uint256[]"
        }
      ],
      "name": "addFunding",
      "outputs": [],
      "payable": false,
      "stateMutability": "nonpayable",
      "type": "function"
    },
    {
      "constant": false,
      "inputs": [
        {
          "internalType": "uint256",
          "name": "sharesToBurn",
          "type": "uint256"
        }
      ],
      "name": "removeFunding",
      "outputs": [],
      "payable": false,
      "stateMutability": "nonpayable",
      "type": "function"
    },
    {
      "constant": false,
      "inputs": [
        {
          "internalType": "address",
          "name": "operator",
          "type": "address"
        },
        {
          "internalType": "address",
          "name": "from",
          "type": "address"
        },
        {
          "internalType": "uint256",
          "name": "id",
          "type": "uint256"
        },
        {
          "internalType": "uint256",
          "name": "value",
          "type": "uint256"
        },
        {
          "internalType": "bytes",
          "name": "data",
          "type": "bytes"
        }
      ],
      "name": "onERC1155Received",
      "outputs": [
        {
          "internalType": "bytes4",
          "name": "",
          "type": "bytes4"
        }
      ],
      "payable": false,
      "stateMutability": "nonpayable",
      "type": "function"
    },
    {
      "constant": false,
      "inputs": [
        {
          "internalType": "address",
          "name": "operator",
          "type": "address"
        },
        {
          "internalType": "address",
          "name": "from",
          "type": "address"
        },
        {
          "internalType": "uint256[]",
          "name": "ids",
          "type": "uint256[]"
        },
        {
          "internalType": "uint256[]",
          "name": "values",
          "type": "uint256[]"
        },
        {
          "internalType": "bytes",
          "name": "data",
          "type": "bytes"
        }
      ],
      "name": "onERC1155BatchReceived",
      "outputs": [
        {
          "internalType": "bytes4",
          "name": "",
          "type": "bytes4"
        }
      ],
      "payable": false,
      "stateMutability": "nonpayable",
      "type": "function"
    },
    {
      "constant": true,
      "inputs": [
        {
          "internalType": "uint256",
          "name": "investmentAmount",
          "type": "uint256"
        },
        {
          "internalType": "uint256",
          "name": "outcomeIndex",
          "type": "uint256"
        }
      ],
      "name": "calcBuyAmount",
      "outputs": [
        {
          "internalType": "uint256",
          "name": "",
          "type": "uint256"
        }
      ],
      "payable": false,
      "stateMutability": "view",
      "type": "function"
    },
    {
      "constant": true,
      "inputs": [
        {
          "internalType": "uint256",
          "name": "returnAmount",
          "type": "uint256"
        },
        {
          "internalType": "uint256",
          "name": "outcomeIndex",
          "type": "uint256"
        }
      ],
      "name": "calcSellAmount",
      "outputs": [
        {
          "internalType": "uint256",
          "name": "outcomeTokenSellAmount",
          "type": "uint256"
        }
      ],
      "payable": false,
      "stateMutability": "view",
      "type": "function"
    },
    {
      "constant": false,
      "inputs": [
        {
          "internalType": "uint256",
          "name": "investmentAmount",
          "type": "uint256"
        },
        {
          "internalType": "uint256",
          "name": "outcomeIndex",
          "type": "uint256"
        },
        {
          "internalType": "uint256",
          "name": "minOutcomeTokensToBuy",
          "type": "uint256"
        }
      ],
      "name": "buy",
      "outputs": [],
      "payable": false,
      "stateMutability": "nonpayable",
      "type": "function"
    },
    {
      "constant": false,
      "inputs": [
        {
          "internalType": "uint256",
          "name": "returnAmount",
          "type": "uint256"
        },
        {
          "internalType": "uint256",
          "name": "outcomeIndex",
          "type": "uint256"
        },
        {
          "internalType": "uint256",
          "name": "maxOutcomeTokensToSell",
          "type": "uint256"
        }
      ],
      "name": "sell",
      "outputs": [],
      "payable": false,
      "stateMutability": "nonpayable",
      "type": "function"
    }
  ],
  "bytecode": "0x60806040526200001c6301ffc9a760e01b6200007760201b60201c565b62000071600073ffffffffffffffffffffffffffffffffffffffff1663bc197c81905060e01b600073ffffffffffffffffffffffffffffffffffffffff1663f23a6e61905060e01b186200007760201b60201c565b62000181565b63ffffffff60e01b817bffffffffffffffffffffffffffffffffffffffffffffffffffffffff1916141562000114576040517f08c379a000000000000000000000000000000000000000000000000000000000815260040180806020018281038252601c8152602001807f4552433136353a20696e76616c696420696e746572666163652069640000000081525060200191505060405180910390fd5b600160036000837bffffffffffffffffffffffffffffffffffffffffffffffffffffffff19167bffffffffffffffffffffffffffffffffffffffffffffffffffffffff1916815260200190815260200160002060006101000a81548160ff02191690831515021790555050565b61436480620001916000396000f3fe608060405234801561001057600080fd5b50600436106101585760003560e01c8063a457c2d7116100c3578063d8c55af71161007c578063d8c55af7146108ac578063dd62ed3e146108ee578063ddca3f4314610966578063e03031a614610984578063f23a6e61146109b2578063f55c79d014610ad157610158565b8063a457c2d71461051c578063a9059cbb14610582578063b2016bd4146105e8578063bc197c8114610632578063d3c9727c146107e7578063d5f15a461461082957610158565b80633950935111610115578063395093511461036857806340993b26146103ce5780634343116a146104105780635bd9e2991461045c57806370a08231146104a65780639003adfe146104fe57610158565b806301ffc9a71461015d578063095ea7b3146101c2578063164e68de1461022857806316dbd7761461026c57806318160ddd146102c457806323b872dd146102e2575b600080fd5b6101a86004803603602081101561017357600080fd5b8101908080357bffffffffffffffffffffffffffffffffffffffffffffffffffffffff19169060200190929190505050610b1d565b604051808215151515815260200191505060405180910390f35b61020e600480360360408110156101d857600080fd5b81019080803573ffffffffffffffffffffffffffffffffffffffff16906020019092919080359060200190929190505050610b85565b604051808215151515815260200191505060405180910390f35b61026a6004803603602081101561023e57600080fd5b81019080803573ffffffffffffffffffffffffffffffffffffffff169060200190929190505050610b9c565b005b6102ae6004803603602081101561028257600080fd5b81019080803573ffffffffffffffffffffffffffffffffffffffff169060200190929190505050610de7565b6040518082815260200191505060405180910390f35b6102cc610e73565b6040518082815260200191505060405180910390f35b61034e600480360360608110156102f857600080fd5b81019080803573ffffffffffffffffffffffffffffffffffffffff169060200190929190803573ffffffffffffffffffffffffffffffffffffffff16906020019092919080359060200190929190505050610e7d565b604051808215151515815260200191505060405180910390f35b6103b46004803603604081101561037e57600080fd5b81019080803573ffffffffffffffffffffffffffffffffffffffff16906020019092919080359060200190929190505050610f2e565b604051808215151515815260200191505060405180910390f35b61040e600480360360608110156103e457600080fd5b81019080803590602001909291908035906020019092919080359060200190929190505050610fd3565b005b6104466004803603604081101561042657600080fd5b81019080803590602001909291908035906020019092919050505061154d565b6040518082815260200191505060405180910390f35b610464611788565b604051808273ffffffffffffffffffffffffffffffffffffffff1673ffffffffffffffffffffffffffffffffffffffff16815260200191505060405180910390f35b6104e8600480360360208110156104bc57600080fd5b81019080803573ffffffffffffffffffffffffffffffffffffffff1690602001909291905050506117ae565b6040518082815260200191505060405180910390f35b6105066117f6565b6040518082815260200191505060405180910390f35b6105686004803603604081101561053257600080fd5b81019080803573ffffffffffffffffffffffffffffffffffffffff16906020019092919080359060200190929190505050611814565b604051808215151515815260200191505060405180910390f35b6105ce6004803603604081101561059857600080fd5b81019080803573ffffffffffffffffffffffffffffffffffffffff169060200190929190803590602001909291905050506118b9565b604051808215151515815260200191505060405180910390f35b6105f06118d0565b604051808273ffffffffffffffffffffffffffffffffffffffff1673ffffffffffffffffffffffffffffffffffffffff16815260200191505060405180910390f35b610793600480360360a081101561064857600080fd5b81019080803573ffffffffffffffffffffffffffffffffffffffff169060200190929190803573ffffffffffffffffffffffffffffffffffffffff169060200190929190803590602001906401000000008111156106a557600080fd5b8201836020820111156106b757600080fd5b803590602001918460208302840111640100000000831117156106d957600080fd5b9091929391929390803590602001906401000000008111156106fa57600080fd5b82018360208201111561070c57600080fd5b8035906020019184602083028401116401000000008311171561072e57600080fd5b90919293919293908035906020019064010000000081111561074f57600080fd5b82018360208201111561076157600080fd5b8035906020019184600183028401116401000000008311171561078357600080fd5b90919293919293905050506118f6565b60405180827bffffffffffffffffffffffffffffffffffffffffffffffffffffffff19167bffffffffffffffffffffffffffffffffffffffffffffffffffffffff1916815260200191505060405180910390f35b610827600480360360608110156107fd57600080fd5b81019080803590602001909291908035906020019092919080359060200190929190505050611987565b005b6108aa6004803603604081101561083f57600080fd5b81019080803590602001909291908035906020019064010000000081111561086657600080fd5b82018360208201111561087857600080fd5b8035906020019184602083028401116401000000008311171561089a57600080fd5b9091929391929390505050611d69565b005b6108d8600480360360208110156108c257600080fd5b81019080803590602001909291905050506126e8565b6040518082815260200191505060405180910390f35b6109506004803603604081101561090457600080fd5b81019080803573ffffffffffffffffffffffffffffffffffffffff169060200190929190803573ffffffffffffffffffffffffffffffffffffffff169060200190929190505050612709565b6040518082815260200191505060405180910390f35b61096e612790565b6040518082815260200191505060405180910390f35b6109b06004803603602081101561099a57600080fd5b8101908080359060200190929190505050612796565b005b610a7d600480360360a08110156109c857600080fd5b81019080803573ffffffffffffffffffffffffffffffffffffffff169060200190929190803573ffffffffffffffffffffffffffffffffffffffff169060200190929190803590602001909291908035906020019092919080359060200190640100000000811115610a3957600080fd5b820183602082011115610a4b57600080fd5b80359060200191846001830284011164010000000083111715610a6d57600080fd5b9091929391929390505050612c54565b60405180827bffffffffffffffffffffffffffffffffffffffffffffffffffffffff19167bffffffffffffffffffffffffffffffffffffffffffffffffffffffff1916815260200191505060405180910390f35b610b0760048036036040811015610ae757600080fd5b810190808035906020019092919080359060200190929190505050612cab565b6040518082815260200191505060405180910390f35b600060036000837bffffffffffffffffffffffffffffffffffffffffffffffffffffffff19167bffffffffffffffffffffffffffffffffffffffffffffffffffffffff1916815260200190815260200160002060009054906101000a900460ff169050919050565b6000610b92338484612ede565b6001905092915050565b6000610ba6610e73565b610bc3610bb2846117ae565b6008546130d590919063ffffffff16565b81610bca57fe5b0490506000610c21600c60008573ffffffffffffffffffffffffffffffffffffffff1673ffffffffffffffffffffffffffffffffffffffff168152602001908152602001600020548361315b90919063ffffffff16565b90506000811115610de25781600c60008573ffffffffffffffffffffffffffffffffffffffff1673ffffffffffffffffffffffffffffffffffffffff16815260200190815260200160002081905550610c8581600d546131e490919063ffffffff16565b600d81905550600560009054906101000a900473ffffffffffffffffffffffffffffffffffffffff1673ffffffffffffffffffffffffffffffffffffffff1663a9059cbb84836040518363ffffffff1660e01b8152600401808373ffffffffffffffffffffffffffffffffffffffff1673ffffffffffffffffffffffffffffffffffffffff16815260200182815260200192505050602060405180830381600087803b158015610d3457600080fd5b505af1158015610d48573d6000803e3d6000fd5b505050506040513d6020811015610d5e57600080fd5b8101908080519060200190929190505050610de1576040517f08c379a000000000000000000000000000000000000000000000000000000000815260040180806020018281038252601a8152602001807f7769746864726177616c207472616e73666572206661696c656400000000000081525060200191505060405180910390fd5b5b505050565b600080610df2610e73565b610e0f610dfe856117ae565b6008546130d590919063ffffffff16565b81610e1657fe5b049050610e6b600c60008573ffffffffffffffffffffffffffffffffffffffff1673ffffffffffffffffffffffffffffffffffffffff168152602001908152602001600020548261315b90919063ffffffff16565b915050919050565b6000600254905090565b6000610e8a84848461326c565b610f238433610f1e85600160008a73ffffffffffffffffffffffffffffffffffffffff1673ffffffffffffffffffffffffffffffffffffffff16815260200190815260200160002060003373ffffffffffffffffffffffffffffffffffffffff1673ffffffffffffffffffffffffffffffffffffffff1681526020019081526020016000205461315b90919063ffffffff16565b612ede565b600190509392505050565b6000610fc93384610fc485600160003373ffffffffffffffffffffffffffffffffffffffff1673ffffffffffffffffffffffffffffffffffffffff16815260200190815260200160002060008973ffffffffffffffffffffffffffffffffffffffff1673ffffffffffffffffffffffffffffffffffffffff168152602001908152602001600020546131e490919063ffffffff16565b612ede565b6001905092915050565b6000610fdf8484612cab565b905081811015611057576040517f08c379a000000000000000000000000000000000000000000000000000000000815260040180806020018281038252601e8152602001807f6d696e696d756d2062757920616d6f756e74206e6f742072656163686564000081525060200191505060405180910390fd5b600560009054906101000a900473ffffffffffffffffffffffffffffffffffffffff1673ffffffffffffffffffffffffffffffffffffffff166323b872dd3330876040518463ffffffff1660e01b8152600401808473ffffffffffffffffffffffffffffffffffffffff1673ffffffffffffffffffffffffffffffffffffffff1681526020018373ffffffffffffffffffffffffffffffffffffffff1673ffffffffffffffffffffffffffffffffffffffff1681526020018281526020019350505050602060405180830381600087803b15801561113457600080fd5b505af1158015611148573d6000803e3d6000fd5b505050506040513d602081101561115e57600080fd5b81019080805190602001909291905050506111e1576040517f08c379a00000000000000000000000000000000000000000000000000000000081526004018080602001828103825260148152602001807f636f7374207472616e73666572206661696c656400000000000000000000000081525060200191505060405180910390fd5b6000670de0b6b3a7640000611201600754876130d590919063ffffffff16565b8161120857fe5b049050611220816008546131e490919063ffffffff16565b600881905550600061123b828761315b90919063ffffffff16565b9050600560009054906101000a900473ffffffffffffffffffffffffffffffffffffffff1673ffffffffffffffffffffffffffffffffffffffff1663095ea7b3600460009054906101000a900473ffffffffffffffffffffffffffffffffffffffff16836040518363ffffffff1660e01b8152600401808373ffffffffffffffffffffffffffffffffffffffff1673ffffffffffffffffffffffffffffffffffffffff16815260200182815260200192505050602060405180830381600087803b15801561130857600080fd5b505af115801561131c573d6000803e3d6000fd5b505050506040513d602081101561133257600080fd5b81019080805190602001909291905050506113b5576040517f08c379a000000000000000000000000000000000000000000000000000000000815260040180806020018281038252601a8152602001807f617070726f76616c20666f722073706c697473206661696c656400000000000081525060200191505060405180910390fd5b6113be81613513565b600460009054906101000a900473ffffffffffffffffffffffffffffffffffffffff1673ffffffffffffffffffffffffffffffffffffffff1663f242432a3033600b898154811061140b57fe5b9060005260206000200154876040518563ffffffff1660e01b8152600401808573ffffffffffffffffffffffffffffffffffffffff1673ffffffffffffffffffffffffffffffffffffffff1681526020018473ffffffffffffffffffffffffffffffffffffffff1673ffffffffffffffffffffffffffffffffffffffff1681526020018381526020018281526020018060200182810382526000815260200160200195505050505050600060405180830381600087803b1580156114ce57600080fd5b505af11580156114e2573d6000803e3d6000fd5b50505050843373ffffffffffffffffffffffffffffffffffffffff167f4f62630f51608fc8a7603a9391a5101e58bd7c276139366fc107dc3b67c3dcf888858760405180848152602001838152602001828152602001935050505060405180910390a3505050505050565b6000600b8054905082106115c9576040517f08c379a00000000000000000000000000000000000000000000000000000000081526004018080602001828103825260158152602001807f696e76616c6964206f7574636f6d6520696e646578000000000000000000000081525060200191505060405180910390fd5b60606115d3613715565b905060006115f4600754670de0b6b3a764000061315b90919063ffffffff16565b61160f670de0b6b3a7640000876130d590919063ffffffff16565b8161161657fe5b049050600082858151811061162757fe5b60200260200101519050600061164e670de0b6b3a7640000836130d590919063ffffffff16565b905060008090505b84518110156116c6578681146116b957600085828151811061167457fe5b602002602001015190506116b5611694868361315b90919063ffffffff16565b6116a783866130d590919063ffffffff16565b61398d90919063ffffffff16565b9250505b8080600101915050611656565b506000811161173d576040517f08c379a000000000000000000000000000000000000000000000000000000000815260040180806020018281038252601b8152602001807f6d7573742068617665206e6f6e2d7a65726f2062616c616e636573000000000081525060200191505060405180910390fd5b61177c8261176e61175f670de0b6b3a76400008561398d90919063ffffffff16565b866131e490919063ffffffff16565b61315b90919063ffffffff16565b94505050505092915050565b600460009054906101000a900473ffffffffffffffffffffffffffffffffffffffff1681565b60008060008373ffffffffffffffffffffffffffffffffffffffff1673ffffffffffffffffffffffffffffffffffffffff168152602001908152602001600020549050919050565b600061180f600d5460085461315b90919063ffffffff16565b905090565b60006118af33846118aa85600160003373ffffffffffffffffffffffffffffffffffffffff1673ffffffffffffffffffffffffffffffffffffffff16815260200190815260200160002060008973ffffffffffffffffffffffffffffffffffffffff1673ffffffffffffffffffffffffffffffffffffffff1681526020019081526020016000205461315b90919063ffffffff16565b612ede565b6001905092915050565b60006118c633848461326c565b6001905092915050565b600560009054906101000a900473ffffffffffffffffffffffffffffffffffffffff1681565b60003073ffffffffffffffffffffffffffffffffffffffff168973ffffffffffffffffffffffffffffffffffffffff1614801561195f5750600073ffffffffffffffffffffffffffffffffffffffff168873ffffffffffffffffffffffffffffffffffffffff16145b156119735763bc197c8160e01b905061197b565b600060e01b90505b98975050505050505050565b6000611993848461154d565b905081811115611a0b576040517f08c379a000000000000000000000000000000000000000000000000000000000815260040180806020018281038252601c8152602001807f6d6178696d756d2073656c6c20616d6f756e742065786365656465640000000081525060200191505060405180910390fd5b600460009054906101000a900473ffffffffffffffffffffffffffffffffffffffff1673ffffffffffffffffffffffffffffffffffffffff1663f242432a3330600b8781548110611a5857fe5b9060005260206000200154856040518563ffffffff1660e01b8152600401808573ffffffffffffffffffffffffffffffffffffffff1673ffffffffffffffffffffffffffffffffffffffff1681526020018473ffffffffffffffffffffffffffffffffffffffff1673ffffffffffffffffffffffffffffffffffffffff1681526020018381526020018281526020018060200182810382526000815260200160200195505050505050600060405180830381600087803b158015611b1b57600080fd5b505af1158015611b2f573d6000803e3d6000fd5b505050506000611b52600754670de0b6b3a764000061315b90919063ffffffff16565b611b67600754876130d590919063ffffffff16565b81611b6e57fe5b049050611b86816008546131e490919063ffffffff16565b6008819055506000611ba182876131e490919063ffffffff16565b9050611bac816139c1565b600560009054906101000a900473ffffffffffffffffffffffffffffffffffffffff1673ffffffffffffffffffffffffffffffffffffffff1663a9059cbb33886040518363ffffffff1660e01b8152600401808373ffffffffffffffffffffffffffffffffffffffff1673ffffffffffffffffffffffffffffffffffffffff16815260200182815260200192505050602060405180830381600087803b158015611c5557600080fd5b505af1158015611c69573d6000803e3d6000fd5b505050506040513d6020811015611c7f57600080fd5b8101908080519060200190929190505050611d02576040517f08c379a00000000000000000000000000000000000000000000000000000000081526004018080602001828103825260168152602001807f72657475726e207472616e73666572206661696c65640000000000000000000081525060200191505060405180910390fd5b843373ffffffffffffffffffffffffffffffffffffffff167fadcf2a240ed9300d681d9a3f5382b6c1beed1b7e46643e0c7b42cbe6e2d766b488858760405180848152602001838152602001828152602001935050505060405180910390a3505050505050565b60008311611ddf576040517f08c379a00000000000000000000000000000000000000000000000000000000081526004018080602001828103825260188152602001807f66756e64696e67206d757374206265206e6f6e2d7a65726f000000000000000081525060200191505060405180910390fd5b6060600b80549050604051908082528060200260200182016040528015611e155781602001602082028038833980820191505090505b5090506000611e22610e73565b9050600080821115611f7e5760008585905014611e8a576040517f08c379a00000000000000000000000000000000000000000000000000000000081526004018080602001828103825260328152602001806142736032913960400191505060405180910390fd5b6060611e94613715565b9050600080905060008090505b8251811015611edc576000838281518110611eb857fe5b6020026020010151905080831015611ece578092505b508080600101915050611ea1565b5060008090505b8251811015611f5857600082611f15858481518110611efe57fe5b60200260200101518c6130d590919063ffffffff16565b81611f1c57fe5b049050611f32818b61315b90919063ffffffff16565b878381518110611f3e57fe5b602002602001018181525050508080600101915050611ee3565b5080611f6d858a6130d590919063ffffffff16565b81611f7457fe5b0492505050612148565b600085859050111561214457600b805490508585905014612007576040517f08c379a000000000000000000000000000000000000000000000000000000000815260040180806020018281038252600f8152602001807f68696e74206c656e677468206f6666000000000000000000000000000000000081525060200191505060405180910390fd5b600080905060008090505b8686905081101561204e57600087878381811061202b57fe5b90506020020135905080831015612040578092505b508080600101915050612012565b5060008090505b868690508110156121415760008261208889898581811061207257fe5b905060200201358b6130d590919063ffffffff16565b8161208f57fe5b04905060008111612108576040517f08c379a000000000000000000000000000000000000000000000000000000000815260040180806020018281038252601e8152602001807f6d7573742068696e7420612076616c696420646973747269627574696f6e000081525060200191505060405180910390fd5b61211b818a61315b90919063ffffffff16565b86838151811061212757fe5b602002602001018181525050508080600101915050612055565b50505b8590505b600560009054906101000a900473ffffffffffffffffffffffffffffffffffffffff1673ffffffffffffffffffffffffffffffffffffffff166323b872dd3330896040518463ffffffff1660e01b8152600401808473ffffffffffffffffffffffffffffffffffffffff1673ffffffffffffffffffffffffffffffffffffffff1681526020018373ffffffffffffffffffffffffffffffffffffffff1673ffffffffffffffffffffffffffffffffffffffff1681526020018281526020019350505050602060405180830381600087803b15801561222557600080fd5b505af1158015612239573d6000803e3d6000fd5b505050506040513d602081101561224f57600080fd5b81019080805190602001909291905050506122d2576040517f08c379a00000000000000000000000000000000000000000000000000000000081526004018080602001828103825260178152602001807f66756e64696e67207472616e73666572206661696c656400000000000000000081525060200191505060405180910390fd5b600560009054906101000a900473ffffffffffffffffffffffffffffffffffffffff1673ffffffffffffffffffffffffffffffffffffffff1663095ea7b3600460009054906101000a900473ffffffffffffffffffffffffffffffffffffffff16886040518363ffffffff1660e01b8152600401808373ffffffffffffffffffffffffffffffffffffffff1673ffffffffffffffffffffffffffffffffffffffff16815260200182815260200192505050602060405180830381600087803b15801561239d57600080fd5b505af11580156123b1573d6000803e3d6000fd5b505050506040513d60208110156123c757600080fd5b810190808051906020019092919050505061244a576040517f08c379a000000000000000000000000000000000000000000000000000000000815260040180806020018281038252601a8152602001807f617070726f76616c20666f722073706c697473206661696c656400000000000081525060200191505060405180910390fd5b61245386613513565b61245d3382613bbf565b600460009054906101000a900473ffffffffffffffffffffffffffffffffffffffff1673ffffffffffffffffffffffffffffffffffffffff16632eb2c2d63033600b876040518563ffffffff1660e01b8152600401808573ffffffffffffffffffffffffffffffffffffffff1673ffffffffffffffffffffffffffffffffffffffff1681526020018473ffffffffffffffffffffffffffffffffffffffff1673ffffffffffffffffffffffffffffffffffffffff168152602001806020018060200180602001848103845286818154815260200191508054801561256057602002820191906000526020600020905b81548152602001906001019080831161254c575b5050848103835285818151815260200191508051906020019060200280838360005b8381101561259d578082015181840152602081019050612582565b50505050905001848103825260008152602001602001975050505050505050600060405180830381600087803b1580156125d657600080fd5b505af11580156125ea573d6000803e3d6000fd5b5050505060008090505b83518110156126485761262384828151811061260c57fe5b60200260200101518861315b90919063ffffffff16565b84828151811061262f57fe5b60200260200101818152505080806001019150506125f4565b503373ffffffffffffffffffffffffffffffffffffffff167fec2dc3e5a3bb9aa0a1deb905d2bd23640d07f107e6ceb484024501aad964a95184836040518080602001838152602001828103825284818151815260200191508051906020019060200280838360005b838110156126cc5780820151818401526020810190506126b1565b50505050905001935050505060405180910390a2505050505050565b600681815481106126f557fe5b906000526020600020016000915090505481565b6000600160008473ffffffffffffffffffffffffffffffffffffffff1673ffffffffffffffffffffffffffffffffffffffff16815260200190815260200160002060008373ffffffffffffffffffffffffffffffffffffffff1673ffffffffffffffffffffffffffffffffffffffff16815260200190815260200160002054905092915050565b60075481565b60606127a0613715565b9050606081516040519080825280602002602001820160405280156127d45781602001602082028038833980820191505090505b50905060006127e1610e73565b905060008090505b835181101561284657816128198686848151811061280357fe5b60200260200101516130d590919063ffffffff16565b8161282057fe5b0483828151811061282d57fe5b60200260200101818152505080806001019150506127e9565b506000600560009054906101000a900473ffffffffffffffffffffffffffffffffffffffff1673ffffffffffffffffffffffffffffffffffffffff166370a08231306040518263ffffffff1660e01b8152600401808273ffffffffffffffffffffffffffffffffffffffff1673ffffffffffffffffffffffffffffffffffffffff16815260200191505060206040518083038186803b1580156128e857600080fd5b505afa1580156128fc573d6000803e3d6000fd5b505050506040513d602081101561291257600080fd5b8101908080519060200190929190505050905061292f3386613d86565b612a1b600560009054906101000a900473ffffffffffffffffffffffffffffffffffffffff1673ffffffffffffffffffffffffffffffffffffffff166370a08231306040518263ffffffff1660e01b8152600401808273ffffffffffffffffffffffffffffffffffffffff1673ffffffffffffffffffffffffffffffffffffffff16815260200191505060206040518083038186803b1580156129d157600080fd5b505afa1580156129e5573d6000803e3d6000fd5b505050506040513d60208110156129fb57600080fd5b81019080805190602001909291905050508261315b90919063ffffffff16565b9050600460009054906101000a900473ffffffffffffffffffffffffffffffffffffffff1673ffffffffffffffffffffffffffffffffffffffff16632eb2c2d63033600b876040518563ffffffff1660e01b8152600401808573ffffffffffffffffffffffffffffffffffffffff1673ffffffffffffffffffffffffffffffffffffffff1681526020018473ffffffffffffffffffffffffffffffffffffffff1673ffffffffffffffffffffffffffffffffffffffff1681526020018060200180602001806020018481038452868181548152602001915080548015612b2057602002820191906000526020600020905b815481526020019060010190808311612b0c575b5050848103835285818151815260200191508051906020019060200280838360005b83811015612b5d578082015181840152602081019050612b42565b50505050905001848103825260008152602001602001975050505050505050600060405180830381600087803b158015612b9657600080fd5b505af1158015612baa573d6000803e3d6000fd5b505050503373ffffffffffffffffffffffffffffffffffffffff167f8b4b2c8ebd04c47fc8bce136a85df9b93fcb1f47c8aa296457d4391519d190e78483886040518080602001848152602001838152602001828103825285818151815260200191508051906020019060200280838360005b83811015612c38578082015181840152602081019050612c1d565b5050505090500194505050505060405180910390a25050505050565b60003073ffffffffffffffffffffffffffffffffffffffff168773ffffffffffffffffffffffffffffffffffffffff161415612c995763f23a6e6160e01b9050612ca1565b600060e01b90505b9695505050505050565b6000600b805490508210612d27576040517f08c379a00000000000000000000000000000000000000000000000000000000081526004018080602001828103825260158152602001807f696e76616c6964206f7574636f6d6520696e646578000000000000000000000081525060200191505060405180910390fd5b6060612d31613715565b90506000612d6d670de0b6b3a7640000612d56600754886130d590919063ffffffff16565b81612d5d57fe5b048661315b90919063ffffffff16565b90506000828581518110612d7d57fe5b602002602001015190506000612da4670de0b6b3a7640000836130d590919063ffffffff16565b905060008090505b8451811015612e1c57868114612e0f576000858281518110612dca57fe5b60200260200101519050612e0b612dea86836131e490919063ffffffff16565b612dfd83866130d590919063ffffffff16565b61398d90919063ffffffff16565b9250505b8080600101915050612dac565b5060008111612e93576040517f08c379a000000000000000000000000000000000000000000000000000000000815260040180806020018281038252601b8152602001807f6d7573742068617665206e6f6e2d7a65726f2062616c616e636573000000000081525060200191505060405180910390fd5b612ed2612eb1670de0b6b3a76400008361398d90919063ffffffff16565b612ec485856131e490919063ffffffff16565b61315b90919063ffffffff16565b94505050505092915050565b600073ffffffffffffffffffffffffffffffffffffffff168373ffffffffffffffffffffffffffffffffffffffff161415612f64576040517f08c379a000000000000000000000000000000000000000000000000000000000815260040180806020018281038252602481526020018061430c6024913960400191505060405180910390fd5b600073ffffffffffffffffffffffffffffffffffffffff168273ffffffffffffffffffffffffffffffffffffffff161415612fea576040517f08c379a00000000000000000000000000000000000000000000000000000000081526004018080602001828103825260228152602001806142516022913960400191505060405180910390fd5b80600160008573ffffffffffffffffffffffffffffffffffffffff1673ffffffffffffffffffffffffffffffffffffffff16815260200190815260200160002060008473ffffffffffffffffffffffffffffffffffffffff1673ffffffffffffffffffffffffffffffffffffffff168152602001908152602001600020819055508173ffffffffffffffffffffffffffffffffffffffff168373ffffffffffffffffffffffffffffffffffffffff167f8c5be1e5ebec7d5bd14f71427d1e84f3dd0314c0f7b2291e5b200ac8c7c3b925836040518082815260200191505060405180910390a3505050565b6000808314156130e85760009050613155565b60008284029050828482816130f957fe5b0414613150576040517f08c379a00000000000000000000000000000000000000000000000000000000081526004018080602001828103825260218152602001806142a56021913960400191505060405180910390fd5b809150505b92915050565b6000828211156131d3576040517f08c379a000000000000000000000000000000000000000000000000000000000815260040180806020018281038252601e8152602001807f536166654d6174683a207375627472616374696f6e206f766572666c6f77000081525060200191505060405180910390fd5b600082840390508091505092915050565b600080828401905083811015613262576040517f08c379a000000000000000000000000000000000000000000000000000000000815260040180806020018281038252601b8152602001807f536166654d6174683a206164646974696f6e206f766572666c6f77000000000081525060200191505060405180910390fd5b8091505092915050565b600073ffffffffffffffffffffffffffffffffffffffff168373ffffffffffffffffffffffffffffffffffffffff1614156132f2576040517f08c379a00000000000000000000000000000000000000000000000000000000081526004018080602001828103825260258152602001806142e76025913960400191505060405180910390fd5b600073ffffffffffffffffffffffffffffffffffffffff168273ffffffffffffffffffffffffffffffffffffffff161415613378576040517f08c379a000000000000000000000000000000000000000000000000000000000815260040180806020018281038252602381526020018061422e6023913960400191505060405180910390fd5b613383838383613f30565b6133d4816000808673ffffffffffffffffffffffffffffffffffffffff1673ffffffffffffffffffffffffffffffffffffffff1681526020019081526020016000205461315b90919063ffffffff16565b6000808573ffffffffffffffffffffffffffffffffffffffff1673ffffffffffffffffffffffffffffffffffffffff16815260200190815260200160002081905550613467816000808573ffffffffffffffffffffffffffffffffffffffff1673ffffffffffffffffffffffffffffffffffffffff168152602001908152602001600020546131e490919063ffffffff16565b6000808473ffffffffffffffffffffffffffffffffffffffff1673ffffffffffffffffffffffffffffffffffffffff168152602001908152602001600020819055508173ffffffffffffffffffffffffffffffffffffffff168373ffffffffffffffffffffffffffffffffffffffff167fddf252ad1be2c89b69c2b068fc378daa952ba7f163c4a11628f55a4df523b3ef836040518082815260200191505060405180910390a3505050565b600060016006805490500390505b6000811261371157606061354b6009838154811061353b57fe5b90600052602060002001546141bb565b905060008090505b600a838154811061356057fe5b906000526020600020018054905081101561370157600460009054906101000a900473ffffffffffffffffffffffffffffffffffffffff1673ffffffffffffffffffffffffffffffffffffffff166372ce4275600560009054906101000a900473ffffffffffffffffffffffffffffffffffffffff16600a86815481106135e357fe5b9060005260206000200184815481106135f857fe5b90600052602060002001546006878154811061361057fe5b906000526020600020015486896040518663ffffffff1660e01b8152600401808673ffffffffffffffffffffffffffffffffffffffff1673ffffffffffffffffffffffffffffffffffffffff16815260200185815260200184815260200180602001838152602001828103825284818151815260200191508051906020019060200280838360005b838110156136b3578082015181840152602081019050613698565b505050509050019650505050505050600060405180830381600087803b1580156136dc57600080fd5b505af11580156136f0573d6000803e3d6000fd5b505050508080600101915050613553565b5050808060019003915050613521565b5050565b606080600b8054905060405190808252806020026020018201604052801561374c5781602001602082028038833980820191505090505b50905060008090505b600b805490508110156137b6573082828151811061376f57fe5b602002602001019073ffffffffffffffffffffffffffffffffffffffff16908173ffffffffffffffffffffffffffffffffffffffff16815250508080600101915050613755565b50600460009054906101000a900473ffffffffffffffffffffffffffffffffffffffff1673ffffffffffffffffffffffffffffffffffffffff16634e1273f482600b6040518363ffffffff1660e01b8152600401808060200180602001838103835285818151815260200191508051906020019060200280838360005b8381101561384e578082015181840152602081019050613833565b50505050905001838103825284818154815260200191508054801561389257602002820191906000526020600020905b81548152602001906001019080831161387e575b505094505050505060006040518083038186803b1580156138b257600080fd5b505afa1580156138c6573d6000803e3d6000fd5b505050506040513d6000823e3d601f19601f8201168201806040525060208110156138f057600080fd5b810190808051604051939291908464010000000082111561391057600080fd5b8382019150602082018581111561392657600080fd5b825186602082028301116401000000008211171561394357600080fd5b8083526020830192505050908051906020019060200280838360005b8381101561397a57808201518184015260208101905061395f565b5050505090500160405250505091505090565b6000808311156139ae5760018260018503816139a557fe5b040190506139bb565b8183816139b757fe5b0490505b92915050565b60008090505b600680549050811015613bbb5760606139f6600983815481106139e657fe5b90600052602060002001546141bb565b905060008090505b600a8381548110613a0b57fe5b9060005260206000200180549050811015613bac57600460009054906101000a900473ffffffffffffffffffffffffffffffffffffffff1673ffffffffffffffffffffffffffffffffffffffff16639e7212ad600560009054906101000a900473ffffffffffffffffffffffffffffffffffffffff16600a8681548110613a8e57fe5b906000526020600020018481548110613aa357fe5b906000526020600020015460068781548110613abb57fe5b906000526020600020015486896040518663ffffffff1660e01b8152600401808673ffffffffffffffffffffffffffffffffffffffff1673ffffffffffffffffffffffffffffffffffffffff16815260200185815260200184815260200180602001838152602001828103825284818151815260200191508051906020019060200280838360005b83811015613b5e578082015181840152602081019050613b43565b505050509050019650505050505050600060405180830381600087803b158015613b8757600080fd5b505af1158015613b9b573d6000803e3d6000fd5b5050505080806001019150506139fe565b505080806001019150506139c7565b5050565b600073ffffffffffffffffffffffffffffffffffffffff168273ffffffffffffffffffffffffffffffffffffffff161415613c62576040517f08c379a000000000000000000000000000000000000000000000000000000000815260040180806020018281038252601f8152602001807f45524332303a206d696e7420746f20746865207a65726f20616464726573730081525060200191505060405180910390fd5b613c6e60008383613f30565b613c83816002546131e490919063ffffffff16565b600281905550613cda816000808573ffffffffffffffffffffffffffffffffffffffff1673ffffffffffffffffffffffffffffffffffffffff168152602001908152602001600020546131e490919063ffffffff16565b6000808473ffffffffffffffffffffffffffffffffffffffff1673ffffffffffffffffffffffffffffffffffffffff168152602001908152602001600020819055508173ffffffffffffffffffffffffffffffffffffffff16600073ffffffffffffffffffffffffffffffffffffffff167fddf252ad1be2c89b69c2b068fc378daa952ba7f163c4a11628f55a4df523b3ef836040518082815260200191505060405180910390a35050565b600073ffffffffffffffffffffffffffffffffffffffff168273ffffffffffffffffffffffffffffffffffffffff161415613e0c576040517f08c379a00000000000000000000000000000000000000000000000000000000081526004018080602001828103825260218152602001806142c66021913960400191505060405180910390fd5b613e1882600083613f30565b613e69816000808573ffffffffffffffffffffffffffffffffffffffff1673ffffffffffffffffffffffffffffffffffffffff1681526020019081526020016000205461315b90919063ffffffff16565b6000808473ffffffffffffffffffffffffffffffffffffffff1673ffffffffffffffffffffffffffffffffffffffff16815260200190815260200160002081905550613ec08160025461315b90919063ffffffff16565b600281905550600073ffffffffffffffffffffffffffffffffffffffff168273ffffffffffffffffffffffffffffffffffffffff167fddf252ad1be2c89b69c2b068fc378daa952ba7f163c4a11628f55a4df523b3ef836040518082815260200191505060405180910390a35050565b600073ffffffffffffffffffffffffffffffffffffffff168373ffffffffffffffffffffffffffffffffffffffff1614613f6e57613f6d83610b9c565b5b6000613f78610e73565b90506000808214613fa65781613f99846008546130d590919063ffffffff16565b81613fa057fe5b04613fa8565b825b9050600073ffffffffffffffffffffffffffffffffffffffff168573ffffffffffffffffffffffffffffffffffffffff16146140935761403081600c60008873ffffffffffffffffffffffffffffffffffffffff1673ffffffffffffffffffffffffffffffffffffffff1681526020019081526020016000205461315b90919063ffffffff16565b600c60008773ffffffffffffffffffffffffffffffffffffffff1673ffffffffffffffffffffffffffffffffffffffff1681526020019081526020016000208190555061408881600d5461315b90919063ffffffff16565b600d819055506140af565b6140a8816008546131e490919063ffffffff16565b6008819055505b600073ffffffffffffffffffffffffffffffffffffffff168473ffffffffffffffffffffffffffffffffffffffff16146141985761413581600c60008773ffffffffffffffffffffffffffffffffffffffff1673ffffffffffffffffffffffffffffffffffffffff168152602001908152602001600020546131e490919063ffffffff16565b600c60008673ffffffffffffffffffffffffffffffffffffffff1673ffffffffffffffffffffffffffffffffffffffff1681526020019081526020016000208190555061418d81600d546131e490919063ffffffff16565b600d819055506141b4565b6141ad8160085461315b90919063ffffffff16565b6008819055505b5050505050565b6060816040519080825280602002602001820160405280156141ec5781602001602082028038833980820191505090505b50905060008090505b8281101561422757806001901b82828151811061420e57fe5b60200260200101818152505080806001019150506141f5565b5091905056fe45524332303a207472616e7366657220746f20746865207a65726f206164647265737345524332303a20617070726f766520746f20746865207a65726f206164647265737363616e6e6f742075736520646973747269627574696f6e2068696e7420616674657220696e697469616c2066756e64696e67536166654d6174683a206d756c7469706c69636174696f6e206f766572666c6f7745524332303a206275726e2066726f6d20746865207a65726f206164647265737345524332303a207472616e736665722066726f6d20746865207a65726f206164647265737345524332303a20617070726f76652066726f6d20746865207a65726f2061646472657373a265627a7a723158204b86a3d42b41ea4b45c68cb8b5769ae5464abe9ba4c2c04303e82f21857c680a64736f6c63430005100032",
  "source": "pragma solidity ^0.5.1;\n\nimport { SafeMath } from \"openzeppelin-solidity/contracts/math/SafeMath.sol\";\nimport { IERC20 } from \"openzeppelin-solidity/contracts/token/ERC20/IERC20.sol\";\nimport { ConditionalTokens } from \"@gnosis.pm/conditional-tokens-contracts/contracts/ConditionalTokens.sol\";\nimport { CTHelpers } from \"@gnosis.pm/conditional-tokens-contracts/contracts/CTHelpers.sol\";\nimport { ERC1155TokenReceiver } from \"@gnosis.pm/conditional-tokens-contracts/contracts/ERC1155/ERC1155TokenReceiver.sol\";\nimport { ERC20 } from \"./ERC20.sol\";\n\n\nlibrary CeilDiv {\n    // calculates ceil(x/y)\n    function ceildiv(uint x, uint y) internal pure returns (uint) {\n        if(x > 0) return ((x - 1) / y) + 1;\n        return x / y;\n    }\n}\n\n\ncontract FixedProductMarketMaker is ERC20, ERC1155TokenReceiver {\n    event FPMMFundingAdded(\n        address indexed funder,\n        uint[] amountsAdded,\n        uint sharesMinted\n    );\n    event FPMMFundingRemoved(\n        address indexed funder,\n        uint[] amountsRemoved,\n        uint collateralRemovedFromFeePool,\n        uint sharesBurnt\n    );\n    event FPMMBuy(\n        address indexed buyer,\n        uint investmentAmount,\n        uint feeAmount,\n        uint indexed outcomeIndex,\n        uint outcomeTokensBought\n    );\n    event FPMMSell(\n        address indexed seller,\n        uint returnAmount,\n        uint feeAmount,\n        uint indexed outcomeIndex,\n        uint outcomeTokensSold\n    );\n\n    using SafeMath for uint;\n    using CeilDiv for uint;\n\n    uint constant ONE = 10**18;\n\n    ConditionalTokens public conditionalTokens;\n    IERC20 public collateralToken;\n    bytes32[] public conditionIds;\n    uint public fee;\n    uint internal feePoolWeight;\n\n    uint[] outcomeSlotCounts;\n    bytes32[][] collectionIds;\n    uint[] positionIds;\n    mapping (address => uint256) withdrawnFees;\n    uint internal totalWithdrawnFees;\n\n    function getPoolBalances() private view returns (uint[] memory) {\n        address[] memory thises = new address[](positionIds.length);\n        for(uint i = 0; i < positionIds.length; i++) {\n            thises[i] = address(this);\n        }\n        return conditionalTokens.balanceOfBatch(thises, positionIds);\n    }\n\n    function generateBasicPartition(uint outcomeSlotCount)\n        private\n        pure\n        returns (uint[] memory partition)\n    {\n        partition = new uint[](outcomeSlotCount);\n        for(uint i = 0; i < outcomeSlotCount; i++) {\n            partition[i] = 1 << i;\n        }\n    }\n\n    function splitPositionThroughAllConditions(uint amount)\n        private\n    {\n        for(uint i = conditionIds.length - 1; int(i) >= 0; i--) {\n            uint[] memory partition = generateBasicPartition(outcomeSlotCounts[i]);\n            for(uint j = 0; j < collectionIds[i].length; j++) {\n                conditionalTokens.splitPosition(collateralToken, collectionIds[i][j], conditionIds[i], partition, amount);\n            }\n        }\n    }\n\n    function mergePositionsThroughAllConditions(uint amount)\n        private\n    {\n        for(uint i = 0; i < conditionIds.length; i++) {\n            uint[] memory partition = generateBasicPartition(outcomeSlotCounts[i]);\n            for(uint j = 0; j < collectionIds[i].length; j++) {\n                conditionalTokens.mergePositions(collateralToken, collectionIds[i][j], conditionIds[i], partition, amount);\n            }\n        }\n    }\n\n    function collectedFees() external view returns (uint) {\n        return feePoolWeight.sub(totalWithdrawnFees);\n    }\n\n    function feesWithdrawableBy(address account) public view returns (uint) {\n        uint rawAmount = feePoolWeight.mul(balanceOf(account)) / totalSupply();\n        return rawAmount.sub(withdrawnFees[account]);\n    }\n\n    function withdrawFees(address account) public {\n        uint rawAmount = feePoolWeight.mul(balanceOf(account)) / totalSupply();\n        uint withdrawableAmount = rawAmount.sub(withdrawnFees[account]);\n        if(withdrawableAmount > 0){\n            withdrawnFees[account] = rawAmount;\n            totalWithdrawnFees = totalWithdrawnFees.add(withdrawableAmount);\n            require(collateralToken.transfer(account, withdrawableAmount), \"withdrawal transfer failed\");\n        }\n    }\n\n    function _beforeTokenTransfer(address from, address to, uint256 amount) internal {\n        if (from != address(0)) {\n            withdrawFees(from);\n        }\n\n        uint totalSupply = totalSupply();\n        uint withdrawnFeesTransfer = totalSupply == 0 ?\n            amount :\n            feePoolWeight.mul(amount) / totalSupply;\n\n        if (from != address(0)) {\n            withdrawnFees[from] = withdrawnFees[from].sub(withdrawnFeesTransfer);\n            totalWithdrawnFees = totalWithdrawnFees.sub(withdrawnFeesTransfer);\n        } else {\n            feePoolWeight = feePoolWeight.add(withdrawnFeesTransfer);\n        }\n        if (to != address(0)) {\n            withdrawnFees[to] = withdrawnFees[to].add(withdrawnFeesTransfer);\n            totalWithdrawnFees = totalWithdrawnFees.add(withdrawnFeesTransfer);\n        } else {\n            feePoolWeight = feePoolWeight.sub(withdrawnFeesTransfer);\n        }\n    }\n\n    function addFunding(uint addedFunds, uint[] calldata distributionHint)\n        external\n    {\n        require(addedFunds > 0, \"funding must be non-zero\");\n\n        uint[] memory sendBackAmounts = new uint[](positionIds.length);\n        uint poolShareSupply = totalSupply();\n        uint mintAmount;\n        if(poolShareSupply > 0) {\n            require(distributionHint.length == 0, \"cannot use distribution hint after initial funding\");\n            uint[] memory poolBalances = getPoolBalances();\n            uint poolWeight = 0;\n            for(uint i = 0; i < poolBalances.length; i++) {\n                uint balance = poolBalances[i];\n                if(poolWeight < balance)\n                    poolWeight = balance;\n            }\n\n            for(uint i = 0; i < poolBalances.length; i++) {\n                uint remaining = addedFunds.mul(poolBalances[i]) / poolWeight;\n                sendBackAmounts[i] = addedFunds.sub(remaining);\n            }\n\n            mintAmount = addedFunds.mul(poolShareSupply) / poolWeight;\n        } else {\n            if(distributionHint.length > 0) {\n                require(distributionHint.length == positionIds.length, \"hint length off\");\n                uint maxHint = 0;\n                for(uint i = 0; i < distributionHint.length; i++) {\n                    uint hint = distributionHint[i];\n                    if(maxHint < hint)\n                        maxHint = hint;\n                }\n\n                for(uint i = 0; i < distributionHint.length; i++) {\n                    uint remaining = addedFunds.mul(distributionHint[i]) / maxHint;\n                    require(remaining > 0, \"must hint a valid distribution\");\n                    sendBackAmounts[i] = addedFunds.sub(remaining);\n                }\n            }\n\n            mintAmount = addedFunds;\n        }\n\n        require(collateralToken.transferFrom(msg.sender, address(this), addedFunds), \"funding transfer failed\");\n        require(collateralToken.approve(address(conditionalTokens), addedFunds), \"approval for splits failed\");\n        splitPositionThroughAllConditions(addedFunds);\n\n        _mint(msg.sender, mintAmount);\n\n        conditionalTokens.safeBatchTransferFrom(address(this), msg.sender, positionIds, sendBackAmounts, \"\");\n\n        // transform sendBackAmounts to array of amounts added\n        for (uint i = 0; i < sendBackAmounts.length; i++) {\n            sendBackAmounts[i] = addedFunds.sub(sendBackAmounts[i]);\n        }\n\n        emit FPMMFundingAdded(msg.sender, sendBackAmounts, mintAmount);\n    }\n\n    function removeFunding(uint sharesToBurn)\n        external\n    {\n        uint[] memory poolBalances = getPoolBalances();\n\n        uint[] memory sendAmounts = new uint[](poolBalances.length);\n\n        uint poolShareSupply = totalSupply();\n        for(uint i = 0; i < poolBalances.length; i++) {\n            sendAmounts[i] = poolBalances[i].mul(sharesToBurn) / poolShareSupply;\n        }\n\n        uint collateralRemovedFromFeePool = collateralToken.balanceOf(address(this));\n\n        _burn(msg.sender, sharesToBurn);\n        collateralRemovedFromFeePool = collateralRemovedFromFeePool.sub(\n            collateralToken.balanceOf(address(this))\n        );\n\n        conditionalTokens.safeBatchTransferFrom(address(this), msg.sender, positionIds, sendAmounts, \"\");\n\n        emit FPMMFundingRemoved(msg.sender, sendAmounts, collateralRemovedFromFeePool, sharesToBurn);\n    }\n\n    function onERC1155Received(\n        address operator,\n        address from,\n        uint256 id,\n        uint256 value,\n        bytes calldata data\n    )\n        external\n        returns (bytes4)\n    {\n        if (operator == address(this)) {\n            return this.onERC1155Received.selector;\n        }\n        return 0x0;\n    }\n\n    function onERC1155BatchReceived(\n        address operator,\n        address from,\n        uint256[] calldata ids,\n        uint256[] calldata values,\n        bytes calldata data\n    )\n        external\n        returns (bytes4)\n    {\n        if (operator == address(this) && from == address(0)) {\n            return this.onERC1155BatchReceived.selector;\n        }\n        return 0x0;\n    }\n\n    function calcBuyAmount(uint investmentAmount, uint outcomeIndex) public view returns (uint) {\n        require(outcomeIndex < positionIds.length, \"invalid outcome index\");\n\n        uint[] memory poolBalances = getPoolBalances();\n        uint investmentAmountMinusFees = investmentAmount.sub(investmentAmount.mul(fee) / ONE);\n        uint buyTokenPoolBalance = poolBalances[outcomeIndex];\n        uint endingOutcomeBalance = buyTokenPoolBalance.mul(ONE);\n        for(uint i = 0; i < poolBalances.length; i++) {\n            if(i != outcomeIndex) {\n                uint poolBalance = poolBalances[i];\n                endingOutcomeBalance = endingOutcomeBalance.mul(poolBalance).ceildiv(\n                    poolBalance.add(investmentAmountMinusFees)\n                );\n            }\n        }\n        require(endingOutcomeBalance > 0, \"must have non-zero balances\");\n\n        return buyTokenPoolBalance.add(investmentAmountMinusFees).sub(endingOutcomeBalance.ceildiv(ONE));\n    }\n\n    function calcSellAmount(uint returnAmount, uint outcomeIndex) public view returns (uint outcomeTokenSellAmount) {\n        require(outcomeIndex < positionIds.length, \"invalid outcome index\");\n\n        uint[] memory poolBalances = getPoolBalances();\n        uint returnAmountPlusFees = returnAmount.mul(ONE) / ONE.sub(fee);\n        uint sellTokenPoolBalance = poolBalances[outcomeIndex];\n        uint endingOutcomeBalance = sellTokenPoolBalance.mul(ONE);\n        for(uint i = 0; i < poolBalances.length; i++) {\n            if(i != outcomeIndex) {\n                uint poolBalance = poolBalances[i];\n                endingOutcomeBalance = endingOutcomeBalance.mul(poolBalance).ceildiv(\n                    poolBalance.sub(returnAmountPlusFees)\n                );\n            }\n        }\n        require(endingOutcomeBalance > 0, \"must have non-zero balances\");\n\n        return returnAmountPlusFees.add(endingOutcomeBalance.ceildiv(ONE)).sub(sellTokenPoolBalance);\n    }\n\n    function buy(uint investmentAmount, uint outcomeIndex, uint minOutcomeTokensToBuy) external {\n        uint outcomeTokensToBuy = calcBuyAmount(investmentAmount, outcomeIndex);\n        require(outcomeTokensToBuy >= minOutcomeTokensToBuy, \"minimum buy amount not reached\");\n\n        require(collateralToken.transferFrom(msg.sender, address(this), investmentAmount), \"cost transfer failed\");\n\n        uint feeAmount = investmentAmount.mul(fee) / ONE;\n        feePoolWeight = feePoolWeight.add(feeAmount);\n        uint investmentAmountMinusFees = investmentAmount.sub(feeAmount);\n        require(collateralToken.approve(address(conditionalTokens), investmentAmountMinusFees), \"approval for splits failed\");\n        splitPositionThroughAllConditions(investmentAmountMinusFees);\n\n        conditionalTokens.safeTransferFrom(address(this), msg.sender, positionIds[outcomeIndex], outcomeTokensToBuy, \"\");\n\n        emit FPMMBuy(msg.sender, investmentAmount, feeAmount, outcomeIndex, outcomeTokensToBuy);\n    }\n\n    function sell(uint returnAmount, uint outcomeIndex, uint maxOutcomeTokensToSell) external {\n        uint outcomeTokensToSell = calcSellAmount(returnAmount, outcomeIndex);\n        require(outcomeTokensToSell <= maxOutcomeTokensToSell, \"maximum sell amount exceeded\");\n\n        conditionalTokens.safeTransferFrom(msg.sender, address(this), positionIds[outcomeIndex], outcomeTokensToSell, \"\");\n\n        uint feeAmount = returnAmount.mul(fee) / (ONE.sub(fee));\n        feePoolWeight = feePoolWeight.add(feeAmount);\n        uint returnAmountPlusFees = returnAmount.add(feeAmount);\n        mergePositionsThroughAllConditions(returnAmountPlusFees);\n\n        require(collateralToken.transfer(msg.sender, returnAmount), \"return transfer failed\");\n\n        emit FPMMSell(msg.sender, returnAmount, feeAmount, outcomeIndex, outcomeTokensToSell);\n    }\n}\n\n\n// for proxying purposes\ncontract FixedProductMarketMakerData {\n    mapping (address => uint256) internal _balances;\n    mapping (address => mapping (address => uint256)) internal _allowances;\n    uint256 internal _totalSupply;\n\n\n    bytes4 internal constant _INTERFACE_ID_ERC165 = 0x01ffc9a7;\n    mapping(bytes4 => bool) internal _supportedInterfaces;\n\n\n    event FPMMFundingAdded(\n        address indexed funder,\n        uint[] amountsAdded,\n        uint sharesMinted\n    );\n    event FPMMFundingRemoved(\n        address indexed funder,\n        uint[] amountsRemoved,\n        uint collateralRemovedFromFeePool,\n        uint sharesBurnt\n    );\n    event FPMMBuy(\n        address indexed buyer,\n        uint investmentAmount,\n        uint feeAmount,\n        uint indexed outcomeIndex,\n        uint outcomeTokensBought\n    );\n    event FPMMSell(\n        address indexed seller,\n        uint returnAmount,\n        uint feeAmount,\n        uint indexed outcomeIndex,\n        uint outcomeTokensSold\n    );\n    ConditionalTokens internal conditionalTokens;\n    IERC20 internal collateralToken;\n    bytes32[] internal conditionIds;\n    uint internal fee;\n    uint internal feePoolWeight;\n\n    uint[] internal outcomeSlotCounts;\n    bytes32[][] internal collectionIds;\n    uint[] internal positionIds;\n    mapping (address => uint256) internal withdrawnFees;\n    uint internal totalWithdrawnFees;\n}\n",
  "sourcePath": "@gnosis.pm/conditional-tokens-market-makers/contracts/FixedProductMarketMaker.sol",
  "compiler": {
    "name": "solc",
    "version": "0.5.16+commit.9c3226ce.Emscripten.clang"
  },
  "schemaVersion": "3.3.2",
  "updatedAt": "2021-05-21T17:19:06.612Z",
  "devdoc": {
    "methods": {
      "allowance(address,address)": {
        "details": "See {IERC20-allowance}."
      },
      "approve(address,uint256)": {
        "details": "See {IERC20-approve}.     * Requirements:     * - `spender` cannot be the zero address."
      },
      "balanceOf(address)": {
        "details": "See {IERC20-balanceOf}."
      },
      "decreaseAllowance(address,uint256)": {
        "details": "Atomically decreases the allowance granted to `spender` by the caller.     * This is an alternative to {approve} that can be used as a mitigation for problems described in {IERC20-approve}.     * Emits an {Approval} event indicating the updated allowance.     * Requirements:     * - `spender` cannot be the zero address. - `spender` must have allowance for the caller of at least `subtractedValue`."
      },
      "increaseAllowance(address,uint256)": {
        "details": "Atomically increases the allowance granted to `spender` by the caller.     * This is an alternative to {approve} that can be used as a mitigation for problems described in {IERC20-approve}.     * Emits an {Approval} event indicating the updated allowance.     * Requirements:     * - `spender` cannot be the zero address."
      },
      "supportsInterface(bytes4)": {
        "details": "See `IERC165.supportsInterface`.     * Time complexity O(1), guaranteed to always use less than 30 000 gas."
      },
      "totalSupply()": {
        "details": "See {IERC20-totalSupply}."
      },
      "transfer(address,uint256)": {
        "details": "See {IERC20-transfer}.     * Requirements:     * - `recipient` cannot be the zero address. - the caller must have a balance of at least `amount`."
      },
      "transferFrom(address,address,uint256)": {
        "details": "See {IERC20-transferFrom}.     * Emits an {Approval} event indicating the updated allowance. This is not required by the EIP. See the note at the beginning of {ERC20};     * Requirements: - `sender` and `recipient` cannot be the zero address. - `sender` must have a balance of at least `amount`. - the caller must have allowance for `sender`'s tokens of at least `amount`."
      }
    }
  },
  "userdoc": {
    "methods": {}
  }
}