{
  "contractName": "FPMMDeterministicFactoryV2",
  "abi": [
    {
      "inputs": [],
      "payable": false,
      "stateMutability": "nonpayable",
      "type": "constructor"
    },
    {
      "anonymous": false,
      "inputs": [
        {
          "indexed": true,
          "internalType": "address",
          "name": "target",
          "type": "address"
        },
        {
          "indexed": false,
          "internalType": "address",
          "name": "clone",
          "type": "address"
        }
      ],
      "name": "CloneCreated",
      "type": "event"
    },
    {
      "anonymous": false,
      "inputs": [
        {
          "indexed": true,
          "internalType": "address",
          "name": "buyer",
          "type": "address"
        },
        {
          "indexed": false,
          "internalType": "uint256",
          "name": "investmentAmount",
          "type": "uint256"
        },
        {
          "indexed": false,
          "internalType": "uint256",
          "name": "feeAmount",
          "type": "uint256"
        },
        {
          "indexed": true,
          "internalType": "uint256",
          "name": "outcomeIndex",
          "type": "uint256"
        },
        {
          "indexed": false,
          "internalType": "uint256",
          "name": "outcomeTokensBought",
          "type": "uint256"
        }
      ],
      "name": "FPMMBuy",
      "type": "event"
    },
    {
      "anonymous": false,
      "inputs": [
        {
          "indexed": true,
          "internalType": "address",
          "name": "funder",
          "type": "address"
        },
        {
          "indexed": false,
          "internalType": "uint256[]",
          "name": "amountsAdded",
          "type": "uint256[]"
        },
        {
          "indexed": false,
          "internalType": "uint256",
          "name": "sharesMinted",
          "type": "uint256"
        }
      ],
      "name": "FPMMFundingAdded",
      "type": "event"
    },
    {
      "anonymous": false,
      "inputs": [
        {
          "indexed": true,
          "internalType": "address",
          "name": "funder",
          "type": "address"
        },
        {
          "indexed": false,
          "internalType": "uint256[]",
          "name": "amountsRemoved",
          "type": "uint256[]"
        },
        {
          "indexed": false,
          "internalType": "uint256",
          "name": "collateralRemovedFromFeePool",
          "type": "uint256"
        },
        {
          "indexed": false,
          "internalType": "uint256",
          "name": "sharesBurnt",
          "type": "uint256"
        }
      ],
      "name": "FPMMFundingRemoved",
      "type": "event"
    },
    {
      "anonymous": false,
      "inputs": [
        {
          "indexed": true,
          "internalType": "address",
          "name": "seller",
          "type": "address"
        },
        {
          "indexed": false,
          "internalType": "uint256",
          "name": "returnAmount",
          "type": "uint256"
        },
        {
          "indexed": false,
          "internalType": "uint256",
          "name": "feeAmount",
          "type": "uint256"
        },
        {
          "indexed": true,
          "internalType": "uint256",
          "name": "outcomeIndex",
          "type": "uint256"
        },
        {
          "indexed": false,
          "internalType": "uint256",
          "name": "outcomeTokensSold",
          "type": "uint256"
        }
      ],
      "name": "FPMMSell",
      "type": "event"
    },
    {
      "anonymous": false,
      "inputs": [
        {
          "indexed": true,
          "internalType": "address",
          "name": "creator",
          "type": "address"
        },
        {
          "indexed": false,
          "internalType": "contract FixedProductMarketMakerV2",
          "name": "fixedProductMarketMaker",
          "type": "address"
        },
        {
          "indexed": false,
          "internalType": "contract ConditionalTokens",
          "name": "conditionalTokens",
          "type": "address"
        },
        {
          "indexed": false,
          "internalType": "contract IERC20",
          "name": "collateralToken",
          "type": "address"
        },
        {
          "indexed": false,
          "internalType": "bytes32[]",
          "name": "conditionIds",
          "type": "bytes32[]"
        },
        {
          "indexed": false,
          "internalType": "uint256",
          "name": "fee",
          "type": "uint256"
        }
      ],
      "name": "FixedProductMarketMakerCreation",
      "type": "event"
    },
    {
      "constant": true,
      "inputs": [],
      "name": "factoryAddress",
      "outputs": [
        {
          "internalType": "address",
          "name": "",
          "type": "address"
        }
      ],
      "payable": false,
      "stateMutability": "view",
      "type": "function"
    },
    {
      "constant": true,
      "inputs": [],
      "name": "implementationMaster",
      "outputs": [
        {
          "internalType": "contract FixedProductMarketMakerV2",
          "name": "",
          "type": "address"
        }
      ],
      "payable": false,
      "stateMutability": "view",
      "type": "function"
    },
    {
      "constant": true,
      "inputs": [],
      "name": "protocolFeeDenominator",
      "outputs": [
        {
          "internalType": "uint8",
          "name": "",
          "type": "uint8"
        }
      ],
      "payable": false,
      "stateMutability": "view",
      "type": "function"
    },
    {
      "constant": true,
      "inputs": [],
      "name": "protocolFeeOn",
      "outputs": [
        {
          "internalType": "bool",
          "name": "",
          "type": "bool"
        }
      ],
      "payable": false,
      "stateMutability": "view",
      "type": "function"
    },
    {
      "constant": true,
      "inputs": [],
      "name": "protocolFeeSetter",
      "outputs": [
        {
          "internalType": "address",
          "name": "",
          "type": "address"
        }
      ],
      "payable": false,
      "stateMutability": "view",
      "type": "function"
    },
    {
      "constant": true,
      "inputs": [
        {
          "internalType": "bytes4",
          "name": "interfaceId",
          "type": "bytes4"
        }
      ],
      "name": "supportsInterface",
      "outputs": [
        {
          "internalType": "bool",
          "name": "",
          "type": "bool"
        }
      ],
      "payable": false,
      "stateMutability": "view",
      "type": "function"
    },
    {
      "constant": false,
      "inputs": [
        {
          "internalType": "bytes",
          "name": "consData",
          "type": "bytes"
        }
      ],
      "name": "cloneConstructor",
      "outputs": [],
      "payable": false,
      "stateMutability": "nonpayable",
      "type": "function"
    },
    {
      "constant": false,
      "inputs": [
        {
          "internalType": "address",
          "name": "operator",
          "type": "address"
        },
        {
          "internalType": "address",
          "name": "from",
          "type": "address"
        },
        {
          "internalType": "uint256",
          "name": "id",
          "type": "uint256"
        },
        {
          "internalType": "uint256",
          "name": "value",
          "type": "uint256"
        },
        {
          "internalType": "bytes",
          "name": "data",
          "type": "bytes"
        }
      ],
      "name": "onERC1155Received",
      "outputs": [
        {
          "internalType": "bytes4",
          "name": "",
          "type": "bytes4"
        }
      ],
      "payable": false,
      "stateMutability": "nonpayable",
      "type": "function"
    },
    {
      "constant": false,
      "inputs": [
        {
          "internalType": "address",
          "name": "operator",
          "type": "address"
        },
        {
          "internalType": "address",
          "name": "from",
          "type": "address"
        },
        {
          "internalType": "uint256[]",
          "name": "ids",
          "type": "uint256[]"
        },
        {
          "internalType": "uint256[]",
          "name": "values",
          "type": "uint256[]"
        },
        {
          "internalType": "bytes",
          "name": "data",
          "type": "bytes"
        }
      ],
      "name": "onERC1155BatchReceived",
      "outputs": [
        {
          "internalType": "bytes4",
          "name": "",
          "type": "bytes4"
        }
      ],
      "payable": false,
      "stateMutability": "nonpayable",
      "type": "function"
    },
    {
      "constant": false,
      "inputs": [
        {
          "internalType": "uint256",
          "name": "saltNonce",
          "type": "uint256"
        },
        {
          "internalType": "contract ConditionalTokens",
          "name": "conditionalTokens",
          "type": "address"
        },
        {
          "internalType": "contract IERC20",
          "name": "collateralToken",
          "type": "address"
        },
        {
          "internalType": "bytes32[]",
          "name": "conditionIds",
          "type": "bytes32[]"
        },
        {
          "internalType": "uint256",
          "name": "fee",
          "type": "uint256"
        },
        {
          "internalType": "uint256",
          "name": "initialFunds",
          "type": "uint256"
        },
        {
          "internalType": "uint256[]",
          "name": "distributionHint",
          "type": "uint256[]"
        }
      ],
      "name": "create2FixedProductMarketMaker",
      "outputs": [
        {
          "internalType": "contract FixedProductMarketMakerV2",
          "name": "",
          "type": "address"
        }
      ],
      "payable": false,
      "stateMutability": "nonpayable",
      "type": "function"
    },
    {
      "constant": false,
      "inputs": [
        {
          "internalType": "address[]",
          "name": "_tokens",
          "type": "address[]"
        },
        {
          "internalType": "address",
          "name": "_recipient",
          "type": "address"
        }
      ],
      "name": "withdrawProtocolFees",
      "outputs": [],
      "payable": false,
      "stateMutability": "nonpayable",
      "type": "function"
    },
    {
      "constant": false,
      "inputs": [
        {
          "internalType": "bool",
          "name": "_protocolFeeOn",
          "type": "bool"
        }
      ],
      "name": "setProtocolFeeOn",
      "outputs": [],
      "payable": false,
      "stateMutability": "nonpayable",
      "type": "function"
    },
    {
      "constant": false,
      "inputs": [
        {
          "internalType": "uint8",
          "name": "_protocolFeeDenominator",
          "type": "uint8"
        }
      ],
      "name": "setProtocolFeeDenominator",
      "outputs": [],
      "payable": false,
      "stateMutability": "nonpayable",
      "type": "function"
    },
    {
      "constant": false,
      "inputs": [
        {
          "internalType": "address",
          "name": "_protocolFeeSetter",
          "type": "address"
        }
      ],
      "name": "setProtocolFeeSetter",
      "outputs": [],
      "payable": false,
      "stateMutability": "nonpayable",
      "type": "function"
    }
  ],
  "bytecode": "0x60806040523480156200001157600080fd5b506200002a6301ffc9a760e01b6200013260201b60201c565b6200007f600073ffffffffffffffffffffffffffffffffffffffff1663bc197c81905060e01b600073ffffffffffffffffffffffffffffffffffffffff1663f23a6e61905060e01b186200013260201b60201c565b6040516200008d906200023c565b604051809103906000f080158015620000aa573d6000803e3d6000fd5b50600d60006101000a81548173ffffffffffffffffffffffffffffffffffffffff021916908373ffffffffffffffffffffffffffffffffffffffff16021790555033600f60006101000a81548173ffffffffffffffffffffffffffffffffffffffff021916908373ffffffffffffffffffffffffffffffffffffffff1602179055506200024a565b63ffffffff60e01b817bffffffffffffffffffffffffffffffffffffffffffffffffffffffff19161415620001cf576040517f08c379a000000000000000000000000000000000000000000000000000000000815260040180806020018281038252601c8152602001807f4552433136353a20696e76616c696420696e746572666163652069640000000081525060200191505060405180910390fd5b6001600c6000837bffffffffffffffffffffffffffffffffffffffffffffffffffffffff19167bffffffffffffffffffffffffffffffffffffffffffffffffffffffff1916815260200190815260200160002060006101000a81548160ff02191690831515021790555050565b61463c80620035cf83390190565b613375806200025a6000396000f3fe608060405234801561001057600080fd5b50600436106100ea5760003560e01c80638b4dc7301161008c578063bc197c8111610066578063bc197c8114610521578063cc6cfba3146106d6578063cce7609a14610720578063f23a6e6114610750576100ea565b80638b4dc7301461041c578063966dae0e1461043e5780639736f24b14610488576100ea565b80634588f88b116100c85780634588f88b146101c257806352e831dd14610206578063720d30a51461027f57806382e90fa0146102b0576100ea565b806301ffc9a7146100ef57806312b4d20c146101545780632ff7042a1461019e575b600080fd5b61013a6004803603602081101561010557600080fd5b8101908080357bffffffffffffffffffffffffffffffffffffffffffffffffffffffff1916906020019092919050505061086f565b604051808215151515815260200191505060405180910390f35b61015c6108d7565b604051808273ffffffffffffffffffffffffffffffffffffffff1673ffffffffffffffffffffffffffffffffffffffff16815260200191505060405180910390f35b6101a66108fd565b604051808260ff1660ff16815260200191505060405180910390f35b610204600480360360208110156101d857600080fd5b81019080803573ffffffffffffffffffffffffffffffffffffffff169060200190929190505050610910565b005b61027d6004803603602081101561021c57600080fd5b810190808035906020019064010000000081111561023957600080fd5b82018360208201111561024b57600080fd5b8035906020019184600183028401116401000000008311171561026d57600080fd5b9091929391929390505050610a9d565b005b6102ae6004803603602081101561029557600080fd5b81019080803560ff16906020019092919050505061105f565b005b6103da600480360360e08110156102c657600080fd5b8101908080359060200190929190803573ffffffffffffffffffffffffffffffffffffffff169060200190929190803573ffffffffffffffffffffffffffffffffffffffff1690602001909291908035906020019064010000000081111561032d57600080fd5b82018360208201111561033f57600080fd5b8035906020019184602083028401116401000000008311171561036157600080fd5b909192939192939080359060200190929190803590602001909291908035906020019064010000000081111561039657600080fd5b8201836020820111156103a857600080fd5b803590602001918460208302840111640100000000831117156103ca57600080fd5b90919293919293905050506111ba565b604051808273ffffffffffffffffffffffffffffffffffffffff1673ffffffffffffffffffffffffffffffffffffffff16815260200191505060405180910390f35b610424611873565b604051808215151515815260200191505060405180910390f35b610446611886565b604051808273ffffffffffffffffffffffffffffffffffffffff1673ffffffffffffffffffffffffffffffffffffffff16815260200191505060405180910390f35b61051f6004803603604081101561049e57600080fd5b81019080803590602001906401000000008111156104bb57600080fd5b8201836020820111156104cd57600080fd5b803590602001918460208302840111640100000000831117156104ef57600080fd5b9091929391929390803573ffffffffffffffffffffffffffffffffffffffff1690602001909291905050506118ac565b005b610682600480360360a081101561053757600080fd5b81019080803573ffffffffffffffffffffffffffffffffffffffff169060200190929190803573ffffffffffffffffffffffffffffffffffffffff1690602001909291908035906020019064010000000081111561059457600080fd5b8201836020820111156105a657600080fd5b803590602001918460208302840111640100000000831117156105c857600080fd5b9091929391929390803590602001906401000000008111156105e957600080fd5b8201836020820111156105fb57600080fd5b8035906020019184602083028401116401000000008311171561061d57600080fd5b90919293919293908035906020019064010000000081111561063e57600080fd5b82018360208201111561065057600080fd5b8035906020019184600183028401116401000000008311171561067257600080fd5b9091929391929390505050611b4b565b60405180827bffffffffffffffffffffffffffffffffffffffffffffffffffffffff19167bffffffffffffffffffffffffffffffffffffffffffffffffffffffff1916815260200191505060405180910390f35b6106de611cf2565b604051808273ffffffffffffffffffffffffffffffffffffffff1673ffffffffffffffffffffffffffffffffffffffff16815260200191505060405180910390f35b61074e6004803603602081101561073657600080fd5b81019080803515159060200190929190505050611d18565b005b61081b600480360360a081101561076657600080fd5b81019080803573ffffffffffffffffffffffffffffffffffffffff169060200190929190803573ffffffffffffffffffffffffffffffffffffffff1690602001909291908035906020019092919080359060200190929190803590602001906401000000008111156107d757600080fd5b8201836020820111156107e957600080fd5b8035906020019184600183028401116401000000008311171561080b57600080fd5b9091929391929390505050611df8565b60405180827bffffffffffffffffffffffffffffffffffffffffffffffffffffffff19167bffffffffffffffffffffffffffffffffffffffffffffffffffffffff1916815260200191505060405180910390f35b6000600c6000837bffffffffffffffffffffffffffffffffffffffffffffffffffffffff19167bffffffffffffffffffffffffffffffffffffffffffffffffffffffff1916815260200190815260200160002060009054906101000a900460ff169050919050565b600d60009054906101000a900473ffffffffffffffffffffffffffffffffffffffff1681565b600e60149054906101000a900460ff1681565b600f60009054906101000a900473ffffffffffffffffffffffffffffffffffffffff1673ffffffffffffffffffffffffffffffffffffffff163373ffffffffffffffffffffffffffffffffffffffff16146109d3576040517f08c379a00000000000000000000000000000000000000000000000000000000081526004018080602001828103825260158152602001807f6f6e6c7950726f746f636f6c466565536574746572000000000000000000000081525060200191505060405180910390fd5b600073ffffffffffffffffffffffffffffffffffffffff168173ffffffffffffffffffffffffffffffffffffffff161415610a59576040517f08c379a000000000000000000000000000000000000000000000000000000000815260040180806020018281038252602c8152602001806132f3602c913960400191505060405180910390fd5b80600f60006101000a81548173ffffffffffffffffffffffffffffffffffffffff021916908373ffffffffffffffffffffffffffffffffffffffff16021790555050565b6000806060600080868660a0811015610ab557600080fd5b81019080803573ffffffffffffffffffffffffffffffffffffffff169060200190929190803573ffffffffffffffffffffffffffffffffffffffff16906020019092919080359060200190640100000000811115610b1257600080fd5b820183602082011115610b2457600080fd5b80359060200191846020830284011164010000000083111715610b4657600080fd5b919080806020026020016040519081016040528093929190818152602001838360200280828437600081840152601f19601f82011690508083019250505050505050919291929080359060200190929190803573ffffffffffffffffffffffffffffffffffffffff169060200190929190505050945094509450945094506001600360006301ffc9a760e01b7bffffffffffffffffffffffffffffffffffffffffffffffffffffffff19167bffffffffffffffffffffffffffffffffffffffffffffffffffffffff1916815260200190815260200160002060006101000a81548160ff0219169083151502179055506001600360008073ffffffffffffffffffffffffffffffffffffffff1663bc197c81905060e01b600073ffffffffffffffffffffffffffffffffffffffff1663f23a6e61905060e01b187bffffffffffffffffffffffffffffffffffffffffffffffffffffffff19167bffffffffffffffffffffffffffffffffffffffffffffffffffffffff1916815260200190815260200160002060006101000a81548160ff02191690831515021790555084600460006101000a81548173ffffffffffffffffffffffffffffffffffffffff021916908373ffffffffffffffffffffffffffffffffffffffff16021790555083600560006101000a81548173ffffffffffffffffffffffffffffffffffffffff021916908373ffffffffffffffffffffffffffffffffffffffff1602179055508260069080519060200190610d7a929190613114565b508160078190555080600b60006101000a81548173ffffffffffffffffffffffffffffffffffffffff021916908373ffffffffffffffffffffffffffffffffffffffff160217905550600060019050600680549050604051908082528060200260200182016040528015610dfd5781602001602082028038833980820191505090505b5060089080519060200190610e13929190613161565b5060008090505b600680549050811015610f1f576000600460009054906101000a900473ffffffffffffffffffffffffffffffffffffffff1673ffffffffffffffffffffffffffffffffffffffff1663d42dc0c260068481548110610e7457fe5b90600052602060002001546040518263ffffffff1660e01b81526004018082815260200191505060206040518083038186803b158015610eb357600080fd5b505afa158015610ec7573d6000803e3d6000fd5b505050506040513d6020811015610edd57600080fd5b8101908080519060200190929190505050905080830292508060088381548110610f0357fe5b9060005260206000200181905550508080600101915050610e1a565b5060018111610f96576040517f08c379a00000000000000000000000000000000000000000000000000000000081526004018080602001828103825260188152602001807f636f6e646974696f6e73206d7573742062652076616c6964000000000000000081525060200191505060405180910390fd5b600680549050604051908082528060200260200182016040528015610fcf57816020015b6060815260200190600190039081610fba5790505b5060099080519060200190610fe59291906131ae565b50610ff86006805490506000801b611f3f565b80600a8054905014611055576040517f08c379a000000000000000000000000000000000000000000000000000000000815260040180806020018281038252602281526020018061331f6022913960400191505060405180910390fd5b5050505050505050565b600f60009054906101000a900473ffffffffffffffffffffffffffffffffffffffff1673ffffffffffffffffffffffffffffffffffffffff163373ffffffffffffffffffffffffffffffffffffffff1614611122576040517f08c379a00000000000000000000000000000000000000000000000000000000081526004018080602001828103825260158152602001807f6f6e6c7950726f746f636f6c466565536574746572000000000000000000000081525060200191505060405180910390fd5b60048160ff16101561119c576040517f08c379a00000000000000000000000000000000000000000000000000000000081526004018080602001828103825260148152602001807f6d6178203235252070726f746f636f6c2066656500000000000000000000000081525060200191505060405180910390fd5b80600e60146101000a81548160ff021916908360ff16021790555050565b6000806112dc600d60009054906101000a900473ffffffffffffffffffffffffffffffffffffffff168c8c8c8c8c8c30604051602001808773ffffffffffffffffffffffffffffffffffffffff1673ffffffffffffffffffffffffffffffffffffffff1681526020018673ffffffffffffffffffffffffffffffffffffffff1673ffffffffffffffffffffffffffffffffffffffff168152602001806020018481526020018373ffffffffffffffffffffffffffffffffffffffff1673ffffffffffffffffffffffffffffffffffffffff1681526020018281038252868682818152602001925060200280828437600081840152601f19601f82011690508083019250505097505050505050505060405160208183030381529060405261205b565b90503373ffffffffffffffffffffffffffffffffffffffff167f92e0912d3d7f3192cad5c7ae3b47fb97f9c465c1dd12a5c24fd901ddb3905f43828c8c8c8c8c604051808773ffffffffffffffffffffffffffffffffffffffff1673ffffffffffffffffffffffffffffffffffffffff1681526020018673ffffffffffffffffffffffffffffffffffffffff1673ffffffffffffffffffffffffffffffffffffffff1681526020018573ffffffffffffffffffffffffffffffffffffffff1673ffffffffffffffffffffffffffffffffffffffff168152602001806020018381526020018281038252858582818152602001925060200280828437600081840152601f19601f82011690508083019250505097505050505050505060405180910390a260008511156118625733600e60006101000a81548173ffffffffffffffffffffffffffffffffffffffff021916908373ffffffffffffffffffffffffffffffffffffffff1602179055508873ffffffffffffffffffffffffffffffffffffffff166323b872dd3330886040518463ffffffff1660e01b8152600401808473ffffffffffffffffffffffffffffffffffffffff1673ffffffffffffffffffffffffffffffffffffffff1681526020018373ffffffffffffffffffffffffffffffffffffffff1673ffffffffffffffffffffffffffffffffffffffff1681526020018281526020019350505050602060405180830381600087803b15801561150457600080fd5b505af1158015611518573d6000803e3d6000fd5b505050506040513d602081101561152e57600080fd5b8101908080519060200190929190505050508873ffffffffffffffffffffffffffffffffffffffff1663095ea7b382876040518363ffffffff1660e01b8152600401808373ffffffffffffffffffffffffffffffffffffffff1673ffffffffffffffffffffffffffffffffffffffff16815260200182815260200192505050602060405180830381600087803b1580156115c757600080fd5b505af11580156115db573d6000803e3d6000fd5b505050506040513d60208110156115f157600080fd5b8101908080519060200190929190505050508073ffffffffffffffffffffffffffffffffffffffff1663d5f15a468686866040518463ffffffff1660e01b815260040180848152602001806020018281038252848482818152602001925060200280828437600081840152601f19601f820116905080830192505050945050505050600060405180830381600087803b15801561168d57600080fd5b505af11580156116a1573d6000803e3d6000fd5b505050508073ffffffffffffffffffffffffffffffffffffffff1663a9059cbb338373ffffffffffffffffffffffffffffffffffffffff166370a08231306040518263ffffffff1660e01b8152600401808273ffffffffffffffffffffffffffffffffffffffff1673ffffffffffffffffffffffffffffffffffffffff16815260200191505060206040518083038186803b15801561173f57600080fd5b505afa158015611753573d6000803e3d6000fd5b505050506040513d602081101561176957600080fd5b81019080805190602001909291905050506040518363ffffffff1660e01b8152600401808373ffffffffffffffffffffffffffffffffffffffff1673ffffffffffffffffffffffffffffffffffffffff16815260200182815260200192505050602060405180830381600087803b1580156117e357600080fd5b505af11580156117f7573d6000803e3d6000fd5b505050506040513d602081101561180d57600080fd5b8101908080519060200190929190505050506000600e60006101000a81548173ffffffffffffffffffffffffffffffffffffffff021916908373ffffffffffffffffffffffffffffffffffffffff1602179055505b809150509998505050505050505050565b600e60159054906101000a900460ff1681565b600b60009054906101000a900473ffffffffffffffffffffffffffffffffffffffff1681565b600f60009054906101000a900473ffffffffffffffffffffffffffffffffffffffff1673ffffffffffffffffffffffffffffffffffffffff163373ffffffffffffffffffffffffffffffffffffffff161461196f576040517f08c379a00000000000000000000000000000000000000000000000000000000081526004018080602001828103825260158152602001807f6f6e6c7950726f746f636f6c466565536574746572000000000000000000000081525060200191505060405180910390fd5b60008090505b83839050811015611b4557600084848381811061198e57fe5b9050602002013573ffffffffffffffffffffffffffffffffffffffff16905060008173ffffffffffffffffffffffffffffffffffffffff166370a08231306040518263ffffffff1660e01b8152600401808273ffffffffffffffffffffffffffffffffffffffff1673ffffffffffffffffffffffffffffffffffffffff16815260200191505060206040518083038186803b158015611a2c57600080fd5b505afa158015611a40573d6000803e3d6000fd5b505050506040513d6020811015611a5657600080fd5b810190808051906020019092919050505090506000811115611b36578173ffffffffffffffffffffffffffffffffffffffff1663a9059cbb85836040518363ffffffff1660e01b8152600401808373ffffffffffffffffffffffffffffffffffffffff1673ffffffffffffffffffffffffffffffffffffffff16815260200182815260200192505050602060405180830381600087803b158015611af957600080fd5b505af1158015611b0d573d6000803e3d6000fd5b505050506040513d6020811015611b2357600080fd5b8101908080519060200190929190505050505b50508080600101915050611975565b50505050565b60003373ffffffffffffffffffffffffffffffffffffffff16632eb2c2d630600e60009054906101000a900473ffffffffffffffffffffffffffffffffffffffff168a8a8a8a8a8a6040518963ffffffff1660e01b8152600401808973ffffffffffffffffffffffffffffffffffffffff1673ffffffffffffffffffffffffffffffffffffffff1681526020018873ffffffffffffffffffffffffffffffffffffffff1673ffffffffffffffffffffffffffffffffffffffff16815260200180602001806020018060200184810384528a8a82818152602001925060200280828437600081840152601f19601f8201169050808301925050508481038352888882818152602001925060200280828437600081840152601f19601f8201169050808301925050508481038252868682818152602001925080828437600081840152601f19601f8201169050808301925050509b505050505050505050505050600060405180830381600087803b158015611cc457600080fd5b505af1158015611cd8573d6000803e3d6000fd5b5050505063bc197c8160e01b905098975050505050505050565b600f60009054906101000a900473ffffffffffffffffffffffffffffffffffffffff1681565b600f60009054906101000a900473ffffffffffffffffffffffffffffffffffffffff1673ffffffffffffffffffffffffffffffffffffffff163373ffffffffffffffffffffffffffffffffffffffff1614611ddb576040517f08c379a00000000000000000000000000000000000000000000000000000000081526004018080602001828103825260158152602001807f6f6e6c7950726f746f636f6c466565536574746572000000000000000000000081525060200191505060405180910390fd5b80600e60156101000a81548160ff02191690831515021790555050565b60003373ffffffffffffffffffffffffffffffffffffffff1663f242432a30600e60009054906101000a900473ffffffffffffffffffffffffffffffffffffffff16888888886040518763ffffffff1660e01b8152600401808773ffffffffffffffffffffffffffffffffffffffff1673ffffffffffffffffffffffffffffffffffffffff1681526020018673ffffffffffffffffffffffffffffffffffffffff1673ffffffffffffffffffffffffffffffffffffffff168152602001858152602001848152602001806020018281038252848482818152602001925080828437600081840152601f19601f820116905080830192505050975050505050505050600060405180830381600087803b158015611f1357600080fd5b505af1158015611f27573d6000803e3d6000fd5b5050505063f23a6e6160e01b90509695505050505050565b6000821415611fa457600a611f76600560009054906101000a900473ffffffffffffffffffffffffffffffffffffffff16836123ba565b9080600181540180825580915050906001820390600052602060002001600090919290919091505550612057565b818060019003925050600060088381548110611fbc57fe5b9060005260206000200154905060098381548110611fd657fe5b9060005260206000200182908060018154018082558091505090600182039060005260206000200160009091929091909150555060008090505b818110156120545761204784612042856006888154811061202d57fe5b9060005260206000200154856001901b612425565b611f3f565b8080600101915050612010565b50505b5050565b60006060826040516024018080602001828103825283818151815260200191508051906020019080838360005b838110156120a3578082015181840152602081019050612088565b50505050905090810190601f1680156120d05780820380516001836020036101000a031916815260200191505b50925050506040516020818303038152906040527f52e831dd000000000000000000000000000000000000000000000000000000007bffffffffffffffffffffffffffffffffffffffffffffffffffffffff19166020820180517bffffffffffffffffffffffffffffffffffffffffffffffffffffffff83818316178352505050509050606060638251016040519080825280601f01601f19166020018201604052801561218d5781602001600182028038833980820191505090505b5090507f3d3d606380380380913d393d73bebebebebebebebebebebebebebebebebebebe60208201526c010000000000000000000000003002602d8201527f5af4602a57600080fd5b602d8060366000396000f3363d3d373d3d3d363d73be60418201526c01000000000000000000000000860260608201527f5af43d82803e903d91602b57fd5bf30000000000000000000000000000000000607482015260008090505b825181101561229d5782818151811061224757fe5b602001015160f81c60f81b82826063018151811061226157fe5b60200101907effffffffffffffffffffffffffffffffffffffffffffffffffffffffffffff1916908160001a9053508080600101915050612232565b5060003386604051602001808373ffffffffffffffffffffffffffffffffffffffff1673ffffffffffffffffffffffffffffffffffffffff168152602001828152602001925050506040516020818303038152906040528051906020012090508151602083018282826000f595505050600073ffffffffffffffffffffffffffffffffffffffff168473ffffffffffffffffffffffffffffffffffffffff1614156123b0576040517f08c379a000000000000000000000000000000000000000000000000000000000815260040180806020018281038252600e8152602001807f63726561746532206661696c656400000000000000000000000000000000000081525060200191505060405180910390fd5b5050509392505050565b60008282604051602001808373ffffffffffffffffffffffffffffffffffffffff1673ffffffffffffffffffffffffffffffffffffffff1660601b8152601401828152602001925050506040516020818303038152906040528051906020012060001c905092915050565b600080838360405160200180838152602001828152602001925050506040516020818303038152906040528051906020012060001c905060008060ff83901c141590506000805b7f30644e72e131a029b85045b68181585d97816a916871ca8d3c208c16d87cfd478061249457fe5b6001850893507f30644e72e131a029b85045b68181585d97816a916871ca8d3c208c16d87cfd47806124c257fe5b60037f30644e72e131a029b85045b68181585d97816a916871ca8d3c208c16d87cfd47806124ec57fe5b7f30644e72e131a029b85045b68181585d97816a916871ca8d3c208c16d87cfd478061251457fe5b878809870908905061252581612959565b9150807f30644e72e131a029b85045b68181585d97816a916871ca8d3c208c16d87cfd478061255057fe5b838409141561246c57828015612570575060006002838161256d57fe5b06145b8061258f57508215801561258e575060016002838161258b57fe5b06145b5b156125ba57817f30644e72e131a029b85045b68181585d97816a916871ca8d3c208c16d87cfd470391505b60008860001c90506000811461290e57600060fe82901c1415935060028082901b901c90507f30644e72e131a029b85045b68181585d97816a916871ca8d3c208c16d87cfd478061260757fe5b60037f30644e72e131a029b85045b68181585d97816a916871ca8d3c208c16d87cfd478061263157fe5b7f30644e72e131a029b85045b68181585d97816a916871ca8d3c208c16d87cfd478061265957fe5b8485098409089150600061266c83612959565b9050848015612685575060006002828161268257fe5b06145b806126a45750841580156126a357506001600282816126a057fe5b06145b5b156126cf57807f30644e72e131a029b85045b68181585d97816a916871ca8d3c208c16d87cfd470390505b827f30644e72e131a029b85045b68181585d97816a916871ca8d3c208c16d87cfd47806126f857fe5b8283091461276e576040517f08c379a000000000000000000000000000000000000000000000000000000000815260040180806020018281038252601c8152602001807f696e76616c696420706172656e7420636f6c6c656374696f6e2049440000000081525060200191505060405180910390fd5b60006060600673ffffffffffffffffffffffffffffffffffffffff1688878686604051602001808581526020018481526020018381526020018281526020019450505050506040516020818303038152906040526040518082805190602001908083835b602083106127f557805182526020820191506020810190506020830392506127d2565b6001836020036101000a038019825116818451168082178552505050505050905001915050600060405180830381855afa9150503d8060008114612855576040519150601f19603f3d011682016040523d82523d6000602084013e61285a565b606091505b5091509150816128d2576040517f08c379a000000000000000000000000000000000000000000000000000000000815260040180806020018281038252600c8152602001807f6563616464206661696c6564000000000000000000000000000000000000000081525060200191505060405180910390fd5b8080602001905160408110156128e757600080fd5b81019080805190602001909291908051906020019092919050505080975081995050505050505b60016002848161291a57fe5b061415612947577f4000000000000000000000000000000000000000000000000000000000000000851894505b8460001b955050505050509392505050565b6000807f30644e72e131a029b85045b68181585d97816a916871ca8d3c208c16d87cfd47905080838409915080828309818182099050818184099250818385099350818484099250818384099050818182098281830990508281820990508281820990508281830991508282860994508285860991508282830991508282850993508284850991508282830991508282830991508282850991508282860994508285860991508282830991508282830991508282860991508282850993508284860994508285860991508282830991508282850993508284850991508282830990508281820990508281820990508281830991508282860994508285850993508284850991508282830991508282830991508282860994508285860991508282830991508282860991508282830991508282830991508282860991508282850993508284850991508282830990508281820990508281830990508281850990508281820990508281820990508281820990508281820990508281830991508282860994508285860991508282860991508282850993508284850991508282850991508282830991508282830990508281830990508281820983818209905083818209905083818209905083818209905083818309915050828183099150828286099450828585099350828485099150828286099450828585099350828486099450828585099350828486099450828586099150828286099150828283099150828285099350828485099150828283099150828286099450828585099350828485099150828285099150828286099450828585099350828486099450828585099350828485099150828283099150828285099150828286099450828586099150828286099150828285099350828486099450828585099350828486099450828585099350828485099150828285099150828283099150828286099450828585099350828485099150828285099150828283099150828286099450828586099150828283099050828182099050828183099050828186099050828182099050828182099050828182099050828182099050828183099150828285099350828486099450828585099350828486099450828586099150828286099150828283099150828283099150828283099150828286099150828285099350828485099150828285099150828283099150828286099450828586099150828286099150828285099350828486099450828586099150828283099150828285099350828486099450828586099150828285099350828486099450828585099350828485099150828285099150828286099450828585099350828485099150828285099150828283099150828283099150828286099450828586099150828283099150828283099150828286099150828285099350828486099450828586099150828286099050828182099050828182099050828183099150828285099350828485099150828286099450828585099350828486099450828585099350828486099450828585099350828485099150828285099050828185099150828283099150828283099150828282099150508181850993508184840992508183850993508184840992508183850993508184850990508181850990508181840992505080828409925080838409925080838409925080838409925080838409925080838409925080838409925080838409925080838409925080838409925080838409925080838409925080838409925080838409925080838409925080838409925080838409925080838409925080838409925080838409925080838409925080838409925080838409925080838409925080838409925080838409925080838409925080838409925080838409925080838409925080838409925080838409925080838409925080838409925080838409925080838409925080838409925080838409925080838409925080838409925080838409925080838409925080838409925080838409925080838409925080838409925080838409925080838409925080838409925080838409925080838409925080838409925080838409925080838409925080838409925080838409925080838409925080838409925080838409925080838409925080838409925080838409925080838409925080838409925080838409925080838409925080838409925080838409925080838409925080838409925080838409925080838409925080838409925080838409925080838409925080838409925080838409925080838409925080838409925080838409925080838409925080838409925080838409925080838409925080838409925080838409925080838409925080838409925080838409925080838409925080838409925080838409925080838409925080838409925080838409925080838409925080838409925080838409925080838409925080838409925080838409925080838409925080838409925080838409925080838409925080838409925080838409925080838409925080838409925080838409925080838409925080838409925080838409925080838409925080838409925080838409925080838409925080838409925080838409925080838409925080838409925080838409925080838409925080838409925080838409925080838409925080838409925080838309915050919050565b828054828255906000526020600020908101928215613150579160200282015b8281111561314f578251825591602001919060010190613134565b5b50905061315d919061320e565b5090565b82805482825590600052602060002090810192821561319d579160200282015b8281111561319c578251825591602001919060010190613181565b5b5090506131aa9190613233565b5090565b8280548282559060005260206000209081019282156131fd579160200282015b828111156131fc5782518290805190602001906131ec929190613258565b50916020019190600101906131ce565b5b50905061320a91906132a5565b5090565b61323091905b8082111561322c576000816000905550600101613214565b5090565b90565b61325591905b80821115613251576000816000905550600101613239565b5090565b90565b828054828255906000526020600020908101928215613294579160200282015b82811115613293578251825591602001919060010190613278565b5b5090506132a1919061320e565b5090565b6132ce91905b808211156132ca57600081816132c191906132d1565b506001016132ab565b5090565b90565b50805460008255906000526020600020908101906132ef919061320e565b5056fe63616e6e6f74207365742070726f746f636f6c46656553657474657220746f207a65726f2061646472657373706f736974696f6e2049447320636f6e737472756374696f6e206661696c6564213fa265627a7a723158202c2059bd21c563548bdbe7124e66222d3787c94ccf7aebe00e7aea9efe6a40bf64736f6c6343000510003260806040526200001c6301ffc9a760e01b6200007760201b60201c565b62000071600073ffffffffffffffffffffffffffffffffffffffff1663bc197c81905060e01b600073ffffffffffffffffffffffffffffffffffffffff1663f23a6e61905060e01b186200007760201b60201c565b62000181565b63ffffffff60e01b817bffffffffffffffffffffffffffffffffffffffffffffffffffffffff1916141562000114576040517f08c379a000000000000000000000000000000000000000000000000000000000815260040180806020018281038252601c8152602001807f4552433136353a20696e76616c696420696e746572666163652069640000000081525060200191505060405180910390fd5b600160036000837bffffffffffffffffffffffffffffffffffffffffffffffffffffffff19167bffffffffffffffffffffffffffffffffffffffffffffffffffffffff1916815260200190815260200160002060006101000a81548160ff02191690831515021790555050565b6144ab80620001916000396000f3fe608060405234801561001057600080fd5b50600436106101425760003560e01c8063a9059cbb116100b8578063d8c55af71161007c578063d8c55af714610826578063dd62ed3e14610868578063ddca3f43146108e0578063e03031a6146108fe578063f23a6e611461092c578063f55c79d014610a4b57610142565b8063a9059cbb146104fc578063b2016bd414610562578063bc197c81146105ac578063d3c9727c14610761578063d5f15a46146107a357610142565b806340993b261161010a57806340993b261461031c5780634343116a1461035e5780635bd9e299146103aa57806370a08231146103f4578063966dae0e1461044c578063a457c2d71461049657610142565b806301ffc9a714610147578063095ea7b3146101ac57806318160ddd1461021257806323b872dd1461023057806339509351146102b6575b600080fd5b6101926004803603602081101561015d57600080fd5b8101908080357bffffffffffffffffffffffffffffffffffffffffffffffffffffffff19169060200190929190505050610a97565b604051808215151515815260200191505060405180910390f35b6101f8600480360360408110156101c257600080fd5b81019080803573ffffffffffffffffffffffffffffffffffffffff16906020019092919080359060200190929190505050610aff565b604051808215151515815260200191505060405180910390f35b61021a610b16565b6040518082815260200191505060405180910390f35b61029c6004803603606081101561024657600080fd5b81019080803573ffffffffffffffffffffffffffffffffffffffff169060200190929190803573ffffffffffffffffffffffffffffffffffffffff16906020019092919080359060200190929190505050610b20565b604051808215151515815260200191505060405180910390f35b610302600480360360408110156102cc57600080fd5b81019080803573ffffffffffffffffffffffffffffffffffffffff16906020019092919080359060200190929190505050610bd1565b604051808215151515815260200191505060405180910390f35b61035c6004803603606081101561033257600080fd5b81019080803590602001909291908035906020019092919080359060200190929190505050610c76565b005b6103946004803603604081101561037457600080fd5b8101908080359060200190929190803590602001909291905050506114ac565b6040518082815260200191505060405180910390f35b6103b26116e7565b604051808273ffffffffffffffffffffffffffffffffffffffff1673ffffffffffffffffffffffffffffffffffffffff16815260200191505060405180910390f35b6104366004803603602081101561040a57600080fd5b81019080803573ffffffffffffffffffffffffffffffffffffffff16906020019092919050505061170d565b6040518082815260200191505060405180910390f35b610454611755565b604051808273ffffffffffffffffffffffffffffffffffffffff1673ffffffffffffffffffffffffffffffffffffffff16815260200191505060405180910390f35b6104e2600480360360408110156104ac57600080fd5b81019080803573ffffffffffffffffffffffffffffffffffffffff1690602001909291908035906020019092919050505061177b565b604051808215151515815260200191505060405180910390f35b6105486004803603604081101561051257600080fd5b81019080803573ffffffffffffffffffffffffffffffffffffffff16906020019092919080359060200190929190505050611820565b604051808215151515815260200191505060405180910390f35b61056a611837565b604051808273ffffffffffffffffffffffffffffffffffffffff1673ffffffffffffffffffffffffffffffffffffffff16815260200191505060405180910390f35b61070d600480360360a08110156105c257600080fd5b81019080803573ffffffffffffffffffffffffffffffffffffffff169060200190929190803573ffffffffffffffffffffffffffffffffffffffff1690602001909291908035906020019064010000000081111561061f57600080fd5b82018360208201111561063157600080fd5b8035906020019184602083028401116401000000008311171561065357600080fd5b90919293919293908035906020019064010000000081111561067457600080fd5b82018360208201111561068657600080fd5b803590602001918460208302840111640100000000831117156106a857600080fd5b9091929391929390803590602001906401000000008111156106c957600080fd5b8201836020820111156106db57600080fd5b803590602001918460018302840111640100000000831117156106fd57600080fd5b909192939192939050505061185d565b60405180827bffffffffffffffffffffffffffffffffffffffffffffffffffffffff19167bffffffffffffffffffffffffffffffffffffffffffffffffffffffff1916815260200191505060405180910390f35b6107a16004803603606081101561077757600080fd5b810190808035906020019092919080359060200190929190803590602001909291905050506118ee565b005b610824600480360360408110156107b957600080fd5b8101908080359060200190929190803590602001906401000000008111156107e057600080fd5b8201836020820111156107f257600080fd5b8035906020019184602083028401116401000000008311171561081457600080fd5b90919293919293905050506120dd565b005b6108526004803603602081101561083c57600080fd5b8101908080359060200190929190505050612a5c565b6040518082815260200191505060405180910390f35b6108ca6004803603604081101561087e57600080fd5b81019080803573ffffffffffffffffffffffffffffffffffffffff169060200190929190803573ffffffffffffffffffffffffffffffffffffffff169060200190929190505050612a7d565b6040518082815260200191505060405180910390f35b6108e8612b04565b6040518082815260200191505060405180910390f35b61092a6004803603602081101561091457600080fd5b8101908080359060200190929190505050612b0a565b005b6109f7600480360360a081101561094257600080fd5b81019080803573ffffffffffffffffffffffffffffffffffffffff169060200190929190803573ffffffffffffffffffffffffffffffffffffffff1690602001909291908035906020019092919080359060200190929190803590602001906401000000008111156109b357600080fd5b8201836020820111156109c557600080fd5b803590602001918460018302840111640100000000831117156109e757600080fd5b9091929391929390505050612fc8565b60405180827bffffffffffffffffffffffffffffffffffffffffffffffffffffffff19167bffffffffffffffffffffffffffffffffffffffffffffffffffffffff1916815260200191505060405180910390f35b610a8160048036036040811015610a6157600080fd5b81019080803590602001909291908035906020019092919050505061301f565b6040518082815260200191505060405180910390f35b600060036000837bffffffffffffffffffffffffffffffffffffffffffffffffffffffff19167bffffffffffffffffffffffffffffffffffffffffffffffffffffffff1916815260200190815260200160002060009054906101000a900460ff169050919050565b6000610b0c338484613252565b6001905092915050565b6000600254905090565b6000610b2d848484613449565b610bc68433610bc185600160008a73ffffffffffffffffffffffffffffffffffffffff1673ffffffffffffffffffffffffffffffffffffffff16815260200190815260200160002060003373ffffffffffffffffffffffffffffffffffffffff1673ffffffffffffffffffffffffffffffffffffffff168152602001908152602001600020546136e590919063ffffffff16565b613252565b600190509392505050565b6000610c6c3384610c6785600160003373ffffffffffffffffffffffffffffffffffffffff1673ffffffffffffffffffffffffffffffffffffffff16815260200190815260200160002060008973ffffffffffffffffffffffffffffffffffffffff1673ffffffffffffffffffffffffffffffffffffffff1681526020019081526020016000205461372f90919063ffffffff16565b613252565b6001905092915050565b6000610c82848461301f565b905081811015610cfa576040517f08c379a000000000000000000000000000000000000000000000000000000000815260040180806020018281038252601e8152602001807f6d696e696d756d2062757920616d6f756e74206e6f742072656163686564000081525060200191505060405180910390fd5b600560009054906101000a900473ffffffffffffffffffffffffffffffffffffffff1673ffffffffffffffffffffffffffffffffffffffff166323b872dd3330876040518463ffffffff1660e01b8152600401808473ffffffffffffffffffffffffffffffffffffffff1673ffffffffffffffffffffffffffffffffffffffff1681526020018373ffffffffffffffffffffffffffffffffffffffff1673ffffffffffffffffffffffffffffffffffffffff1681526020018281526020019350505050602060405180830381600087803b158015610dd757600080fd5b505af1158015610deb573d6000803e3d6000fd5b505050506040513d6020811015610e0157600080fd5b8101908080519060200190929190505050610e84576040517f08c379a00000000000000000000000000000000000000000000000000000000081526004018080602001828103825260148152602001807f636f7374207472616e73666572206661696c656400000000000000000000000081525060200191505060405180910390fd5b6000670de0b6b3a7640000610ea4600754876137b790919063ffffffff16565b81610eab57fe5b04905060008590506000600b60009054906101000a900473ffffffffffffffffffffffffffffffffffffffff16905060008173ffffffffffffffffffffffffffffffffffffffff16638b4dc7306040518163ffffffff1660e01b815260040160206040518083038186803b158015610f2257600080fd5b505afa158015610f36573d6000803e3d6000fd5b505050506040513d6020811015610f4c57600080fd5b8101908080519060200190929190505050905060008273ffffffffffffffffffffffffffffffffffffffff16632ff7042a6040518163ffffffff1660e01b815260040160206040518083038186803b158015610fa757600080fd5b505afa158015610fbb573d6000803e3d6000fd5b505050506040513d6020811015610fd157600080fd5b81019080805190602001909291905050509050818015610ff4575060008160ff16115b156111995760008160ff16868161100757fe5b04905061101d81866136e590919063ffffffff16565b9450600560009054906101000a900473ffffffffffffffffffffffffffffffffffffffff1673ffffffffffffffffffffffffffffffffffffffff1663a9059cbb600b60009054906101000a900473ffffffffffffffffffffffffffffffffffffffff16836040518363ffffffff1660e01b8152600401808373ffffffffffffffffffffffffffffffffffffffff1673ffffffffffffffffffffffffffffffffffffffff16815260200182815260200192505050602060405180830381600087803b1580156110ea57600080fd5b505af11580156110fe573d6000803e3d6000fd5b505050506040513d602081101561111457600080fd5b8101908080519060200190929190505050611197576040517f08c379a000000000000000000000000000000000000000000000000000000000815260040180806020018281038252601c8152602001807f70726f746f636f6c20666565207472616e73666572206661696c65640000000081525060200191505060405180910390fd5b505b600560009054906101000a900473ffffffffffffffffffffffffffffffffffffffff1673ffffffffffffffffffffffffffffffffffffffff1663095ea7b3600460009054906101000a900473ffffffffffffffffffffffffffffffffffffffff16866040518363ffffffff1660e01b8152600401808373ffffffffffffffffffffffffffffffffffffffff1673ffffffffffffffffffffffffffffffffffffffff16815260200182815260200192505050602060405180830381600087803b15801561126457600080fd5b505af1158015611278573d6000803e3d6000fd5b505050506040513d602081101561128e57600080fd5b8101908080519060200190929190505050611311576040517f08c379a000000000000000000000000000000000000000000000000000000000815260040180806020018281038252601a8152602001807f617070726f76616c20666f722073706c697473206661696c656400000000000081525060200191505060405180910390fd5b61131a8461383d565b600460009054906101000a900473ffffffffffffffffffffffffffffffffffffffff1673ffffffffffffffffffffffffffffffffffffffff1663f242432a3033600a8c8154811061136757fe5b90600052602060002001548a6040518563ffffffff1660e01b8152600401808573ffffffffffffffffffffffffffffffffffffffff1673ffffffffffffffffffffffffffffffffffffffff1681526020018473ffffffffffffffffffffffffffffffffffffffff1673ffffffffffffffffffffffffffffffffffffffff1681526020018381526020018281526020018060200182810382526000815260200160200195505050505050600060405180830381600087803b15801561142a57600080fd5b505af115801561143e573d6000803e3d6000fd5b50505050873373ffffffffffffffffffffffffffffffffffffffff167f4f62630f51608fc8a7603a9391a5101e58bd7c276139366fc107dc3b67c3dcf88b888a60405180848152602001838152602001828152602001935050505060405180910390a3505050505050505050565b6000600a805490508210611528576040517f08c379a00000000000000000000000000000000000000000000000000000000081526004018080602001828103825260158152602001807f696e76616c6964206f7574636f6d6520696e646578000000000000000000000081525060200191505060405180910390fd5b6060611532613a3f565b90506000611553600754670de0b6b3a76400006136e590919063ffffffff16565b61156e670de0b6b3a7640000876137b790919063ffffffff16565b8161157557fe5b049050600082858151811061158657fe5b6020026020010151905060006115ad670de0b6b3a7640000836137b790919063ffffffff16565b905060008090505b8451811015611625578681146116185760008582815181106115d357fe5b602002602001015190506116146115f386836136e590919063ffffffff16565b61160683866137b790919063ffffffff16565b613cb790919063ffffffff16565b9250505b80806001019150506115b5565b506000811161169c576040517f08c379a000000000000000000000000000000000000000000000000000000000815260040180806020018281038252601b8152602001807f6d7573742068617665206e6f6e2d7a65726f2062616c616e636573000000000081525060200191505060405180910390fd5b6116db826116cd6116be670de0b6b3a764000085613cb790919063ffffffff16565b8661372f90919063ffffffff16565b6136e590919063ffffffff16565b94505050505092915050565b600460009054906101000a900473ffffffffffffffffffffffffffffffffffffffff1681565b60008060008373ffffffffffffffffffffffffffffffffffffffff1673ffffffffffffffffffffffffffffffffffffffff168152602001908152602001600020549050919050565b600b60009054906101000a900473ffffffffffffffffffffffffffffffffffffffff1681565b6000611816338461181185600160003373ffffffffffffffffffffffffffffffffffffffff1673ffffffffffffffffffffffffffffffffffffffff16815260200190815260200160002060008973ffffffffffffffffffffffffffffffffffffffff1673ffffffffffffffffffffffffffffffffffffffff168152602001908152602001600020546136e590919063ffffffff16565b613252565b6001905092915050565b600061182d338484613449565b6001905092915050565b600560009054906101000a900473ffffffffffffffffffffffffffffffffffffffff1681565b60003073ffffffffffffffffffffffffffffffffffffffff168973ffffffffffffffffffffffffffffffffffffffff161480156118c65750600073ffffffffffffffffffffffffffffffffffffffff168873ffffffffffffffffffffffffffffffffffffffff16145b156118da5763bc197c8160e01b90506118e2565b600060e01b90505b98975050505050505050565b60006118fa84846114ac565b905081811115611972576040517f08c379a000000000000000000000000000000000000000000000000000000000815260040180806020018281038252601c8152602001807f6d6178696d756d2073656c6c20616d6f756e742065786365656465640000000081525060200191505060405180910390fd5b600460009054906101000a900473ffffffffffffffffffffffffffffffffffffffff1673ffffffffffffffffffffffffffffffffffffffff1663f242432a3330600a87815481106119bf57fe5b9060005260206000200154856040518563ffffffff1660e01b8152600401808573ffffffffffffffffffffffffffffffffffffffff1673ffffffffffffffffffffffffffffffffffffffff1681526020018473ffffffffffffffffffffffffffffffffffffffff1673ffffffffffffffffffffffffffffffffffffffff1681526020018381526020018281526020018060200182810382526000815260200160200195505050505050600060405180830381600087803b158015611a8257600080fd5b505af1158015611a96573d6000803e3d6000fd5b505050506000611ab9600754670de0b6b3a76400006136e590919063ffffffff16565b611ace600754876137b790919063ffffffff16565b81611ad557fe5b0490506000600b60009054906101000a900473ffffffffffffffffffffffffffffffffffffffff16905060008173ffffffffffffffffffffffffffffffffffffffff16638b4dc7306040518163ffffffff1660e01b815260040160206040518083038186803b158015611b4757600080fd5b505afa158015611b5b573d6000803e3d6000fd5b505050506040513d6020811015611b7157600080fd5b8101908080519060200190929190505050905060008273ffffffffffffffffffffffffffffffffffffffff16632ff7042a6040518163ffffffff1660e01b815260040160206040518083038186803b158015611bcc57600080fd5b505afa158015611be0573d6000803e3d6000fd5b505050506040513d6020811015611bf657600080fd5b81019080805190602001909291905050509050818015611c19575060008160ff16115b15611f145760008160ff168581611c2c57fe5b0490506000818a019050611c3f81613ceb565b600560009054906101000a900473ffffffffffffffffffffffffffffffffffffffff1673ffffffffffffffffffffffffffffffffffffffff1663a9059cbb600b60009054906101000a900473ffffffffffffffffffffffffffffffffffffffff16846040518363ffffffff1660e01b8152600401808373ffffffffffffffffffffffffffffffffffffffff1673ffffffffffffffffffffffffffffffffffffffff16815260200182815260200192505050602060405180830381600087803b158015611d0a57600080fd5b505af1158015611d1e573d6000803e3d6000fd5b505050506040513d6020811015611d3457600080fd5b8101908080519060200190929190505050611db7576040517f08c379a000000000000000000000000000000000000000000000000000000000815260040180806020018281038252601c8152602001807f70726f746f636f6c20666565207472616e73666572206661696c65640000000081525060200191505060405180910390fd5b600560009054906101000a900473ffffffffffffffffffffffffffffffffffffffff1673ffffffffffffffffffffffffffffffffffffffff1663a9059cbb338c6040518363ffffffff1660e01b8152600401808373ffffffffffffffffffffffffffffffffffffffff1673ffffffffffffffffffffffffffffffffffffffff16815260200182815260200192505050602060405180830381600087803b158015611e6057600080fd5b505af1158015611e74573d6000803e3d6000fd5b505050506040513d6020811015611e8a57600080fd5b8101908080519060200190929190505050611f0d576040517f08c379a00000000000000000000000000000000000000000000000000000000081526004018080602001828103825260168152602001807f72657475726e207472616e73666572206661696c65640000000000000000000081525060200191505060405180910390fd5b5050612074565b611f1d88613ceb565b600560009054906101000a900473ffffffffffffffffffffffffffffffffffffffff1673ffffffffffffffffffffffffffffffffffffffff1663a9059cbb338a6040518363ffffffff1660e01b8152600401808373ffffffffffffffffffffffffffffffffffffffff1673ffffffffffffffffffffffffffffffffffffffff16815260200182815260200192505050602060405180830381600087803b158015611fc657600080fd5b505af1158015611fda573d6000803e3d6000fd5b505050506040513d6020811015611ff057600080fd5b8101908080519060200190929190505050612073576040517f08c379a00000000000000000000000000000000000000000000000000000000081526004018080602001828103825260168152602001807f72657475726e207472616e73666572206661696c65640000000000000000000081525060200191505060405180910390fd5b5b863373ffffffffffffffffffffffffffffffffffffffff167fadcf2a240ed9300d681d9a3f5382b6c1beed1b7e46643e0c7b42cbe6e2d766b48a878960405180848152602001838152602001828152602001935050505060405180910390a35050505050505050565b60008311612153576040517f08c379a00000000000000000000000000000000000000000000000000000000081526004018080602001828103825260188152602001807f66756e64696e67206d757374206265206e6f6e2d7a65726f000000000000000081525060200191505060405180910390fd5b6060600a805490506040519080825280602002602001820160405280156121895781602001602082028038833980820191505090505b5090506000612196610b16565b90506000808211156122f257600085859050146121fe576040517f08c379a00000000000000000000000000000000000000000000000000000000081526004018080602001828103825260328152602001806143ba6032913960400191505060405180910390fd5b6060612208613a3f565b9050600080905060008090505b825181101561225057600083828151811061222c57fe5b6020026020010151905080831015612242578092505b508080600101915050612215565b5060008090505b82518110156122cc5760008261228985848151811061227257fe5b60200260200101518c6137b790919063ffffffff16565b8161229057fe5b0490506122a6818b6136e590919063ffffffff16565b8783815181106122b257fe5b602002602001018181525050508080600101915050612257565b50806122e1858a6137b790919063ffffffff16565b816122e857fe5b04925050506124bc565b60008585905011156124b857600a80549050858590501461237b576040517f08c379a000000000000000000000000000000000000000000000000000000000815260040180806020018281038252600f8152602001807f68696e74206c656e677468206f6666000000000000000000000000000000000081525060200191505060405180910390fd5b600080905060008090505b868690508110156123c257600087878381811061239f57fe5b905060200201359050808310156123b4578092505b508080600101915050612386565b5060008090505b868690508110156124b5576000826123fc8989858181106123e657fe5b905060200201358b6137b790919063ffffffff16565b8161240357fe5b0490506000811161247c576040517f08c379a000000000000000000000000000000000000000000000000000000000815260040180806020018281038252601e8152602001807f6d7573742068696e7420612076616c696420646973747269627574696f6e000081525060200191505060405180910390fd5b61248f818a6136e590919063ffffffff16565b86838151811061249b57fe5b6020026020010181815250505080806001019150506123c9565b50505b8590505b600560009054906101000a900473ffffffffffffffffffffffffffffffffffffffff1673ffffffffffffffffffffffffffffffffffffffff166323b872dd3330896040518463ffffffff1660e01b8152600401808473ffffffffffffffffffffffffffffffffffffffff1673ffffffffffffffffffffffffffffffffffffffff1681526020018373ffffffffffffffffffffffffffffffffffffffff1673ffffffffffffffffffffffffffffffffffffffff1681526020018281526020019350505050602060405180830381600087803b15801561259957600080fd5b505af11580156125ad573d6000803e3d6000fd5b505050506040513d60208110156125c357600080fd5b8101908080519060200190929190505050612646576040517f08c379a00000000000000000000000000000000000000000000000000000000081526004018080602001828103825260178152602001807f66756e64696e67207472616e73666572206661696c656400000000000000000081525060200191505060405180910390fd5b600560009054906101000a900473ffffffffffffffffffffffffffffffffffffffff1673ffffffffffffffffffffffffffffffffffffffff1663095ea7b3600460009054906101000a900473ffffffffffffffffffffffffffffffffffffffff16886040518363ffffffff1660e01b8152600401808373ffffffffffffffffffffffffffffffffffffffff1673ffffffffffffffffffffffffffffffffffffffff16815260200182815260200192505050602060405180830381600087803b15801561271157600080fd5b505af1158015612725573d6000803e3d6000fd5b505050506040513d602081101561273b57600080fd5b81019080805190602001909291905050506127be576040517f08c379a000000000000000000000000000000000000000000000000000000000815260040180806020018281038252601a8152602001807f617070726f76616c20666f722073706c697473206661696c656400000000000081525060200191505060405180910390fd5b6127c78661383d565b6127d13382613ee9565b600460009054906101000a900473ffffffffffffffffffffffffffffffffffffffff1673ffffffffffffffffffffffffffffffffffffffff16632eb2c2d63033600a876040518563ffffffff1660e01b8152600401808573ffffffffffffffffffffffffffffffffffffffff1673ffffffffffffffffffffffffffffffffffffffff1681526020018473ffffffffffffffffffffffffffffffffffffffff1673ffffffffffffffffffffffffffffffffffffffff16815260200180602001806020018060200184810384528681815481526020019150805480156128d457602002820191906000526020600020905b8154815260200190600101908083116128c0575b5050848103835285818151815260200191508051906020019060200280838360005b838110156129115780820151818401526020810190506128f6565b50505050905001848103825260008152602001602001975050505050505050600060405180830381600087803b15801561294a57600080fd5b505af115801561295e573d6000803e3d6000fd5b5050505060008090505b83518110156129bc5761299784828151811061298057fe5b6020026020010151886136e590919063ffffffff16565b8482815181106129a357fe5b6020026020010181815250508080600101915050612968565b503373ffffffffffffffffffffffffffffffffffffffff167fec2dc3e5a3bb9aa0a1deb905d2bd23640d07f107e6ceb484024501aad964a95184836040518080602001838152602001828103825284818151815260200191508051906020019060200280838360005b83811015612a40578082015181840152602081019050612a25565b50505050905001935050505060405180910390a2505050505050565b60068181548110612a6957fe5b906000526020600020016000915090505481565b6000600160008473ffffffffffffffffffffffffffffffffffffffff1673ffffffffffffffffffffffffffffffffffffffff16815260200190815260200160002060008373ffffffffffffffffffffffffffffffffffffffff1673ffffffffffffffffffffffffffffffffffffffff16815260200190815260200160002054905092915050565b60075481565b6060612b14613a3f565b905060608151604051908082528060200260200182016040528015612b485781602001602082028038833980820191505090505b5090506000612b55610b16565b905060008090505b8351811015612bba5781612b8d86868481518110612b7757fe5b60200260200101516137b790919063ffffffff16565b81612b9457fe5b04838281518110612ba157fe5b6020026020010181815250508080600101915050612b5d565b506000600560009054906101000a900473ffffffffffffffffffffffffffffffffffffffff1673ffffffffffffffffffffffffffffffffffffffff166370a08231306040518263ffffffff1660e01b8152600401808273ffffffffffffffffffffffffffffffffffffffff1673ffffffffffffffffffffffffffffffffffffffff16815260200191505060206040518083038186803b158015612c5c57600080fd5b505afa158015612c70573d6000803e3d6000fd5b505050506040513d6020811015612c8657600080fd5b81019080805190602001909291905050509050612ca333866140a4565b612d8f600560009054906101000a900473ffffffffffffffffffffffffffffffffffffffff1673ffffffffffffffffffffffffffffffffffffffff166370a08231306040518263ffffffff1660e01b8152600401808273ffffffffffffffffffffffffffffffffffffffff1673ffffffffffffffffffffffffffffffffffffffff16815260200191505060206040518083038186803b158015612d4557600080fd5b505afa158015612d59573d6000803e3d6000fd5b505050506040513d6020811015612d6f57600080fd5b8101908080519060200190929190505050826136e590919063ffffffff16565b9050600460009054906101000a900473ffffffffffffffffffffffffffffffffffffffff1673ffffffffffffffffffffffffffffffffffffffff16632eb2c2d63033600a876040518563ffffffff1660e01b8152600401808573ffffffffffffffffffffffffffffffffffffffff1673ffffffffffffffffffffffffffffffffffffffff1681526020018473ffffffffffffffffffffffffffffffffffffffff1673ffffffffffffffffffffffffffffffffffffffff1681526020018060200180602001806020018481038452868181548152602001915080548015612e9457602002820191906000526020600020905b815481526020019060010190808311612e80575b5050848103835285818151815260200191508051906020019060200280838360005b83811015612ed1578082015181840152602081019050612eb6565b50505050905001848103825260008152602001602001975050505050505050600060405180830381600087803b158015612f0a57600080fd5b505af1158015612f1e573d6000803e3d6000fd5b505050503373ffffffffffffffffffffffffffffffffffffffff167f8b4b2c8ebd04c47fc8bce136a85df9b93fcb1f47c8aa296457d4391519d190e78483886040518080602001848152602001838152602001828103825285818151815260200191508051906020019060200280838360005b83811015612fac578082015181840152602081019050612f91565b5050505090500194505050505060405180910390a25050505050565b60003073ffffffffffffffffffffffffffffffffffffffff168773ffffffffffffffffffffffffffffffffffffffff16141561300d5763f23a6e6160e01b9050613015565b600060e01b90505b9695505050505050565b6000600a80549050821061309b576040517f08c379a00000000000000000000000000000000000000000000000000000000081526004018080602001828103825260158152602001807f696e76616c6964206f7574636f6d6520696e646578000000000000000000000081525060200191505060405180910390fd5b60606130a5613a3f565b905060006130e1670de0b6b3a76400006130ca600754886137b790919063ffffffff16565b816130d157fe5b04866136e590919063ffffffff16565b905060008285815181106130f157fe5b602002602001015190506000613118670de0b6b3a7640000836137b790919063ffffffff16565b905060008090505b84518110156131905786811461318357600085828151811061313e57fe5b6020026020010151905061317f61315e868361372f90919063ffffffff16565b61317183866137b790919063ffffffff16565b613cb790919063ffffffff16565b9250505b8080600101915050613120565b5060008111613207576040517f08c379a000000000000000000000000000000000000000000000000000000000815260040180806020018281038252601b8152602001807f6d7573742068617665206e6f6e2d7a65726f2062616c616e636573000000000081525060200191505060405180910390fd5b613246613225670de0b6b3a764000083613cb790919063ffffffff16565b613238858561372f90919063ffffffff16565b6136e590919063ffffffff16565b94505050505092915050565b600073ffffffffffffffffffffffffffffffffffffffff168373ffffffffffffffffffffffffffffffffffffffff1614156132d8576040517f08c379a00000000000000000000000000000000000000000000000000000000081526004018080602001828103825260248152602001806144536024913960400191505060405180910390fd5b600073ffffffffffffffffffffffffffffffffffffffff168273ffffffffffffffffffffffffffffffffffffffff16141561335e576040517f08c379a00000000000000000000000000000000000000000000000000000000081526004018080602001828103825260228152602001806143986022913960400191505060405180910390fd5b80600160008573ffffffffffffffffffffffffffffffffffffffff1673ffffffffffffffffffffffffffffffffffffffff16815260200190815260200160002060008473ffffffffffffffffffffffffffffffffffffffff1673ffffffffffffffffffffffffffffffffffffffff168152602001908152602001600020819055508173ffffffffffffffffffffffffffffffffffffffff168373ffffffffffffffffffffffffffffffffffffffff167f8c5be1e5ebec7d5bd14f71427d1e84f3dd0314c0f7b2291e5b200ac8c7c3b925836040518082815260200191505060405180910390a3505050565b600073ffffffffffffffffffffffffffffffffffffffff168373ffffffffffffffffffffffffffffffffffffffff1614156134cf576040517f08c379a000000000000000000000000000000000000000000000000000000000815260040180806020018281038252602581526020018061442e6025913960400191505060405180910390fd5b600073ffffffffffffffffffffffffffffffffffffffff168273ffffffffffffffffffffffffffffffffffffffff161415613555576040517f08c379a00000000000000000000000000000000000000000000000000000000081526004018080602001828103825260238152602001806143756023913960400191505060405180910390fd5b6135a6816000808673ffffffffffffffffffffffffffffffffffffffff1673ffffffffffffffffffffffffffffffffffffffff168152602001908152602001600020546136e590919063ffffffff16565b6000808573ffffffffffffffffffffffffffffffffffffffff1673ffffffffffffffffffffffffffffffffffffffff16815260200190815260200160002081905550613639816000808573ffffffffffffffffffffffffffffffffffffffff1673ffffffffffffffffffffffffffffffffffffffff1681526020019081526020016000205461372f90919063ffffffff16565b6000808473ffffffffffffffffffffffffffffffffffffffff1673ffffffffffffffffffffffffffffffffffffffff168152602001908152602001600020819055508173ffffffffffffffffffffffffffffffffffffffff168373ffffffffffffffffffffffffffffffffffffffff167fddf252ad1be2c89b69c2b068fc378daa952ba7f163c4a11628f55a4df523b3ef836040518082815260200191505060405180910390a3505050565b600061372783836040518060400160405280601e81526020017f536166654d6174683a207375627472616374696f6e206f766572666c6f770000815250614242565b905092915050565b6000808284019050838110156137ad576040517f08c379a000000000000000000000000000000000000000000000000000000000815260040180806020018281038252601b8152602001807f536166654d6174683a206164646974696f6e206f766572666c6f77000000000081525060200191505060405180910390fd5b8091505092915050565b6000808314156137ca5760009050613837565b60008284029050828482816137db57fe5b0414613832576040517f08c379a00000000000000000000000000000000000000000000000000000000081526004018080602001828103825260218152602001806143ec6021913960400191505060405180910390fd5b809150505b92915050565b600060016006805490500390505b60008112613a3b5760606138756008838154811061386557fe5b9060005260206000200154614302565b905060008090505b6009838154811061388a57fe5b9060005260206000200180549050811015613a2b57600460009054906101000a900473ffffffffffffffffffffffffffffffffffffffff1673ffffffffffffffffffffffffffffffffffffffff166372ce4275600560009054906101000a900473ffffffffffffffffffffffffffffffffffffffff166009868154811061390d57fe5b90600052602060002001848154811061392257fe5b90600052602060002001546006878154811061393a57fe5b906000526020600020015486896040518663ffffffff1660e01b8152600401808673ffffffffffffffffffffffffffffffffffffffff1673ffffffffffffffffffffffffffffffffffffffff16815260200185815260200184815260200180602001838152602001828103825284818151815260200191508051906020019060200280838360005b838110156139dd5780820151818401526020810190506139c2565b505050509050019650505050505050600060405180830381600087803b158015613a0657600080fd5b505af1158015613a1a573d6000803e3d6000fd5b50505050808060010191505061387d565b505080806001900391505061384b565b5050565b606080600a80549050604051908082528060200260200182016040528015613a765781602001602082028038833980820191505090505b50905060008090505b600a80549050811015613ae05730828281518110613a9957fe5b602002602001019073ffffffffffffffffffffffffffffffffffffffff16908173ffffffffffffffffffffffffffffffffffffffff16815250508080600101915050613a7f565b50600460009054906101000a900473ffffffffffffffffffffffffffffffffffffffff1673ffffffffffffffffffffffffffffffffffffffff16634e1273f482600a6040518363ffffffff1660e01b8152600401808060200180602001838103835285818151815260200191508051906020019060200280838360005b83811015613b78578082015181840152602081019050613b5d565b505050509050018381038252848181548152602001915080548015613bbc57602002820191906000526020600020905b815481526020019060010190808311613ba8575b505094505050505060006040518083038186803b158015613bdc57600080fd5b505afa158015613bf0573d6000803e3d6000fd5b505050506040513d6000823e3d601f19601f820116820180604052506020811015613c1a57600080fd5b8101908080516040519392919084640100000000821115613c3a57600080fd5b83820191506020820185811115613c5057600080fd5b8251866020820283011164010000000082111715613c6d57600080fd5b8083526020830192505050908051906020019060200280838360005b83811015613ca4578082015181840152602081019050613c89565b5050505090500160405250505091505090565b600080831115613cd8576001826001850381613ccf57fe5b04019050613ce5565b818381613ce157fe5b0490505b92915050565b60008090505b600680549050811015613ee5576060613d2060088381548110613d1057fe5b9060005260206000200154614302565b905060008090505b60098381548110613d3557fe5b9060005260206000200180549050811015613ed657600460009054906101000a900473ffffffffffffffffffffffffffffffffffffffff1673ffffffffffffffffffffffffffffffffffffffff16639e7212ad600560009054906101000a900473ffffffffffffffffffffffffffffffffffffffff1660098681548110613db857fe5b906000526020600020018481548110613dcd57fe5b906000526020600020015460068781548110613de557fe5b906000526020600020015486896040518663ffffffff1660e01b8152600401808673ffffffffffffffffffffffffffffffffffffffff1673ffffffffffffffffffffffffffffffffffffffff16815260200185815260200184815260200180602001838152602001828103825284818151815260200191508051906020019060200280838360005b83811015613e88578082015181840152602081019050613e6d565b505050509050019650505050505050600060405180830381600087803b158015613eb157600080fd5b505af1158015613ec5573d6000803e3d6000fd5b505050508080600101915050613d28565b50508080600101915050613cf1565b5050565b600073ffffffffffffffffffffffffffffffffffffffff168273ffffffffffffffffffffffffffffffffffffffff161415613f8c576040517f08c379a000000000000000000000000000000000000000000000000000000000815260040180806020018281038252601f8152602001807f45524332303a206d696e7420746f20746865207a65726f20616464726573730081525060200191505060405180910390fd5b613fa18160025461372f90919063ffffffff16565b600281905550613ff8816000808573ffffffffffffffffffffffffffffffffffffffff1673ffffffffffffffffffffffffffffffffffffffff1681526020019081526020016000205461372f90919063ffffffff16565b6000808473ffffffffffffffffffffffffffffffffffffffff1673ffffffffffffffffffffffffffffffffffffffff168152602001908152602001600020819055508173ffffffffffffffffffffffffffffffffffffffff16600073ffffffffffffffffffffffffffffffffffffffff167fddf252ad1be2c89b69c2b068fc378daa952ba7f163c4a11628f55a4df523b3ef836040518082815260200191505060405180910390a35050565b600073ffffffffffffffffffffffffffffffffffffffff168273ffffffffffffffffffffffffffffffffffffffff16141561412a576040517f08c379a000000000000000000000000000000000000000000000000000000000815260040180806020018281038252602181526020018061440d6021913960400191505060405180910390fd5b61417b816000808573ffffffffffffffffffffffffffffffffffffffff1673ffffffffffffffffffffffffffffffffffffffff168152602001908152602001600020546136e590919063ffffffff16565b6000808473ffffffffffffffffffffffffffffffffffffffff1673ffffffffffffffffffffffffffffffffffffffff168152602001908152602001600020819055506141d2816002546136e590919063ffffffff16565b600281905550600073ffffffffffffffffffffffffffffffffffffffff168273ffffffffffffffffffffffffffffffffffffffff167fddf252ad1be2c89b69c2b068fc378daa952ba7f163c4a11628f55a4df523b3ef836040518082815260200191505060405180910390a35050565b60008383111582906142ef576040517f08c379a00000000000000000000000000000000000000000000000000000000081526004018080602001828103825283818151815260200191508051906020019080838360005b838110156142b4578082015181840152602081019050614299565b50505050905090810190601f1680156142e15780820380516001836020036101000a031916815260200191505b509250505060405180910390fd5b5060008385039050809150509392505050565b6060816040519080825280602002602001820160405280156143335781602001602082028038833980820191505090505b50905060008090505b8281101561436e57806001901b82828151811061435557fe5b602002602001018181525050808060010191505061433c565b5091905056fe45524332303a207472616e7366657220746f20746865207a65726f206164647265737345524332303a20617070726f766520746f20746865207a65726f206164647265737363616e6e6f742075736520646973747269627574696f6e2068696e7420616674657220696e697469616c2066756e64696e67536166654d6174683a206d756c7469706c69636174696f6e206f766572666c6f7745524332303a206275726e2066726f6d20746865207a65726f206164647265737345524332303a207472616e736665722066726f6d20746865207a65726f206164647265737345524332303a20617070726f76652066726f6d20746865207a65726f2061646472657373a265627a7a723158209f6b243d98593f2a0b6bba4b668b6fddd11d4d11acaf12be5459e13349fdfeed64736f6c63430005100032",
  "source": "pragma solidity ^0.5.1;\n\nimport { IERC20 } from \"openzeppelin-solidity/contracts/token/ERC20/IERC20.sol\";\nimport { SafeMath } from \"openzeppelin-solidity/contracts/math/SafeMath.sol\";\nimport { ConditionalTokens } from \"@gnosis.pm/conditional-tokens-contracts/contracts/ConditionalTokens.sol\";\nimport { CTHelpers } from \"@gnosis.pm/conditional-tokens-contracts/contracts/CTHelpers.sol\";\nimport { Create2CloneFactory } from \"./Create2CloneFactory.sol\";\nimport { FixedProductMarketMakerV2, FixedProductMarketMakerData } from \"./FixedProductMarketMakerV2.sol\";\nimport { ERC1155TokenReceiver } from \"@gnosis.pm/conditional-tokens-contracts/contracts/ERC1155/ERC1155TokenReceiver.sol\";\nimport { ERC20 } from \"./ERC20.sol\";\n\n\ncontract FPMMDeterministicFactoryV2 is Create2CloneFactory, FixedProductMarketMakerData, ERC1155TokenReceiver {\n    using SafeMath for uint;\n\n    event FixedProductMarketMakerCreation(\n        address indexed creator,\n        FixedProductMarketMakerV2 fixedProductMarketMaker,\n        ConditionalTokens conditionalTokens,\n        IERC20 collateralToken,\n        bytes32[] conditionIds,\n        uint fee\n    );\n\n    FixedProductMarketMakerV2 public implementationMaster;\n    address internal currentFunder;\n    uint8 public protocolFeeDenominator;\n    bool public protocolFeeOn;\n    address public protocolFeeSetter;\n\n    constructor() public {\n        implementationMaster = new FixedProductMarketMakerV2();\n        protocolFeeSetter = msg.sender;\n    }\n\n    function cloneConstructor(bytes calldata consData) external {\n        (\n            ConditionalTokens _conditionalTokens,\n            IERC20 _collateralToken,\n            bytes32[] memory _conditionIds,\n            uint _fee,\n            address _factoryAddress\n        ) = abi.decode(consData, (ConditionalTokens, IERC20, bytes32[], uint, address));\n\n        _supportedInterfaces[_INTERFACE_ID_ERC165] = true;\n        _supportedInterfaces[\n            ERC1155TokenReceiver(0).onERC1155Received.selector ^\n            ERC1155TokenReceiver(0).onERC1155BatchReceived.selector\n        ] = true;\n\n        conditionalTokens = _conditionalTokens;\n        collateralToken = _collateralToken;\n        conditionIds = _conditionIds;\n        fee = _fee;\n        factoryAddress = _factoryAddress;\n\n        uint atomicOutcomeSlotCount = 1;\n        outcomeSlotCounts = new uint[](conditionIds.length);\n        for (uint i = 0; i < conditionIds.length; i++) {\n            uint outcomeSlotCount = conditionalTokens.getOutcomeSlotCount(conditionIds[i]);\n            atomicOutcomeSlotCount *= outcomeSlotCount;\n            outcomeSlotCounts[i] = outcomeSlotCount;\n        }\n        require(atomicOutcomeSlotCount > 1, \"conditions must be valid\");\n\n        collectionIds = new bytes32[][](conditionIds.length);\n        _recordCollectionIDsForAllConditions(conditionIds.length, bytes32(0));\n        require(positionIds.length == atomicOutcomeSlotCount, \"position IDs construction failed!?\");\n    }\n\n    function _recordCollectionIDsForAllConditions(uint conditionsLeft, bytes32 parentCollectionId) private {\n        if(conditionsLeft == 0) {\n            positionIds.push(CTHelpers.getPositionId(collateralToken, parentCollectionId));\n            return;\n        }\n\n        conditionsLeft--;\n\n        uint outcomeSlotCount = outcomeSlotCounts[conditionsLeft];\n\n        collectionIds[conditionsLeft].push(parentCollectionId);\n        for(uint i = 0; i < outcomeSlotCount; i++) {\n            _recordCollectionIDsForAllConditions(\n                conditionsLeft,\n                CTHelpers.getCollectionId(\n                    parentCollectionId,\n                    conditionIds[conditionsLeft],\n                    1 << i\n                )\n            );\n        }\n    }\n\n    function onERC1155Received(\n        address operator,\n        address from,\n        uint256 id,\n        uint256 value,\n        bytes calldata data\n    )\n        external\n        returns (bytes4)\n    {\n        ConditionalTokens(msg.sender).safeTransferFrom(address(this), currentFunder, id, value, data);\n        return this.onERC1155Received.selector;\n    }\n\n    function onERC1155BatchReceived(\n        address operator,\n        address from,\n        uint256[] calldata ids,\n        uint256[] calldata values,\n        bytes calldata data\n    )\n        external\n        returns (bytes4)\n    {\n        ConditionalTokens(msg.sender).safeBatchTransferFrom(address(this), currentFunder, ids, values, data);\n        return this.onERC1155BatchReceived.selector;\n    }\n\n    function create2FixedProductMarketMaker(\n        uint saltNonce,\n        ConditionalTokens conditionalTokens,\n        IERC20 collateralToken,\n        bytes32[] calldata conditionIds,\n        uint fee,\n        uint initialFunds,\n        uint[] calldata distributionHint\n    )\n        external\n        returns (FixedProductMarketMakerV2)\n    {\n        FixedProductMarketMakerV2 fixedProductMarketMaker = FixedProductMarketMakerV2(\n            create2Clone(address(implementationMaster), saltNonce, abi.encode(\n                conditionalTokens,\n                collateralToken,\n                conditionIds,\n                fee,\n                address(this)\n            ))\n        );\n        emit FixedProductMarketMakerCreation(\n            msg.sender,\n            fixedProductMarketMaker,\n            conditionalTokens,\n            collateralToken,\n            conditionIds,\n            fee\n        );\n\n        if (initialFunds > 0) {\n            currentFunder = msg.sender;\n            collateralToken.transferFrom(msg.sender, address(this), initialFunds);\n            collateralToken.approve(address(fixedProductMarketMaker), initialFunds);\n            fixedProductMarketMaker.addFunding(initialFunds, distributionHint);\n            fixedProductMarketMaker.transfer(msg.sender, fixedProductMarketMaker.balanceOf(address(this)));\n            currentFunder = address(0);\n        }\n\n        return fixedProductMarketMaker;\n    }\n\n    function withdrawProtocolFees(address[] calldata _tokens, address _recipient) external onlyProtocolFeeSetter {\n        for (uint i = 0; i < _tokens.length; i++) {\n            ERC20 _token = ERC20(_tokens[i]);\n            uint _tokenBalance = _token.balanceOf(address(this));\n            if (_tokenBalance > 0) {\n                _token.transfer(_recipient, _tokenBalance);\n            }\n        }\n    }\n\n    function setProtocolFeeOn(bool _protocolFeeOn) external onlyProtocolFeeSetter {\n        protocolFeeOn = _protocolFeeOn;\n    }\n\n    function setProtocolFeeDenominator(uint8 _protocolFeeDenominator) external onlyProtocolFeeSetter {\n        require(_protocolFeeDenominator >= 4, 'max 25% protocol fee');\n        protocolFeeDenominator = _protocolFeeDenominator;\n    }\n\n    function setProtocolFeeSetter(address _protocolFeeSetter) external onlyProtocolFeeSetter {\n        require(_protocolFeeSetter != address(0), 'cannot set protocolFeeSetter to zero address');\n        protocolFeeSetter = _protocolFeeSetter;\n    }\n\n    modifier onlyProtocolFeeSetter {\n        require(msg.sender == protocolFeeSetter, 'onlyProtocolFeeSetter');\n        _;\n    }\n}\n",
  "sourcePath": "@kadenzipfel/conditional-tokens-market-makers/contracts/FPMMDeterministicFactoryV2.sol",
  "compiler": {
    "name": "solc",
    "version": "0.5.16+commit.9c3226ce.Emscripten.clang"
  },
  "schemaVersion": "3.4.3",
  "updatedAt": "2021-08-17T20:55:36.345Z",
  "devdoc": {
    "methods": {
      "supportsInterface(bytes4)": {
        "details": "See {IERC165-supportsInterface}.     * Time complexity O(1), guaranteed to always use less than 30 000 gas."
      }
    }
  },
  "userdoc": {
    "methods": {}
  }
}