{
  "contractName": "GelatoGasPriceOracle",
  "abi": [
    {
      "inputs": [
        {
          "internalType": "uint256",
          "name": "_gasPrice",
          "type": "uint256"
        }
      ],
      "stateMutability": "nonpayable",
      "type": "constructor"
    },
    {
      "anonymous": false,
      "inputs": [
        {
          "indexed": true,
          "internalType": "uint256",
          "name": "oldGasPrice",
          "type": "uint256"
        },
        {
          "indexed": true,
          "internalType": "uint256",
          "name": "newGasPrice",
          "type": "uint256"
        }
      ],
      "name": "LogGasPriceSet",
      "type": "event"
    },
    {
      "anonymous": false,
      "inputs": [
        {
          "indexed": true,
          "internalType": "address",
          "name": "oldOracle",
          "type": "address"
        },
        {
          "indexed": true,
          "internalType": "address",
          "name": "newOracle",
          "type": "address"
        }
      ],
      "name": "LogOracleSet",
      "type": "event"
    },
    {
      "anonymous": false,
      "inputs": [
        {
          "indexed": true,
          "internalType": "address",
          "name": "previousOwner",
          "type": "address"
        },
        {
          "indexed": true,
          "internalType": "address",
          "name": "newOwner",
          "type": "address"
        }
      ],
      "name": "OwnershipTransferred",
      "type": "event"
    },
    {
      "inputs": [],
      "name": "isOwner",
      "outputs": [
        {
          "internalType": "bool",
          "name": "",
          "type": "bool"
        }
      ],
      "stateMutability": "view",
      "type": "function",
      "constant": true
    },
    {
      "inputs": [],
      "name": "oracle",
      "outputs": [
        {
          "internalType": "address",
          "name": "",
          "type": "address"
        }
      ],
      "stateMutability": "view",
      "type": "function",
      "constant": true
    },
    {
      "inputs": [],
      "name": "owner",
      "outputs": [
        {
          "internalType": "address",
          "name": "",
          "type": "address"
        }
      ],
      "stateMutability": "view",
      "type": "function",
      "constant": true
    },
    {
      "inputs": [],
      "name": "renounceOwnership",
      "outputs": [],
      "stateMutability": "nonpayable",
      "type": "function"
    },
    {
      "inputs": [
        {
          "internalType": "address",
          "name": "newOwner",
          "type": "address"
        }
      ],
      "name": "transferOwnership",
      "outputs": [],
      "stateMutability": "nonpayable",
      "type": "function"
    },
    {
      "inputs": [
        {
          "internalType": "address",
          "name": "_newOracle",
          "type": "address"
        }
      ],
      "name": "setOracle",
      "outputs": [],
      "stateMutability": "nonpayable",
      "type": "function"
    },
    {
      "inputs": [
        {
          "internalType": "uint256",
          "name": "_newGasPrice",
          "type": "uint256"
        }
      ],
      "name": "setGasPrice",
      "outputs": [],
      "stateMutability": "nonpayable",
      "type": "function"
    },
    {
      "inputs": [],
      "name": "latestAnswer",
      "outputs": [
        {
          "internalType": "int256",
          "name": "",
          "type": "int256"
        }
      ],
      "stateMutability": "view",
      "type": "function",
      "constant": true
    }
  ],
  "bytecode": "0x608060405234801561001057600080fd5b506040516106fc3803806106fc8339818101604052602081101561003357600080fd5b5051600080546001600160a01b03191633178082556040516001600160a01b039190911691907f8be0079c531659141344cd1fd0a4f28419497f9722a3daafe3b4186f6b6457e0908290a3610090336001600160e01b036100a816565b6100a2816001600160e01b0361016616565b5061020a565b6100b96001600160e01b036101f916565b61010a576040805162461bcd60e51b815260206004820181905260248201527f4f776e61626c653a2063616c6c6572206973206e6f7420746865206f776e6572604482015290519081900360640190fd5b6001546040516001600160a01b038084169216907f08be550583392abc38214c337c72da7a61cbeeec1ddd332e4c5468eee66490ba90600090a3600180546001600160a01b0319166001600160a01b0392909216919091179055565b6001546001600160a01b031633146101c5576040805162461bcd60e51b815260206004820152601f60248201527f47656c61746f47617350726963654f7261636c652e6f6e6c794f7261636c6500604482015290519081900360640190fd5b6002546040518291907f9e880dd32a256bb37410fe140b43261e1aa9d93f7924eadd6b640b9c33e04d2690600090a3600255565b6000546001600160a01b0316331490565b6104e3806102196000396000f3fe608060405234801561001057600080fd5b50600436106100885760003560e01c80638da5cb5b1161005b5780638da5cb5b146100fb5780638f32d59b14610103578063bf1fe4201461011f578063f2fde38b1461013c57610088565b806350d25bcd1461008d578063715018a6146100a75780637adbf973146100b15780637dc0d1d0146100d7575b600080fd5b610095610162565b60408051918252519081900360200190f35b6100af610168565b005b6100af600480360360208110156100c757600080fd5b50356001600160a01b031661020b565b6100df6102c0565b604080516001600160a01b039092168252519081900360200190f35b6100df6102cf565b61010b6102de565b604080519115158252519081900360200190f35b6100af6004803603602081101561013557600080fd5b50356102ef565b6100af6004803603602081101561015257600080fd5b50356001600160a01b0316610382565b60025490565b6101706102de565b6101c1576040805162461bcd60e51b815260206004820181905260248201527f4f776e61626c653a2063616c6c6572206973206e6f7420746865206f776e6572604482015290519081900360640190fd5b600080546040516001600160a01b03909116907f8be0079c531659141344cd1fd0a4f28419497f9722a3daafe3b4186f6b6457e0908390a3600080546001600160a01b0319169055565b6102136102de565b610264576040805162461bcd60e51b815260206004820181905260248201527f4f776e61626c653a2063616c6c6572206973206e6f7420746865206f776e6572604482015290519081900360640190fd5b6001546040516001600160a01b038084169216907f08be550583392abc38214c337c72da7a61cbeeec1ddd332e4c5468eee66490ba90600090a3600180546001600160a01b0319166001600160a01b0392909216919091179055565b6001546001600160a01b031681565b6000546001600160a01b031690565b6000546001600160a01b0316331490565b6001546001600160a01b0316331461034e576040805162461bcd60e51b815260206004820152601f60248201527f47656c61746f47617350726963654f7261636c652e6f6e6c794f7261636c6500604482015290519081900360640190fd5b6002546040518291907f9e880dd32a256bb37410fe140b43261e1aa9d93f7924eadd6b640b9c33e04d2690600090a3600255565b61038a6102de565b6103db576040805162461bcd60e51b815260206004820181905260248201527f4f776e61626c653a2063616c6c6572206973206e6f7420746865206f776e6572604482015290519081900360640190fd5b6103e4816103e7565b50565b6001600160a01b03811661042c5760405162461bcd60e51b81526004018080602001828103825260268152602001806104886026913960400191505060405180910390fd5b600080546040516001600160a01b03808516939216917f8be0079c531659141344cd1fd0a4f28419497f9722a3daafe3b4186f6b6457e091a3600080546001600160a01b0319166001600160a01b039290921691909117905556fe4f776e61626c653a206e6577206f776e657220697320746865207a65726f2061646472657373a2646970667358221220c73914f99b288b2a3ae7c1f26890e147563892cec3262d5a6722da30703cc6cf64736f6c634300060a0033",
  "immutableReferences": {},
  "source": "// \"SPDX-License-Identifier: UNLICENSED\"\npragma solidity ^0.6.10;\n\nimport \"./interfaces/IGelatoGasPriceOracle.sol\";\nimport \"../external/Ownable.sol\";\n\ncontract GelatoGasPriceOracle is IGelatoGasPriceOracle, Ownable {\n\n    address public override oracle;\n\n    // This gasPrice is pulled into GelatoCore.exec() via GelatoSysAdmin._getGelatoGasPrice()\n    uint256 private gasPrice;\n\n    constructor(uint256 _gasPrice) public {\n        setOracle(msg.sender);\n        setGasPrice(_gasPrice);\n    }\n\n    modifier onlyOracle {\n        require(msg.sender == oracle, \"GelatoGasPriceOracle.onlyOracle\");\n        _;\n    }\n\n    function setOracle(address _newOracle) public override onlyOwner {\n        emit LogOracleSet(oracle, _newOracle);\n        oracle = _newOracle;\n    }\n\n    function setGasPrice(uint256 _newGasPrice) public override onlyOracle {\n        emit LogGasPriceSet(gasPrice, _newGasPrice);\n        gasPrice = _newGasPrice;\n    }\n\n    function latestAnswer() view external override returns(int256) {\n        return int256(gasPrice);\n    }\n}\n",
  "sourcePath": "/Users/earth/Desktop/truffle-gelato-core/contracts/gelato_core/GelatoGasPriceOracle.sol",
  "compiler": {
    "name": "solc",
    "version": "0.6.10+commit.00c0fcaf.Emscripten.clang"
  },
  "schemaVersion": "3.3.0",
  "updatedAt": "2020-12-02T16:23:50.018Z",
  "networkType": "ethereum",
  "devdoc": {
    "methods": {
      "isOwner()": {
        "details": "Returns true if the caller is the current owner."
      },
      "owner()": {
        "details": "Returns the address of the current owner."
      },
      "renounceOwnership()": {
        "details": "Leaves the contract without owner. It will not be possible to call `onlyOwner` functions anymore. Can only be called by the current owner. NOTE: Renouncing ownership will leave the contract without an owner, thereby removing any functionality that is only available to the owner."
      },
      "transferOwnership(address)": {
        "details": "Transfers ownership of the contract to a new account (`newOwner`). Can only be called by the current owner."
      }
    }
  },
  "userdoc": {
    "methods": {}
  }
}