{
  "contractName": "GelatoCore",
  "abi": [
    {
      "inputs": [
        {
          "components": [
            {
              "internalType": "address",
              "name": "gelatoGasPriceOracle",
              "type": "address"
            },
            {
              "internalType": "bytes",
              "name": "oracleRequestData",
              "type": "bytes"
            },
            {
              "internalType": "uint256",
              "name": "gelatoMaxGas",
              "type": "uint256"
            },
            {
              "internalType": "uint256",
              "name": "internalGasRequirement",
              "type": "uint256"
            },
            {
              "internalType": "uint256",
              "name": "minExecutorStake",
              "type": "uint256"
            },
            {
              "internalType": "uint256",
              "name": "executorSuccessShare",
              "type": "uint256"
            },
            {
              "internalType": "uint256",
              "name": "sysAdminSuccessShare",
              "type": "uint256"
            },
            {
              "internalType": "uint256",
              "name": "totalSuccessShare",
              "type": "uint256"
            }
          ],
          "internalType": "struct IGelatoSysAdmin.GelatoSysAdminInitialState",
          "name": "_",
          "type": "tuple"
        }
      ],
      "stateMutability": "nonpayable",
      "type": "constructor"
    },
    {
      "anonymous": false,
      "inputs": [
        {
          "indexed": true,
          "internalType": "address",
          "name": "executor",
          "type": "address"
        },
        {
          "indexed": true,
          "internalType": "uint256",
          "name": "taskReceiptId",
          "type": "uint256"
        },
        {
          "indexed": false,
          "internalType": "string",
          "name": "reason",
          "type": "string"
        }
      ],
      "name": "LogCanExecFailed",
      "type": "event"
    },
    {
      "anonymous": false,
      "inputs": [
        {
          "indexed": true,
          "internalType": "address",
          "name": "executor",
          "type": "address"
        },
        {
          "indexed": true,
          "internalType": "uint256",
          "name": "taskReceiptId",
          "type": "uint256"
        },
        {
          "indexed": false,
          "internalType": "uint256",
          "name": "executorRefund",
          "type": "uint256"
        },
        {
          "indexed": false,
          "internalType": "string",
          "name": "reason",
          "type": "string"
        }
      ],
      "name": "LogExecReverted",
      "type": "event"
    },
    {
      "anonymous": false,
      "inputs": [
        {
          "indexed": true,
          "internalType": "address",
          "name": "executor",
          "type": "address"
        },
        {
          "indexed": true,
          "internalType": "uint256",
          "name": "taskReceiptId",
          "type": "uint256"
        },
        {
          "indexed": false,
          "internalType": "uint256",
          "name": "executorSuccessFee",
          "type": "uint256"
        },
        {
          "indexed": false,
          "internalType": "uint256",
          "name": "sysAdminSuccessFee",
          "type": "uint256"
        }
      ],
      "name": "LogExecSuccess",
      "type": "event"
    },
    {
      "anonymous": false,
      "inputs": [
        {
          "indexed": true,
          "internalType": "address",
          "name": "provider",
          "type": "address"
        },
        {
          "indexed": true,
          "internalType": "address",
          "name": "oldExecutor",
          "type": "address"
        },
        {
          "indexed": true,
          "internalType": "address",
          "name": "newExecutor",
          "type": "address"
        }
      ],
      "name": "LogExecutorAssignedExecutor",
      "type": "event"
    },
    {
      "anonymous": false,
      "inputs": [
        {
          "indexed": true,
          "internalType": "address",
          "name": "executor",
          "type": "address"
        },
        {
          "indexed": false,
          "internalType": "uint256",
          "name": "withdrawAmount",
          "type": "uint256"
        }
      ],
      "name": "LogExecutorBalanceWithdrawn",
      "type": "event"
    },
    {
      "anonymous": false,
      "inputs": [
        {
          "indexed": true,
          "internalType": "address",
          "name": "executor",
          "type": "address"
        },
        {
          "indexed": false,
          "internalType": "uint256",
          "name": "oldStake",
          "type": "uint256"
        },
        {
          "indexed": false,
          "internalType": "uint256",
          "name": "newStake",
          "type": "uint256"
        }
      ],
      "name": "LogExecutorStaked",
      "type": "event"
    },
    {
      "anonymous": false,
      "inputs": [
        {
          "indexed": false,
          "internalType": "uint256",
          "name": "oldShare",
          "type": "uint256"
        },
        {
          "indexed": false,
          "internalType": "uint256",
          "name": "newShare",
          "type": "uint256"
        },
        {
          "indexed": false,
          "internalType": "uint256",
          "name": "total",
          "type": "uint256"
        }
      ],
      "name": "LogExecutorSuccessShareSet",
      "type": "event"
    },
    {
      "anonymous": false,
      "inputs": [
        {
          "indexed": true,
          "internalType": "address",
          "name": "executor",
          "type": "address"
        }
      ],
      "name": "LogExecutorUnstaked",
      "type": "event"
    },
    {
      "anonymous": false,
      "inputs": [
        {
          "indexed": true,
          "internalType": "address",
          "name": "provider",
          "type": "address"
        },
        {
          "indexed": false,
          "internalType": "uint256",
          "name": "amount",
          "type": "uint256"
        },
        {
          "indexed": false,
          "internalType": "uint256",
          "name": "newProviderFunds",
          "type": "uint256"
        }
      ],
      "name": "LogFundsProvided",
      "type": "event"
    },
    {
      "anonymous": false,
      "inputs": [
        {
          "indexed": true,
          "internalType": "address",
          "name": "provider",
          "type": "address"
        },
        {
          "indexed": false,
          "internalType": "uint256",
          "name": "realWithdrawAmount",
          "type": "uint256"
        },
        {
          "indexed": false,
          "internalType": "uint256",
          "name": "newProviderFunds",
          "type": "uint256"
        }
      ],
      "name": "LogFundsUnprovided",
      "type": "event"
    },
    {
      "anonymous": false,
      "inputs": [
        {
          "indexed": true,
          "internalType": "address",
          "name": "oldOracle",
          "type": "address"
        },
        {
          "indexed": true,
          "internalType": "address",
          "name": "newOracle",
          "type": "address"
        }
      ],
      "name": "LogGelatoGasPriceOracleSet",
      "type": "event"
    },
    {
      "anonymous": false,
      "inputs": [
        {
          "indexed": false,
          "internalType": "uint256",
          "name": "oldMaxGas",
          "type": "uint256"
        },
        {
          "indexed": false,
          "internalType": "uint256",
          "name": "newMaxGas",
          "type": "uint256"
        }
      ],
      "name": "LogGelatoMaxGasSet",
      "type": "event"
    },
    {
      "anonymous": false,
      "inputs": [
        {
          "indexed": false,
          "internalType": "uint256",
          "name": "oldRequirment",
          "type": "uint256"
        },
        {
          "indexed": false,
          "internalType": "uint256",
          "name": "newRequirment",
          "type": "uint256"
        }
      ],
      "name": "LogInternalGasRequirementSet",
      "type": "event"
    },
    {
      "anonymous": false,
      "inputs": [
        {
          "indexed": false,
          "internalType": "uint256",
          "name": "oldMin",
          "type": "uint256"
        },
        {
          "indexed": false,
          "internalType": "uint256",
          "name": "newMin",
          "type": "uint256"
        }
      ],
      "name": "LogMinExecutorStakeSet",
      "type": "event"
    },
    {
      "anonymous": false,
      "inputs": [
        {
          "indexed": false,
          "internalType": "bytes",
          "name": "oldData",
          "type": "bytes"
        },
        {
          "indexed": false,
          "internalType": "bytes",
          "name": "newData",
          "type": "bytes"
        }
      ],
      "name": "LogOracleRequestDataSet",
      "type": "event"
    },
    {
      "anonymous": false,
      "inputs": [
        {
          "indexed": true,
          "internalType": "address",
          "name": "provider",
          "type": "address"
        },
        {
          "indexed": true,
          "internalType": "address",
          "name": "oldExecutor",
          "type": "address"
        },
        {
          "indexed": true,
          "internalType": "address",
          "name": "newExecutor",
          "type": "address"
        }
      ],
      "name": "LogProviderAssignedExecutor",
      "type": "event"
    },
    {
      "anonymous": false,
      "inputs": [
        {
          "indexed": true,
          "internalType": "address",
          "name": "provider",
          "type": "address"
        },
        {
          "indexed": true,
          "internalType": "contract IGelatoProviderModule",
          "name": "module",
          "type": "address"
        }
      ],
      "name": "LogProviderModuleAdded",
      "type": "event"
    },
    {
      "anonymous": false,
      "inputs": [
        {
          "indexed": true,
          "internalType": "address",
          "name": "provider",
          "type": "address"
        },
        {
          "indexed": true,
          "internalType": "contract IGelatoProviderModule",
          "name": "module",
          "type": "address"
        }
      ],
      "name": "LogProviderModuleRemoved",
      "type": "event"
    },
    {
      "anonymous": false,
      "inputs": [
        {
          "indexed": false,
          "internalType": "uint256",
          "name": "oldBalance",
          "type": "uint256"
        },
        {
          "indexed": false,
          "internalType": "uint256",
          "name": "newBalance",
          "type": "uint256"
        }
      ],
      "name": "LogSysAdminFundsWithdrawn",
      "type": "event"
    },
    {
      "anonymous": false,
      "inputs": [
        {
          "indexed": false,
          "internalType": "uint256",
          "name": "oldShare",
          "type": "uint256"
        },
        {
          "indexed": false,
          "internalType": "uint256",
          "name": "newShare",
          "type": "uint256"
        },
        {
          "indexed": false,
          "internalType": "uint256",
          "name": "total",
          "type": "uint256"
        }
      ],
      "name": "LogSysAdminSuccessShareSet",
      "type": "event"
    },
    {
      "anonymous": false,
      "inputs": [
        {
          "indexed": true,
          "internalType": "uint256",
          "name": "taskReceiptId",
          "type": "uint256"
        },
        {
          "indexed": true,
          "internalType": "address",
          "name": "cancellor",
          "type": "address"
        }
      ],
      "name": "LogTaskCancelled",
      "type": "event"
    },
    {
      "anonymous": false,
      "inputs": [
        {
          "indexed": true,
          "internalType": "address",
          "name": "provider",
          "type": "address"
        },
        {
          "indexed": false,
          "internalType": "bytes32",
          "name": "taskSpecHash",
          "type": "bytes32"
        },
        {
          "indexed": false,
          "internalType": "uint256",
          "name": "oldTaskSpecGasPriceCeil",
          "type": "uint256"
        },
        {
          "indexed": false,
          "internalType": "uint256",
          "name": "newTaskSpecGasPriceCeil",
          "type": "uint256"
        }
      ],
      "name": "LogTaskSpecGasPriceCeilSet",
      "type": "event"
    },
    {
      "anonymous": false,
      "inputs": [
        {
          "indexed": true,
          "internalType": "address",
          "name": "provider",
          "type": "address"
        },
        {
          "indexed": true,
          "internalType": "bytes32",
          "name": "taskSpecHash",
          "type": "bytes32"
        }
      ],
      "name": "LogTaskSpecProvided",
      "type": "event"
    },
    {
      "anonymous": false,
      "inputs": [
        {
          "indexed": true,
          "internalType": "address",
          "name": "provider",
          "type": "address"
        },
        {
          "indexed": true,
          "internalType": "bytes32",
          "name": "taskSpecHash",
          "type": "bytes32"
        }
      ],
      "name": "LogTaskSpecUnprovided",
      "type": "event"
    },
    {
      "anonymous": false,
      "inputs": [
        {
          "indexed": true,
          "internalType": "uint256",
          "name": "taskReceiptId",
          "type": "uint256"
        },
        {
          "indexed": true,
          "internalType": "bytes32",
          "name": "taskReceiptHash",
          "type": "bytes32"
        },
        {
          "components": [
            {
              "internalType": "uint256",
              "name": "id",
              "type": "uint256"
            },
            {
              "internalType": "address",
              "name": "userProxy",
              "type": "address"
            },
            {
              "components": [
                {
                  "internalType": "address",
                  "name": "addr",
                  "type": "address"
                },
                {
                  "internalType": "contract IGelatoProviderModule",
                  "name": "module",
                  "type": "address"
                }
              ],
              "internalType": "struct Provider",
              "name": "provider",
              "type": "tuple"
            },
            {
              "internalType": "uint256",
              "name": "index",
              "type": "uint256"
            },
            {
              "components": [
                {
                  "components": [
                    {
                      "internalType": "contract IGelatoCondition",
                      "name": "inst",
                      "type": "address"
                    },
                    {
                      "internalType": "bytes",
                      "name": "data",
                      "type": "bytes"
                    }
                  ],
                  "internalType": "struct Condition[]",
                  "name": "conditions",
                  "type": "tuple[]"
                },
                {
                  "components": [
                    {
                      "internalType": "address",
                      "name": "addr",
                      "type": "address"
                    },
                    {
                      "internalType": "bytes",
                      "name": "data",
                      "type": "bytes"
                    },
                    {
                      "internalType": "enum Operation",
                      "name": "operation",
                      "type": "uint8"
                    },
                    {
                      "internalType": "enum DataFlow",
                      "name": "dataFlow",
                      "type": "uint8"
                    },
                    {
                      "internalType": "uint256",
                      "name": "value",
                      "type": "uint256"
                    },
                    {
                      "internalType": "bool",
                      "name": "termsOkCheck",
                      "type": "bool"
                    }
                  ],
                  "internalType": "struct Action[]",
                  "name": "actions",
                  "type": "tuple[]"
                },
                {
                  "internalType": "uint256",
                  "name": "selfProviderGasLimit",
                  "type": "uint256"
                },
                {
                  "internalType": "uint256",
                  "name": "selfProviderGasPriceCeil",
                  "type": "uint256"
                }
              ],
              "internalType": "struct Task[]",
              "name": "tasks",
              "type": "tuple[]"
            },
            {
              "internalType": "uint256",
              "name": "expiryDate",
              "type": "uint256"
            },
            {
              "internalType": "uint256",
              "name": "cycleId",
              "type": "uint256"
            },
            {
              "internalType": "uint256",
              "name": "submissionsLeft",
              "type": "uint256"
            }
          ],
          "indexed": false,
          "internalType": "struct TaskReceipt",
          "name": "taskReceipt",
          "type": "tuple"
        }
      ],
      "name": "LogTaskSubmitted",
      "type": "event"
    },
    {
      "anonymous": false,
      "inputs": [
        {
          "indexed": true,
          "internalType": "address",
          "name": "previousOwner",
          "type": "address"
        },
        {
          "indexed": true,
          "internalType": "address",
          "name": "newOwner",
          "type": "address"
        }
      ],
      "name": "OwnershipTransferred",
      "type": "event"
    },
    {
      "inputs": [],
      "name": "EXEC_TX_OVERHEAD",
      "outputs": [
        {
          "internalType": "uint256",
          "name": "",
          "type": "uint256"
        }
      ],
      "stateMutability": "view",
      "type": "function",
      "constant": true
    },
    {
      "inputs": [],
      "name": "NO_CEIL",
      "outputs": [
        {
          "internalType": "uint256",
          "name": "",
          "type": "uint256"
        }
      ],
      "stateMutability": "view",
      "type": "function",
      "constant": true
    },
    {
      "inputs": [
        {
          "internalType": "contract IGelatoProviderModule[]",
          "name": "_modules",
          "type": "address[]"
        }
      ],
      "name": "addProviderModules",
      "outputs": [],
      "stateMutability": "nonpayable",
      "type": "function"
    },
    {
      "inputs": [],
      "name": "currentTaskReceiptId",
      "outputs": [
        {
          "internalType": "uint256",
          "name": "",
          "type": "uint256"
        }
      ],
      "stateMutability": "view",
      "type": "function",
      "constant": true
    },
    {
      "inputs": [
        {
          "internalType": "address",
          "name": "_provider",
          "type": "address"
        },
        {
          "internalType": "address",
          "name": "_newExecutor",
          "type": "address"
        }
      ],
      "name": "executorAssignsExecutor",
      "outputs": [],
      "stateMutability": "nonpayable",
      "type": "function"
    },
    {
      "inputs": [
        {
          "internalType": "address",
          "name": "",
          "type": "address"
        }
      ],
      "name": "executorByProvider",
      "outputs": [
        {
          "internalType": "address",
          "name": "",
          "type": "address"
        }
      ],
      "stateMutability": "view",
      "type": "function",
      "constant": true
    },
    {
      "inputs": [
        {
          "internalType": "address",
          "name": "",
          "type": "address"
        }
      ],
      "name": "executorProvidersCount",
      "outputs": [
        {
          "internalType": "uint256",
          "name": "",
          "type": "uint256"
        }
      ],
      "stateMutability": "view",
      "type": "function",
      "constant": true
    },
    {
      "inputs": [
        {
          "internalType": "address",
          "name": "",
          "type": "address"
        }
      ],
      "name": "executorStake",
      "outputs": [
        {
          "internalType": "uint256",
          "name": "",
          "type": "uint256"
        }
      ],
      "stateMutability": "view",
      "type": "function",
      "constant": true
    },
    {
      "inputs": [
        {
          "internalType": "uint256",
          "name": "_gas",
          "type": "uint256"
        },
        {
          "internalType": "uint256",
          "name": "_gasPrice",
          "type": "uint256"
        }
      ],
      "name": "executorSuccessFee",
      "outputs": [
        {
          "internalType": "uint256",
          "name": "",
          "type": "uint256"
        }
      ],
      "stateMutability": "view",
      "type": "function",
      "constant": true
    },
    {
      "inputs": [],
      "name": "executorSuccessShare",
      "outputs": [
        {
          "internalType": "uint256",
          "name": "",
          "type": "uint256"
        }
      ],
      "stateMutability": "view",
      "type": "function",
      "constant": true
    },
    {
      "inputs": [],
      "name": "gelatoGasPriceOracle",
      "outputs": [
        {
          "internalType": "address",
          "name": "",
          "type": "address"
        }
      ],
      "stateMutability": "view",
      "type": "function",
      "constant": true
    },
    {
      "inputs": [],
      "name": "gelatoMaxGas",
      "outputs": [
        {
          "internalType": "uint256",
          "name": "",
          "type": "uint256"
        }
      ],
      "stateMutability": "view",
      "type": "function",
      "constant": true
    },
    {
      "inputs": [
        {
          "components": [
            {
              "internalType": "contract IGelatoCondition[]",
              "name": "conditions",
              "type": "address[]"
            },
            {
              "components": [
                {
                  "internalType": "address",
                  "name": "addr",
                  "type": "address"
                },
                {
                  "internalType": "bytes",
                  "name": "data",
                  "type": "bytes"
                },
                {
                  "internalType": "enum Operation",
                  "name": "operation",
                  "type": "uint8"
                },
                {
                  "internalType": "enum DataFlow",
                  "name": "dataFlow",
                  "type": "uint8"
                },
                {
                  "internalType": "uint256",
                  "name": "value",
                  "type": "uint256"
                },
                {
                  "internalType": "bool",
                  "name": "termsOkCheck",
                  "type": "bool"
                }
              ],
              "internalType": "struct Action[]",
              "name": "actions",
              "type": "tuple[]"
            },
            {
              "internalType": "uint256",
              "name": "gasPriceCeil",
              "type": "uint256"
            }
          ],
          "internalType": "struct TaskSpec",
          "name": "_taskSpec",
          "type": "tuple"
        }
      ],
      "name": "hashTaskSpec",
      "outputs": [
        {
          "internalType": "bytes32",
          "name": "",
          "type": "bytes32"
        }
      ],
      "stateMutability": "view",
      "type": "function",
      "constant": true
    },
    {
      "inputs": [],
      "name": "internalGasRequirement",
      "outputs": [
        {
          "internalType": "uint256",
          "name": "",
          "type": "uint256"
        }
      ],
      "stateMutability": "view",
      "type": "function",
      "constant": true
    },
    {
      "inputs": [
        {
          "internalType": "address",
          "name": "_executor",
          "type": "address"
        }
      ],
      "name": "isExecutorAssigned",
      "outputs": [
        {
          "internalType": "bool",
          "name": "",
          "type": "bool"
        }
      ],
      "stateMutability": "view",
      "type": "function",
      "constant": true
    },
    {
      "inputs": [
        {
          "internalType": "address",
          "name": "_executor",
          "type": "address"
        }
      ],
      "name": "isExecutorMinStaked",
      "outputs": [
        {
          "internalType": "bool",
          "name": "",
          "type": "bool"
        }
      ],
      "stateMutability": "view",
      "type": "function",
      "constant": true
    },
    {
      "inputs": [
        {
          "internalType": "address",
          "name": "_provider",
          "type": "address"
        },
        {
          "internalType": "contract IGelatoProviderModule",
          "name": "_module",
          "type": "address"
        }
      ],
      "name": "isModuleProvided",
      "outputs": [
        {
          "internalType": "bool",
          "name": "",
          "type": "bool"
        }
      ],
      "stateMutability": "view",
      "type": "function",
      "constant": true
    },
    {
      "inputs": [],
      "name": "isOwner",
      "outputs": [
        {
          "internalType": "bool",
          "name": "",
          "type": "bool"
        }
      ],
      "stateMutability": "view",
      "type": "function",
      "constant": true
    },
    {
      "inputs": [
        {
          "internalType": "address",
          "name": "_provider",
          "type": "address"
        },
        {
          "internalType": "uint256",
          "name": "_gelatoMaxGas",
          "type": "uint256"
        },
        {
          "internalType": "uint256",
          "name": "_gelatoGasPrice",
          "type": "uint256"
        }
      ],
      "name": "isProviderLiquid",
      "outputs": [
        {
          "internalType": "bool",
          "name": "",
          "type": "bool"
        }
      ],
      "stateMutability": "view",
      "type": "function",
      "constant": true
    },
    {
      "inputs": [
        {
          "internalType": "address",
          "name": "_userProxy",
          "type": "address"
        },
        {
          "components": [
            {
              "internalType": "address",
              "name": "addr",
              "type": "address"
            },
            {
              "internalType": "contract IGelatoProviderModule",
              "name": "module",
              "type": "address"
            }
          ],
          "internalType": "struct Provider",
          "name": "_provider",
          "type": "tuple"
        },
        {
          "components": [
            {
              "components": [
                {
                  "internalType": "contract IGelatoCondition",
                  "name": "inst",
                  "type": "address"
                },
                {
                  "internalType": "bytes",
                  "name": "data",
                  "type": "bytes"
                }
              ],
              "internalType": "struct Condition[]",
              "name": "conditions",
              "type": "tuple[]"
            },
            {
              "components": [
                {
                  "internalType": "address",
                  "name": "addr",
                  "type": "address"
                },
                {
                  "internalType": "bytes",
                  "name": "data",
                  "type": "bytes"
                },
                {
                  "internalType": "enum Operation",
                  "name": "operation",
                  "type": "uint8"
                },
                {
                  "internalType": "enum DataFlow",
                  "name": "dataFlow",
                  "type": "uint8"
                },
                {
                  "internalType": "uint256",
                  "name": "value",
                  "type": "uint256"
                },
                {
                  "internalType": "bool",
                  "name": "termsOkCheck",
                  "type": "bool"
                }
              ],
              "internalType": "struct Action[]",
              "name": "actions",
              "type": "tuple[]"
            },
            {
              "internalType": "uint256",
              "name": "selfProviderGasLimit",
              "type": "uint256"
            },
            {
              "internalType": "uint256",
              "name": "selfProviderGasPriceCeil",
              "type": "uint256"
            }
          ],
          "internalType": "struct Task",
          "name": "_task",
          "type": "tuple"
        }
      ],
      "name": "isTaskProvided",
      "outputs": [
        {
          "internalType": "string",
          "name": "res",
          "type": "string"
        }
      ],
      "stateMutability": "view",
      "type": "function",
      "constant": true
    },
    {
      "inputs": [
        {
          "internalType": "address",
          "name": "_provider",
          "type": "address"
        },
        {
          "components": [
            {
              "internalType": "contract IGelatoCondition[]",
              "name": "conditions",
              "type": "address[]"
            },
            {
              "components": [
                {
                  "internalType": "address",
                  "name": "addr",
                  "type": "address"
                },
                {
                  "internalType": "bytes",
                  "name": "data",
                  "type": "bytes"
                },
                {
                  "internalType": "enum Operation",
                  "name": "operation",
                  "type": "uint8"
                },
                {
                  "internalType": "enum DataFlow",
                  "name": "dataFlow",
                  "type": "uint8"
                },
                {
                  "internalType": "uint256",
                  "name": "value",
                  "type": "uint256"
                },
                {
                  "internalType": "bool",
                  "name": "termsOkCheck",
                  "type": "bool"
                }
              ],
              "internalType": "struct Action[]",
              "name": "actions",
              "type": "tuple[]"
            },
            {
              "internalType": "uint256",
              "name": "gasPriceCeil",
              "type": "uint256"
            }
          ],
          "internalType": "struct TaskSpec",
          "name": "_taskSpec",
          "type": "tuple"
        }
      ],
      "name": "isTaskSpecProvided",
      "outputs": [
        {
          "internalType": "string",
          "name": "",
          "type": "string"
        }
      ],
      "stateMutability": "view",
      "type": "function",
      "constant": true
    },
    {
      "inputs": [
        {
          "internalType": "uint256",
          "name": "_gelatoMaxGas",
          "type": "uint256"
        },
        {
          "internalType": "uint256",
          "name": "_gelatoGasPrice",
          "type": "uint256"
        }
      ],
      "name": "minExecProviderFunds",
      "outputs": [
        {
          "internalType": "uint256",
          "name": "",
          "type": "uint256"
        }
      ],
      "stateMutability": "view",
      "type": "function",
      "constant": true
    },
    {
      "inputs": [],
      "name": "minExecutorStake",
      "outputs": [
        {
          "internalType": "uint256",
          "name": "",
          "type": "uint256"
        }
      ],
      "stateMutability": "view",
      "type": "function",
      "constant": true
    },
    {
      "inputs": [
        {
          "internalType": "address",
          "name": "_executor",
          "type": "address"
        },
        {
          "components": [
            {
              "internalType": "contract IGelatoCondition[]",
              "name": "conditions",
              "type": "address[]"
            },
            {
              "components": [
                {
                  "internalType": "address",
                  "name": "addr",
                  "type": "address"
                },
                {
                  "internalType": "bytes",
                  "name": "data",
                  "type": "bytes"
                },
                {
                  "internalType": "enum Operation",
                  "name": "operation",
                  "type": "uint8"
                },
                {
                  "internalType": "enum DataFlow",
                  "name": "dataFlow",
                  "type": "uint8"
                },
                {
                  "internalType": "uint256",
                  "name": "value",
                  "type": "uint256"
                },
                {
                  "internalType": "bool",
                  "name": "termsOkCheck",
                  "type": "bool"
                }
              ],
              "internalType": "struct Action[]",
              "name": "actions",
              "type": "tuple[]"
            },
            {
              "internalType": "uint256",
              "name": "gasPriceCeil",
              "type": "uint256"
            }
          ],
          "internalType": "struct TaskSpec[]",
          "name": "_taskSpecs",
          "type": "tuple[]"
        },
        {
          "internalType": "contract IGelatoProviderModule[]",
          "name": "_modules",
          "type": "address[]"
        }
      ],
      "name": "multiProvide",
      "outputs": [],
      "stateMutability": "payable",
      "type": "function",
      "payable": true
    },
    {
      "inputs": [
        {
          "internalType": "address[]",
          "name": "_providers",
          "type": "address[]"
        },
        {
          "internalType": "address",
          "name": "_newExecutor",
          "type": "address"
        }
      ],
      "name": "multiReassignProviders",
      "outputs": [],
      "stateMutability": "nonpayable",
      "type": "function"
    },
    {
      "inputs": [
        {
          "internalType": "uint256",
          "name": "_withdrawAmount",
          "type": "uint256"
        },
        {
          "components": [
            {
              "internalType": "contract IGelatoCondition[]",
              "name": "conditions",
              "type": "address[]"
            },
            {
              "components": [
                {
                  "internalType": "address",
                  "name": "addr",
                  "type": "address"
                },
                {
                  "internalType": "bytes",
                  "name": "data",
                  "type": "bytes"
                },
                {
                  "internalType": "enum Operation",
                  "name": "operation",
                  "type": "uint8"
                },
                {
                  "internalType": "enum DataFlow",
                  "name": "dataFlow",
                  "type": "uint8"
                },
                {
                  "internalType": "uint256",
                  "name": "value",
                  "type": "uint256"
                },
                {
                  "internalType": "bool",
                  "name": "termsOkCheck",
                  "type": "bool"
                }
              ],
              "internalType": "struct Action[]",
              "name": "actions",
              "type": "tuple[]"
            },
            {
              "internalType": "uint256",
              "name": "gasPriceCeil",
              "type": "uint256"
            }
          ],
          "internalType": "struct TaskSpec[]",
          "name": "_taskSpecs",
          "type": "tuple[]"
        },
        {
          "internalType": "contract IGelatoProviderModule[]",
          "name": "_modules",
          "type": "address[]"
        }
      ],
      "name": "multiUnprovide",
      "outputs": [],
      "stateMutability": "nonpayable",
      "type": "function"
    },
    {
      "inputs": [],
      "name": "oracleRequestData",
      "outputs": [
        {
          "internalType": "bytes",
          "name": "",
          "type": "bytes"
        }
      ],
      "stateMutability": "view",
      "type": "function",
      "constant": true
    },
    {
      "inputs": [],
      "name": "owner",
      "outputs": [
        {
          "internalType": "address",
          "name": "",
          "type": "address"
        }
      ],
      "stateMutability": "view",
      "type": "function",
      "constant": true
    },
    {
      "inputs": [
        {
          "internalType": "address",
          "name": "_provider",
          "type": "address"
        }
      ],
      "name": "provideFunds",
      "outputs": [],
      "stateMutability": "payable",
      "type": "function",
      "payable": true
    },
    {
      "inputs": [
        {
          "components": [
            {
              "internalType": "contract IGelatoCondition[]",
              "name": "conditions",
              "type": "address[]"
            },
            {
              "components": [
                {
                  "internalType": "address",
                  "name": "addr",
                  "type": "address"
                },
                {
                  "internalType": "bytes",
                  "name": "data",
                  "type": "bytes"
                },
                {
                  "internalType": "enum Operation",
                  "name": "operation",
                  "type": "uint8"
                },
                {
                  "internalType": "enum DataFlow",
                  "name": "dataFlow",
                  "type": "uint8"
                },
                {
                  "internalType": "uint256",
                  "name": "value",
                  "type": "uint256"
                },
                {
                  "internalType": "bool",
                  "name": "termsOkCheck",
                  "type": "bool"
                }
              ],
              "internalType": "struct Action[]",
              "name": "actions",
              "type": "tuple[]"
            },
            {
              "internalType": "uint256",
              "name": "gasPriceCeil",
              "type": "uint256"
            }
          ],
          "internalType": "struct TaskSpec[]",
          "name": "_taskSpecs",
          "type": "tuple[]"
        }
      ],
      "name": "provideTaskSpecs",
      "outputs": [],
      "stateMutability": "nonpayable",
      "type": "function"
    },
    {
      "inputs": [
        {
          "internalType": "address",
          "name": "_newExecutor",
          "type": "address"
        }
      ],
      "name": "providerAssignsExecutor",
      "outputs": [],
      "stateMutability": "nonpayable",
      "type": "function"
    },
    {
      "inputs": [
        {
          "internalType": "address",
          "name": "_userProxy",
          "type": "address"
        },
        {
          "components": [
            {
              "internalType": "address",
              "name": "addr",
              "type": "address"
            },
            {
              "internalType": "contract IGelatoProviderModule",
              "name": "module",
              "type": "address"
            }
          ],
          "internalType": "struct Provider",
          "name": "_provider",
          "type": "tuple"
        },
        {
          "components": [
            {
              "components": [
                {
                  "internalType": "contract IGelatoCondition",
                  "name": "inst",
                  "type": "address"
                },
                {
                  "internalType": "bytes",
                  "name": "data",
                  "type": "bytes"
                }
              ],
              "internalType": "struct Condition[]",
              "name": "conditions",
              "type": "tuple[]"
            },
            {
              "components": [
                {
                  "internalType": "address",
                  "name": "addr",
                  "type": "address"
                },
                {
                  "internalType": "bytes",
                  "name": "data",
                  "type": "bytes"
                },
                {
                  "internalType": "enum Operation",
                  "name": "operation",
                  "type": "uint8"
                },
                {
                  "internalType": "enum DataFlow",
                  "name": "dataFlow",
                  "type": "uint8"
                },
                {
                  "internalType": "uint256",
                  "name": "value",
                  "type": "uint256"
                },
                {
                  "internalType": "bool",
                  "name": "termsOkCheck",
                  "type": "bool"
                }
              ],
              "internalType": "struct Action[]",
              "name": "actions",
              "type": "tuple[]"
            },
            {
              "internalType": "uint256",
              "name": "selfProviderGasLimit",
              "type": "uint256"
            },
            {
              "internalType": "uint256",
              "name": "selfProviderGasPriceCeil",
              "type": "uint256"
            }
          ],
          "internalType": "struct Task",
          "name": "_task",
          "type": "tuple"
        },
        {
          "internalType": "uint256",
          "name": "_gelatoGasPrice",
          "type": "uint256"
        }
      ],
      "name": "providerCanExec",
      "outputs": [
        {
          "internalType": "string",
          "name": "",
          "type": "string"
        }
      ],
      "stateMutability": "view",
      "type": "function",
      "constant": true
    },
    {
      "inputs": [
        {
          "internalType": "address",
          "name": "",
          "type": "address"
        }
      ],
      "name": "providerFunds",
      "outputs": [
        {
          "internalType": "uint256",
          "name": "",
          "type": "uint256"
        }
      ],
      "stateMutability": "view",
      "type": "function",
      "constant": true
    },
    {
      "inputs": [
        {
          "internalType": "address",
          "name": "_userProxy",
          "type": "address"
        },
        {
          "components": [
            {
              "internalType": "address",
              "name": "addr",
              "type": "address"
            },
            {
              "internalType": "contract IGelatoProviderModule",
              "name": "module",
              "type": "address"
            }
          ],
          "internalType": "struct Provider",
          "name": "_provider",
          "type": "tuple"
        },
        {
          "components": [
            {
              "components": [
                {
                  "internalType": "contract IGelatoCondition",
                  "name": "inst",
                  "type": "address"
                },
                {
                  "internalType": "bytes",
                  "name": "data",
                  "type": "bytes"
                }
              ],
              "internalType": "struct Condition[]",
              "name": "conditions",
              "type": "tuple[]"
            },
            {
              "components": [
                {
                  "internalType": "address",
                  "name": "addr",
                  "type": "address"
                },
                {
                  "internalType": "bytes",
                  "name": "data",
                  "type": "bytes"
                },
                {
                  "internalType": "enum Operation",
                  "name": "operation",
                  "type": "uint8"
                },
                {
                  "internalType": "enum DataFlow",
                  "name": "dataFlow",
                  "type": "uint8"
                },
                {
                  "internalType": "uint256",
                  "name": "value",
                  "type": "uint256"
                },
                {
                  "internalType": "bool",
                  "name": "termsOkCheck",
                  "type": "bool"
                }
              ],
              "internalType": "struct Action[]",
              "name": "actions",
              "type": "tuple[]"
            },
            {
              "internalType": "uint256",
              "name": "selfProviderGasLimit",
              "type": "uint256"
            },
            {
              "internalType": "uint256",
              "name": "selfProviderGasPriceCeil",
              "type": "uint256"
            }
          ],
          "internalType": "struct Task",
          "name": "_task",
          "type": "tuple"
        }
      ],
      "name": "providerModuleChecks",
      "outputs": [
        {
          "internalType": "string",
          "name": "",
          "type": "string"
        }
      ],
      "stateMutability": "view",
      "type": "function",
      "constant": true
    },
    {
      "inputs": [
        {
          "internalType": "address",
          "name": "_provider",
          "type": "address"
        }
      ],
      "name": "providerModules",
      "outputs": [
        {
          "internalType": "contract IGelatoProviderModule[]",
          "name": "",
          "type": "address[]"
        }
      ],
      "stateMutability": "view",
      "type": "function",
      "constant": true
    },
    {
      "inputs": [
        {
          "internalType": "contract IGelatoProviderModule[]",
          "name": "_modules",
          "type": "address[]"
        }
      ],
      "name": "removeProviderModules",
      "outputs": [],
      "stateMutability": "nonpayable",
      "type": "function"
    },
    {
      "inputs": [],
      "name": "renounceOwnership",
      "outputs": [],
      "stateMutability": "nonpayable",
      "type": "function"
    },
    {
      "inputs": [
        {
          "internalType": "uint256",
          "name": "_percentage",
          "type": "uint256"
        }
      ],
      "name": "setExecutorSuccessShare",
      "outputs": [],
      "stateMutability": "nonpayable",
      "type": "function"
    },
    {
      "inputs": [
        {
          "internalType": "address",
          "name": "_newOracle",
          "type": "address"
        }
      ],
      "name": "setGelatoGasPriceOracle",
      "outputs": [],
      "stateMutability": "nonpayable",
      "type": "function"
    },
    {
      "inputs": [
        {
          "internalType": "uint256",
          "name": "_newMaxGas",
          "type": "uint256"
        }
      ],
      "name": "setGelatoMaxGas",
      "outputs": [],
      "stateMutability": "nonpayable",
      "type": "function"
    },
    {
      "inputs": [
        {
          "internalType": "uint256",
          "name": "_newRequirement",
          "type": "uint256"
        }
      ],
      "name": "setInternalGasRequirement",
      "outputs": [],
      "stateMutability": "nonpayable",
      "type": "function"
    },
    {
      "inputs": [
        {
          "internalType": "uint256",
          "name": "_newMin",
          "type": "uint256"
        }
      ],
      "name": "setMinExecutorStake",
      "outputs": [],
      "stateMutability": "nonpayable",
      "type": "function"
    },
    {
      "inputs": [
        {
          "internalType": "bytes",
          "name": "_requestData",
          "type": "bytes"
        }
      ],
      "name": "setOracleRequestData",
      "outputs": [],
      "stateMutability": "nonpayable",
      "type": "function"
    },
    {
      "inputs": [
        {
          "internalType": "uint256",
          "name": "_percentage",
          "type": "uint256"
        }
      ],
      "name": "setSysAdminSuccessShare",
      "outputs": [],
      "stateMutability": "nonpayable",
      "type": "function"
    },
    {
      "inputs": [
        {
          "internalType": "bytes32",
          "name": "_taskSpecHash",
          "type": "bytes32"
        },
        {
          "internalType": "uint256",
          "name": "_gasPriceCeil",
          "type": "uint256"
        }
      ],
      "name": "setTaskSpecGasPriceCeil",
      "outputs": [],
      "stateMutability": "nonpayable",
      "type": "function"
    },
    {
      "inputs": [],
      "name": "stakeExecutor",
      "outputs": [],
      "stateMutability": "payable",
      "type": "function",
      "payable": true
    },
    {
      "inputs": [],
      "name": "sysAdminFunds",
      "outputs": [
        {
          "internalType": "uint256",
          "name": "",
          "type": "uint256"
        }
      ],
      "stateMutability": "view",
      "type": "function",
      "constant": true
    },
    {
      "inputs": [
        {
          "internalType": "uint256",
          "name": "_gas",
          "type": "uint256"
        },
        {
          "internalType": "uint256",
          "name": "_gasPrice",
          "type": "uint256"
        }
      ],
      "name": "sysAdminSuccessFee",
      "outputs": [
        {
          "internalType": "uint256",
          "name": "",
          "type": "uint256"
        }
      ],
      "stateMutability": "view",
      "type": "function",
      "constant": true
    },
    {
      "inputs": [],
      "name": "sysAdminSuccessShare",
      "outputs": [
        {
          "internalType": "uint256",
          "name": "",
          "type": "uint256"
        }
      ],
      "stateMutability": "view",
      "type": "function",
      "constant": true
    },
    {
      "inputs": [
        {
          "internalType": "uint256",
          "name": "",
          "type": "uint256"
        }
      ],
      "name": "taskReceiptHash",
      "outputs": [
        {
          "internalType": "bytes32",
          "name": "",
          "type": "bytes32"
        }
      ],
      "stateMutability": "view",
      "type": "function",
      "constant": true
    },
    {
      "inputs": [
        {
          "internalType": "address",
          "name": "",
          "type": "address"
        },
        {
          "internalType": "bytes32",
          "name": "",
          "type": "bytes32"
        }
      ],
      "name": "taskSpecGasPriceCeil",
      "outputs": [
        {
          "internalType": "uint256",
          "name": "",
          "type": "uint256"
        }
      ],
      "stateMutability": "view",
      "type": "function",
      "constant": true
    },
    {
      "inputs": [],
      "name": "totalSuccessShare",
      "outputs": [
        {
          "internalType": "uint256",
          "name": "",
          "type": "uint256"
        }
      ],
      "stateMutability": "view",
      "type": "function",
      "constant": true
    },
    {
      "inputs": [
        {
          "internalType": "address",
          "name": "newOwner",
          "type": "address"
        }
      ],
      "name": "transferOwnership",
      "outputs": [],
      "stateMutability": "nonpayable",
      "type": "function"
    },
    {
      "inputs": [
        {
          "internalType": "uint256",
          "name": "_withdrawAmount",
          "type": "uint256"
        }
      ],
      "name": "unprovideFunds",
      "outputs": [
        {
          "internalType": "uint256",
          "name": "realWithdrawAmount",
          "type": "uint256"
        }
      ],
      "stateMutability": "nonpayable",
      "type": "function"
    },
    {
      "inputs": [
        {
          "components": [
            {
              "internalType": "contract IGelatoCondition[]",
              "name": "conditions",
              "type": "address[]"
            },
            {
              "components": [
                {
                  "internalType": "address",
                  "name": "addr",
                  "type": "address"
                },
                {
                  "internalType": "bytes",
                  "name": "data",
                  "type": "bytes"
                },
                {
                  "internalType": "enum Operation",
                  "name": "operation",
                  "type": "uint8"
                },
                {
                  "internalType": "enum DataFlow",
                  "name": "dataFlow",
                  "type": "uint8"
                },
                {
                  "internalType": "uint256",
                  "name": "value",
                  "type": "uint256"
                },
                {
                  "internalType": "bool",
                  "name": "termsOkCheck",
                  "type": "bool"
                }
              ],
              "internalType": "struct Action[]",
              "name": "actions",
              "type": "tuple[]"
            },
            {
              "internalType": "uint256",
              "name": "gasPriceCeil",
              "type": "uint256"
            }
          ],
          "internalType": "struct TaskSpec[]",
          "name": "_taskSpecs",
          "type": "tuple[]"
        }
      ],
      "name": "unprovideTaskSpecs",
      "outputs": [],
      "stateMutability": "nonpayable",
      "type": "function"
    },
    {
      "inputs": [],
      "name": "unstakeExecutor",
      "outputs": [],
      "stateMutability": "nonpayable",
      "type": "function"
    },
    {
      "inputs": [
        {
          "internalType": "uint256",
          "name": "_withdrawAmount",
          "type": "uint256"
        }
      ],
      "name": "withdrawExcessExecutorStake",
      "outputs": [
        {
          "internalType": "uint256",
          "name": "realWithdrawAmount",
          "type": "uint256"
        }
      ],
      "stateMutability": "nonpayable",
      "type": "function"
    },
    {
      "inputs": [
        {
          "internalType": "uint256",
          "name": "_amount",
          "type": "uint256"
        },
        {
          "internalType": "address payable",
          "name": "_to",
          "type": "address"
        }
      ],
      "name": "withdrawSysAdminFunds",
      "outputs": [
        {
          "internalType": "uint256",
          "name": "realWithdrawAmount",
          "type": "uint256"
        }
      ],
      "stateMutability": "nonpayable",
      "type": "function"
    },
    {
      "inputs": [
        {
          "internalType": "address",
          "name": "_userProxy",
          "type": "address"
        },
        {
          "components": [
            {
              "internalType": "address",
              "name": "addr",
              "type": "address"
            },
            {
              "internalType": "contract IGelatoProviderModule",
              "name": "module",
              "type": "address"
            }
          ],
          "internalType": "struct Provider",
          "name": "_provider",
          "type": "tuple"
        },
        {
          "components": [
            {
              "components": [
                {
                  "internalType": "contract IGelatoCondition",
                  "name": "inst",
                  "type": "address"
                },
                {
                  "internalType": "bytes",
                  "name": "data",
                  "type": "bytes"
                }
              ],
              "internalType": "struct Condition[]",
              "name": "conditions",
              "type": "tuple[]"
            },
            {
              "components": [
                {
                  "internalType": "address",
                  "name": "addr",
                  "type": "address"
                },
                {
                  "internalType": "bytes",
                  "name": "data",
                  "type": "bytes"
                },
                {
                  "internalType": "enum Operation",
                  "name": "operation",
                  "type": "uint8"
                },
                {
                  "internalType": "enum DataFlow",
                  "name": "dataFlow",
                  "type": "uint8"
                },
                {
                  "internalType": "uint256",
                  "name": "value",
                  "type": "uint256"
                },
                {
                  "internalType": "bool",
                  "name": "termsOkCheck",
                  "type": "bool"
                }
              ],
              "internalType": "struct Action[]",
              "name": "actions",
              "type": "tuple[]"
            },
            {
              "internalType": "uint256",
              "name": "selfProviderGasLimit",
              "type": "uint256"
            },
            {
              "internalType": "uint256",
              "name": "selfProviderGasPriceCeil",
              "type": "uint256"
            }
          ],
          "internalType": "struct Task",
          "name": "_task",
          "type": "tuple"
        },
        {
          "internalType": "uint256",
          "name": "_expiryDate",
          "type": "uint256"
        }
      ],
      "name": "canSubmitTask",
      "outputs": [
        {
          "internalType": "string",
          "name": "",
          "type": "string"
        }
      ],
      "stateMutability": "view",
      "type": "function",
      "constant": true
    },
    {
      "inputs": [
        {
          "components": [
            {
              "internalType": "address",
              "name": "addr",
              "type": "address"
            },
            {
              "internalType": "contract IGelatoProviderModule",
              "name": "module",
              "type": "address"
            }
          ],
          "internalType": "struct Provider",
          "name": "_provider",
          "type": "tuple"
        },
        {
          "components": [
            {
              "components": [
                {
                  "internalType": "contract IGelatoCondition",
                  "name": "inst",
                  "type": "address"
                },
                {
                  "internalType": "bytes",
                  "name": "data",
                  "type": "bytes"
                }
              ],
              "internalType": "struct Condition[]",
              "name": "conditions",
              "type": "tuple[]"
            },
            {
              "components": [
                {
                  "internalType": "address",
                  "name": "addr",
                  "type": "address"
                },
                {
                  "internalType": "bytes",
                  "name": "data",
                  "type": "bytes"
                },
                {
                  "internalType": "enum Operation",
                  "name": "operation",
                  "type": "uint8"
                },
                {
                  "internalType": "enum DataFlow",
                  "name": "dataFlow",
                  "type": "uint8"
                },
                {
                  "internalType": "uint256",
                  "name": "value",
                  "type": "uint256"
                },
                {
                  "internalType": "bool",
                  "name": "termsOkCheck",
                  "type": "bool"
                }
              ],
              "internalType": "struct Action[]",
              "name": "actions",
              "type": "tuple[]"
            },
            {
              "internalType": "uint256",
              "name": "selfProviderGasLimit",
              "type": "uint256"
            },
            {
              "internalType": "uint256",
              "name": "selfProviderGasPriceCeil",
              "type": "uint256"
            }
          ],
          "internalType": "struct Task",
          "name": "_task",
          "type": "tuple"
        },
        {
          "internalType": "uint256",
          "name": "_expiryDate",
          "type": "uint256"
        }
      ],
      "name": "submitTask",
      "outputs": [],
      "stateMutability": "nonpayable",
      "type": "function"
    },
    {
      "inputs": [
        {
          "components": [
            {
              "internalType": "address",
              "name": "addr",
              "type": "address"
            },
            {
              "internalType": "contract IGelatoProviderModule",
              "name": "module",
              "type": "address"
            }
          ],
          "internalType": "struct Provider",
          "name": "_provider",
          "type": "tuple"
        },
        {
          "components": [
            {
              "components": [
                {
                  "internalType": "contract IGelatoCondition",
                  "name": "inst",
                  "type": "address"
                },
                {
                  "internalType": "bytes",
                  "name": "data",
                  "type": "bytes"
                }
              ],
              "internalType": "struct Condition[]",
              "name": "conditions",
              "type": "tuple[]"
            },
            {
              "components": [
                {
                  "internalType": "address",
                  "name": "addr",
                  "type": "address"
                },
                {
                  "internalType": "bytes",
                  "name": "data",
                  "type": "bytes"
                },
                {
                  "internalType": "enum Operation",
                  "name": "operation",
                  "type": "uint8"
                },
                {
                  "internalType": "enum DataFlow",
                  "name": "dataFlow",
                  "type": "uint8"
                },
                {
                  "internalType": "uint256",
                  "name": "value",
                  "type": "uint256"
                },
                {
                  "internalType": "bool",
                  "name": "termsOkCheck",
                  "type": "bool"
                }
              ],
              "internalType": "struct Action[]",
              "name": "actions",
              "type": "tuple[]"
            },
            {
              "internalType": "uint256",
              "name": "selfProviderGasLimit",
              "type": "uint256"
            },
            {
              "internalType": "uint256",
              "name": "selfProviderGasPriceCeil",
              "type": "uint256"
            }
          ],
          "internalType": "struct Task[]",
          "name": "_tasks",
          "type": "tuple[]"
        },
        {
          "internalType": "uint256",
          "name": "_expiryDate",
          "type": "uint256"
        },
        {
          "internalType": "uint256",
          "name": "_cycles",
          "type": "uint256"
        }
      ],
      "name": "submitTaskCycle",
      "outputs": [],
      "stateMutability": "nonpayable",
      "type": "function"
    },
    {
      "inputs": [
        {
          "components": [
            {
              "internalType": "address",
              "name": "addr",
              "type": "address"
            },
            {
              "internalType": "contract IGelatoProviderModule",
              "name": "module",
              "type": "address"
            }
          ],
          "internalType": "struct Provider",
          "name": "_provider",
          "type": "tuple"
        },
        {
          "components": [
            {
              "components": [
                {
                  "internalType": "contract IGelatoCondition",
                  "name": "inst",
                  "type": "address"
                },
                {
                  "internalType": "bytes",
                  "name": "data",
                  "type": "bytes"
                }
              ],
              "internalType": "struct Condition[]",
              "name": "conditions",
              "type": "tuple[]"
            },
            {
              "components": [
                {
                  "internalType": "address",
                  "name": "addr",
                  "type": "address"
                },
                {
                  "internalType": "bytes",
                  "name": "data",
                  "type": "bytes"
                },
                {
                  "internalType": "enum Operation",
                  "name": "operation",
                  "type": "uint8"
                },
                {
                  "internalType": "enum DataFlow",
                  "name": "dataFlow",
                  "type": "uint8"
                },
                {
                  "internalType": "uint256",
                  "name": "value",
                  "type": "uint256"
                },
                {
                  "internalType": "bool",
                  "name": "termsOkCheck",
                  "type": "bool"
                }
              ],
              "internalType": "struct Action[]",
              "name": "actions",
              "type": "tuple[]"
            },
            {
              "internalType": "uint256",
              "name": "selfProviderGasLimit",
              "type": "uint256"
            },
            {
              "internalType": "uint256",
              "name": "selfProviderGasPriceCeil",
              "type": "uint256"
            }
          ],
          "internalType": "struct Task[]",
          "name": "_tasks",
          "type": "tuple[]"
        },
        {
          "internalType": "uint256",
          "name": "_expiryDate",
          "type": "uint256"
        },
        {
          "internalType": "uint256",
          "name": "_sumOfRequestedTaskSubmits",
          "type": "uint256"
        }
      ],
      "name": "submitTaskChain",
      "outputs": [],
      "stateMutability": "nonpayable",
      "type": "function"
    },
    {
      "inputs": [
        {
          "components": [
            {
              "internalType": "uint256",
              "name": "id",
              "type": "uint256"
            },
            {
              "internalType": "address",
              "name": "userProxy",
              "type": "address"
            },
            {
              "components": [
                {
                  "internalType": "address",
                  "name": "addr",
                  "type": "address"
                },
                {
                  "internalType": "contract IGelatoProviderModule",
                  "name": "module",
                  "type": "address"
                }
              ],
              "internalType": "struct Provider",
              "name": "provider",
              "type": "tuple"
            },
            {
              "internalType": "uint256",
              "name": "index",
              "type": "uint256"
            },
            {
              "components": [
                {
                  "components": [
                    {
                      "internalType": "contract IGelatoCondition",
                      "name": "inst",
                      "type": "address"
                    },
                    {
                      "internalType": "bytes",
                      "name": "data",
                      "type": "bytes"
                    }
                  ],
                  "internalType": "struct Condition[]",
                  "name": "conditions",
                  "type": "tuple[]"
                },
                {
                  "components": [
                    {
                      "internalType": "address",
                      "name": "addr",
                      "type": "address"
                    },
                    {
                      "internalType": "bytes",
                      "name": "data",
                      "type": "bytes"
                    },
                    {
                      "internalType": "enum Operation",
                      "name": "operation",
                      "type": "uint8"
                    },
                    {
                      "internalType": "enum DataFlow",
                      "name": "dataFlow",
                      "type": "uint8"
                    },
                    {
                      "internalType": "uint256",
                      "name": "value",
                      "type": "uint256"
                    },
                    {
                      "internalType": "bool",
                      "name": "termsOkCheck",
                      "type": "bool"
                    }
                  ],
                  "internalType": "struct Action[]",
                  "name": "actions",
                  "type": "tuple[]"
                },
                {
                  "internalType": "uint256",
                  "name": "selfProviderGasLimit",
                  "type": "uint256"
                },
                {
                  "internalType": "uint256",
                  "name": "selfProviderGasPriceCeil",
                  "type": "uint256"
                }
              ],
              "internalType": "struct Task[]",
              "name": "tasks",
              "type": "tuple[]"
            },
            {
              "internalType": "uint256",
              "name": "expiryDate",
              "type": "uint256"
            },
            {
              "internalType": "uint256",
              "name": "cycleId",
              "type": "uint256"
            },
            {
              "internalType": "uint256",
              "name": "submissionsLeft",
              "type": "uint256"
            }
          ],
          "internalType": "struct TaskReceipt",
          "name": "_TR",
          "type": "tuple"
        },
        {
          "internalType": "uint256",
          "name": "_gasLimit",
          "type": "uint256"
        },
        {
          "internalType": "uint256",
          "name": "_gelatoGasPrice",
          "type": "uint256"
        }
      ],
      "name": "canExec",
      "outputs": [
        {
          "internalType": "string",
          "name": "",
          "type": "string"
        }
      ],
      "stateMutability": "view",
      "type": "function",
      "constant": true
    },
    {
      "inputs": [
        {
          "components": [
            {
              "internalType": "uint256",
              "name": "id",
              "type": "uint256"
            },
            {
              "internalType": "address",
              "name": "userProxy",
              "type": "address"
            },
            {
              "components": [
                {
                  "internalType": "address",
                  "name": "addr",
                  "type": "address"
                },
                {
                  "internalType": "contract IGelatoProviderModule",
                  "name": "module",
                  "type": "address"
                }
              ],
              "internalType": "struct Provider",
              "name": "provider",
              "type": "tuple"
            },
            {
              "internalType": "uint256",
              "name": "index",
              "type": "uint256"
            },
            {
              "components": [
                {
                  "components": [
                    {
                      "internalType": "contract IGelatoCondition",
                      "name": "inst",
                      "type": "address"
                    },
                    {
                      "internalType": "bytes",
                      "name": "data",
                      "type": "bytes"
                    }
                  ],
                  "internalType": "struct Condition[]",
                  "name": "conditions",
                  "type": "tuple[]"
                },
                {
                  "components": [
                    {
                      "internalType": "address",
                      "name": "addr",
                      "type": "address"
                    },
                    {
                      "internalType": "bytes",
                      "name": "data",
                      "type": "bytes"
                    },
                    {
                      "internalType": "enum Operation",
                      "name": "operation",
                      "type": "uint8"
                    },
                    {
                      "internalType": "enum DataFlow",
                      "name": "dataFlow",
                      "type": "uint8"
                    },
                    {
                      "internalType": "uint256",
                      "name": "value",
                      "type": "uint256"
                    },
                    {
                      "internalType": "bool",
                      "name": "termsOkCheck",
                      "type": "bool"
                    }
                  ],
                  "internalType": "struct Action[]",
                  "name": "actions",
                  "type": "tuple[]"
                },
                {
                  "internalType": "uint256",
                  "name": "selfProviderGasLimit",
                  "type": "uint256"
                },
                {
                  "internalType": "uint256",
                  "name": "selfProviderGasPriceCeil",
                  "type": "uint256"
                }
              ],
              "internalType": "struct Task[]",
              "name": "tasks",
              "type": "tuple[]"
            },
            {
              "internalType": "uint256",
              "name": "expiryDate",
              "type": "uint256"
            },
            {
              "internalType": "uint256",
              "name": "cycleId",
              "type": "uint256"
            },
            {
              "internalType": "uint256",
              "name": "submissionsLeft",
              "type": "uint256"
            }
          ],
          "internalType": "struct TaskReceipt",
          "name": "_TR",
          "type": "tuple"
        }
      ],
      "name": "exec",
      "outputs": [],
      "stateMutability": "nonpayable",
      "type": "function"
    },
    {
      "inputs": [
        {
          "components": [
            {
              "internalType": "uint256",
              "name": "id",
              "type": "uint256"
            },
            {
              "internalType": "address",
              "name": "userProxy",
              "type": "address"
            },
            {
              "components": [
                {
                  "internalType": "address",
                  "name": "addr",
                  "type": "address"
                },
                {
                  "internalType": "contract IGelatoProviderModule",
                  "name": "module",
                  "type": "address"
                }
              ],
              "internalType": "struct Provider",
              "name": "provider",
              "type": "tuple"
            },
            {
              "internalType": "uint256",
              "name": "index",
              "type": "uint256"
            },
            {
              "components": [
                {
                  "components": [
                    {
                      "internalType": "contract IGelatoCondition",
                      "name": "inst",
                      "type": "address"
                    },
                    {
                      "internalType": "bytes",
                      "name": "data",
                      "type": "bytes"
                    }
                  ],
                  "internalType": "struct Condition[]",
                  "name": "conditions",
                  "type": "tuple[]"
                },
                {
                  "components": [
                    {
                      "internalType": "address",
                      "name": "addr",
                      "type": "address"
                    },
                    {
                      "internalType": "bytes",
                      "name": "data",
                      "type": "bytes"
                    },
                    {
                      "internalType": "enum Operation",
                      "name": "operation",
                      "type": "uint8"
                    },
                    {
                      "internalType": "enum DataFlow",
                      "name": "dataFlow",
                      "type": "uint8"
                    },
                    {
                      "internalType": "uint256",
                      "name": "value",
                      "type": "uint256"
                    },
                    {
                      "internalType": "bool",
                      "name": "termsOkCheck",
                      "type": "bool"
                    }
                  ],
                  "internalType": "struct Action[]",
                  "name": "actions",
                  "type": "tuple[]"
                },
                {
                  "internalType": "uint256",
                  "name": "selfProviderGasLimit",
                  "type": "uint256"
                },
                {
                  "internalType": "uint256",
                  "name": "selfProviderGasPriceCeil",
                  "type": "uint256"
                }
              ],
              "internalType": "struct Task[]",
              "name": "tasks",
              "type": "tuple[]"
            },
            {
              "internalType": "uint256",
              "name": "expiryDate",
              "type": "uint256"
            },
            {
              "internalType": "uint256",
              "name": "cycleId",
              "type": "uint256"
            },
            {
              "internalType": "uint256",
              "name": "submissionsLeft",
              "type": "uint256"
            }
          ],
          "internalType": "struct TaskReceipt",
          "name": "taskReceipt",
          "type": "tuple"
        },
        {
          "internalType": "uint256",
          "name": "_gasLimit",
          "type": "uint256"
        },
        {
          "internalType": "uint256",
          "name": "_gelatoGasPrice",
          "type": "uint256"
        }
      ],
      "name": "executionWrapper",
      "outputs": [
        {
          "internalType": "enum GelatoCore.ExecutionResult",
          "name": "",
          "type": "uint8"
        },
        {
          "internalType": "string",
          "name": "",
          "type": "string"
        }
      ],
      "stateMutability": "nonpayable",
      "type": "function"
    },
    {
      "inputs": [
        {
          "components": [
            {
              "internalType": "uint256",
              "name": "id",
              "type": "uint256"
            },
            {
              "internalType": "address",
              "name": "userProxy",
              "type": "address"
            },
            {
              "components": [
                {
                  "internalType": "address",
                  "name": "addr",
                  "type": "address"
                },
                {
                  "internalType": "contract IGelatoProviderModule",
                  "name": "module",
                  "type": "address"
                }
              ],
              "internalType": "struct Provider",
              "name": "provider",
              "type": "tuple"
            },
            {
              "internalType": "uint256",
              "name": "index",
              "type": "uint256"
            },
            {
              "components": [
                {
                  "components": [
                    {
                      "internalType": "contract IGelatoCondition",
                      "name": "inst",
                      "type": "address"
                    },
                    {
                      "internalType": "bytes",
                      "name": "data",
                      "type": "bytes"
                    }
                  ],
                  "internalType": "struct Condition[]",
                  "name": "conditions",
                  "type": "tuple[]"
                },
                {
                  "components": [
                    {
                      "internalType": "address",
                      "name": "addr",
                      "type": "address"
                    },
                    {
                      "internalType": "bytes",
                      "name": "data",
                      "type": "bytes"
                    },
                    {
                      "internalType": "enum Operation",
                      "name": "operation",
                      "type": "uint8"
                    },
                    {
                      "internalType": "enum DataFlow",
                      "name": "dataFlow",
                      "type": "uint8"
                    },
                    {
                      "internalType": "uint256",
                      "name": "value",
                      "type": "uint256"
                    },
                    {
                      "internalType": "bool",
                      "name": "termsOkCheck",
                      "type": "bool"
                    }
                  ],
                  "internalType": "struct Action[]",
                  "name": "actions",
                  "type": "tuple[]"
                },
                {
                  "internalType": "uint256",
                  "name": "selfProviderGasLimit",
                  "type": "uint256"
                },
                {
                  "internalType": "uint256",
                  "name": "selfProviderGasPriceCeil",
                  "type": "uint256"
                }
              ],
              "internalType": "struct Task[]",
              "name": "tasks",
              "type": "tuple[]"
            },
            {
              "internalType": "uint256",
              "name": "expiryDate",
              "type": "uint256"
            },
            {
              "internalType": "uint256",
              "name": "cycleId",
              "type": "uint256"
            },
            {
              "internalType": "uint256",
              "name": "submissionsLeft",
              "type": "uint256"
            }
          ],
          "internalType": "struct TaskReceipt",
          "name": "_TR",
          "type": "tuple"
        }
      ],
      "name": "cancelTask",
      "outputs": [],
      "stateMutability": "nonpayable",
      "type": "function"
    },
    {
      "inputs": [
        {
          "components": [
            {
              "internalType": "uint256",
              "name": "id",
              "type": "uint256"
            },
            {
              "internalType": "address",
              "name": "userProxy",
              "type": "address"
            },
            {
              "components": [
                {
                  "internalType": "address",
                  "name": "addr",
                  "type": "address"
                },
                {
                  "internalType": "contract IGelatoProviderModule",
                  "name": "module",
                  "type": "address"
                }
              ],
              "internalType": "struct Provider",
              "name": "provider",
              "type": "tuple"
            },
            {
              "internalType": "uint256",
              "name": "index",
              "type": "uint256"
            },
            {
              "components": [
                {
                  "components": [
                    {
                      "internalType": "contract IGelatoCondition",
                      "name": "inst",
                      "type": "address"
                    },
                    {
                      "internalType": "bytes",
                      "name": "data",
                      "type": "bytes"
                    }
                  ],
                  "internalType": "struct Condition[]",
                  "name": "conditions",
                  "type": "tuple[]"
                },
                {
                  "components": [
                    {
                      "internalType": "address",
                      "name": "addr",
                      "type": "address"
                    },
                    {
                      "internalType": "bytes",
                      "name": "data",
                      "type": "bytes"
                    },
                    {
                      "internalType": "enum Operation",
                      "name": "operation",
                      "type": "uint8"
                    },
                    {
                      "internalType": "enum DataFlow",
                      "name": "dataFlow",
                      "type": "uint8"
                    },
                    {
                      "internalType": "uint256",
                      "name": "value",
                      "type": "uint256"
                    },
                    {
                      "internalType": "bool",
                      "name": "termsOkCheck",
                      "type": "bool"
                    }
                  ],
                  "internalType": "struct Action[]",
                  "name": "actions",
                  "type": "tuple[]"
                },
                {
                  "internalType": "uint256",
                  "name": "selfProviderGasLimit",
                  "type": "uint256"
                },
                {
                  "internalType": "uint256",
                  "name": "selfProviderGasPriceCeil",
                  "type": "uint256"
                }
              ],
              "internalType": "struct Task[]",
              "name": "tasks",
              "type": "tuple[]"
            },
            {
              "internalType": "uint256",
              "name": "expiryDate",
              "type": "uint256"
            },
            {
              "internalType": "uint256",
              "name": "cycleId",
              "type": "uint256"
            },
            {
              "internalType": "uint256",
              "name": "submissionsLeft",
              "type": "uint256"
            }
          ],
          "internalType": "struct TaskReceipt[]",
          "name": "_taskReceipts",
          "type": "tuple[]"
        }
      ],
      "name": "multiCancelTasks",
      "outputs": [],
      "stateMutability": "nonpayable",
      "type": "function"
    },
    {
      "inputs": [
        {
          "components": [
            {
              "internalType": "uint256",
              "name": "id",
              "type": "uint256"
            },
            {
              "internalType": "address",
              "name": "userProxy",
              "type": "address"
            },
            {
              "components": [
                {
                  "internalType": "address",
                  "name": "addr",
                  "type": "address"
                },
                {
                  "internalType": "contract IGelatoProviderModule",
                  "name": "module",
                  "type": "address"
                }
              ],
              "internalType": "struct Provider",
              "name": "provider",
              "type": "tuple"
            },
            {
              "internalType": "uint256",
              "name": "index",
              "type": "uint256"
            },
            {
              "components": [
                {
                  "components": [
                    {
                      "internalType": "contract IGelatoCondition",
                      "name": "inst",
                      "type": "address"
                    },
                    {
                      "internalType": "bytes",
                      "name": "data",
                      "type": "bytes"
                    }
                  ],
                  "internalType": "struct Condition[]",
                  "name": "conditions",
                  "type": "tuple[]"
                },
                {
                  "components": [
                    {
                      "internalType": "address",
                      "name": "addr",
                      "type": "address"
                    },
                    {
                      "internalType": "bytes",
                      "name": "data",
                      "type": "bytes"
                    },
                    {
                      "internalType": "enum Operation",
                      "name": "operation",
                      "type": "uint8"
                    },
                    {
                      "internalType": "enum DataFlow",
                      "name": "dataFlow",
                      "type": "uint8"
                    },
                    {
                      "internalType": "uint256",
                      "name": "value",
                      "type": "uint256"
                    },
                    {
                      "internalType": "bool",
                      "name": "termsOkCheck",
                      "type": "bool"
                    }
                  ],
                  "internalType": "struct Action[]",
                  "name": "actions",
                  "type": "tuple[]"
                },
                {
                  "internalType": "uint256",
                  "name": "selfProviderGasLimit",
                  "type": "uint256"
                },
                {
                  "internalType": "uint256",
                  "name": "selfProviderGasPriceCeil",
                  "type": "uint256"
                }
              ],
              "internalType": "struct Task[]",
              "name": "tasks",
              "type": "tuple[]"
            },
            {
              "internalType": "uint256",
              "name": "expiryDate",
              "type": "uint256"
            },
            {
              "internalType": "uint256",
              "name": "cycleId",
              "type": "uint256"
            },
            {
              "internalType": "uint256",
              "name": "submissionsLeft",
              "type": "uint256"
            }
          ],
          "internalType": "struct TaskReceipt",
          "name": "_TR",
          "type": "tuple"
        }
      ],
      "name": "hashTaskReceipt",
      "outputs": [
        {
          "internalType": "bytes32",
          "name": "",
          "type": "bytes32"
        }
      ],
      "stateMutability": "pure",
      "type": "function",
      "constant": true
    }
  ],
  "bytecode": "0x60806040523480156200001157600080fd5b50604051620063293803806200632983398101604081905262000034916200023e565b600080546001600160a01b03191633178082556040516001600160a01b039190911691907f8be0079c531659141344cd1fd0a4f28419497f9722a3daafe3b4186f6b6457e0908290a38051600180546001600160a01b0319166001600160a01b039092169190911790556020808201518051620000b6926002920190620000ec565b5060408101516003556060810151600455608081015160055560a081015160065560c081015160075560e001516008556200032c565b828054600181600116156101000203166002900490600052602060002090601f016020900481019282601f106200012f57805160ff19168380011785556200015f565b828001600101855582156200015f579182015b828111156200015f57825182559160200191906001019062000142565b506200016d92915062000171565b5090565b6200018e91905b808211156200016d576000815560010162000178565b90565b80516001600160a01b0381168114620001a957600080fd5b92915050565b600082601f830112620001c0578081fd5b81516001600160401b03811115620001d6578182fd5b6020620001ec601f8301601f1916820162000305565b925081835284818386010111156200020357600080fd5b60005b828110156200022357848101820151848201830152810162000206565b82811115620002355760008284860101525b50505092915050565b60006020828403121562000250578081fd5b81516001600160401b038082111562000267578283fd5b6101009184018086038313156200027c578384fd5b620002878362000305565b62000293878362000191565b81526020820151935082841115620002a9578485fd5b620002b787858401620001af565b602082015260408201516040820152606082015160608201526080820151608082015260a082015160a082015260c082015160c082015260e082015160e08201528094505050505092915050565b6040518181016001600160401b03811182821017156200032457600080fd5b604052919050565b615fed806200033c6000396000f3fe6080604052600436106103ef5760003560e01c80639075180f11610208578063bf2a458a11610118578063d58b172c116100ab578063e9d1a8a91161007a578063e9d1a8a914610b4c578063f2fde38b14610b6c578063f323609914610b8c578063f8559c0814610bac578063ff92b1a814610bcc576103ef565b8063d58b172c14610acc578063d922de9914610aec578063e138d05014610b0c578063e61235b714610b2c576103ef565b8063ca1efcdb116100e7578063ca1efcdb14610a4c578063cf37b49514610a6c578063d378597414610a8c578063d3ab1f7a14610aac576103ef565b8063bf2a458a146109bf578063c234feb6146109ec578063c6638a8b14610a0c578063ca05abe114610a2c576103ef565b8063a4ceb6a31161019b578063b348e2681161016a578063b348e2681461092a578063bac3bf131461094a578063bb07c5031461096a578063bedf04a71461097f578063beecd4931461099f576103ef565b8063a4ceb6a3146108d8578063a4fffd2c146108ed578063b300f75214610902578063b30f457214610922576103ef565b80639a53cb79116101d75780639a53cb79146108705780639aad3798146108905780639d703cdf146108a3578063a4c12256146108b8576103ef565b80639075180f146107fb578063949d87901461081057806394caca6f1461083057806399b2261714610850576103ef565b8063613f2b7d1161030357806385f75f70116102965780638e2e925f116102655780638e2e925f146107875780638e68595d1461079c5780638f01bf77146107bc5780638f32d59b146107d1578063905bc3e3146107e6576103ef565b806385f75f7014610705578063888a4a7a1461072557806388a5e330146107455780638da5cb5b14610765576103ef565b8063715018a6116102d2578063715018a61461069057806372d55083146106a55780637c3ceda4146106c55780637f9fe1a2146106e5576103ef565b8063613f2b7d146106105780636264f6981461063057806363905be8146106505780636d00e9a014610670576103ef565b80631f3bb9bc116103865780633e75a9a8116103555780633e75a9a814610560578063413a0ed31461058057806348f3c009146105a05780634a088019146105ce57806352ee5bc7146105fb576103ef565b80631f3bb9bc146104eb5780632325b1801461051857806323eaa5df1461053857806328d0cad71461054d576103ef565b8063172e7bc9116103c2578063172e7bc9146104765780631746a2b41461048b578063193d4922146104ab5780631a69e173146104cb576103ef565b806302526490146103f45780630b379b1814610416578063114c3bcd1461044c57806311c7662414610461575b600080fd5b34801561040057600080fd5b5061041461040f3660046147c0565b610bec565b005b34801561042257600080fd5b50610436610431366004614920565b610c50565b6040516104439190615087565b60405180910390f35b34801561045857600080fd5b50610414610d08565b34801561046d57600080fd5b50610436610da9565b34801561048257600080fd5b50610436610daf565b34801561049757600080fd5b506104146104a63660046144f2565b610db5565b3480156104b757600080fd5b506104146104c6366004614920565b610df2565b3480156104d757600080fd5b506104146104e6366004614661565b610e56565b3480156104f757600080fd5b5061050b6105063660046148a3565b610eef565b60405161044391906150a6565b34801561052457600080fd5b50610436610533366004614661565b6114ad565b34801561054457600080fd5b5061043661150b565b61041461055b3660046142b4565b611511565b34801561056c57600080fd5b5061041461057b3660046145a4565b6115bb565b34801561058c57600080fd5b5061041461059b36600461462f565b6115ef565b3480156105ac57600080fd5b506105c06105bb3660046148a3565b6116b2565b60405161044392919061515e565b3480156105da57600080fd5b506105ee6105e93660046143a5565b611722565b604051610443919061507c565b34801561060757600080fd5b5061043661174a565b34801561061c57600080fd5b5061043661062b36600461437a565b611750565b34801561063c57600080fd5b5061043661064b3660046142b4565b61176d565b34801561065c57600080fd5b5061041461066b366004614920565b61177f565b34801561067c57600080fd5b5061043661068b3660046142b4565b6117e3565b34801561069c57600080fd5b506104146117f5565b3480156106b157600080fd5b506104146106c0366004614572565b611863565b3480156106d157600080fd5b506104146106e0366004614572565b61193b565b3480156106f157600080fd5b5061041461070036600461462f565b611a07565b34801561071157600080fd5b506105ee6107203660046142b4565b611aac565b34801561073157600080fd5b50610436610740366004614661565b611ad0565b34801561075157600080fd5b506104146107603660046142b4565b611b1f565b34801561077157600080fd5b5061077a611c4f565b6040516104439190614f61565b34801561079357600080fd5b50610436611c5f565b3480156107a857600080fd5b5061050b6107b736600461440b565b611c65565b3480156107c857600080fd5b50610436611d44565b3480156107dd57600080fd5b506105ee611d4a565b3480156107f257600080fd5b50610436611d5b565b34801561080757600080fd5b50610436611d61565b34801561081c57600080fd5b5061043661082b366004614920565b611d67565b34801561083c57600080fd5b5061041461084b3660046142d0565b611d79565b34801561085c57600080fd5b5061043661086b3660046148ee565b611e8b565b34801561087c57600080fd5b5061041461088b366004614920565b612037565b61041461089e366004614308565b6120aa565b3480156108af57600080fd5b506104366120e8565b3480156108c457600080fd5b506104146108d3366004614871565b6120ee565b3480156108e457600080fd5b5061050b6121b9565b3480156108f957600080fd5b5061077a612244565b34801561090e57600080fd5b5061041461091d36600461495c565b612253565b610414612276565b34801561093657600080fd5b506104146109453660046147c0565b6122fc565b34801561095657600080fd5b506104366109653660046142b4565b61232d565b34801561097657600080fd5b5061043661233f565b34801561098b57600080fd5b5061050b61099a3660046143b7565b612345565b3480156109ab57600080fd5b506104366109ba366004614871565b612393565b3480156109cb57600080fd5b506109df6109da3660046142b4565b6123c3565b604051610443919061502f565b3480156109f857600080fd5b50610414610a07366004614920565b6123e7565b348015610a1857600080fd5b50610436610a27366004614920565b61245a565b348015610a3857600080fd5b506105ee610a473660046144be565b6124e7565b348015610a5857600080fd5b5061050b610a67366004614471565b612514565b348015610a7857600080fd5b50610414610a873660046142b4565b61259f565b348015610a9857600080fd5b50610436610aa7366004614661565b612645565b348015610ab857600080fd5b5061050b610ac73660046143b7565b612661565b348015610ad857600080fd5b5061077a610ae73660046142b4565b61278e565b348015610af857600080fd5b50610414610b07366004614871565b6127a9565b348015610b1857600080fd5b5061050b610b2736600461440b565b612ace565b348015610b3857600080fd5b50610436610b47366004614938565b612c21565b348015610b5857600080fd5b50610414610b67366004614682565b612cb9565b348015610b7857600080fd5b50610414610b873660046142b4565b612d25565b348015610b9857600080fd5b506105ee610ba73660046142b4565b612d55565b348015610bb857600080fd5b50610414610bc7366004614920565b612d72565b348015610bd857600080fd5b50610414610be736600461481c565b612dd6565b8015610c1c578251811015610c1c5760405162461bcd60e51b8152600401610c139061573e565b60405180910390fd5b83516001600160a01b0316331415610c3757610c3783612e52565b610c4a6001338660008787600088612f34565b50505050565b6000610c5b33611aac565b610c775760405162461bcd60e51b8152600401610c139061539c565b336000908152600b60205260409020546005548103610c968482613002565b336000818152600b6020526040902082850390819055919450610cbf908563ffffffff61301816565b336001600160a01b03167f79dc947028ead97dc90a91709ac7d54ce368511fc330841f227929937593388985604051610cf89190615087565b60405180910390a2505050919050565b610d1133612d55565b15610d2e5760405162461bcd60e51b8152600401610c1390615840565b336000908152600b602052604090205480610d5b5760405162461bcd60e51b8152600401610c139061589d565b336000818152600b6020526040812055610d7b908263ffffffff61301816565b60405133907ffa9bbf66bded823e4fb9b6e3b204382872af75ef0fe0a330d82af5f84256b00e90600090a250565b60055481565b60085481565b60005b82811015610c4a57610dea848483818110610dcf57fe5b9050602002016020810190610de491906142b4565b83611d79565b600101610db8565b610dfa611d4a565b610e165760405162461bcd60e51b8152600401610c13906155e1565b7f7ad23e704ae3ade0a94213eb580d92e6e1bce7243aab9eca2584936485d29e1c60055482604051610e49929190615c4a565b60405180910390a1600555565b336000908152600e6020908152604080832085845290915290205481811415610e915760405162461bcd60e51b8152600401610c13906158ee565b336000818152600e6020908152604080832087845290915290819020849055517fc9fec98da4403e7d178ac928f2d08614c7121b0e1ae2fc4f607ebd48c623b48790610ee290869085908790615090565b60405180910390a2505050565b604080840151516001600160a01b039081166000908152600c6020529190912054606091610f1d9116611aac565b610f525750604080518082019091526014815273115e1958dd5d1bdc939bdd135a5b94dd185ad95960621b60208201526114a6565b604084015151610f639084846124e7565b610f97575060408051808201909152601381527250726f7669646572496c6c697175696469747960681b60208201526114a6565b6060610fb585602001518660400151610faf886130b4565b86611c65565b9050610fc0816130df565b610fcb5790506114a6565b6000610fd686612393565b865160009081526011602052604090205490915081146110285760405180604001604052806016815260200175092dcecc2d8d2c8a8c2e6d6a4cac6cad2e0e890c2e6d60531b815250925050506114a6565b60a08601511580159061103f5750428660a0015111155b15611078576040518060400160405280601281526020017115185cdad49958d95a5c1d115e1c1a5c995960721b815250925050506114a6565b611081866130b4565b51511561120f5760005b611094876130b4565b515181101561120d576110a6876130b4565b518051829081106110b357fe5b6020026020010151600001516001600160a01b031663a99891c588600001516110db8a6130b4565b518051859081106110e857fe5b6020026020010151602001518a60c001516040518463ffffffff1660e01b815260040161111793929190615c21565b60006040518083038186803b15801561112f57600080fd5b505afa92505050801561116457506040513d6000823e601f3d908101601f19168201604052611161919081019061478e565b60015b6111e657611170615d15565b8061117b57506111a6565b8060405160200161118c9190614e7f565b6040516020818303038152906040529450505050506114a6565b6040518060400160405280601b81526020017f436f6e646974696f6e52657665727465643a756e646566696e6564000000000081525093505050506114a6565b6111ef816130df565b611204578060405160200161118c9190614ef2565b5060010161108b565b505b60005b61121b876130b4565b60200151518110156113ff57611230876130b4565b60200151818151811061123f57fe5b602002602001015160a00151611254576113f7565b61125d876130b4565b60200151818151811061126c57fe5b6020026020010151600001516001600160a01b031663eb9e7126886000015189602001516112998b6130b4565b6020015185815181106112a857fe5b6020026020010151602001516112bd8c6130b4565b6020015186815181106112cc57fe5b6020026020010151606001516112e18d6130b4565b6020015187815181106112f057fe5b6020026020010151608001518d60c001516040518763ffffffff1660e01b815260040161132296959493929190615bce565b60006040518083038186803b15801561133a57600080fd5b505afa92505050801561136f57506040513d6000823e601f3d908101601f1916820160405261136c919081019061478e565b60015b6113d75761137b615d15565b806113865750611397565b8060405160200161118c9190614e48565b6040518060400160405280601781526020017f416374696f6e52657665727465644e6f4d65737361676500000000000000000081525093505050506114a6565b6113e0816130df565b6113f5578060405160200161118c9190614eb9565b505b600101611212565b503330141561142c57604051806040016040528060028152602001614f4b60f01b815250925050506114a6565b604086810151516001600160a01b039081166000908152600c60205291909120541633141561147957604051806040016040528060028152602001614f4b60f01b815250925050506114a6565b6040518060400160405280600f81526020016e24b73b30b634b222bc32b1baba37b960891b815250925050505b9392505050565b6000806114c0848463ffffffff61315216565b905061150160646040518060600160405280602c8152602001615e53602c91396006546114f490859063ffffffff61315216565b919063ffffffff61318c16565b0190505b92915050565b60075481565b600034116115315760405162461bcd60e51b8152600401610c13906157f8565b6001600160a01b0381166000908152600a602052604081205461155a903463ffffffff6131c316565b9050816001600160a01b03167f7eb3336aae9a3b461018823bcfbd81627ab3872ec4760568cb69599b3f572c873483604051611597929190615c4a565b60405180910390a26001600160a01b039091166000908152600a6020526040902055565b60005b81518110156115eb576115e38282815181106115d657fe5b60200260200101516120ee565b6001016115be565b5050565b60005b81518110156115eb5781818151811061160757fe5b6020026020010151604001516000141561163b5760001982828151811061162a57fe5b602002602001015160400181815250505b600061165983838151811061164c57fe5b6020026020010151611e8b565b905061167c8184848151811061166b57fe5b602002602001015160400151610e56565b604051819033907f57eba0f5699d16b2cdc399006d21f172c68772b9eb995702bb087eace7604fe890600090a3506001016115f2565b600060603330146116d55760405162461bcd60e51b8152600401610c1390615497565b60606116e2868686610eef565b90506116ed816130df565b6116fc5760019250905061171a565b611705866131e8565b50506040805160208101909152600080825291505b935093915050565b6001600160a01b0382166000908152600f602052604081206114a6908363ffffffff6134c016565b60035481565b600e60209081526000928352604080842090915290825290205481565b600d6020526000908152604090205481565b611787611d4a565b6117a35760405162461bcd60e51b8152600401610c13906155e1565b7fabed28d8267464321e12f0e7fb50f149327ccd924ca4f97169a81350c0000fcc600454826040516117d6929190615c4a565b60405180910390a1600455565b600b6020526000908152604090205481565b6117fd611d4a565b6118195760405162461bcd60e51b8152600401610c13906155e1565b600080546040516001600160a01b03909116907f8be0079c531659141344cd1fd0a4f28419497f9722a3daafe3b4186f6b6457e0908390a3600080546001600160a01b0319169055565b60005b81518110156115eb5761188c3383838151811061187f57fe5b6020026020010151611722565b6118a85760405162461bcd60e51b8152600401610c1390615660565b6118df8282815181106118b757fe5b602090810291909101810151336000908152600f90925260409091209063ffffffff6134de16565b508181815181106118ec57fe5b60200260200101516001600160a01b0316336001600160a01b03167f7a88170de70a4f05aedbab44658e05b07a34686b1c3044c0a130763e613c34de60405160405180910390a3600101611866565b60005b81518110156115eb576119573383838151811061187f57fe5b156119745760405162461bcd60e51b8152600401610c13906156f1565b6119ab82828151811061198357fe5b602090810291909101810151336000908152600f90925260409091209063ffffffff6135f116565b508181815181106119b857fe5b60200260200101516001600160a01b0316336001600160a01b03167f0b25d15701a5ba475e30812c6fb077ee6ecaa9337afe94b54fa2d673a7e264b960405160405180910390a360010161193e565b60005b81518110156115eb576000611a2483838151811061164c57fe5b336000908152600e60209081526040808320848452909152902054909150611a5e5760405162461bcd60e51b8152600401610c139061544a565b336000818152600e60209081526040808320858452909152808220829055518392917fb1bd71728ee07f94bcab41c157fcdce5fbdeef0932e50955da5b60dfcb5c02f691a350600101611a0a565b6005546001600160a01b0382166000908152600b602052604090205410155b919050565b600080611ae3848463ffffffff61315216565b9050611b1760646040518060600160405280602e8152602001615f0e602e91396007546114f490859063ffffffff61315216565b949350505050565b336000908152600c60205260409020546001600160a01b03908116908216811415611b5c5760405162461bcd60e51b8152600401610c1390615962565b6001600160a01b03821615611b9057611b7482611aac565b611b905760405162461bcd60e51b8152600401610c1390615a98565b6001600160a01b03811615611bc0576001600160a01b0381166000908152600d6020526040902080546000190190555b336000908152600c6020526040902080546001600160a01b0319166001600160a01b03841690811790915515611c10576001600160a01b0382166000908152600d60205260409020805460010190555b6040516001600160a01b03808416919083169033907f1a8b0d27a5b7dcaa3d4823d6e62cb91475b6db3711f348acd68dfd245647046190600090a45050565b6000546001600160a01b03165b90565b60065481565b606083600001516001600160a01b0316856001600160a01b03161415611cd0578183606001511015611ccb575060408051808201909152601881527f53656c6650726f766964657247617350726963654365696c00000000000000006020820152611b17565b611d30565b6000611cde61086b8561364a565b85516001600160a01b03166000908152600e60209081526040808320848452909152902054909150831115611d2e57604051806060016040528060238152602001615eaf60239139915050611b17565b505b611d3b858585612661565b95945050505050565b60045481565b6000546001600160a01b0316331490565b61d6d881565b60095481565b60116020526000908152604090205481565b6001600160a01b038083166000908152600c602052604090205416338114611db35760405162461bcd60e51b8152600401610c139061552e565b816001600160a01b0316816001600160a01b03161415611de55760405162461bcd60e51b8152600401610c1390615af5565b611dee82611aac565b611e0a5760405162461bcd60e51b8152600401610c139061579b565b6001600160a01b038181166000818152600d602081815260408084208054600019019055888616808552600c835281852080546001600160a01b031916978a16978817905586855292909152808320805460010190555190917fd71c850483c235524c816dbe9b5c11d4c3097788bf44f3cea4c969d91432681a91a4505050565b600060608260200151516001600160401b0381118015611eaa57600080fd5b50604051908082528060200260200182016040528015611ee457816020015b611ed1613b76565b815260200190600190039081611ec95790505b50905060005b83602001515181101561200457611eff613b76565b6040518060a0016040528086602001518481518110611f1a57fe5b6020026020010151600001516001600160a01b0316815260200186602001518481518110611f4457fe5b6020026020010151604001516001811115611f5b57fe5b815260200186602001518481518110611f7057fe5b6020026020010151606001516003811115611f8757fe5b815260200186602001518481518110611f9c57fe5b602002602001015160800151600014611fb6576001611fb9565b60005b1515815260200186602001518481518110611fd057fe5b602002602001015160a001511515815250905080838381518110611ff057fe5b602090810291909101015250600101611eea565b50825160405161201991908390602001614fa1565b60405160208183030381529060405280519060200120915050919050565b61203f611d4a565b61205b5760405162461bcd60e51b8152600401610c13906155e1565b7f0e2413d9141d1b6412c7ba967d457bf348f597f0e5bf6d5f82991c38f8b2923060065482600754840160405161209493929190615090565b60405180910390a1600681905560075401600855565b34156120b9576120b933611511565b6001600160a01b038316156120d1576120d183611b1f565b6120da826115ef565b6120e38161193b565b505050565b60001981565b80602001516001600160a01b0316336001600160a01b0316148061211f57506040810151516001600160a01b031633145b61213b5760405162461bcd60e51b8152600401610c139061519a565b600061214682612393565b825160009081526011602052604090205490915081146121785760405162461bcd60e51b8152600401610c1390615217565b81516000908152601160205260408082208290558351905133927f744b8104621eb036ccd898df8af9eca45fdef9a44758a759b9a02edfc3c2253d91a35050565b6002805460408051602060018416156101000260001901909316849004601f8101849004840282018401909252818152929183018282801561223c5780601f106122115761010080835404028352916020019161223c565b820191906000526020600020905b81548152906001019060200180831161221f57829003601f168201915b505050505081565b6001546001600160a01b031681565b8215612264576122628361245a565b505b61226d82611a07565b6120e381611863565b336000908152600b6020526040902054600554348201908110156122ac5760405162461bcd60e51b8152600401610c13906154e1565b336000818152600b602052604090819020839055517feb86fbd76202b1fb8ea477263ebbaa0ca039911aebfaa0d93aeaaf8f422d7772906122f09085908590615c4a565b60405180910390a25050565b83516001600160a01b03163314156123175761231783612e52565b610c4a600133866000878760008a518902612f34565b600a6020526000908152604090205481565b60105481565b606061234f613ba6565b6123588361364a565b9050612368846000015182612514565b9150612373826130df565b1561238b57612383858585612661565b9150506114a6565b509392505050565b6000816040516020016123a69190615b52565b604051602081830303815290604052805190602001209050919050565b6001600160a01b0381166000908152600f6020526040902060609061150590613685565b6123ef611d4a565b61240b5760405162461bcd60e51b8152600401610c13906155e1565b7f67e5ac0a08ca541e78d867cdf9766fb1e2e572cc4f1fe4a4f338ba5c585fd20c60075482836006540160405161244493929190615090565b60405180910390a1600781905560065401600855565b336000908152600a60205260408120546124748382613002565b336000818152600a602052604090208284039081905591935061249d908463ffffffff61301816565b336001600160a01b03167fffd57c770591833d795262faf39af705c4e7f7428a2857f5a15b4c6d1c01e09f84836040516124d8929190615c4a565b60405180910390a25050919050565b6001600160a01b0383166000908152600a602052604081205461250a8484612645565b1115949350505050565b6001600160a01b0382166000908152600e6020526040812060609161253884611e8b565b8152602001908152602001600020546000141561257f575060408051808201909152601381527215185cdad4dc1958d39bdd141c9bdd9a591959606a1b6020820152611505565b506040805180820190915260028152614f4b60f01b602082015292915050565b6125a7611d4a565b6125c35760405162461bcd60e51b8152600401610c13906155e1565b6001600160a01b0381166125e95760405162461bcd60e51b8152600401610c1390615a05565b6001546040516001600160a01b038084169216907f3d30b06f36978acd3a6f74d861ea1b0e6d1ebe3d9d65a0e4c738d1b680a70f3a90600090a3600180546001600160a01b0319166001600160a01b0392909216919091179055565b60085460009061d6d88401830290606490820204019392505050565b606061267583600001518460200151611722565b6126ab5750604080518082019091526015815274496e76616c696450726f76696465724d6f64756c6560581b60208201526114a6565b82516001600160a01b0385811691161461276f5760208301518351604051633f17c3df60e01b81526001600160a01b03831691633f17c3df916126f49189918890600401614f75565b60006040518083038186803b15801561270c57600080fd5b505afa92505050801561274157506040513d6000823e601f3d908101601f1916820160405261273e919081019061478e565b60015b61276657604051806060016040528060248152602001615e0b602491399150506114a6565b91506114a69050565b506040805180820190915260028152614f4b60f01b60208201526114a6565b600c602052600090815260409020546001600160a01b031681565b60005a905060006127b8613740565b9050803a10156127da5760405162461bcd60e51b8152600401610c13906153f9565b604083810151516001600160a01b039081166000908152600c602052919091205416331461281a5760405162461bcd60e51b8152600401610c13906156b0565b600061282584613816565b6128315760035461283f565b61283a846130b4565b604001515b905060006060306001600160a01b03166348f3c009612881600454604051806060016040528060218152602001615dea602191395a919063ffffffff61383316565b8886886040518563ffffffff1660e01b81526004016128a293929190615b65565b600060405180830381600088803b1580156128bc57600080fd5b5087f1935050505080156128f257506040513d6000823e601f3d908101601f191682016040526128ef919081019061472f565b60015b612939576128fe615d15565b806129095750612914565b600292509050612934565b60029150604051806060016040528060258152602001615f936025913990505b61293f565b90925090505b600082600281111561294d57fe5b14156129bf5760008061296c886040015160000151600089888a61385f565b915091508760000151336001600160a01b03167f24676369d56b822255a2ba8afa7c68231dbbb5d324cd311d023fd37554da594e84846040516129b0929190615c4a565b60405180910390a35050612ac6565b60018260028111156129cd57fe5b1415612a1457855160405133907f5d326d4f0aa3ba9e690e44880c6750bdb3b93089be85717401ac419ae2c942a290612a079085906150a6565b60405180910390a3612ac6565b82851015612a5357855160405133907f582386e898e6a2854d5cc88154e27da9816ef33b0a260f010f2c17f3b385f9e690612a07906000908690615181565b855160009081526011602052604080822082905587015151612a7990600188878961385f565b5090508660000151336001600160a01b03167f582386e898e6a2854d5cc88154e27da9816ef33b0a260f010f2c17f3b385f9e68385604051612abc929190615181565b60405180910390a3505b505050505050565b82516001600160a01b039081166000908152600c6020526040902054606091612af79116611aac565b612b1b57604051806060016040528060308152602001615e7f603091399050611b17565b8115612b495742821015612b4957604051806060016040528060248152602001615e2f602491399050611b17565b606084600001516001600160a01b0316866001600160a01b03161415612bbb57600454612b7d90600263ffffffff61315216565b84604001511015612ba957604051806060016040528060358152602001615f5e60359139915050611b17565b612bb4868686612661565b9050612bc9565b612bc6868686612345565b90505b612bd2816130df565b612bfe5780604051602001612be79190614da7565b604051602081830303815290604052915050611b17565b50506040805180820190915260028152614f4b60f01b6020820152949350505050565b6000612c2b611d4a565b612c475760405162461bcd60e51b8152600401610c13906155e1565b600954612c548482613002565b8082036009819055909250612c786001600160a01b0385168463ffffffff61301816565b7f555f142d04d5fd169d7709fec5eda01b4d671371a74cda4734159a9863a13cd18282604051612ca9929190615c4a565b60405180910390a1505092915050565b612cc1611d4a565b612cdd5760405162461bcd60e51b8152600401610c13906155e1565b7f980ecf343395980880528aff1988eab2b3c7284da56044b30cc0af8cb72bac3560028383604051612d11939291906150b9565b60405180910390a16120e360028383613bc7565b612d2d611d4a565b612d495760405162461bcd60e51b8152600401610c13906155e1565b612d52816139cb565b50565b6001600160a01b03166000908152600d6020526040902054151590565b612d7a611d4a565b612d965760405162461bcd60e51b8152600401610c13906155e1565b7fc6e11d62bd8aab57eb4e534cf62d7f0c9670522681d2559de9ac3ff7ef8325d360035482604051612dc9929190615c4a565b60405180910390a1600355565b604080516001808252818301909252606091816020015b612df5613c45565b815260200190600190039081612ded5790505090508281600081518110612e1857fe5b602090810291909101015283516001600160a01b0316331415612e3e57612e3e81612e52565b610c4a600033866000858760006001612f34565b60005b81518110156115eb57818181518110612e6a57fe5b60200260200101516040015160001415612ea257600354828281518110612e8d57fe5b60200260200101516040018181525050612eec565b600454612eb690600263ffffffff61315216565b828281518110612ec257fe5b6020026020010151604001511015612eec5760405162461bcd60e51b8152600401610c1390615330565b818181518110612ef857fe5b60200260200101516060015160001415612f2c57600019828281518110612f1b57fe5b602002602001015160600181815250505b600101612e55565b6010805460010190819055612f47613c6d565b6040518061010001604052808381526020018a6001600160a01b031681526020018981526020018881526020018781526020018681526020018b612f8b5785612f8d565b835b815260200184905290506000612fa282612393565b8251600090815260116020526040908190208290558351905191925082917f77be3ee486c6101ef6d894d85101234637da624e1bc54f11bd8e97174564b08e90612fed908690615b52565b60405180910390a35050505050505050505050565b600081831061301157816114a6565b5090919050565b804710156130385760405162461bcd60e51b8152600401610c13906152f9565b6000826001600160a01b03168260405161305190611c5c565b60006040518083038185875af1925050503d806000811461308e576040519150601f19603f3d011682016040523d82523d6000602084013e613093565b606091505b50509050806120e35760405162461bcd60e51b8152600401610c139061529c565b6130bc613c45565b81608001518260600151815181106130d057fe5b60200260200101519050919050565b600060028251101580156131125750816000815181106130fb57fe5b6020910101516001600160f81b031916604f60f81b145b801561313d57508160018151811061312657fe5b6020910101516001600160f81b031916604b60f81b145b1561314a57506001611acb565b506000919050565b60008261316157506000611505565b8282028284828161316e57fe5b04146114a65760405162461bcd60e51b8152600401610c13906155a0565b600081836131ad5760405162461bcd60e51b8152600401610c1391906150a6565b5060008385816131b957fe5b0495945050505050565b6000828201838110156114a65760405162461bcd60e51b8152600401610c1390615265565b606060008260400151602001516001600160a01b03166306fca7288460000151856020015186604001516000015161321f886130b4565b8860c001516040518663ffffffff1660e01b8152600401613244959493929190615b8a565b60006040518083038186803b15801561325c57600080fd5b505afa92505050801561329157506040513d6000823e601f3d908101601f1916820160405261328e91908101906146eb565b60015b6132f75761329d615d15565b806132a857506132df565b806040516020016132b99190614f1c565b60408051601f198184030181529082905262461bcd60e51b8252610c13916004016150a6565b60405162461bcd60e51b8152600401610c13906159bf565b9092509050825160009081526011602090815260408083208390559085015190516060916001600160a01b031690613330908690614c82565b6000604051808303816000865af19150503d806000811461336d576040519150601f19603f3d011682016040523d82523d6000602084013e613372565b606091505b50915091508180156133815750825b15613423578460400151602001516001600160a01b0316633e88ecf4826040518263ffffffff1660e01b81526004016133ba91906150a6565b60006040518083038186803b1580156133d257600080fd5b505afa9250505080156133e3575060015b613423576133ef615d15565b806133fa575061340b565b806040516020016132b99190614df9565b60405162461bcd60e51b8152600401610c1390615a4e565b8115613480578460e0015160011461347b5761347b60008660200151876040015161344d89613a4c565b60808a015160a08b015160c08c015160e08d0151156134735760018d60e0015103613476565b60005b612f34565b6134b9565b60408051808201909152601181527023b2b630ba37a1b7b932972fb2bc32b19d60791b60208201526134b990829063ffffffff613a6e16565b5050505050565b6001600160a01b031660009081526020919091526040902054151590565b60006134ea83836134c0565b156135e9576001600160a01b0382166000908152602084905260409020546001840154600019918201910180821461359557600085600101828154811061352d57fe5b6000918252602090912001546001870180546001600160a01b03909216925082918590811061355857fe5b600091825260208083209190910180546001600160a01b0319166001600160a01b0394851617905592909116815290869052604090206001830190555b6001600160a01b038416600090815260208690526040812055600185018054806135bb57fe5b600082815260209020810160001990810180546001600160a01b031916905501905550600191506115059050565b506000611505565b60006135fd83836134c0565b6135e957506001828101805480830182556000828152602080822090920180546001600160a01b0319166001600160a01b0387169081179091559254928152908590526040902055611505565b613652613ba6565b604051806060016040528061366a8460000151613ada565b81526020018360200151815260200160008152509050919050565b600181015460609081906001600160401b03811180156136a457600080fd5b506040519080825280602002602001820160405280156136ce578160200160208202803683370190505b50905060005b6001840154811015613739578360010181815481106136ef57fe5b9060005260206000200160009054906101000a90046001600160a01b031682828151811061371957fe5b6001600160a01b03909216602092830291909101909101526001016136d4565b5092915050565b60015460405160009182916060916001600160a01b03169061376490600290614c9e565b600060405180830381855afa9150503d806000811461379f576040519150601f19603f3d011682016040523d82523d6000602084013e6137a4565b606091505b5091509150816137d7576137d7604051806060016040528060228152602001615f3c60229139829063ffffffff613a6e16565b6000818060200190518101906137ed9190614776565b90506000811361380f5760405162461bcd60e51b8152600401610c1390615616565b9250505090565b6020810151604090910151516001600160a01b0391821691161490565b600081848411156138575760405162461bcd60e51b8152600401610c1391906150a6565b505050900390565b60008060005a86039050600085821061387c5761d6d88601613882565b61d6d882015b9050600088600181111561389257fe5b141561393c576138a281866114ad565b93506138ae8186611ad0565b92506139026138c3858563ffffffff6131c316565b6040518060600160405280603c8152602001615ed2603c91396001600160a01b038c166000908152600a6020526040902054919063ffffffff61383316565b6001600160a01b038a166000908152600a6020908152604080832093909355338252600b90522080548501905560098054840190556139bf565b61394c818663ffffffff61315216565b9350613991846040518060600160405280603c8152602001615ed2603c91396001600160a01b038c166000908152600a6020526040902054919063ffffffff61383316565b6001600160a01b038a166000908152600a6020908152604080832093909355338252600b9052208054850190555b50509550959350505050565b6001600160a01b0381166139f15760405162461bcd60e51b8152600401610c13906151d1565b600080546040516001600160a01b03808516939216917f8be0079c531659141344cd1fd0a4f28419497f9722a3daafe3b4186f6b6457e091a3600080546001600160a01b0319166001600160a01b0392909216919091179055565b600060018260800151510382606001511461314a578160600151600101611505565b6020825181613a7957fe5b0660041415613ac957602082015162461bcd60e51b6001600160e01b031982161415613ab85760448301925081836040516020016132b9929190614d0e565b816040516020016132b99190614d3c565b806040516020016132b99190614d6f565b606081516001600160401b0381118015613af357600080fd5b50604051908082528060200260200182016040528015613b1d578160200160208202803683370190505b50905060005b8251811015613b7057828181518110613b3857fe5b602002602001015160000151828281518110613b5057fe5b6001600160a01b0390921660209283029190910190910152600101613b23565b50919050565b6040805160a081019091526000808252602082019081526020016000815260006020820181905260409091015290565b60405180606001604052806060815260200160608152602001600081525090565b828054600181600116156101000203166002900490600052602060002090601f016020900481019282601f10613c085782800160ff19823516178555613c35565b82800160010185558215613c35579182015b82811115613c35578235825591602001919060010190613c1a565b50613c41929150613cb6565b5090565b6040518060800160405280606081526020016060815260200160008152602001600081525090565b604080516101008101825260008082526020820152908101613c8d613cd0565b815260200160008152602001606081526020016000815260200160008152602001600081525090565b611c5c91905b80821115613c415760008155600101613cbc565b604080518082019091526000808252602082015290565b803561150581615dc6565b600082601f830112613d02578081fd5b8135613d15613d1082615c7e565b615c58565b818152915060208083019084810181840286018201871015613d3657600080fd5b60005b84811015613d5e578135613d4c81615dc6565b84529282019290820190600101613d39565b505050505092915050565b600082601f830112613d79578081fd5b8135613d87613d1082615c7e565b818152915060208083019084810160005b84811015613d5e578135870160c080601f19838c03011215613db957600080fd5b613dc281615c58565b613dce8b878501613ce7565b81526040808401356001600160401b03811115613dea57600080fd5b613df88d8983880101613f0d565b88840152506060613e0b8d828701613fb0565b8284015260809150613e1f8d838701613fa1565b9083015260a08481013582840152613e398d858701613f02565b9083015250865250509282019290820190600101613d98565b600082601f830112613e62578081fd5b8135613e70613d1082615c7e565b818152915060208083019084810160005b84811015613d5e57613e98888484358a01016140fe565b84529282019290820190600101613e81565b600082601f830112613eba578081fd5b8135613ec8613d1082615c7e565b818152915060208083019084810160005b84811015613d5e57613ef0888484358a01016141dd565b84529282019290820190600101613ed9565b803561150581615ddb565b600082601f830112613f1d578081fd5b8135613f2b613d1082615c9d565b9150808252836020828501011115613f4257600080fd5b8060208401602084013760009082016020015292915050565b600082601f830112613f6b578081fd5b8151613f79613d1082615c9d565b9150808252836020828501011115613f9057600080fd5b613739816020840160208601615ce3565b80356004811061150557600080fd5b80356002811061150557600080fd5b600060408284031215613fd0578081fd5b613fda6040615c58565b90508135613fe781615dc6565b815260208201356001600160401b0381111561400257600080fd5b61400e84828501613f0d565b60208301525092915050565b60006040828403121561402b578081fd5b6140356040615c58565b9050813561404281615dc6565b8152602082013561405281615dc6565b602082015292915050565b6000610120828403121561406f578081fd5b61010061407b81615c58565b91508235825261408e8460208501613ce7565b60208301526140a0846040850161401a565b60408301526080830135606083015260a08301356001600160401b038111156140c857600080fd5b6140d485828601613eaa565b60808401525060c083013560a083015260e083013560c08301528083013560e08301525092915050565b60006060828403121561410f578081fd5b6141196060615c58565b905081356001600160401b038082111561413257600080fd5b81840185601f82011261414457600080fd5b80359250614154613d1084615c7e565b80848252602080830192508084018982838902870101111561417557600080fd5b600094505b868510156141a05761418c8a82613ce7565b84526001949094019392810192810161417a565b50818752808801359550848611156141b757600080fd5b6141c389878a01613d69565b818801525050505050506040820135604082015292915050565b6000608082840312156141ee578081fd5b6141f86080615c58565b905081356001600160401b038082111561421157600080fd5b81840185601f82011261422357600080fd5b80359250614233613d1084615c7e565b8381526020808201919083810160005b8781101561426c5761425a8b848435890101613fbf565b85529382019390820190600101614243565b50508187528088013595508486111561428457600080fd5b61429089878a01613d69565b81880152505050505050604082013560408201526060820135606082015292915050565b6000602082840312156142c5578081fd5b81356114a681615dc6565b600080604083850312156142e2578081fd5b82356142ed81615dc6565b915060208301356142fd81615dc6565b809150509250929050565b60008060006060848603121561431c578081fd5b833561432781615dc6565b925060208401356001600160401b0380821115614342578283fd5b61434e87838801613e52565b93506040860135915080821115614363578283fd5b5061437086828701613cf2565b9150509250925092565b6000806040838503121561438c578182fd5b823561439781615dc6565b946020939093013593505050565b600080604083850312156142e2578182fd5b6000806000608084860312156143cb578081fd5b83356143d681615dc6565b92506143e5856020860161401a565b915060608401356001600160401b038111156143ff578182fd5b614370868287016141dd565b60008060008060a08587031215614420578182fd5b843561442b81615dc6565b935061443a866020870161401a565b925060608501356001600160401b03811115614454578283fd5b614460878288016141dd565b949793965093946080013593505050565b60008060408385031215614483578182fd5b823561448e81615dc6565b915060208301356001600160401b038111156144a8578182fd5b6144b4858286016140fe565b9150509250929050565b6000806000606084860312156144d2578081fd5b83356144dd81615dc6565b95602085013595506040909401359392505050565b600080600060408486031215614506578081fd5b83356001600160401b038082111561451c578283fd5b81860187601f82011261452d578384fd5b803592508183111561453d578384fd5b8760208085028301011115614550578384fd5b602090810195509193505084013561456781615dc6565b809150509250925092565b600060208284031215614583578081fd5b81356001600160401b03811115614598578182fd5b611b1784828501613cf2565b600060208083850312156145b6578182fd5b82356001600160401b038111156145cb578283fd5b80840185601f8201126145dc578384fd5b803591506145ec613d1083615c7e565b82815283810190828501865b858110156146215761460f8a88843588010161405d565b845292860192908601906001016145f8565b509098975050505050505050565b600060208284031215614640578081fd5b81356001600160401b03811115614655578182fd5b611b1784828501613e52565b60008060408385031215614673578182fd5b50508035926020909101359150565b60008060208385031215614694578182fd5b82356001600160401b03808211156146aa578384fd5b81850186601f8201126146bb578485fd5b80359250818311156146cb578485fd5b8660208483010111156146dc578485fd5b60200196919550909350505050565b600080604083850312156146fd578182fd5b82516001600160401b03811115614712578283fd5b61471e85828601613f5b565b92505060208301516142fd81615ddb565b60008060408385031215614741578182fd5b82516003811061474f578283fd5b60208401519092506001600160401b0381111561476a578182fd5b6144b485828601613f5b565b600060208284031215614787578081fd5b5051919050565b60006020828403121561479f578081fd5b81516001600160401b038111156147b4578182fd5b611b1784828501613f5b565b60008060008060a085870312156147d5578182fd5b6147df868661401a565b935060408501356001600160401b038111156147f9578283fd5b61480587828801613eaa565b949794965050505060608301359260800135919050565b600080600060808486031215614830578081fd5b61483a858561401a565b925060408401356001600160401b03811115614854578182fd5b614860868287016141dd565b925050606084013590509250925092565b600060208284031215614882578081fd5b81356001600160401b03811115614897578182fd5b611b178482850161405d565b6000806000606084860312156148b7578081fd5b83356001600160401b038111156148cc578182fd5b6148d88682870161405d565b9660208601359650604090950135949350505050565b6000602082840312156148ff578081fd5b81356001600160401b03811115614914578182fd5b611b17848285016140fe565b600060208284031215614931578081fd5b5035919050565b6000806040838503121561494a578182fd5b8235915060208301356142fd81615dc6565b600080600060608486031215614970578081fd5b8335925060208401356001600160401b0380821115614342578283fd5b80516001600160a01b0316825260208101516000906149ab81615dbc565b602084015260408201516149be90615cd8565b60408401525060608181015115159083015260809081015115159082015260a00190565b6000815180845260208085018081965082840281019150828601855b85811015614a87578284038952815160c0614a198251615ccc565b8652868201518188880152614a3082880182614b04565b60409250828401519150614a4382615dbc565b818389015260609250614a5883850151615cd8565b92880192909252506080828101519087015260a0918201511515919095015297840197908401906001016149fe565b5091979650505050505050565b6000815180845260208085018081965082840281019150828601855b85811015614a87578284038952614ac8848351614beb565b98850198935090840190600101614ab0565b60008284528282602086013780602084860101526020601f19601f85011685010190509392505050565b60008151808452614b1c816020860160208601615ce3565b601f01601f19169290920160200192915050565b6001600160a01b03169052565b600060018060a01b038251168352602082015160406020850152611b176040850182614b04565b600061012082518452602083015160018060a01b0380821660208701526040850151915080825116604087015280602083015116606087015250506060830151608085015260808301518160a0860152614bc082860182614a94565b60a085015160c087015260c085015160e087015260e085015161010087015280935050505092915050565b60006080830182516080855281815180845260a0870191506020935060a08482028801018484018694505b82851015614c4657609f19898303018452614c32828251614b3d565b600195909501949386019391508501614c16565b5084870151935087810385890152614c5e81856149e2565b94505050505060408301516040850152606083015160608501528091505092915050565b60008251614c94818460208701615ce3565b9190910192915050565b6000808354600180821660008114614cbd5760018114614cd457614d03565b60ff198316865260028304607f1686019350614d03565b600283048786526020808720875b83811015614cfb5781548a820152908501908201614ce2565b505050860193505b509195945050505050565b60008351614d20818460208801615ce3565b8351908301614d33828260208801615ce3565b01949350505050565b60008251614d4e818460208701615ce3565b6e2737a2b93937b929b2b632b1ba37b960891b920191825250600f01919050565b60008251614d81818460208701615ce3565b73556e657870656374656452657475726e6461746160601b920191825250601401919050565b60007f47656c61746f436f72652e63616e5375626d69745461736b2e697350726f76698252633232b21d60e11b60208301528251614dec816024850160208701615ce3565b9190910160240192915050565b60007f47656c61746f436f72652e5f657865632e65786563526576657274436865636b8252601d60f91b60208301528251614e3b816021850160208701615ce3565b9190910160210192915050565b60006e20b1ba34b7b72932bb32b93a32b21d60891b82528251614e7281600f850160208701615ce3565b91909101600f0192915050565b60007121b7b73234ba34b7b72932bb32b93a32b21d60711b82528251614eac816012850160208701615ce3565b9190910160120192915050565b60007020b1ba34b7b72a32b936b9a737ba27b59d60791b82528251614ee5816011850160208701615ce3565b9190910160110192915050565b60006e21b7b73234ba34b7b72737ba27b59d60891b82528251614e7281600f850160208701615ce3565b60007f47656c61746f436f72652e5f657865632e657865635061796c6f61643a00000082528251614f5481601d850160208701615ce3565b91909101601d0192915050565b6001600160a01b0391909116815260200190565b6001600160a01b03848116825283166020820152606060408201819052600090611d3b90830184614beb565b604080825283519082018190526000906020906060840190828701845b82811015614fe157614fd1848351614b30565b9284019290840190600101614fbe565b50505083810382850152808551614ff88184615087565b91508387019250845b818110156150225761501483855161498d565b938501939250600101615001565b5090979650505050505050565b6020808252825182820181905260009190848201906040850190845b818110156150705783516001600160a01b03168352928401929184019160010161504b565b50909695505050505050565b901515815260200190565b90815260200190565b9283526020830191909152604082015260600190565b6000602082526114a66020830184614b04565b600060408201604083528186546001808216600081146150e057600181146151015761513d565b6150f0607f600285041686615087565b60ff1984168152602001935061513d565b6002830461510f8187615087565b6151188c615cc0565b885b83811015615134578154838201529085019060200161511a565b91909101955050505b5050508381036020850152615153818688614ada565b979650505050505050565b60006003841061516a57fe5b83825260406020830152611b176040830184614b04565b600083825260406020830152611b176040830184614b04565b6020808252601d908201527f47656c61746f436f72652e63616e63656c5461736b3a2073656e646572000000604082015260600190565b60208082526026908201527f4f776e61626c653a206e6577206f776e657220697320746865207a65726f206160408201526564647265737360d01b606082015260800190565b6020808252602e908201527f47656c61746f436f72652e63616e63656c5461736b3a20696e76616c6964207460408201526d0c2e6d6a4cac6cad2e0e890c2e6d60931b606082015260800190565b6020808252601b908201527f536166654d6174683a206164646974696f6e206f766572666c6f770000000000604082015260600190565b6020808252603a908201527f416464726573733a20756e61626c6520746f2073656e642076616c75652c207260408201527f6563697069656e74206d61792068617665207265766572746564000000000000606082015260800190565b6020808252601d908201527f416464726573733a20696e73756666696369656e742062616c616e6365000000604082015260600190565b60208082526046908201527f47656c61746f436f72652e5f68616e646c6553656c6650726f7669646572476160408201527f7344656661756c74733a73656c6650726f76696465724761734c696d697420746060820152656f6f206c6f7760d01b608082015260a00190565b6020808252603a908201527f47656c61746f4578656375746f72732e7769746864726177457863657373457860408201527f656375746f725374616b653a206e6f74206d696e5374616b6564000000000000606082015260800190565b60208082526031908201527f47656c61746f436f72652e657865633a2074782e67617370726963652062656c6040820152706f772067656c61746f476173507269636560781b606082015260800190565b6020808252602d908201527f47656c61746f50726f7669646572732e756e70726f766964655461736b53706560408201526c18dcce881c99591d5b99185b9d609a1b606082015260800190565b6020808252602a908201527f47656c61746f436f72652e657865637574696f6e577261707065723a6f6e6c7960408201526947656c61746f436f726560b01b606082015260800190565b6020808252602d908201527f47656c61746f4578656375746f72732e7374616b654578656375746f723a206260408201526c656c6f77206d696e5374616b6560981b606082015260800190565b6020808252604c908201527f47656c61746f50726f7669646572732e6578656375746f7241737369676e734560408201527f78656375746f723a206d73672e73656e646572206973206e6f7420617373696760608201526b3732b21032bc32b1baba37b960a11b608082015260a00190565b60208082526021908201527f536166654d6174683a206d756c7469706c69636174696f6e206f766572666c6f6040820152607760f81b606082015260800190565b6020808252818101527f4f776e61626c653a2063616c6c6572206973206e6f7420746865206f776e6572604082015260600190565b6020808252602a908201527f47656c61746f53797341646d696e2e5f67657447656c61746f47617350726963604082015269653a306f7242656c6f7760b01b606082015260800190565b60208082526030908201527f47656c61746f50726f7669646572732e72656d6f766550726f76696465724d6f60408201526f191d5b195cce881c99591d5b99185b9d60821b606082015260800190565b60208082526021908201527f47656c61746f436f72652e657865633a20496e76616c6964204578656375746f6040820152603960f91b606082015260800190565b6020808252602d908201527f47656c61746f50726f7669646572732e61646450726f76696465724d6f64756c60408201526c195cce881c99591d5b99185b9d609a1b606082015260800190565b6020808252603d908201527f47656c61746f436f72652e7375626d69745461736b436861696e3a206c65737360408201527f20726571756573746564207375626d697473207468616e207461736b73000000606082015260800190565b6020808252603e908201527f47656c61746f50726f7669646572732e6578656375746f7241737369676e734560408201527f78656375746f723a2069734578656375746f724d696e5374616b656428290000606082015260800190565b60208082526028908201527f47656c61746f50726f7669646572732e70726f7669646546756e64733a207a65604082015267726f2076616c756560c01b606082015260800190565b6020808252603a908201527f47656c61746f4578656375746f72732e756e7374616b654578656375746f723a60408201527f206d73672e73656e646572207374696c6c2061737369676e6564000000000000606082015260800190565b60208082526031908201527f47656c61746f4578656375746f72732e756e7374616b654578656375746f723a60408201527008185b1c9958591e481d5b9cdd185ad959607a1b606082015260800190565b6020808252604e908201527f47656c61746f50726f7669646572732e7365745461736b53706563476173507260408201527f6963654365696c3a20416c72656164792077686974656c69737465642077697460608201526d1a0819d85cd41c9a58d950d95a5b60921b608082015260a00190565b6020808252603a908201527f47656c61746f50726f7669646572732e70726f766964657241737369676e734560408201527f78656375746f723a20616c72656164792061737369676e65642e000000000000606082015260800190565b60208082526026908201527f47656c61746f436f72652e5f657865632e657865635061796c6f61643a756e6460408201526519599a5b995960d21b606082015260800190565b60208082526029908201527f47656c61746f53797341646d696e2e73657447656c61746f476173507269636560408201526804f7261636c653a20360bc1b606082015260800190565b6020808252602a908201527f47656c61746f436f72652e5f657865632e65786563526576657274436865636b6040820152690e9d5b9919599a5b995960b21b606082015260800190565b6020808252603e908201527f47656c61746f50726f7669646572732e70726f766964657241737369676e734560408201527f78656375746f723a2069734578656375746f724d696e5374616b656428290000606082015260800190565b6020808252603a908201527f47656c61746f50726f7669646572732e6578656375746f7241737369676e734560408201527f78656375746f723a20616c72656164792061737369676e65642e000000000000606082015260800190565b6000602082526114a66020830184614b64565b600060608252615b786060830186614b64565b60208301949094525060400152919050565b8581526001600160a01b0385811660208301528416604082015260a060608201819052600090615bbc90830185614beb565b90508260808301529695505050505050565b8681526001600160a01b038616602082015260c060408201819052600090615bf890830187614b04565b905060048510615c0457fe5b8460608301528360808301528260a0830152979650505050505050565b600084825260606020830152615c3a6060830185614b04565b9050826040830152949350505050565b918252602082015260400190565b6040518181016001600160401b0381118282101715615c7657600080fd5b604052919050565b60006001600160401b03821115615c93578081fd5b5060209081020190565b60006001600160401b03821115615cb2578081fd5b50601f01601f191660200190565b60009081526020902090565b6001600160a01b031690565b8060048110611acb57fe5b60005b83811015615cfe578181015183820152602001615ce6565b83811115610c4a5750506000910152565b60e01c90565b600060443d1015615d2557611c5c565b600481823e6308c379a0615d398251615d0f565b14615d4357611c5c565b6040513d600319016004823e80513d6001600160401b038160248401118184111715615d725750505050611c5c565b82840191508151925080831115615d8c5750505050611c5c565b503d83016020838301011115615da457505050611c5c565b601f91909101601f1916810160200160405291505090565b60028110612d5257fe5b6001600160a01b0381168114612d5257600080fd5b8015158114612d5257600080fdfe47656c61746f436f72652e657865633a20496e73756666696369656e742067617347656c61746f50726f7669646572732e70726f76696465724d6f64756c65436865636b7347656c61746f436f72652e63616e5375626d69745461736b3a206578706972794461746547656c61746f53797341646d696e2e6578656375746f72537563636573734665653a20646976206572726f7247656c61746f436f72652e63616e5375626d69745461736b3a206578656375746f72206e6f74206d696e5374616b65647461736b5370656347617350726963654365696c2d4f522d6e6f7450726f766964656447656c61746f436f72652e5f70726f6365737350726f766964657250617961626c65733a2070726f766964657246756e647320756e646572666c6f7747656c61746f53797341646d696e2e73797341646d696e5375636365737353686172653a20646976206572726f7247656c61746f53797341646d696e2e5f67657447656c61746f47617350726963653a47656c61746f436f72652e63616e5375626d69745461736b3a73656c6650726f76696465724761734c696d697420746f6f206c6f7747656c61746f436f72652e657865637574696f6e577261707065723a756e646566696e6564a2646970667358221220195a1d8239f1bb25807b28492763c4139bac6316af682471017e461f127b36a064736f6c634300060a0033",
  "immutableReferences": {},
  "source": "// \"SPDX-License-Identifier: UNLICENSED\"\npragma solidity ^0.6.10;\npragma experimental ABIEncoderV2;\n\nimport {IGelatoCore, Provider, Task, TaskReceipt} from \"./interfaces/IGelatoCore.sol\";\nimport {GelatoExecutors} from \"./GelatoExecutors.sol\";\nimport {GelatoBytes} from \"../libraries/GelatoBytes.sol\";\nimport {GelatoTaskReceipt} from \"../libraries/GelatoTaskReceipt.sol\";\nimport {SafeMath} from \"../external/SafeMath.sol\";\nimport {IGelatoCondition} from \"../gelato_conditions/IGelatoCondition.sol\";\nimport {IGelatoAction} from \"../gelato_actions/IGelatoAction.sol\";\nimport {IGelatoProviderModule} from \"../gelato_provider_modules/IGelatoProviderModule.sol\";\n\n/// @title GelatoCore\n/// @author Luis Schliesske & Hilmar Orth\n/// @notice Task: submission, validation, execution, and cancellation\n/// @dev Find all NatSpecs inside IGelatoCore\ncontract GelatoCore is IGelatoCore, GelatoExecutors {\n\n    using GelatoBytes for bytes;\n    using GelatoTaskReceipt for TaskReceipt;\n    using SafeMath for uint256;\n\n    // Setting State Vars for GelatoSysAdmin\n    constructor(GelatoSysAdminInitialState memory _) public {\n        gelatoGasPriceOracle = _.gelatoGasPriceOracle;\n        oracleRequestData = _.oracleRequestData;\n        gelatoMaxGas = _.gelatoMaxGas;\n        internalGasRequirement = _.internalGasRequirement;\n        minExecutorStake = _.minExecutorStake;\n        executorSuccessShare = _.executorSuccessShare;\n        sysAdminSuccessShare = _.sysAdminSuccessShare;\n        totalSuccessShare = _.totalSuccessShare;\n    }\n\n    // ================  STATE VARIABLES ======================================\n    // TaskReceiptIds\n    uint256 public override currentTaskReceiptId;\n    // taskReceipt.id => taskReceiptHash\n    mapping(uint256 => bytes32) public override taskReceiptHash;\n\n    // ================  SUBMIT ==============================================\n    function canSubmitTask(\n        address _userProxy,\n        Provider memory _provider,\n        Task memory _task,\n        uint256 _expiryDate\n    )\n        external\n        view\n        override\n        returns(string memory)\n    {\n        // EXECUTOR CHECKS\n        if (!isExecutorMinStaked(executorByProvider[_provider.addr]))\n            return \"GelatoCore.canSubmitTask: executor not minStaked\";\n\n        // ExpiryDate\n        if (_expiryDate != 0)\n            if (_expiryDate < block.timestamp)\n                return \"GelatoCore.canSubmitTask: expiryDate\";\n\n        // Check Provider details\n        string memory isProvided;\n        if (_userProxy == _provider.addr) {\n            if (_task.selfProviderGasLimit < internalGasRequirement.mul(2))\n                return \"GelatoCore.canSubmitTask:selfProviderGasLimit too low\";\n            isProvided = providerModuleChecks(_userProxy, _provider, _task);\n        }\n        else isProvided = isTaskProvided(_userProxy, _provider, _task);\n        if (!isProvided.startsWithOK())\n            return string(abi.encodePacked(\"GelatoCore.canSubmitTask.isProvided:\", isProvided));\n\n        // Success\n        return OK;\n    }\n\n    function submitTask(\n        Provider memory _provider,\n        Task memory _task,\n        uint256 _expiryDate\n    )\n        external\n        override\n    {\n        Task[] memory singleTask = new Task[](1);\n        singleTask[0] = _task;\n        if (msg.sender == _provider.addr) _handleSelfProviderGasDefaults(singleTask);\n        _storeTaskReceipt(false, msg.sender, _provider, 0, singleTask, _expiryDate, 0, 1);\n    }\n\n    function submitTaskCycle(\n        Provider memory _provider,\n        Task[] memory _tasks,\n        uint256 _expiryDate,\n        uint256 _cycles  // how many full cycles should be submitted\n    )\n        external\n        override\n    {\n        if (msg.sender == _provider.addr) _handleSelfProviderGasDefaults(_tasks);\n        _storeTaskReceipt(\n            true, msg.sender, _provider, 0, _tasks, _expiryDate, 0, _cycles * _tasks.length\n        );\n    }\n\n    function submitTaskChain(\n        Provider memory _provider,\n        Task[] memory _tasks,\n        uint256 _expiryDate,\n        uint256 _sumOfRequestedTaskSubmits  // see IGelatoCore for explanation\n    )\n        external\n        override\n    {\n        if (_sumOfRequestedTaskSubmits != 0) {\n            require(\n                _sumOfRequestedTaskSubmits >= _tasks.length,\n                \"GelatoCore.submitTaskChain: less requested submits than tasks\"\n            );\n        }\n        if (msg.sender == _provider.addr) _handleSelfProviderGasDefaults(_tasks);\n        _storeTaskReceipt(\n            true, msg.sender, _provider, 0, _tasks, _expiryDate, 0, _sumOfRequestedTaskSubmits\n        );\n    }\n\n    function _storeTaskReceipt(\n        bool _newCycle,\n        address _userProxy,\n        Provider memory _provider,\n        uint256 _index,\n        Task[] memory _tasks,\n        uint256 _expiryDate,\n        uint256 _cycleId,\n        uint256 _submissionsLeft\n    )\n        private\n    {\n        // Increment TaskReceipt ID storage\n        uint256 nextTaskReceiptId = currentTaskReceiptId + 1;\n        currentTaskReceiptId = nextTaskReceiptId;\n\n        // Generate new Task Receipt\n        TaskReceipt memory taskReceipt = TaskReceipt({\n            id: nextTaskReceiptId,\n            userProxy: _userProxy, // Smart Contract Accounts ONLY\n            provider: _provider,\n            index: _index,\n            tasks: _tasks,\n            expiryDate: _expiryDate,\n            cycleId: _newCycle ? nextTaskReceiptId : _cycleId,\n            submissionsLeft: _submissionsLeft // 0=infinity, 1=once, X=maxTotalExecutions\n        });\n\n        // Hash TaskReceipt\n        bytes32 hashedTaskReceipt = hashTaskReceipt(taskReceipt);\n\n        // Store TaskReceipt Hash\n        taskReceiptHash[taskReceipt.id] = hashedTaskReceipt;\n\n        emit LogTaskSubmitted(taskReceipt.id, hashedTaskReceipt, taskReceipt);\n    }\n\n    // ================  CAN EXECUTE EXECUTOR API ============================\n    // _gasLimit must be gelatoMaxGas for all Providers except SelfProviders.\n    function canExec(TaskReceipt memory _TR, uint256 _gasLimit, uint256 _gelatoGasPrice)\n        public\n        view\n        override\n        returns(string memory)\n    {\n        if (!isExecutorMinStaked(executorByProvider[_TR.provider.addr]))\n            return \"ExecutorNotMinStaked\";\n\n        if (!isProviderLiquid(_TR.provider.addr, _gasLimit, _gelatoGasPrice))\n            return \"ProviderIlliquidity\";\n\n        string memory res = providerCanExec(\n            _TR.userProxy,\n            _TR.provider,\n            _TR.task(),\n            _gelatoGasPrice\n        );\n        if (!res.startsWithOK()) return res;\n\n        bytes32 hashedTaskReceipt = hashTaskReceipt(_TR);\n        if (taskReceiptHash[_TR.id] != hashedTaskReceipt) return \"InvalidTaskReceiptHash\";\n\n        if (_TR.expiryDate != 0 && _TR.expiryDate <= block.timestamp)\n            return \"TaskReceiptExpired\";\n\n        // Optional CHECK Condition for user proxies\n        if (_TR.task().conditions.length != 0) {\n            for (uint i; i < _TR.task().conditions.length; i++) {\n                try _TR.task().conditions[i].inst.ok(\n                    _TR.id,\n                    _TR.task().conditions[i].data,\n                    _TR.cycleId\n                )\n                    returns(string memory condition)\n                {\n                    if (!condition.startsWithOK())\n                        return string(abi.encodePacked(\"ConditionNotOk:\", condition));\n                } catch Error(string memory error) {\n                    return string(abi.encodePacked(\"ConditionReverted:\", error));\n                } catch {\n                    return \"ConditionReverted:undefined\";\n                }\n            }\n        }\n\n        // Optional CHECK Action Terms\n        for (uint i; i < _TR.task().actions.length; i++) {\n            // Only check termsOk if specified, else continue\n            if (!_TR.task().actions[i].termsOkCheck) continue;\n\n            try IGelatoAction(_TR.task().actions[i].addr).termsOk(\n                _TR.id,\n                _TR.userProxy,\n                _TR.task().actions[i].data,\n                _TR.task().actions[i].dataFlow,\n                _TR.task().actions[i].value,\n                _TR.cycleId\n            )\n                returns(string memory actionTermsOk)\n            {\n                if (!actionTermsOk.startsWithOK())\n                    return string(abi.encodePacked(\"ActionTermsNotOk:\", actionTermsOk));\n            } catch Error(string memory error) {\n                return string(abi.encodePacked(\"ActionReverted:\", error));\n            } catch {\n                return \"ActionRevertedNoMessage\";\n            }\n        }\n\n        // Executor Validation\n        if (msg.sender == address(this)) return OK;\n        else if (msg.sender == executorByProvider[_TR.provider.addr]) return OK;\n        else return \"InvalidExecutor\";\n    }\n\n    // ================  EXECUTE EXECUTOR API ============================\n    enum ExecutionResult { ExecSuccess, CanExecFailed, ExecRevert }\n    enum ExecutorPay { Reward, Refund }\n\n    // Execution Entry Point: tx.gasprice must be greater or equal to _getGelatoGasPrice()\n    function exec(TaskReceipt memory _TR) external override {\n\n        // Store startGas for gas-consumption based cost and payout calcs\n        uint256 startGas = gasleft();\n\n        // memcopy of gelatoGasPrice, to avoid multiple storage reads\n        uint256 gelatoGasPrice = _getGelatoGasPrice();\n\n        // Executors must use the gelatoGasPrice or higher\n        require(\n            tx.gasprice >= gelatoGasPrice,\n            \"GelatoCore.exec: tx.gasprice below gelatoGasPrice\"\n        );\n\n        // Only assigned executor can execute this function\n        require(\n            msg.sender == executorByProvider[_TR.provider.addr],\n            \"GelatoCore.exec: Invalid Executor\"\n        );\n\n        // The gas stipend the executor must provide. Special case for SelfProviders.\n        uint256 gasLimit\n            = _TR.selfProvider() ? _TR.task().selfProviderGasLimit : gelatoMaxGas;\n\n        ExecutionResult executionResult;\n        string memory reason;\n\n        try this.executionWrapper{\n            gas: gasleft().sub(internalGasRequirement, \"GelatoCore.exec: Insufficient gas\")\n        }(_TR, gasLimit, gelatoGasPrice)\n            returns (ExecutionResult _executionResult, string memory _reason)\n        {\n            executionResult = _executionResult;\n            reason = _reason;\n        } catch Error(string memory error) {\n            executionResult = ExecutionResult.ExecRevert;\n            reason = error;\n        } catch {\n            // If any of the external calls in executionWrapper resulted in e.g. out of gas,\n            // Executor is eligible for a Refund, but only if Executor sent gelatoMaxGas.\n            executionResult = ExecutionResult.ExecRevert;\n            reason = \"GelatoCore.executionWrapper:undefined\";\n        }\n\n        if (executionResult == ExecutionResult.ExecSuccess) {\n            // END-1: SUCCESS => TaskReceipt was deleted in _exec & Reward\n            (uint256 executorSuccessFee, uint256 sysAdminSuccessFee) = _processProviderPayables(\n                _TR.provider.addr,\n                ExecutorPay.Reward,\n                startGas,\n                gasLimit,\n                gelatoGasPrice\n            );\n            emit LogExecSuccess(msg.sender, _TR.id, executorSuccessFee, sysAdminSuccessFee);\n\n        } else if (executionResult == ExecutionResult.CanExecFailed) {\n            // END-2: CanExecFailed => No TaskReceipt Deletion & No Refund\n            emit LogCanExecFailed(msg.sender, _TR.id, reason);\n\n        } else {\n            // executionResult == ExecutionResult.ExecRevert\n            // END-3.1: ExecReverted NO gelatoMaxGas => No TaskReceipt Deletion & No Refund\n            if (startGas < gasLimit)\n                emit LogExecReverted(msg.sender, _TR.id, 0, reason);\n            else {\n                // END-3.2: ExecReverted BUT gelatoMaxGas was used\n                //  => TaskReceipt Deletion (delete in _exec was reverted) & Refund\n                delete taskReceiptHash[_TR.id];\n                (uint256 executorRefund,) = _processProviderPayables(\n                    _TR.provider.addr,\n                    ExecutorPay.Refund,\n                    startGas,\n                    gasLimit,\n                    gelatoGasPrice\n                );\n                emit LogExecReverted(msg.sender, _TR.id, executorRefund, reason);\n            }\n        }\n    }\n\n    // Used by GelatoCore.exec(), to handle Out-Of-Gas from execution gracefully\n    function executionWrapper(\n        TaskReceipt memory taskReceipt,\n        uint256 _gasLimit,  // gelatoMaxGas or task.selfProviderGasLimit\n        uint256 _gelatoGasPrice\n    )\n        external\n        returns(ExecutionResult, string memory)\n    {\n        require(msg.sender == address(this), \"GelatoCore.executionWrapper:onlyGelatoCore\");\n\n        // canExec()\n        string memory canExecRes = canExec(taskReceipt, _gasLimit, _gelatoGasPrice);\n        if (!canExecRes.startsWithOK()) return (ExecutionResult.CanExecFailed, canExecRes);\n\n        // Will revert if exec failed => will be caught in exec flow\n        _exec(taskReceipt);\n\n        // Execution Success: Executor REWARD\n        return (ExecutionResult.ExecSuccess, \"\");\n    }\n\n    function _exec(TaskReceipt memory _TR) private {\n        // INTERACTIONS\n        // execPayload and proxyReturndataCheck values read from ProviderModule\n        bytes memory execPayload;\n        bool proxyReturndataCheck;\n\n        try IGelatoProviderModule(_TR.provider.module).execPayload(\n            _TR.id,\n            _TR.userProxy,\n            _TR.provider.addr,\n            _TR.task(),\n            _TR.cycleId\n        )\n            returns(bytes memory _execPayload, bool _proxyReturndataCheck)\n        {\n            execPayload = _execPayload;\n            proxyReturndataCheck = _proxyReturndataCheck;\n        } catch Error(string memory _error) {\n            revert(string(abi.encodePacked(\"GelatoCore._exec.execPayload:\", _error)));\n        } catch {\n            revert(\"GelatoCore._exec.execPayload:undefined\");\n        }\n\n        // To prevent single task exec reentrancy we delete hash before external call\n        delete taskReceiptHash[_TR.id];\n\n        // Execution via UserProxy\n        (bool success, bytes memory userProxyReturndata) = _TR.userProxy.call(execPayload);\n\n        // Check if actions reverts were caught by userProxy\n        if (success && proxyReturndataCheck) {\n            try _TR.provider.module.execRevertCheck(userProxyReturndata) {\n                // success: no revert from providerModule signifies no revert found\n            } catch Error(string memory _error) {\n                revert(string(abi.encodePacked(\"GelatoCore._exec.execRevertCheck:\", _error)));\n            } catch {\n                revert(\"GelatoCore._exec.execRevertCheck:undefined\");\n            }\n        }\n\n        // SUCCESS\n        if (success) {\n            // Optional: Automated Cyclic Task Submissions\n            if (_TR.submissionsLeft != 1) {\n                _storeTaskReceipt(\n                    false,  // newCycle?\n                    _TR.userProxy,\n                    _TR.provider,\n                    _TR.nextIndex(),\n                    _TR.tasks,\n                    _TR.expiryDate,\n                    _TR.cycleId,\n                    _TR.submissionsLeft == 0 ? 0 : _TR.submissionsLeft - 1\n                );\n            }\n        } else {\n            // FAILURE: reverts, caught or uncaught in userProxy.call, were detected\n            // We revert all state from _exec/userProxy.call and catch revert in exec flow\n            // Caution: we also revert the deletion of taskReceiptHash.\n            userProxyReturndata.revertWithErrorString(\"GelatoCore._exec:\");\n        }\n    }\n\n    function _processProviderPayables(\n        address _provider,\n        ExecutorPay _payType,\n        uint256 _startGas,\n        uint256 _gasLimit,  // gelatoMaxGas or selfProviderGasLimit\n        uint256 _gelatoGasPrice\n    )\n        private\n        returns(uint256 executorCompensation, uint256 sysAdminCompensation)\n    {\n        uint256 estGasUsed = _startGas - gasleft();\n\n        // Provider payable Gas Refund capped at gelatoMaxGas\n        //  (- consecutive state writes + gas refund from deletion)\n        uint256 cappedGasUsed =\n            estGasUsed < _gasLimit\n                ? estGasUsed + EXEC_TX_OVERHEAD\n                : _gasLimit + EXEC_TX_OVERHEAD;\n\n        if (_payType == ExecutorPay.Reward) {\n            executorCompensation = executorSuccessFee(cappedGasUsed, _gelatoGasPrice);\n            sysAdminCompensation = sysAdminSuccessFee(cappedGasUsed, _gelatoGasPrice);\n            // ExecSuccess: Provider pays ExecutorSuccessFee and SysAdminSuccessFee\n            providerFunds[_provider] = providerFunds[_provider].sub(\n                executorCompensation.add(sysAdminCompensation),\n                \"GelatoCore._processProviderPayables: providerFunds underflow\"\n            );\n            executorStake[msg.sender] += executorCompensation;\n            sysAdminFunds += sysAdminCompensation;\n        } else {\n            // ExecFailure: Provider REFUNDS estimated costs to executor\n            executorCompensation = cappedGasUsed.mul(_gelatoGasPrice);\n            providerFunds[_provider] = providerFunds[_provider].sub(\n                executorCompensation,\n                \"GelatoCore._processProviderPayables: providerFunds underflow\"\n            );\n            executorStake[msg.sender] += executorCompensation;\n        }\n    }\n\n    // ================  CANCEL USER / EXECUTOR API ============================\n    function cancelTask(TaskReceipt memory _TR) public override {\n        // Checks\n        require(\n            msg.sender == _TR.userProxy || msg.sender == _TR.provider.addr,\n            \"GelatoCore.cancelTask: sender\"\n        );\n        // Effects\n        bytes32 hashedTaskReceipt = hashTaskReceipt(_TR);\n        require(\n            hashedTaskReceipt == taskReceiptHash[_TR.id],\n            \"GelatoCore.cancelTask: invalid taskReceiptHash\"\n        );\n        delete taskReceiptHash[_TR.id];\n        emit LogTaskCancelled(_TR.id, msg.sender);\n    }\n\n    function multiCancelTasks(TaskReceipt[] memory _taskReceipts) external override {\n        for (uint i; i < _taskReceipts.length; i++) cancelTask(_taskReceipts[i]);\n    }\n\n    // Helpers\n    function hashTaskReceipt(TaskReceipt memory _TR) public pure override returns(bytes32) {\n        return keccak256(abi.encode(_TR));\n    }\n\n    function _handleSelfProviderGasDefaults(Task[] memory _tasks) private view {\n        for (uint256 i; i < _tasks.length; i++) {\n            if (_tasks[i].selfProviderGasLimit == 0) {\n                _tasks[i].selfProviderGasLimit = gelatoMaxGas;\n            } else {\n                require(\n                    _tasks[i].selfProviderGasLimit >= internalGasRequirement.mul(2),\n                    \"GelatoCore._handleSelfProviderGasDefaults:selfProviderGasLimit too low\"\n                );\n            }\n            if (_tasks[i].selfProviderGasPriceCeil == 0)\n                _tasks[i].selfProviderGasPriceCeil = NO_CEIL;\n        }\n    }\n}\n",
  "sourcePath": "/Users/earth/Desktop/truffle-gelato-core/contracts/gelato_core/GelatoCore.sol",
  "compiler": {
    "name": "solc",
    "version": "0.6.10+commit.00c0fcaf.Emscripten.clang"
  },
  "schemaVersion": "3.3.0",
  "updatedAt": "2020-12-02T16:23:49.999Z",
  "networkType": "ethereum",
  "devdoc": {
    "author": "Luis Schliesske & Hilmar Orth",
    "details": "Find all NatSpecs inside IGelatoCore",
    "methods": {
      "isOwner()": {
        "details": "Returns true if the caller is the current owner."
      },
      "owner()": {
        "details": "Returns the address of the current owner."
      },
      "renounceOwnership()": {
        "details": "Leaves the contract without owner. It will not be possible to call `onlyOwner` functions anymore. Can only be called by the current owner. NOTE: Renouncing ownership will leave the contract without an owner, thereby removing any functionality that is only available to the owner."
      },
      "transferOwnership(address)": {
        "details": "Transfers ownership of the contract to a new account (`newOwner`). Can only be called by the current owner."
      }
    },
    "title": "GelatoCore"
  },
  "userdoc": {
    "methods": {},
    "notice": "Task: submission, validation, execution, and cancellation"
  }
}