{
  "contractName": "GeneralizedTCR",
  "abi": [
    {
      "inputs": [
        {
          "internalType": "contract IArbitrator",
          "name": "_arbitrator",
          "type": "address"
        },
        {
          "internalType": "bytes",
          "name": "_arbitratorExtraData",
          "type": "bytes"
        },
        {
          "internalType": "address",
          "name": "_connectedTCR",
          "type": "address"
        },
        {
          "internalType": "string",
          "name": "_registrationMetaEvidence",
          "type": "string"
        },
        {
          "internalType": "string",
          "name": "_clearingMetaEvidence",
          "type": "string"
        },
        {
          "internalType": "address",
          "name": "_governor",
          "type": "address"
        },
        {
          "internalType": "uint256",
          "name": "_submissionBaseDeposit",
          "type": "uint256"
        },
        {
          "internalType": "uint256",
          "name": "_removalBaseDeposit",
          "type": "uint256"
        },
        {
          "internalType": "uint256",
          "name": "_submissionChallengeBaseDeposit",
          "type": "uint256"
        },
        {
          "internalType": "uint256",
          "name": "_removalChallengeBaseDeposit",
          "type": "uint256"
        },
        {
          "internalType": "uint256",
          "name": "_challengePeriodDuration",
          "type": "uint256"
        },
        {
          "internalType": "uint256[3]",
          "name": "_stakeMultipliers",
          "type": "uint256[3]"
        }
      ],
      "payable": false,
      "stateMutability": "nonpayable",
      "type": "constructor"
    },
    {
      "anonymous": false,
      "inputs": [
        {
          "indexed": true,
          "internalType": "bytes32",
          "name": "_itemID",
          "type": "bytes32"
        },
        {
          "indexed": true,
          "internalType": "address",
          "name": "_contributor",
          "type": "address"
        },
        {
          "indexed": true,
          "internalType": "uint256",
          "name": "_request",
          "type": "uint256"
        },
        {
          "indexed": false,
          "internalType": "uint256",
          "name": "_round",
          "type": "uint256"
        },
        {
          "indexed": false,
          "internalType": "uint256",
          "name": "_amount",
          "type": "uint256"
        },
        {
          "indexed": false,
          "internalType": "enum GeneralizedTCR.Party",
          "name": "_side",
          "type": "uint8"
        }
      ],
      "name": "AppealContribution",
      "type": "event"
    },
    {
      "anonymous": false,
      "inputs": [
        {
          "indexed": true,
          "internalType": "address",
          "name": "_connectedTCR",
          "type": "address"
        }
      ],
      "name": "ConnectedTCRSet",
      "type": "event"
    },
    {
      "anonymous": false,
      "inputs": [
        {
          "indexed": true,
          "internalType": "contract IArbitrator",
          "name": "_arbitrator",
          "type": "address"
        },
        {
          "indexed": true,
          "internalType": "uint256",
          "name": "_disputeID",
          "type": "uint256"
        },
        {
          "indexed": false,
          "internalType": "uint256",
          "name": "_metaEvidenceID",
          "type": "uint256"
        },
        {
          "indexed": false,
          "internalType": "uint256",
          "name": "_evidenceGroupID",
          "type": "uint256"
        }
      ],
      "name": "Dispute",
      "type": "event"
    },
    {
      "anonymous": false,
      "inputs": [
        {
          "indexed": true,
          "internalType": "contract IArbitrator",
          "name": "_arbitrator",
          "type": "address"
        },
        {
          "indexed": true,
          "internalType": "uint256",
          "name": "_evidenceGroupID",
          "type": "uint256"
        },
        {
          "indexed": true,
          "internalType": "address",
          "name": "_party",
          "type": "address"
        },
        {
          "indexed": false,
          "internalType": "string",
          "name": "_evidence",
          "type": "string"
        }
      ],
      "name": "Evidence",
      "type": "event"
    },
    {
      "anonymous": false,
      "inputs": [
        {
          "indexed": true,
          "internalType": "bytes32",
          "name": "_itemID",
          "type": "bytes32"
        },
        {
          "indexed": true,
          "internalType": "uint256",
          "name": "_request",
          "type": "uint256"
        },
        {
          "indexed": true,
          "internalType": "uint256",
          "name": "_round",
          "type": "uint256"
        },
        {
          "indexed": false,
          "internalType": "enum GeneralizedTCR.Party",
          "name": "_side",
          "type": "uint8"
        }
      ],
      "name": "HasPaidAppealFee",
      "type": "event"
    },
    {
      "anonymous": false,
      "inputs": [
        {
          "indexed": true,
          "internalType": "bytes32",
          "name": "_itemID",
          "type": "bytes32"
        },
        {
          "indexed": true,
          "internalType": "uint256",
          "name": "_requestIndex",
          "type": "uint256"
        },
        {
          "indexed": true,
          "internalType": "uint256",
          "name": "_roundIndex",
          "type": "uint256"
        },
        {
          "indexed": false,
          "internalType": "bool",
          "name": "_disputed",
          "type": "bool"
        },
        {
          "indexed": false,
          "internalType": "bool",
          "name": "_resolved",
          "type": "bool"
        }
      ],
      "name": "ItemStatusChange",
      "type": "event"
    },
    {
      "anonymous": false,
      "inputs": [
        {
          "indexed": true,
          "internalType": "bytes32",
          "name": "_itemID",
          "type": "bytes32"
        },
        {
          "indexed": true,
          "internalType": "address",
          "name": "_submitter",
          "type": "address"
        },
        {
          "indexed": true,
          "internalType": "uint256",
          "name": "_evidenceGroupID",
          "type": "uint256"
        },
        {
          "indexed": false,
          "internalType": "bytes",
          "name": "_data",
          "type": "bytes"
        }
      ],
      "name": "ItemSubmitted",
      "type": "event"
    },
    {
      "anonymous": false,
      "inputs": [
        {
          "indexed": true,
          "internalType": "uint256",
          "name": "_metaEvidenceID",
          "type": "uint256"
        },
        {
          "indexed": false,
          "internalType": "string",
          "name": "_evidence",
          "type": "string"
        }
      ],
      "name": "MetaEvidence",
      "type": "event"
    },
    {
      "anonymous": false,
      "inputs": [
        {
          "indexed": true,
          "internalType": "bytes32",
          "name": "_itemID",
          "type": "bytes32"
        },
        {
          "indexed": true,
          "internalType": "uint256",
          "name": "_requestIndex",
          "type": "uint256"
        },
        {
          "indexed": true,
          "internalType": "uint256",
          "name": "_evidenceGroupID",
          "type": "uint256"
        }
      ],
      "name": "RequestEvidenceGroupID",
      "type": "event"
    },
    {
      "anonymous": false,
      "inputs": [
        {
          "indexed": true,
          "internalType": "bytes32",
          "name": "_itemID",
          "type": "bytes32"
        },
        {
          "indexed": true,
          "internalType": "uint256",
          "name": "_requestIndex",
          "type": "uint256"
        },
        {
          "indexed": true,
          "internalType": "enum GeneralizedTCR.Status",
          "name": "_requestType",
          "type": "uint8"
        }
      ],
      "name": "RequestSubmitted",
      "type": "event"
    },
    {
      "anonymous": false,
      "inputs": [
        {
          "indexed": true,
          "internalType": "contract IArbitrator",
          "name": "_arbitrator",
          "type": "address"
        },
        {
          "indexed": true,
          "internalType": "uint256",
          "name": "_disputeID",
          "type": "uint256"
        },
        {
          "indexed": false,
          "internalType": "uint256",
          "name": "_ruling",
          "type": "uint256"
        }
      ],
      "name": "Ruling",
      "type": "event"
    },
    {
      "constant": true,
      "inputs": [],
      "name": "MULTIPLIER_DIVISOR",
      "outputs": [
        {
          "internalType": "uint256",
          "name": "",
          "type": "uint256"
        }
      ],
      "payable": false,
      "stateMutability": "view",
      "type": "function"
    },
    {
      "constant": true,
      "inputs": [],
      "name": "arbitrator",
      "outputs": [
        {
          "internalType": "contract IArbitrator",
          "name": "",
          "type": "address"
        }
      ],
      "payable": false,
      "stateMutability": "view",
      "type": "function"
    },
    {
      "constant": true,
      "inputs": [
        {
          "internalType": "address",
          "name": "",
          "type": "address"
        },
        {
          "internalType": "uint256",
          "name": "",
          "type": "uint256"
        }
      ],
      "name": "arbitratorDisputeIDToItem",
      "outputs": [
        {
          "internalType": "bytes32",
          "name": "",
          "type": "bytes32"
        }
      ],
      "payable": false,
      "stateMutability": "view",
      "type": "function"
    },
    {
      "constant": true,
      "inputs": [],
      "name": "arbitratorExtraData",
      "outputs": [
        {
          "internalType": "bytes",
          "name": "",
          "type": "bytes"
        }
      ],
      "payable": false,
      "stateMutability": "view",
      "type": "function"
    },
    {
      "constant": true,
      "inputs": [],
      "name": "challengePeriodDuration",
      "outputs": [
        {
          "internalType": "uint256",
          "name": "",
          "type": "uint256"
        }
      ],
      "payable": false,
      "stateMutability": "view",
      "type": "function"
    },
    {
      "constant": true,
      "inputs": [],
      "name": "governor",
      "outputs": [
        {
          "internalType": "address",
          "name": "",
          "type": "address"
        }
      ],
      "payable": false,
      "stateMutability": "view",
      "type": "function"
    },
    {
      "constant": true,
      "inputs": [
        {
          "internalType": "bytes32",
          "name": "",
          "type": "bytes32"
        }
      ],
      "name": "itemIDtoIndex",
      "outputs": [
        {
          "internalType": "uint256",
          "name": "",
          "type": "uint256"
        }
      ],
      "payable": false,
      "stateMutability": "view",
      "type": "function"
    },
    {
      "constant": true,
      "inputs": [
        {
          "internalType": "uint256",
          "name": "",
          "type": "uint256"
        }
      ],
      "name": "itemList",
      "outputs": [
        {
          "internalType": "bytes32",
          "name": "",
          "type": "bytes32"
        }
      ],
      "payable": false,
      "stateMutability": "view",
      "type": "function"
    },
    {
      "constant": true,
      "inputs": [
        {
          "internalType": "bytes32",
          "name": "",
          "type": "bytes32"
        }
      ],
      "name": "items",
      "outputs": [
        {
          "internalType": "bytes",
          "name": "data",
          "type": "bytes"
        },
        {
          "internalType": "enum GeneralizedTCR.Status",
          "name": "status",
          "type": "uint8"
        }
      ],
      "payable": false,
      "stateMutability": "view",
      "type": "function"
    },
    {
      "constant": true,
      "inputs": [],
      "name": "loserStakeMultiplier",
      "outputs": [
        {
          "internalType": "uint256",
          "name": "",
          "type": "uint256"
        }
      ],
      "payable": false,
      "stateMutability": "view",
      "type": "function"
    },
    {
      "constant": true,
      "inputs": [],
      "name": "metaEvidenceUpdates",
      "outputs": [
        {
          "internalType": "uint256",
          "name": "",
          "type": "uint256"
        }
      ],
      "payable": false,
      "stateMutability": "view",
      "type": "function"
    },
    {
      "constant": true,
      "inputs": [],
      "name": "removalBaseDeposit",
      "outputs": [
        {
          "internalType": "uint256",
          "name": "",
          "type": "uint256"
        }
      ],
      "payable": false,
      "stateMutability": "view",
      "type": "function"
    },
    {
      "constant": true,
      "inputs": [],
      "name": "removalChallengeBaseDeposit",
      "outputs": [
        {
          "internalType": "uint256",
          "name": "",
          "type": "uint256"
        }
      ],
      "payable": false,
      "stateMutability": "view",
      "type": "function"
    },
    {
      "constant": true,
      "inputs": [],
      "name": "sharedStakeMultiplier",
      "outputs": [
        {
          "internalType": "uint256",
          "name": "",
          "type": "uint256"
        }
      ],
      "payable": false,
      "stateMutability": "view",
      "type": "function"
    },
    {
      "constant": true,
      "inputs": [],
      "name": "submissionBaseDeposit",
      "outputs": [
        {
          "internalType": "uint256",
          "name": "",
          "type": "uint256"
        }
      ],
      "payable": false,
      "stateMutability": "view",
      "type": "function"
    },
    {
      "constant": true,
      "inputs": [],
      "name": "submissionChallengeBaseDeposit",
      "outputs": [
        {
          "internalType": "uint256",
          "name": "",
          "type": "uint256"
        }
      ],
      "payable": false,
      "stateMutability": "view",
      "type": "function"
    },
    {
      "constant": true,
      "inputs": [],
      "name": "winnerStakeMultiplier",
      "outputs": [
        {
          "internalType": "uint256",
          "name": "",
          "type": "uint256"
        }
      ],
      "payable": false,
      "stateMutability": "view",
      "type": "function"
    },
    {
      "constant": false,
      "inputs": [
        {
          "internalType": "bytes",
          "name": "_item",
          "type": "bytes"
        }
      ],
      "name": "addItem",
      "outputs": [],
      "payable": true,
      "stateMutability": "payable",
      "type": "function"
    },
    {
      "constant": false,
      "inputs": [
        {
          "internalType": "bytes32",
          "name": "_itemID",
          "type": "bytes32"
        },
        {
          "internalType": "string",
          "name": "_evidence",
          "type": "string"
        }
      ],
      "name": "removeItem",
      "outputs": [],
      "payable": true,
      "stateMutability": "payable",
      "type": "function"
    },
    {
      "constant": false,
      "inputs": [
        {
          "internalType": "bytes32",
          "name": "_itemID",
          "type": "bytes32"
        },
        {
          "internalType": "string",
          "name": "_evidence",
          "type": "string"
        }
      ],
      "name": "challengeRequest",
      "outputs": [],
      "payable": true,
      "stateMutability": "payable",
      "type": "function"
    },
    {
      "constant": false,
      "inputs": [
        {
          "internalType": "bytes32",
          "name": "_itemID",
          "type": "bytes32"
        },
        {
          "internalType": "enum GeneralizedTCR.Party",
          "name": "_side",
          "type": "uint8"
        }
      ],
      "name": "fundAppeal",
      "outputs": [],
      "payable": true,
      "stateMutability": "payable",
      "type": "function"
    },
    {
      "constant": false,
      "inputs": [
        {
          "internalType": "address payable",
          "name": "_beneficiary",
          "type": "address"
        },
        {
          "internalType": "bytes32",
          "name": "_itemID",
          "type": "bytes32"
        },
        {
          "internalType": "uint256",
          "name": "_request",
          "type": "uint256"
        },
        {
          "internalType": "uint256",
          "name": "_round",
          "type": "uint256"
        }
      ],
      "name": "withdrawFeesAndRewards",
      "outputs": [],
      "payable": false,
      "stateMutability": "nonpayable",
      "type": "function"
    },
    {
      "constant": false,
      "inputs": [
        {
          "internalType": "bytes32",
          "name": "_itemID",
          "type": "bytes32"
        }
      ],
      "name": "executeRequest",
      "outputs": [],
      "payable": false,
      "stateMutability": "nonpayable",
      "type": "function"
    },
    {
      "constant": false,
      "inputs": [
        {
          "internalType": "uint256",
          "name": "_disputeID",
          "type": "uint256"
        },
        {
          "internalType": "uint256",
          "name": "_ruling",
          "type": "uint256"
        }
      ],
      "name": "rule",
      "outputs": [],
      "payable": false,
      "stateMutability": "nonpayable",
      "type": "function"
    },
    {
      "constant": false,
      "inputs": [
        {
          "internalType": "bytes32",
          "name": "_itemID",
          "type": "bytes32"
        },
        {
          "internalType": "string",
          "name": "_evidence",
          "type": "string"
        }
      ],
      "name": "submitEvidence",
      "outputs": [],
      "payable": false,
      "stateMutability": "nonpayable",
      "type": "function"
    },
    {
      "constant": false,
      "inputs": [
        {
          "internalType": "uint256",
          "name": "_challengePeriodDuration",
          "type": "uint256"
        }
      ],
      "name": "changeTimeToChallenge",
      "outputs": [],
      "payable": false,
      "stateMutability": "nonpayable",
      "type": "function"
    },
    {
      "constant": false,
      "inputs": [
        {
          "internalType": "uint256",
          "name": "_submissionBaseDeposit",
          "type": "uint256"
        }
      ],
      "name": "changeSubmissionBaseDeposit",
      "outputs": [],
      "payable": false,
      "stateMutability": "nonpayable",
      "type": "function"
    },
    {
      "constant": false,
      "inputs": [
        {
          "internalType": "uint256",
          "name": "_removalBaseDeposit",
          "type": "uint256"
        }
      ],
      "name": "changeRemovalBaseDeposit",
      "outputs": [],
      "payable": false,
      "stateMutability": "nonpayable",
      "type": "function"
    },
    {
      "constant": false,
      "inputs": [
        {
          "internalType": "uint256",
          "name": "_submissionChallengeBaseDeposit",
          "type": "uint256"
        }
      ],
      "name": "changeSubmissionChallengeBaseDeposit",
      "outputs": [],
      "payable": false,
      "stateMutability": "nonpayable",
      "type": "function"
    },
    {
      "constant": false,
      "inputs": [
        {
          "internalType": "uint256",
          "name": "_removalChallengeBaseDeposit",
          "type": "uint256"
        }
      ],
      "name": "changeRemovalChallengeBaseDeposit",
      "outputs": [],
      "payable": false,
      "stateMutability": "nonpayable",
      "type": "function"
    },
    {
      "constant": false,
      "inputs": [
        {
          "internalType": "address",
          "name": "_governor",
          "type": "address"
        }
      ],
      "name": "changeGovernor",
      "outputs": [],
      "payable": false,
      "stateMutability": "nonpayable",
      "type": "function"
    },
    {
      "constant": false,
      "inputs": [
        {
          "internalType": "uint256",
          "name": "_sharedStakeMultiplier",
          "type": "uint256"
        }
      ],
      "name": "changeSharedStakeMultiplier",
      "outputs": [],
      "payable": false,
      "stateMutability": "nonpayable",
      "type": "function"
    },
    {
      "constant": false,
      "inputs": [
        {
          "internalType": "uint256",
          "name": "_winnerStakeMultiplier",
          "type": "uint256"
        }
      ],
      "name": "changeWinnerStakeMultiplier",
      "outputs": [],
      "payable": false,
      "stateMutability": "nonpayable",
      "type": "function"
    },
    {
      "constant": false,
      "inputs": [
        {
          "internalType": "uint256",
          "name": "_loserStakeMultiplier",
          "type": "uint256"
        }
      ],
      "name": "changeLoserStakeMultiplier",
      "outputs": [],
      "payable": false,
      "stateMutability": "nonpayable",
      "type": "function"
    },
    {
      "constant": false,
      "inputs": [
        {
          "internalType": "contract IArbitrator",
          "name": "_arbitrator",
          "type": "address"
        },
        {
          "internalType": "bytes",
          "name": "_arbitratorExtraData",
          "type": "bytes"
        }
      ],
      "name": "changeArbitrator",
      "outputs": [],
      "payable": false,
      "stateMutability": "nonpayable",
      "type": "function"
    },
    {
      "constant": false,
      "inputs": [
        {
          "internalType": "address",
          "name": "_connectedTCR",
          "type": "address"
        }
      ],
      "name": "changeConnectedTCR",
      "outputs": [],
      "payable": false,
      "stateMutability": "nonpayable",
      "type": "function"
    },
    {
      "constant": false,
      "inputs": [
        {
          "internalType": "string",
          "name": "_registrationMetaEvidence",
          "type": "string"
        },
        {
          "internalType": "string",
          "name": "_clearingMetaEvidence",
          "type": "string"
        }
      ],
      "name": "changeMetaEvidence",
      "outputs": [],
      "payable": false,
      "stateMutability": "nonpayable",
      "type": "function"
    },
    {
      "constant": true,
      "inputs": [],
      "name": "itemCount",
      "outputs": [
        {
          "internalType": "uint256",
          "name": "count",
          "type": "uint256"
        }
      ],
      "payable": false,
      "stateMutability": "view",
      "type": "function"
    },
    {
      "constant": true,
      "inputs": [
        {
          "internalType": "bytes32",
          "name": "_itemID",
          "type": "bytes32"
        },
        {
          "internalType": "uint256",
          "name": "_request",
          "type": "uint256"
        },
        {
          "internalType": "uint256",
          "name": "_round",
          "type": "uint256"
        },
        {
          "internalType": "address",
          "name": "_contributor",
          "type": "address"
        }
      ],
      "name": "getContributions",
      "outputs": [
        {
          "internalType": "uint256[3]",
          "name": "contributions",
          "type": "uint256[3]"
        }
      ],
      "payable": false,
      "stateMutability": "view",
      "type": "function"
    },
    {
      "constant": true,
      "inputs": [
        {
          "internalType": "bytes32",
          "name": "_itemID",
          "type": "bytes32"
        }
      ],
      "name": "getItemInfo",
      "outputs": [
        {
          "internalType": "bytes",
          "name": "data",
          "type": "bytes"
        },
        {
          "internalType": "enum GeneralizedTCR.Status",
          "name": "status",
          "type": "uint8"
        },
        {
          "internalType": "uint256",
          "name": "numberOfRequests",
          "type": "uint256"
        }
      ],
      "payable": false,
      "stateMutability": "view",
      "type": "function"
    },
    {
      "constant": true,
      "inputs": [
        {
          "internalType": "bytes32",
          "name": "_itemID",
          "type": "bytes32"
        },
        {
          "internalType": "uint256",
          "name": "_request",
          "type": "uint256"
        }
      ],
      "name": "getRequestInfo",
      "outputs": [
        {
          "internalType": "bool",
          "name": "disputed",
          "type": "bool"
        },
        {
          "internalType": "uint256",
          "name": "disputeID",
          "type": "uint256"
        },
        {
          "internalType": "uint256",
          "name": "submissionTime",
          "type": "uint256"
        },
        {
          "internalType": "bool",
          "name": "resolved",
          "type": "bool"
        },
        {
          "internalType": "address payable[3]",
          "name": "parties",
          "type": "address[3]"
        },
        {
          "internalType": "uint256",
          "name": "numberOfRounds",
          "type": "uint256"
        },
        {
          "internalType": "enum GeneralizedTCR.Party",
          "name": "ruling",
          "type": "uint8"
        },
        {
          "internalType": "contract IArbitrator",
          "name": "arbitrator",
          "type": "address"
        },
        {
          "internalType": "bytes",
          "name": "arbitratorExtraData",
          "type": "bytes"
        },
        {
          "internalType": "uint256",
          "name": "metaEvidenceID",
          "type": "uint256"
        }
      ],
      "payable": false,
      "stateMutability": "view",
      "type": "function"
    },
    {
      "constant": true,
      "inputs": [
        {
          "internalType": "bytes32",
          "name": "_itemID",
          "type": "bytes32"
        },
        {
          "internalType": "uint256",
          "name": "_request",
          "type": "uint256"
        },
        {
          "internalType": "uint256",
          "name": "_round",
          "type": "uint256"
        }
      ],
      "name": "getRoundInfo",
      "outputs": [
        {
          "internalType": "bool",
          "name": "appealed",
          "type": "bool"
        },
        {
          "internalType": "uint256[3]",
          "name": "amountPaid",
          "type": "uint256[3]"
        },
        {
          "internalType": "bool[3]",
          "name": "hasPaid",
          "type": "bool[3]"
        },
        {
          "internalType": "uint256",
          "name": "feeRewards",
          "type": "uint256"
        }
      ],
      "payable": false,
      "stateMutability": "view",
      "type": "function"
    }
  ],
  "bytecode": "0x6080604052600280553480156200001557600080fd5b50604051620062393803806200623983398181016040526101c08110156200003c57600080fd5b8101908080519060200190929190805160405193929190846401000000008211156200006757600080fd5b838201915060208201858111156200007e57600080fd5b82518660018202830111640100000000821117156200009c57600080fd5b8083526020830192505050908051906020019080838360005b83811015620000d2578082015181840152602081019050620000b5565b50505050905090810190601f168015620001005780820380516001836020036101000a031916815260200191505b5060405260200180519060200190929190805160405193929190846401000000008211156200012e57600080fd5b838201915060208201858111156200014557600080fd5b82518660018202830111640100000000821117156200016357600080fd5b8083526020830192505050908051906020019080838360005b83811015620001995780820151818401526020810190506200017c565b50505050905090810190601f168015620001c75780820380516001836020036101000a031916815260200191505b5060405260200180516040519392919084640100000000821115620001eb57600080fd5b838201915060208201858111156200020257600080fd5b82518660018202830111640100000000821117156200022057600080fd5b8083526020830192505050908051906020019080838360005b838110156200025657808201518184015260208101905062000239565b50505050905090810190601f168015620002845780820380516001836020036101000a031916815260200191505b506040526020018051906020019092919080519060200190929190805190602001909291908051906020019092919080519060200190929190805190602001909291909190505060007f61606860eb6c87306811e2695215385101daab53bd6ab4e9f9049aead9363c7d8a6040518080602001828103825283818151815260200191508051906020019080838360005b838110156200033157808201518184015260208101905062000314565b50505050905090810190601f1680156200035f5780820380516001836020036101000a031916815260200191505b509250505060405180910390a260017f61606860eb6c87306811e2695215385101daab53bd6ab4e9f9049aead9363c7d896040518080602001828103825283818151815260200191508051906020019080838360005b83811015620003d2578082015181840152602081019050620003b5565b50505050905090810190601f168015620004005780820380516001836020036101000a031916815260200191505b509250505060405180910390a28973ffffffffffffffffffffffffffffffffffffffff167fc86a04b722cdfef2134355447e1ebddd83d57a81cddda524d682811e222bc25060405160405180910390a28b6000806101000a81548173ffffffffffffffffffffffffffffffffffffffff021916908373ffffffffffffffffffffffffffffffffffffffff1602179055508a60019080519060200190620004a89291906200056a565b5086600360006101000a81548173ffffffffffffffffffffffffffffffffffffffff021916908373ffffffffffffffffffffffffffffffffffffffff1602179055508560048190555084600581905550836006819055508260078190555081600881905550806000600381106200051b57fe5b6020020151600c81905550806001600381106200053457fe5b6020020151600a81905550806002600381106200054d57fe5b6020020151600b8190555050505050505050505050505062000619565b828054600181600116156101000203166002900490600052602060002090601f016020900481019282601f10620005ad57805160ff1916838001178555620005de565b82800160010185558215620005de579182015b82811115620005dd578251825591602001919060010190620005c0565b5b509050620005ed9190620005f1565b5090565b6200061691905b8082111562000612576000816000905550600101620005f8565b5090565b90565b615c1080620006296000396000f3fe6080604052600436106102505760003560e01c806392239dff11610139578063bfbcff1a116100b6578063d661dd311161007a578063d661dd3114610fc7578063d706be3114610ff2578063dd78cb59146110cd578063e4c0aaf414611108578063e9c2416614611159578063f48a0b311461119457610250565b8063bfbcff1a14610d46578063c104817d14610ead578063c2f2beea14610ee8578063d294ccef14610f13578063d36fdb1814610f8c57610250565b8063a37b6ad4116100fd578063a37b6ad414610bbe578063adc7faba14610be9578063b4d7953914610c24578063ba7079ca14610c75578063bb0b86ff14610d1b57610250565b806392239dff14610976578063974121b2146109b157806397e90e5014610a7d57806398eeadf014610b00578063a1c2bf4d14610b4f57610250565b806348f343f3116101d25780636cdc090f116101965780636cdc090f146107c8578063787471a9146107f35780637b9433831461081e578063873db1a7146108495780638a0d1e61146108cc5780638c88c1491461093b57610250565b806348f343f3146105025780634aac84e5146105cb57806352bc0e601461069b5780636bfb0d01146107465780636cc6cde11461077157610250565b80632baf80ee116102195780632baf80ee146103cd578063311a6c561461040857806333e5d0471461044d5780633d4d36001461048857806341658341146104d757610250565b806282a36d146102555780630c340a24146102805780630c7ac7b6146102d757806312ce3525146103675780631d512085146103a2575b600080fd5b34801561026157600080fd5b5061026a611224565b6040518082815260200191505060405180910390f35b34801561028c57600080fd5b5061029561122a565b604051808273ffffffffffffffffffffffffffffffffffffffff1673ffffffffffffffffffffffffffffffffffffffff16815260200191505060405180910390f35b3480156102e357600080fd5b506102ec611250565b6040518080602001828103825283818151815260200191508051906020019080838360005b8381101561032c578082015181840152602081019050610311565b50505050905090810190601f1680156103595780820380516001836020036101000a031916815260200191505b509250505060405180910390f35b34801561037357600080fd5b506103a06004803603602081101561038a57600080fd5b81019080803590602001909291905050506112ee565b005b3480156103ae57600080fd5b506103b76113bb565b6040518082815260200191505060405180910390f35b610406600480360360408110156103e357600080fd5b8101908080359060200190929190803560ff1690602001909291905050506113c1565b005b34801561041457600080fd5b5061044b6004803603604081101561042b57600080fd5b810190808035906020019092919080359060200190929190505050611df9565b005b34801561045957600080fd5b506104866004803603602081101561047057600080fd5b8101908080359060200190929190505050612153565b005b34801561049457600080fd5b506104c1600480360360208110156104ab57600080fd5b8101908080359060200190929190505050612220565b6040518082815260200191505060405180910390f35b3480156104e357600080fd5b506104ec612241565b6040518082815260200191505060405180910390f35b34801561050e57600080fd5b5061053b6004803603602081101561052557600080fd5b8101908080359060200190929190505050612247565b604051808060200183600381111561054f57fe5b60ff168152602001828103825284818151815260200191508051906020019080838360005b8381101561058f578082015181840152602081019050610574565b50505050905090810190601f1680156105bc5780820380516001836020036101000a031916815260200191505b50935050505060405180910390f35b3480156105d757600080fd5b50610604600480360360208110156105ee57600080fd5b8101908080359060200190929190505050612310565b604051808060200184600381111561061857fe5b60ff168152602001838152602001828103825285818151815260200191508051906020019080838360005b8381101561065e578082015181840152602081019050610643565b50505050905090810190601f16801561068b5780820380516001836020036101000a031916815260200191505b5094505050505060405180910390f35b3480156106a757600080fd5b50610708600480360360808110156106be57600080fd5b81019080803590602001909291908035906020019092919080359060200190929190803573ffffffffffffffffffffffffffffffffffffffff1690602001909291905050506123f4565b6040518082600360200280838360005b83811015610733578082015181840152602081019050610718565b5050505090500191505060405180910390f35b34801561075257600080fd5b5061075b6124df565b6040518082815260200191505060405180910390f35b34801561077d57600080fd5b506107866124ec565b604051808273ffffffffffffffffffffffffffffffffffffffff1673ffffffffffffffffffffffffffffffffffffffff16815260200191505060405180910390f35b3480156107d457600080fd5b506107dd612511565b6040518082815260200191505060405180910390f35b3480156107ff57600080fd5b50610808612517565b6040518082815260200191505060405180910390f35b34801561082a57600080fd5b5061083361251d565b6040518082815260200191505060405180910390f35b6108ca6004803603604081101561085f57600080fd5b81019080803590602001909291908035906020019064010000000081111561088657600080fd5b82018360208201111561089857600080fd5b803590602001918460018302840111640100000000831117156108ba57600080fd5b9091929391929390505050612523565b005b3480156108d857600080fd5b50610925600480360360408110156108ef57600080fd5b81019080803573ffffffffffffffffffffffffffffffffffffffff16906020019092919080359060200190929190505050612d71565b6040518082815260200191505060405180910390f35b34801561094757600080fd5b506109746004803603602081101561095e57600080fd5b8101908080359060200190929190505050612d96565b005b34801561098257600080fd5b506109af6004803603602081101561099957600080fd5b8101908080359060200190929190505050612e63565b005b3480156109bd57600080fd5b506109fe600480360360608110156109d457600080fd5b81019080803590602001909291908035906020019092919080359060200190929190505050612f30565b604051808515151515815260200184600360200280838360005b83811015610a33578082015181840152602081019050610a18565b5050505090500183600360200280838360005b83811015610a61578082015181840152602081019050610a46565b5050505090500182815260200194505050505060405180910390f35b610afe60048036036040811015610a9357600080fd5b810190808035906020019092919080359060200190640100000000811115610aba57600080fd5b820183602082011115610acc57600080fd5b80359060200191846001830284011164010000000083111715610aee57600080fd5b909192939192939050505061306e565b005b348015610b0c57600080fd5b50610b3960048036036020811015610b2357600080fd5b81019080803590602001909291905050506132c9565b6040518082815260200191505060405180910390f35b348015610b5b57600080fd5b50610bbc60048036036080811015610b7257600080fd5b81019080803573ffffffffffffffffffffffffffffffffffffffff1690602001909291908035906020019092919080359060200190929190803590602001909291905050506132e1565b005b348015610bca57600080fd5b50610bd36138a8565b6040518082815260200191505060405180910390f35b348015610bf557600080fd5b50610c2260048036036020811015610c0c57600080fd5b81019080803590602001909291905050506138ae565b005b348015610c3057600080fd5b50610c7360048036036020811015610c4757600080fd5b81019080803573ffffffffffffffffffffffffffffffffffffffff16906020019092919050505061397b565b005b348015610c8157600080fd5b50610d1960048036036040811015610c9857600080fd5b81019080803573ffffffffffffffffffffffffffffffffffffffff16906020019092919080359060200190640100000000811115610cd557600080fd5b820183602082011115610ce757600080fd5b80359060200191846001830284011164010000000083111715610d0957600080fd5b9091929391929390505050613a84565b005b348015610d2757600080fd5b50610d30613b9e565b6040518082815260200191505060405180910390f35b348015610d5257600080fd5b50610d8960048036036040811015610d6957600080fd5b810190808035906020019092919080359060200190929190505050613ba4565b604051808b1515151581526020018a81526020018981526020018815151515815260200187600360200280838360005b83811015610dd4578082015181840152602081019050610db9565b50505050905001868152602001856002811115610ded57fe5b60ff1681526020018473ffffffffffffffffffffffffffffffffffffffff1673ffffffffffffffffffffffffffffffffffffffff16815260200180602001838152602001828103825284818151815260200191508051906020019080838360005b83811015610e69578082015181840152602081019050610e4e565b50505050905090810190601f168015610e965780820380516001836020036101000a031916815260200191505b509b50505050505050505050505060405180910390f35b348015610eb957600080fd5b50610ee660048036036020811015610ed057600080fd5b8101908080359060200190929190505050613d9c565b005b348015610ef457600080fd5b50610efd613e69565b6040518082815260200191505060405180910390f35b610f8a60048036036020811015610f2957600080fd5b8101908080359060200190640100000000811115610f4657600080fd5b820183602082011115610f5857600080fd5b80359060200191846001830284011164010000000083111715610f7a57600080fd5b9091929391929390505050613e6f565b005b348015610f9857600080fd5b50610fc560048036036020811015610faf57600080fd5b8101908080359060200190929190505050613f96565b005b348015610fd357600080fd5b50610fdc614063565b6040518082815260200191505060405180910390f35b348015610ffe57600080fd5b506110cb6004803603604081101561101557600080fd5b810190808035906020019064010000000081111561103257600080fd5b82018360208201111561104457600080fd5b8035906020019184600183028401116401000000008311171561106657600080fd5b90919293919293908035906020019064010000000081111561108757600080fd5b82018360208201111561109957600080fd5b803590602001918460018302840111640100000000831117156110bb57600080fd5b9091929391929390505050614069565b005b3480156110d957600080fd5b50611106600480360360208110156110f057600080fd5b8101908080359060200190929190505050614219565b005b34801561111457600080fd5b506111576004803603602081101561112b57600080fd5b81019080803573ffffffffffffffffffffffffffffffffffffffff1690602001909291905050506142e6565b005b34801561116557600080fd5b506111926004803603602081101561117c57600080fd5b81019080803590602001909291905050506143ed565b005b3480156111a057600080fd5b50611222600480360360408110156111b757600080fd5b8101908080359060200190929190803590602001906401000000008111156111de57600080fd5b8201836020820111156111f057600080fd5b8035906020019184600183028401116401000000008311171561121257600080fd5b90919293919293905050506146f0565b005b60085481565b600360009054906101000a900473ffffffffffffffffffffffffffffffffffffffff1681565b60018054600181600116156101000203166002900480601f0160208091040260200160405190810160405280929190818152602001828054600181600116156101000203166002900480156112e65780601f106112bb576101008083540402835291602001916112e6565b820191906000526020600020905b8154815290600101906020018083116112c957829003601f168201915b505050505081565b600360009054906101000a900473ffffffffffffffffffffffffffffffffffffffff1673ffffffffffffffffffffffffffffffffffffffff163373ffffffffffffffffffffffffffffffffffffffff16146113b1576040517f08c379a00000000000000000000000000000000000000000000000000000000081526004018080602001828103825260208152602001807f5468652063616c6c6572206d7573742062652074686520676f7665726e6f722e81525060200191505060405180910390fd5b80600c8190555050565b600b5481565b600160028111156113ce57fe5b8160028111156113da57fe5b14806113fb57506002808111156113ed57fe5b8160028111156113f957fe5b145b61146d576040517f08c379a000000000000000000000000000000000000000000000000000000000815260040180806020018281038252600d8152602001807f496e76616c696420736964652e0000000000000000000000000000000000000081525060200191505060405180910390fd5b6002600381111561147a57fe5b600e600084815260200190815260200160002060010160009054906101000a900460ff1660038111156114a957fe5b14806114ed57506003808111156114bc57fe5b600e600084815260200190815260200160002060010160009054906101000a900460ff1660038111156114eb57fe5b145b611542576040517f08c379a0000000000000000000000000000000000000000000000000000000008152600401808060200182810382526025815260200180615bb76025913960400191505060405180910390fd5b6000600e60008481526020019081526020016000206002016001600e600086815260200190815260200160002060020180549050038154811061158157fe5b90600052602060002090600b020190508060000160009054906101000a900460ff166115f8576040517f08c379a0000000000000000000000000000000000000000000000000000000008152600401808060200182810382526032815260200180615b856032913960400191505060405180910390fd5b6000808260080160019054906101000a900473ffffffffffffffffffffffffffffffffffffffff1673ffffffffffffffffffffffffffffffffffffffff1663afe15cfb84600101546040518263ffffffff1660e01b815260040180828152602001915050604080518083038186803b15801561167357600080fd5b505afa158015611687573d6000803e3d6000fd5b505050506040513d604081101561169d57600080fd5b810190808051906020019092919080519060200190929190505050915091508142101580156116cb57508042105b611720576040517f08c379a0000000000000000000000000000000000000000000000000000000008152600401808060200182810382526034815260200180615a136034913960400191505060405180910390fd5b6000808460080160019054906101000a900473ffffffffffffffffffffffffffffffffffffffff1673ffffffffffffffffffffffffffffffffffffffff16631c3db16d86600101546040518263ffffffff1660e01b81526004018082815260200191505060206040518083038186803b15801561179c57600080fd5b505afa1580156117b0573d6000803e3d6000fd5b505050506040513d60208110156117c657600080fd5b810190808051906020019092919050505060028111156117e257fe5b90506000600160028111156117f357fe5b8260028111156117ff57fe5b141561180e5760029050611832565b60028081111561181a57fe5b82600281111561182657fe5b141561183157600190505b5b80600281111561183e57fe5b87600281111561184a57fe5b141580611864575060028585038161185e57fe5b04854203105b6118b9576040517f08c379a0000000000000000000000000000000000000000000000000000000008152600401808060200182810382526045815260200180615a796045913960600191505060405180910390fd5b8160028111156118c557fe5b8760028111156118d157fe5b14156118e157600a549250611910565b8060028111156118ed57fe5b8760028111156118f957fe5b141561190957600b54925061190f565b600c5492505b5b505060008460070160018660070180549050038154811061192d57fe5b9060005260206000209060060201905060008560080160019054906101000a900473ffffffffffffffffffffffffffffffffffffffff1673ffffffffffffffffffffffffffffffffffffffff1663f23f16e68760010154886009016040518363ffffffff1660e01b81526004018083815260200180602001828103825283818154600181600116156101000203166002900481526020019150805460018160011615610100020316600290048015611a265780601f106119fb57610100808354040283529160200191611a26565b820191906000526020600020905b815481529060010190602001808311611a0957829003601f168201915b5050935050505060206040518083038186803b158015611a4557600080fd5b505afa158015611a59573d6000803e3d6000fd5b505050506040513d6020811015611a6f57600080fd5b810190808051906020019092919050505090506000611ab4612710611a9d868561489890919063ffffffff16565b81611aa457fe5b04836148f490919063ffffffff16565b90506000611ac5848a333486614935565b90506001600e60008c815260200190815260200160002060020180549050033373ffffffffffffffffffffffffffffffffffffffff168b7fd2dc318ba4003f1a6794e033a06e7d6500078805db9f67674ca0bfd2f33c5f3d60018c6007018054905003858e60405180848152602001838152602001826002811115611b4657fe5b60ff168152602001935050505060405180910390a481846000018a6002811115611b6c57fe5b60038110611b7657fe5b015410611c27576001846003018a6002811115611b8f57fe5b60038110611b9957fe5b602091828204019190066101000a81548160ff02191690831515021790555060018860070180549050036001600e60008d815260200190815260200160002060020180549050038b7f2307dcf798ac8d587c57c5327f7a79292152779aa7f3a2931e817fa2b09d9ff38c60405180826002811115611c1357fe5b60ff16815260200191505060405180910390a45b83600301600280811115611c3757fe5b60038110611c4157fe5b602091828204019190069054906101000a900460ff168015611c9057508360030160016002811115611c6f57fe5b60038110611c7957fe5b602091828204019190069054906101000a900460ff165b15611ded578760080160019054906101000a900473ffffffffffffffffffffffffffffffffffffffff1673ffffffffffffffffffffffffffffffffffffffff166349912f88848a600101548b6009016040518463ffffffff1660e01b81526004018083815260200180602001828103825283818154600181600116156101000203166002900481526020019150805460018160011615610100020316600290048015611d7d5780601f10611d5257610100808354040283529160200191611d7d565b820191906000526020600020905b815481529060010190602001808311611d6057829003601f168201915b505093505050506000604051808303818588803b158015611d9d57600080fd5b505af1158015611db1573d6000803e3d6000fd5b5050505050876007018054809190600101611dcc91906155a3565b50611de4838560040154614a5e90919063ffffffff16565b84600401819055505b50505050505050505050565b6000816002811115611e0757fe5b90506000600f60003373ffffffffffffffffffffffffffffffffffffffff1673ffffffffffffffffffffffffffffffffffffffff16815260200190815260200160002060008581526020019081526020016000205490506000600e60008381526020019081526020016000209050600081600201600183600201805490500381548110611e9057fe5b90600052602060002090600b02019050600081600701600183600701805490500381548110611ebb57fe5b90600052602060002090600602019050600254861115611f43576040517f08c379a00000000000000000000000000000000000000000000000000000000081526004018080602001828103825260158152602001807f496e76616c69642072756c696e67206f7074696f6e000000000000000000000081525060200191505060405180910390fd5b3373ffffffffffffffffffffffffffffffffffffffff168260080160019054906101000a900473ffffffffffffffffffffffffffffffffffffffff1673ffffffffffffffffffffffffffffffffffffffff1614611feb576040517f08c379a0000000000000000000000000000000000000000000000000000000008152600401808060200182810382526025815260200180615b086025913960400191505060405180910390fd5b8160030160009054906101000a900460ff1615612053576040517f08c379a0000000000000000000000000000000000000000000000000000000008152600401808060200182810382526021815260200180615abe6021913960400191505060405180910390fd5b60011515816003016001600281111561206857fe5b6003811061207257fe5b602091828204019190069054906101000a900460ff161515141561209957600194506120db565b60011515816003016002808111156120ad57fe5b600381106120b757fe5b602091828204019190069054906101000a900460ff16151514156120da57600294505b5b863373ffffffffffffffffffffffffffffffffffffffff167f394027a5fa6e098a1191094d1719d6929b9abc535fcc0c8f448d6a4e7562227687600281111561212057fe5b6040518082815260200191505060405180910390a361214a8786600281111561214557fe5b614a7d565b50505050505050565b600360009054906101000a900473ffffffffffffffffffffffffffffffffffffffff1673ffffffffffffffffffffffffffffffffffffffff163373ffffffffffffffffffffffffffffffffffffffff1614612216576040517f08c379a00000000000000000000000000000000000000000000000000000000081526004018080602001828103825260208152602001807f5468652063616c6c6572206d7573742062652074686520676f7665726e6f722e81525060200191505060405180910390fd5b8060048190555050565b600d818154811061222d57fe5b906000526020600020016000915090505481565b600c5481565b600e602052806000526040600020600091509050806000018054600181600116156101000203166002900480601f0160208091040260200160405190810160405280929190818152602001828054600181600116156101000203166002900480156122f35780601f106122c8576101008083540402835291602001916122f3565b820191906000526020600020905b8154815290600101906020018083116122d657829003601f168201915b5050505050908060010160009054906101000a900460ff16905082565b60606000806000600e60008681526020019081526020016000209050806000018160010160009054906101000a900460ff168260020180549050828054600181600116156101000203166002900480601f0160208091040260200160405190810160405280929190818152602001828054600181600116156101000203166002900480156123df5780601f106123b4576101008083540402835291602001916123df565b820191906000526020600020905b8154815290600101906020018083116123c257829003601f168201915b50505050509250935093509350509193909250565b6123fc6155d5565b6000600e60008781526020019081526020016000209050600081600201868154811061242457fe5b90600052602060002090600b02019050600081600701868154811061244557fe5b906000526020600020906006020190508060050160008673ffffffffffffffffffffffffffffffffffffffff1673ffffffffffffffffffffffffffffffffffffffff1681526020019081526020016000206003806020026040519081016040528092919082600380156124cd576020028201915b8154815260200190600101908083116124b9575b50505050509350505050949350505050565b6000600d80549050905090565b6000809054906101000a900473ffffffffffffffffffffffffffffffffffffffff1681565b60095481565b60075481565b600a5481565b6000600e600085815260200190815260200160002090506002600381111561254757fe5b8160010160009054906101000a900460ff16600381111561256457fe5b1480612596575060038081111561257757fe5b8160010160009054906101000a900460ff16600381111561259457fe5b145b6125eb576040517f08c379a0000000000000000000000000000000000000000000000000000000008152600401808060200182810382526025815260200180615bb76025913960400191505060405180910390fd5b60008160020160018360020180549050038154811061260657fe5b90600052602060002090600b02019050600854816002015442031115612677576040517f08c379a0000000000000000000000000000000000000000000000000000000008152600401808060200182810382526032815260200180615b2d6032913960400191505060405180910390fd5b8060000160009054906101000a900460ff16156126df576040517f08c379a0000000000000000000000000000000000000000000000000000000008152600401808060200182810382526032815260200180615a476032913960400191505060405180910390fd5b33816004016002808111156126f057fe5b600381106126fa57fe5b0160006101000a81548173ffffffffffffffffffffffffffffffffffffffff021916908373ffffffffffffffffffffffffffffffffffffffff16021790555060008160070160008154811061274b57fe5b9060005260206000209060060201905060008260080160019054906101000a900473ffffffffffffffffffffffffffffffffffffffff1673ffffffffffffffffffffffffffffffffffffffff1663f7434ea9846009016040518263ffffffff1660e01b815260040180806020018281038252838181546001816001161561010002031660029004815260200191508054600181600116156101000203166002900480156128395780601f1061280e57610100808354040283529160200191612839565b820191906000526020600020905b81548152906001019060200180831161281c57829003601f168201915b50509250505060206040518083038186803b15801561285757600080fd5b505afa15801561286b573d6000803e3d6000fd5b505050506040513d602081101561288157600080fd5b810190808051906020019092919050505090506000600260038111156128a357fe5b8560010160009054906101000a900460ff1660038111156128c057fe5b146128cd576007546128d1565b6006545b905060006128e882846148f490919063ffffffff16565b90506128f8846002333485614935565b50808460000160028081111561290a57fe5b6003811061291457fe5b0154101561298a576040517f08c379a000000000000000000000000000000000000000000000000000000000815260040180806020018281038252601e8152602001807f596f75206d7573742066756c6c792066756e6420796f757220736964652e000081525060200191505060405180910390fd5b60018460030160028081111561299c57fe5b600381106129a657fe5b602091828204019190066101000a81548160ff0219169083151502179055508460080160019054906101000a900473ffffffffffffffffffffffffffffffffffffffff1673ffffffffffffffffffffffffffffffffffffffff1663c13517e184600254886009016040518463ffffffff1660e01b81526004018083815260200180602001828103825283818154600181600116156101000203166002900481526020019150805460018160011615610100020316600290048015612aab5780601f10612a8057610100808354040283529160200191612aab565b820191906000526020600020905b815481529060010190602001808311612a8e57829003601f168201915b505093505050506020604051808303818588803b158015612acb57600080fd5b505af1158015612adf573d6000803e3d6000fd5b50505050506040513d6020811015612af657600080fd5b8101908080519060200190929190505050856001018190555088600f60008760080160019054906101000a900473ffffffffffffffffffffffffffffffffffffffff1673ffffffffffffffffffffffffffffffffffffffff1673ffffffffffffffffffffffffffffffffffffffff1681526020019081526020016000206000876001015481526020019081526020016000208190555060018560000160006101000a81548160ff021916908315150217905550846007018054809190600101612bbf91906155a3565b50612bd7838560040154614a5e90919063ffffffff16565b8460040181905550600089600188600201805490500360405160200180838152602001828152602001925050506040516020818303038152906040528051906020012060001c905085600101548660080160019054906101000a900473ffffffffffffffffffffffffffffffffffffffff1673ffffffffffffffffffffffffffffffffffffffff167f74baab670a4015ab2f1b467c5252a96141a2573f2908e58a92081e80d3cfde3d88600a015484604051808381526020018281526020019250505060405180910390a36000898990501115612d65573373ffffffffffffffffffffffffffffffffffffffff16818760080160019054906101000a900473ffffffffffffffffffffffffffffffffffffffff1673ffffffffffffffffffffffffffffffffffffffff167fdccf2f8b2cc26eafcd61905cba744cff4b81d14740725f6376390dc6298a6a3c8c8c60405180806020018281038252848482818152602001925080828437600081840152601f19601f820116905080830192505050935050505060405180910390a45b50505050505050505050565b600f602052816000526040600020602052806000526040600020600091509150505481565b600360009054906101000a900473ffffffffffffffffffffffffffffffffffffffff1673ffffffffffffffffffffffffffffffffffffffff163373ffffffffffffffffffffffffffffffffffffffff1614612e59576040517f08c379a00000000000000000000000000000000000000000000000000000000081526004018080602001828103825260208152602001807f5468652063616c6c6572206d7573742062652074686520676f7665726e6f722e81525060200191505060405180910390fd5b8060058190555050565b600360009054906101000a900473ffffffffffffffffffffffffffffffffffffffff1673ffffffffffffffffffffffffffffffffffffffff163373ffffffffffffffffffffffffffffffffffffffff1614612f26576040517f08c379a00000000000000000000000000000000000000000000000000000000081526004018080602001828103825260208152602001807f5468652063616c6c6572206d7573742062652074686520676f7665726e6f722e81525060200191505060405180910390fd5b80600b8190555050565b6000612f3a6155d5565b612f426155f7565b600080600e600089815260200190815260200160002090506000816002018881548110612f6b57fe5b90600052602060002090600b020190506000816007018881548110612f8c57fe5b9060005260206000209060060201905060018260070180549050038814158160000182600301836004015482600380602002604051908101604052809291908260038015612fef576020028201915b815481526020019060010190808311612fdb575b5050505050925081600380602002604051908101604052809291908260038015613053576020028201916000905b82829054906101000a900460ff1615158152602001906001019060208260000104928301926001038202915080841161301d5790505b50505050509150965096509650965050505093509350935093565b6001600381111561307b57fe5b600e600085815260200190815260200160002060010160009054906101000a900460ff1660038111156130aa57fe5b14613100576040517f08c379a0000000000000000000000000000000000000000000000000000000008152600401808060200182810382526026815260200180615b5f6026913960400191505060405180910390fd5b6000600e60008581526020019081526020016000209050600083839050111561321b576000816002018054905090506000858260405160200180838152602001828152602001925050506040516020818303038152906040528051906020012060001c90503373ffffffffffffffffffffffffffffffffffffffff16816000809054906101000a900473ffffffffffffffffffffffffffffffffffffffff1673ffffffffffffffffffffffffffffffffffffffff167fdccf2f8b2cc26eafcd61905cba744cff4b81d14740725f6376390dc6298a6a3c888860405180806020018281038252848482818152602001925080828437600081840152601f19601f820116905080830192505050935050505060405180910390a450505b6132c3816000018054600181600116156101000203166002900480601f0160208091040260200160405190810160405280929190818152602001828054600181600116156101000203166002900480156132b65780601f1061328b576101008083540402835291602001916132b6565b820191906000526020600020905b81548152906001019060200180831161329957829003601f168201915b5050505050600554614e7d565b50505050565b60106020528060005260406000206000915090505481565b6000600e60008581526020019081526020016000209050600081600201848154811061330957fe5b90600052602060002090600b02019050600081600701848154811061332a57fe5b906000526020600020906006020190508160030160009054906101000a900460ff166133be576040517f08c379a00000000000000000000000000000000000000000000000000000000081526004018080602001828103825260198152602001807f52657175657374206d757374206265207265736f6c7665642e0000000000000081525060200191505060405180910390fd5b600081600301600160028111156133d157fe5b600381106133db57fe5b602091828204019190069054906101000a900460ff16158061342a57508160030160028081111561340857fe5b6003811061341257fe5b602091828204019190069054906101000a900460ff16155b156134ea578160050160008973ffffffffffffffffffffffffffffffffffffffff1673ffffffffffffffffffffffffffffffffffffffff16815260200190815260200160002060028081111561347c57fe5b6003811061348657fe5b01548260050160008a73ffffffffffffffffffffffffffffffffffffffff1673ffffffffffffffffffffffffffffffffffffffff168152602001908152602001600020600160028111156134d657fe5b600381106134e057fe5b01540190506137ab565b600060028111156134f757fe5b8360080160009054906101000a900460ff16600281111561351457fe5b14156136c657600080836000016001600281111561352e57fe5b6003811061353857fe5b0154116135465760006135e9565b826000016001600281111561355757fe5b6003811061356157fe5b01548360000160028081111561357357fe5b6003811061357d57fe5b01540183600401548460050160008c73ffffffffffffffffffffffffffffffffffffffff1673ffffffffffffffffffffffffffffffffffffffff168152602001908152602001600020600160028111156135d357fe5b600381106135dd57fe5b015402816135e757fe5b045b9050600080846000016002808111156135fe57fe5b6003811061360857fe5b0154116136165760006136b8565b836000016001600281111561362757fe5b6003811061363157fe5b01548460000160028081111561364357fe5b6003811061364d57fe5b01540184600401548560050160008d73ffffffffffffffffffffffffffffffffffffffff1673ffffffffffffffffffffffffffffffffffffffff1681526020019081526020016000206002808111156136a257fe5b600381106136ac57fe5b015402816136b657fe5b045b9050808201925050506137aa565b6000826000018460080160009054906101000a900460ff1660028111156136e957fe5b600381106136f357fe5b0154116137015760006137a7565b816000018360080160009054906101000a900460ff16600281111561372257fe5b6003811061372c57fe5b015482600401548360050160008b73ffffffffffffffffffffffffffffffffffffffff1673ffffffffffffffffffffffffffffffffffffffff1681526020019081526020016000208560080160009054906101000a900460ff16600281111561379157fe5b6003811061379b57fe5b015402816137a557fe5b045b90505b5b60008260050160008a73ffffffffffffffffffffffffffffffffffffffff1673ffffffffffffffffffffffffffffffffffffffff168152602001908152602001600020600160028111156137fb57fe5b6003811061380557fe5b018190555060008260050160008a73ffffffffffffffffffffffffffffffffffffffff1673ffffffffffffffffffffffffffffffffffffffff16815260200190815260200160002060028081111561385957fe5b6003811061386357fe5b01819055508773ffffffffffffffffffffffffffffffffffffffff166108fc829081150290604051600060405180830381858888f19350505050505050505050505050565b60065481565b600360009054906101000a900473ffffffffffffffffffffffffffffffffffffffff1673ffffffffffffffffffffffffffffffffffffffff163373ffffffffffffffffffffffffffffffffffffffff1614613971576040517f08c379a00000000000000000000000000000000000000000000000000000000081526004018080602001828103825260208152602001807f5468652063616c6c6572206d7573742062652074686520676f7665726e6f722e81525060200191505060405180910390fd5b80600a8190555050565b600360009054906101000a900473ffffffffffffffffffffffffffffffffffffffff1673ffffffffffffffffffffffffffffffffffffffff163373ffffffffffffffffffffffffffffffffffffffff1614613a3e576040517f08c379a00000000000000000000000000000000000000000000000000000000081526004018080602001828103825260208152602001807f5468652063616c6c6572206d7573742062652074686520676f7665726e6f722e81525060200191505060405180910390fd5b8073ffffffffffffffffffffffffffffffffffffffff167fc86a04b722cdfef2134355447e1ebddd83d57a81cddda524d682811e222bc25060405160405180910390a250565b600360009054906101000a900473ffffffffffffffffffffffffffffffffffffffff1673ffffffffffffffffffffffffffffffffffffffff163373ffffffffffffffffffffffffffffffffffffffff1614613b47576040517f08c379a00000000000000000000000000000000000000000000000000000000081526004018080602001828103825260208152602001807f5468652063616c6c6572206d7573742062652074686520676f7665726e6f722e81525060200191505060405180910390fd5b826000806101000a81548173ffffffffffffffffffffffffffffffffffffffff021916908373ffffffffffffffffffffffffffffffffffffffff160217905550818160019190613b98929190615619565b50505050565b60045481565b600080600080613bb2615699565b60008060006060600080600e60008e81526020019081526020016000206002018c81548110613bdd57fe5b90600052602060002090600b020190508060000160009054906101000a900460ff16816001015482600201548360030160009054906101000a900460ff168460040185600701805490508660080160009054906101000a900460ff168760080160019054906101000a900473ffffffffffffffffffffffffffffffffffffffff168860090189600a015485600380602002604051908101604052809291908260038015613cd5576020028201915b8160009054906101000a900473ffffffffffffffffffffffffffffffffffffffff1673ffffffffffffffffffffffffffffffffffffffff1681526020019060010190808311613c8b575b50505050509550818054600181600116156101000203166002900480601f016020809104026020016040519081016040528092919081815260200182805460018160011615610100020316600290048015613d715780601f10613d4657610100808354040283529160200191613d71565b820191906000526020600020905b815481529060010190602001808311613d5457829003601f168201915b505050505091509a509a509a509a509a509a509a509a509a509a50509295989b9194979a5092959850565b600360009054906101000a900473ffffffffffffffffffffffffffffffffffffffff1673ffffffffffffffffffffffffffffffffffffffff163373ffffffffffffffffffffffffffffffffffffffff1614613e5f576040517f08c379a00000000000000000000000000000000000000000000000000000000081526004018080602001828103825260208152602001807f5468652063616c6c6572206d7573742062652074686520676f7665726e6f722e81525060200191505060405180910390fd5b8060068190555050565b60055481565b600082826040518083838082843780830192505050925050506040518091039020905060006003811115613e9f57fe5b600e600083815260200190815260200160002060010160009054906101000a900460ff166003811115613ece57fe5b14613f41576040517f08c379a00000000000000000000000000000000000000000000000000000000081526004018080602001828103825260208152602001807f4974656d206d75737420626520616273656e7420746f2062652061646465642e81525060200191505060405180910390fd5b613f9183838080601f016020809104026020016040519081016040528093929190818152602001838380828437600081840152601f19601f82011690508083019250505050505050600454614e7d565b505050565b600360009054906101000a900473ffffffffffffffffffffffffffffffffffffffff1673ffffffffffffffffffffffffffffffffffffffff163373ffffffffffffffffffffffffffffffffffffffff1614614059576040517f08c379a00000000000000000000000000000000000000000000000000000000081526004018080602001828103825260208152602001807f5468652063616c6c6572206d7573742062652074686520676f7665726e6f722e81525060200191505060405180910390fd5b8060088190555050565b61271081565b600360009054906101000a900473ffffffffffffffffffffffffffffffffffffffff1673ffffffffffffffffffffffffffffffffffffffff163373ffffffffffffffffffffffffffffffffffffffff161461412c576040517f08c379a00000000000000000000000000000000000000000000000000000000081526004018080602001828103825260208152602001807f5468652063616c6c6572206d7573742062652074686520676f7665726e6f722e81525060200191505060405180910390fd5b6009600081548092919060010191905055506009546002027f61606860eb6c87306811e2695215385101daab53bd6ab4e9f9049aead9363c7d858560405180806020018281038252848482818152602001925080828437600081840152601f19601f820116905080830192505050935050505060405180910390a26001600954600202017f61606860eb6c87306811e2695215385101daab53bd6ab4e9f9049aead9363c7d838360405180806020018281038252848482818152602001925080828437600081840152601f19601f820116905080830192505050935050505060405180910390a250505050565b600360009054906101000a900473ffffffffffffffffffffffffffffffffffffffff1673ffffffffffffffffffffffffffffffffffffffff163373ffffffffffffffffffffffffffffffffffffffff16146142dc576040517f08c379a00000000000000000000000000000000000000000000000000000000081526004018080602001828103825260208152602001807f5468652063616c6c6572206d7573742062652074686520676f7665726e6f722e81525060200191505060405180910390fd5b8060078190555050565b600360009054906101000a900473ffffffffffffffffffffffffffffffffffffffff1673ffffffffffffffffffffffffffffffffffffffff163373ffffffffffffffffffffffffffffffffffffffff16146143a9576040517f08c379a00000000000000000000000000000000000000000000000000000000081526004018080602001828103825260208152602001807f5468652063616c6c6572206d7573742062652074686520676f7665726e6f722e81525060200191505060405180910390fd5b80600360006101000a81548173ffffffffffffffffffffffffffffffffffffffff021916908373ffffffffffffffffffffffffffffffffffffffff16021790555050565b6000600e6000838152602001908152602001600020905060008160020160018360020180549050038154811061441f57fe5b90600052602060002090600b02019050600854816002015442031161448f576040517f08c379a00000000000000000000000000000000000000000000000000000000081526004018080602001828103825260288152602001806159eb6028913960400191505060405180910390fd5b8060000160009054906101000a900460ff16156144f7576040517f08c379a00000000000000000000000000000000000000000000000000000000081526004018080602001828103825260238152602001806159c86023913960400191505060405180910390fd5b6002600381111561450457fe5b8260010160009054906101000a900460ff16600381111561452157fe5b14156145525760018260010160006101000a81548160ff0219169083600381111561454857fe5b021790555061461b565b60038081111561455e57fe5b8260010160009054906101000a900460ff16600381111561457b57fe5b14156145ac5760008260010160006101000a81548160ff021916908360038111156145a257fe5b021790555061461a565b6040517f08c379a00000000000000000000000000000000000000000000000000000000081526004018080602001828103825260188152602001807f5468657265206d757374206265206120726571756573742e000000000000000081525060200191505060405180910390fd5b5b60018160030160006101000a81548160ff02191690831515021790555060018160070180549050036001836002018054905003847f298f9b7df751fd9e63ad99b4f83c2509c67421163d60b5cc6573f40f24abe581600060016040518083151515158152602001821515151581526020019250505060405180910390a46146eb81600401600160028111156146ac57fe5b600381106146b657fe5b0160009054906101000a900473ffffffffffffffffffffffffffffffffffffffff1684600185600201805490500360006132e1565b505050565b6000600e6000858152602001908152602001600020905060008160020160018360020180549050038154811061472257fe5b90600052602060002090600b020190508060030160009054906101000a900460ff161561479a576040517f08c379a0000000000000000000000000000000000000000000000000000000008152600401808060200182810382526029815260200180615adf6029913960400191505060405180910390fd5b600085600184600201805490500360405160200180838152602001828152602001925050506040516020818303038152906040528051906020012060001c90503373ffffffffffffffffffffffffffffffffffffffff16818360080160019054906101000a900473ffffffffffffffffffffffffffffffffffffffff1673ffffffffffffffffffffffffffffffffffffffff167fdccf2f8b2cc26eafcd61905cba744cff4b81d14740725f6376390dc6298a6a3c888860405180806020018281038252848482818152602001925080828437600081840152601f19601f820116905080830192505050935050505060405180910390a4505050505050565b6000808314156148ab57600090506148ee565b60008284029050828482816148bc57fe5b04146148e8577fffffffffffffffffffffffffffffffffffffffffffffffffffffffffffffffff6148ea565b805b9150505b92915050565b60008082840190508381101561492a577fffffffffffffffffffffffffffffffffffffffffffffffffffffffffffffffff61492c565b805b91505092915050565b60008060006149718561496c8a6000018a600281111561495157fe5b6003811061495b57fe5b015487614a5e90919063ffffffff16565b615579565b8092508193505050818860050160008873ffffffffffffffffffffffffffffffffffffffff1673ffffffffffffffffffffffffffffffffffffffff1681526020019081526020016000208860028111156149c757fe5b600381106149d157fe5b016000828254019250508190555081886000018860028111156149f057fe5b600381106149fa57fe5b01600082825401925050819055508188600401600082825401925050819055508573ffffffffffffffffffffffffffffffffffffffff166108fc829081150290604051600060405180830381858888f1935050505050819250505095945050505050565b600082821115614a715760009050614a77565b81830390505b92915050565b6000600f60003373ffffffffffffffffffffffffffffffffffffffff1673ffffffffffffffffffffffffffffffffffffffff16815260200190815260200160002060008481526020019081526020016000205490506000600e60008381526020019081526020016000209050600081600201600183600201805490500381548110614b0457fe5b90600052602060002090600b020190506000846002811115614b2257fe5b905060016002811115614b3157fe5b816002811115614b3d57fe5b1415614bfa5760026003811115614b5057fe5b8360010160009054906101000a900460ff166003811115614b6d57fe5b1415614b9e5760018360010160006101000a81548160ff02191690836003811115614b9457fe5b0217905550614bf5565b600380811115614baa57fe5b8360010160009054906101000a900460ff166003811115614bc757fe5b1415614bf45760008360010160006101000a81548160ff02191690836003811115614bee57fe5b02179055505b5b614cad565b60026003811115614c0757fe5b8360010160009054906101000a900460ff166003811115614c2457fe5b1415614c555760008360010160006101000a81548160ff02191690836003811115614c4b57fe5b0217905550614cac565b600380811115614c6157fe5b8360010160009054906101000a900460ff166003811115614c7e57fe5b1415614cab5760018360010160006101000a81548160ff02191690836003811115614ca557fe5b02179055505b5b5b60018260030160006101000a81548160ff021916908315150217905550846002811115614cd657fe5b8260080160006101000a81548160ff02191690836002811115614cf557fe5b021790555060018260070180549050036001846002018054905003857f298f9b7df751fd9e63ad99b4f83c2509c67421163d60b5cc6573f40f24abe5816001806040518083151515158152602001821515151581526020019250505060405180910390a460006002811115614d6657fe5b816002811115614d7257fe5b1415614e2257614dcb8260040160016002811115614d8c57fe5b60038110614d9657fe5b0160009054906101000a900473ffffffffffffffffffffffffffffffffffffffff1685600186600201805490500360006132e1565b614e1d82600401600280811115614dde57fe5b60038110614de857fe5b0160009054906101000a900473ffffffffffffffffffffffffffffffffffffffff1685600186600201805490500360006132e1565b614e75565b614e7482600401826002811115614e3557fe5b60038110614e3f57fe5b0160009054906101000a900473ffffffffffffffffffffffffffffffffffffffff1685600186600201805490500360006132e1565b5b505050505050565b6000828051906020012090506000600e60008381526020019081526020016000209050600082826002018054905060405160200180838152602001828152602001925050506040516020818303038152906040528051906020012060001c90506000826002018054905014156150285784826000019080519060200190614f059291906156bb565b50600d8390806001815401808255809150509060018203906000526020600020016000909192909190915055506001600d80549050036010600085815260200190815260200160002081905550803373ffffffffffffffffffffffffffffffffffffffff16847f909f6b266555a57aee2c82ba6326605749e5eb297f67e1a4ad0bc9c7f0d013ee8560000160405180806020018281038252838181546001816001161561010002031660029004815260200191508054600181600116156101000203166002900480156150195780601f10614fee57610100808354040283529160200191615019565b820191906000526020600020905b815481529060010190602001808311614ffc57829003601f168201915b50509250505060405180910390a45b600082600201836002018054809190600101615044919061573b565b8154811061504e57fe5b90600052602060002090600b020190506000600381111561506b57fe5b8360010160009054906101000a900460ff16600381111561508857fe5b14156150c75760028360010160006101000a81548160ff021916908360038111156150af57fe5b021790555060095460020281600a0181905550615130565b600160038111156150d457fe5b8360010160009054906101000a900460ff1660038111156150f157fe5b141561512f5760038360010160006101000a81548160ff0219169083600381111561511857fe5b021790555060016009546002020181600a01819055505b5b33816004016001600281111561514257fe5b6003811061514c57fe5b0160006101000a81548173ffffffffffffffffffffffffffffffffffffffff021916908373ffffffffffffffffffffffffffffffffffffffff1602179055504281600201819055506000809054906101000a900473ffffffffffffffffffffffffffffffffffffffff168160080160016101000a81548173ffffffffffffffffffffffffffffffffffffffff021916908373ffffffffffffffffffffffffffffffffffffffff160217905550600181600901908054600181600116156101000203166002900461521d92919061576d565b5060008160070182600701805480919060010161523a91906155a3565b8154811061524457fe5b9060005260206000209060060201905060008260080160019054906101000a900473ffffffffffffffffffffffffffffffffffffffff1673ffffffffffffffffffffffffffffffffffffffff1663f7434ea9846009016040518263ffffffff1660e01b815260040180806020018281038252838181546001816001161561010002031660029004815260200191508054600181600116156101000203166002900480156153325780601f1061530757610100808354040283529160200191615332565b820191906000526020600020905b81548152906001019060200180831161531557829003601f168201915b50509250505060206040518083038186803b15801561535057600080fd5b505afa158015615364573d6000803e3d6000fd5b505050506040513d602081101561537a57600080fd5b8101908080519060200190929190505050905060006153a288836148f490919063ffffffff16565b90506153b2836001333485614935565b508083600001600160028111156153c557fe5b600381106153cf57fe5b01541015615445576040517f08c379a000000000000000000000000000000000000000000000000000000000815260040180806020018281038252601e8152602001807f596f75206d7573742066756c6c792066756e6420796f757220736964652e000081525060200191505060405180910390fd5b6001836003016001600281111561545857fe5b6003811061546257fe5b602091828204019190066101000a81548160ff02191690831515021790555060018460070180549050036001876002018054905003887f298f9b7df751fd9e63ad99b4f83c2509c67421163d60b5cc6573f40f24abe5816000806040518083151515158152602001821515151581526020019250505060405180910390a48560010160009054906101000a900460ff1660038111156154fd57fe5b6001876002018054905003887f3df0d1fdcd07576fccf91c63cc392d4b6facc79e6df12df6482342e3ed9d3b2060405160405180910390a4846001876002018054905003887f6a1ec219a182810abe6f25702d9e60eabaaf29e7d1c87bc0a778b845be86e06160405160405180910390a4505050505050505050565b60008083831115615593578360008090509150915061559c565b82838503915091505b9250929050565b8154818355818111156155d0576006028160060283600052602060002091820191016155cf91906157f4565b5b505050565b6040518060600160405280600390602082028038833980820191505090505090565b6040518060600160405280600390602082028038833980820191505090505090565b828054600181600116156101000203166002900490600052602060002090601f016020900481019282601f1061565a57803560ff1916838001178555615688565b82800160010185558215615688579182015b8281111561568757823582559160200191906001019061566c565b5b509050615695919061583b565b5090565b6040518060600160405280600390602082028038833980820191505090505090565b828054600181600116156101000203166002900490600052602060002090601f016020900481019282601f106156fc57805160ff191683800117855561572a565b8280016001018555821561572a579182015b8281111561572957825182559160200191906001019061570e565b5b509050615737919061583b565b5090565b81548183558181111561576857600b0281600b0283600052602060002091820191016157679190615860565b5b505050565b828054600181600116156101000203166002900490600052602060002090601f016020900481019282601f106157a657805485556157e3565b828001600101855582156157e357600052602060002091601f016020900482015b828111156157e25782548255916001019190600101906157c7565b5b5090506157f0919061583b565b5090565b61583891905b808211156158345760008082016000615813919061592a565b600382016000615823919061593f565b6004820160009055506006016157fa565b5090565b90565b61585d91905b80821115615859576000816000905550600101615841565b5090565b90565b61592791905b8082111561592357600080820160006101000a81549060ff0219169055600182016000905560028201600090556003820160006101000a81549060ff02191690556004820160006158b79190615946565b6007820160006158c7919061595b565b6008820160006101000a81549060ff02191690556008820160016101000a81549073ffffffffffffffffffffffffffffffffffffffff0219169055600982016000615912919061597f565b600a82016000905550600b01615866565b5090565b90565b50600081556001016000815560010160009055565b5060009055565b50600081556001016000815560010160009055565b508054600082556006029060005260206000209081019061597c91906157f4565b50565b50805460018160011615610100020316600290046000825580601f106159a557506159c4565b601f0160209004906000526020600020908101906159c3919061583b565b5b5056fe54686520726571756573742073686f756c64206e6f742062652064697370757465642e54696d6520746f206368616c6c656e6765207468652072657175657374206d75737420706173732e436f6e747269627574696f6e73206d757374206265206d6164652077697468696e207468652061707065616c20706572696f642e54686520726571756573742073686f756c64206e6f74206861766520616c7265616479206265656e2064697370757465642e546865206c6f736572206d75737420636f6e7472696275746520647572696e67207468652066697273742068616c66206f66207468652061707065616c20706572696f642e5468652072657175657374206d757374206e6f74206265207265736f6c7665642e5468652064697370757465206d757374206e6f7420616c7265616479206265207265736f6c7665642e4f6e6c79207468652061726269747261746f722063616e206769766520612072756c696e674368616c6c656e676573206d757374206f6363757220647572696e6720746865206368616c6c656e676520706572696f642e4974656d206d757374206265207265676973746572656420746f2062652072656d6f7665642e412064697370757465206d7573742068617665206265656e2072616973656420746f2066756e6420616e2061707065616c2e546865206974656d206d757374206861766520612070656e64696e6720726571756573742ea265627a7a723158205e756f385e5ee3091a86348daf06c1994204c181923cfe221281e3f403a5660264736f6c63430005100032",
  "source": "/**\n *  @authors: [@unknownunknown1, @mtsalenc]\n *  @reviewers: [@clesaege*, @ferittuncer, @satello*, @remedcu]\n *  @auditors: []\n *  @bounties: [{ link: https://github.com/kleros/tcr/issues/20, maxPayout: 25 ETH }]\n *  @deployments: []\n */\n\npragma solidity ^0.5.16;\n\nimport { IArbitrable, IArbitrator } from \"@kleros/erc-792/contracts/IArbitrator.sol\";\nimport { IEvidence } from \"@kleros/erc-792/contracts/erc-1497/IEvidence.sol\";\nimport { CappedMath } from \"./utils/CappedMath.sol\";\n\n/* solium-disable max-len */\n/* solium-disable security/no-block-members */\n/* solium-disable security/no-send */ // It is the user responsibility to accept ETH.\n\n/**\n *  @title GeneralizedTCR\n *  This contract is a curated registry for any types of items. Just like a TCR contract it features the request-challenge protocol and appeal fees crowdfunding.\n */\ncontract GeneralizedTCR is IArbitrable, IEvidence {\n    using CappedMath for uint;\n\n    /* Enums */\n\n    enum Status {\n        Absent, // The item is not in the registry.\n        Registered, // The item is in the registry.\n        RegistrationRequested, // The item has a request to be added to the registry.\n        ClearingRequested // The item has a request to be removed from the registry.\n    }\n\n    enum Party {\n        None, // Party per default when there is no challenger or requester. Also used for unconclusive ruling.\n        Requester, // Party that made the request to change a status.\n        Challenger // Party that challenges the request to change a status.\n    }\n\n    /* Structs */\n\n    struct Item {\n        bytes data; // The data describing the item.\n        Status status; // The current status of the item.\n        Request[] requests; // List of status change requests made for the item in the form requests[requestID].\n    }\n\n    // Arrays with 3 elements map with the Party enum for better readability:\n    // - 0: is unused, matches `Party.None`.\n    // - 1: for `Party.Requester`.\n    // - 2: for `Party.Challenger`.\n    struct Request {\n        bool disputed; // True if a dispute was raised.\n        uint disputeID; // ID of the dispute, if any.\n        uint submissionTime; // Time when the request was made. Used to track when the challenge period ends.\n        bool resolved; // True if the request was executed and/or any raised disputes were resolved.\n        address payable[3] parties; // Address of requester and challenger, if any, in the form parties[party].\n        Round[] rounds; // Tracks each round of a dispute in the form rounds[roundID].\n        Party ruling; // The final ruling given, if any.\n        IArbitrator arbitrator; // The arbitrator trusted to solve disputes for this request.\n        bytes arbitratorExtraData; // The extra data for the trusted arbitrator of this request.\n        uint metaEvidenceID; // The meta evidence to be used in a dispute for this case.\n    }\n\n    struct Round {\n        uint[3] amountPaid; // Tracks the sum paid for each Party in this round. Includes arbitration fees, fee stakes and deposits.\n        bool[3] hasPaid; // True if the Party has fully paid its fee in this round.\n        uint feeRewards; // Sum of reimbursable fees and stake rewards available to the parties that made contributions to the side that ultimately wins a dispute.\n        mapping(address => uint[3]) contributions; // Maps contributors to their contributions for each side in the form contributions[address][party].\n    }\n\n    /* Storage */\n\n    IArbitrator public arbitrator; // The arbitrator contract.\n    bytes public arbitratorExtraData; // Extra data for the arbitrator contract.\n\n    uint RULING_OPTIONS = 2; // The amount of non 0 choices the arbitrator can give.\n\n    address public governor; // The address that can make changes to the parameters of the contract.\n    uint public submissionBaseDeposit; // The base deposit to submit an item.\n    uint public removalBaseDeposit; // The base deposit to remove an item.\n    uint public submissionChallengeBaseDeposit; // The base deposit to challenge a submission.\n    uint public removalChallengeBaseDeposit; // The base deposit to challenge a removal request.\n    uint public challengePeriodDuration; // The time after which a request becomes executable if not challenged.\n    uint public metaEvidenceUpdates; // The number of times the meta evidence has been updated. Used to track the latest meta evidence ID.\n\n    // Multipliers are in basis points.\n    uint public winnerStakeMultiplier; // Multiplier for calculating the fee stake paid by the party that won the previous round.\n    uint public loserStakeMultiplier; // Multiplier for calculating the fee stake paid by the party that lost the previous round.\n    uint public sharedStakeMultiplier; // Multiplier for calculating the fee stake that must be paid in the case where arbitrator refused to arbitrate.\n    uint public constant MULTIPLIER_DIVISOR = 10000; // Divisor parameter for multipliers.\n\n    bytes32[] public itemList; // List of IDs of all submitted items.\n    mapping(bytes32 => Item) public items; // Maps the item ID to its data in the form items[_itemID].\n    mapping(address => mapping(uint => bytes32)) public arbitratorDisputeIDToItem;  // Maps a dispute ID to the ID of the item with the disputed request in the form arbitratorDisputeIDToItem[arbitrator][disputeID].\n    mapping(bytes32 => uint) public itemIDtoIndex; // Maps an item's ID to its position in the list in the form itemIDtoIndex[itemID].\n\n     /* Modifiers */\n\n    modifier onlyGovernor {require(msg.sender == governor, \"The caller must be the governor.\"); _;}\n\n    /* Events */\n\n    /**\n     *  @dev Emitted when a party makes a request, raises a dispute or when a request is resolved.\n     *  @param _itemID The ID of the affected item.\n     *  @param _requestIndex The index of the request.\n     *  @param _roundIndex The index of the round.\n     *  @param _disputed Whether the request is disputed.\n     *  @param _resolved Whether the request is executed.\n     */\n    event ItemStatusChange(\n      bytes32 indexed _itemID,\n      uint indexed _requestIndex,\n      uint indexed _roundIndex,\n      bool _disputed,\n      bool _resolved\n    );\n\n    /**\n     *  @dev Emitted when someone submits an item for the first time.\n     *  @param _itemID The ID of the new item.\n     *  @param _submitter The address of the requester.\n     *  @param _evidenceGroupID Unique identifier of the evidence group the evidence belongs to.\n     *  @param _data The item data.\n     */\n    event ItemSubmitted(\n      bytes32 indexed _itemID,\n      address indexed _submitter,\n      uint indexed _evidenceGroupID,\n      bytes _data\n    );\n\n    /**\n     *  @dev Emitted when someone submits a request.\n     *  @param _itemID The ID of the affected item.\n     *  @param _requestIndex The index of the latest request.\n     *  @param _requestType Whether it is a registration or a removal request.\n     */\n    event RequestSubmitted(\n      bytes32 indexed _itemID,\n      uint indexed _requestIndex,\n      Status indexed _requestType\n    );\n\n    /**\n     *  @dev Emitted when someone submits a request. This is useful to quickly find an item and request from an evidence event and vice-versa.\n     *  @param _itemID The ID of the affected item.\n     *  @param _requestIndex The index of the latest request.\n     *  @param _evidenceGroupID The evidence group ID used for this request.\n     */\n    event RequestEvidenceGroupID(\n      bytes32 indexed _itemID,\n      uint indexed _requestIndex,\n      uint indexed _evidenceGroupID\n    );\n\n    /**\n     *  @dev Emitted when a party contributes to an appeal.\n     *  @param _itemID The ID of the item.\n     *  @param _contributor The address making the contribution.\n     *  @param _request The index of the request.\n     *  @param _round The index of the round receiving the contribution.\n     *  @param _amount The amount of the contribution.\n     *  @param _side The party receiving the contribution.\n     */\n    event AppealContribution(\n        bytes32 indexed _itemID,\n        address indexed _contributor,\n        uint indexed _request,\n        uint _round,\n        uint _amount,\n        Party _side\n    );\n\n    /** @dev Emitted when one of the parties successfully paid its appeal fees.\n     *  @param _itemID The ID of the item.\n     *  @param _request The index of the request.\n     *  @param _round The index of the round.\n     *  @param _side The side that is fully funded.\n     */\n    event HasPaidAppealFee(\n      bytes32 indexed _itemID,\n      uint indexed _request,\n      uint indexed _round,\n      Party _side\n    );\n\n    /** @dev Emitted when the address of the connected TCR is set. The connected TCR is an instance of the Generalized TCR contract where each item is the address of a TCR related to this one.\n     *  @param _connectedTCR The address of the connected TCR.\n     */\n    event ConnectedTCRSet(address indexed _connectedTCR);\n\n    /**\n     *  @dev Deploy the arbitrable curated registry.\n     *  @param _arbitrator Arbitrator to resolve potential disputes. The arbitrator is trusted to support appeal periods and not reenter.\n     *  @param _arbitratorExtraData Extra data for the trusted arbitrator contract.\n     *  @param _connectedTCR The address of the TCR that stores related TCR addresses. This parameter can be left empty.\n     *  @param _registrationMetaEvidence The URI of the meta evidence object for registration requests.\n     *  @param _clearingMetaEvidence The URI of the meta evidence object for clearing requests.\n     *  @param _governor The trusted governor of this contract.\n     *  @param _submissionBaseDeposit The base deposit to submit an item.\n     *  @param _removalBaseDeposit The base deposit to remove an item.\n     *  @param _submissionChallengeBaseDeposit The base deposit to challenge a submission.\n     *  @param _removalChallengeBaseDeposit The base deposit to challenge a removal request.\n     *  @param _challengePeriodDuration The time in seconds parties have to challenge a request.\n     *  @param _stakeMultipliers Multipliers of the arbitration cost in basis points (see MULTIPLIER_DIVISOR) as follows:\n     *  - The multiplier applied to each party's fee stake for a round when there is no winner/loser in the previous round (e.g. when the arbitrator refused to arbitrate).\n     *  - The multiplier applied to the winner's fee stake for the subsequent round.\n     *  - The multiplier applied to the loser's fee stake for the subsequent round.\n     */\n    constructor(\n        IArbitrator _arbitrator,\n        bytes memory _arbitratorExtraData,\n        address _connectedTCR,\n        string memory _registrationMetaEvidence,\n        string memory _clearingMetaEvidence,\n        address _governor,\n        uint _submissionBaseDeposit,\n        uint _removalBaseDeposit,\n        uint _submissionChallengeBaseDeposit,\n        uint _removalChallengeBaseDeposit,\n        uint _challengePeriodDuration,\n        uint[3] memory _stakeMultipliers\n    ) public {\n        emit MetaEvidence(0, _registrationMetaEvidence);\n        emit MetaEvidence(1, _clearingMetaEvidence);\n        emit ConnectedTCRSet(_connectedTCR);\n\n        arbitrator = _arbitrator;\n        arbitratorExtraData = _arbitratorExtraData;\n        governor = _governor;\n        submissionBaseDeposit = _submissionBaseDeposit;\n        removalBaseDeposit = _removalBaseDeposit;\n        submissionChallengeBaseDeposit = _submissionChallengeBaseDeposit;\n        removalChallengeBaseDeposit = _removalChallengeBaseDeposit;\n        challengePeriodDuration = _challengePeriodDuration;\n        sharedStakeMultiplier = _stakeMultipliers[0];\n        winnerStakeMultiplier = _stakeMultipliers[1];\n        loserStakeMultiplier = _stakeMultipliers[2];\n    }\n\n    /* External and Public */\n\n    // ************************ //\n    // *       Requests       * //\n    // ************************ //\n\n    /** @dev Submit a request to register an item. Accepts enough ETH to cover the deposit, reimburses the rest.\n     *  @param _item The data describing the item.\n     */\n    function addItem(bytes calldata _item) external payable {\n        bytes32 itemID = keccak256(_item);\n        require(items[itemID].status == Status.Absent, \"Item must be absent to be added.\");\n        requestStatusChange(_item, submissionBaseDeposit);\n    }\n\n    /** @dev Submit a request to remove an item from the list. Accepts enough ETH to cover the deposit, reimburses the rest.\n     *  @param _itemID The ID of the item to remove.\n     *  @param _evidence A link to an evidence using its URI. Ignored if not provided.\n     */\n    function removeItem(bytes32 _itemID,  string calldata _evidence) external payable {\n        require(items[_itemID].status == Status.Registered, \"Item must be registered to be removed.\");\n        Item storage item = items[_itemID];\n\n        // Emit evidence if it was provided.\n        if (bytes(_evidence).length > 0) {\n            // Using `length` instead of `length - 1` because a new request will be added on requestStatusChange().\n            uint requestIndex = item.requests.length;\n            uint evidenceGroupID = uint(keccak256(abi.encodePacked(_itemID, requestIndex)));\n\n            emit Evidence(arbitrator, evidenceGroupID, msg.sender, _evidence);\n        }\n\n        requestStatusChange(item.data, removalBaseDeposit);\n    }\n\n    /** @dev Challenges the request of the item. Accepts enough ETH to cover the deposit, reimburses the rest.\n     *  @param _itemID The ID of the item which request to challenge.\n     *  @param _evidence A link to an evidence using its URI. Ignored if not provided.\n     */\n    function challengeRequest(bytes32 _itemID, string calldata _evidence) external payable {\n        Item storage item = items[_itemID];\n\n        require(\n            item.status == Status.RegistrationRequested || item.status == Status.ClearingRequested,\n            \"The item must have a pending request.\"\n        );\n\n        Request storage request = item.requests[item.requests.length - 1];\n        require(now - request.submissionTime <= challengePeriodDuration, \"Challenges must occur during the challenge period.\");\n        require(!request.disputed, \"The request should not have already been disputed.\");\n\n        request.parties[uint(Party.Challenger)] = msg.sender;\n\n        Round storage round = request.rounds[0];\n        uint arbitrationCost = request.arbitrator.arbitrationCost(request.arbitratorExtraData);\n        uint challengerBaseDeposit = item.status == Status.RegistrationRequested\n            ? submissionChallengeBaseDeposit\n            : removalChallengeBaseDeposit;\n        uint totalCost = arbitrationCost.addCap(challengerBaseDeposit);\n        contribute(round, Party.Challenger, msg.sender, msg.value, totalCost);\n        require(round.amountPaid[uint(Party.Challenger)] >= totalCost, \"You must fully fund your side.\");\n        round.hasPaid[uint(Party.Challenger)] = true;\n\n        // Raise a dispute.\n        request.disputeID = request.arbitrator.createDispute.value(arbitrationCost)(RULING_OPTIONS, request.arbitratorExtraData);\n        arbitratorDisputeIDToItem[address(request.arbitrator)][request.disputeID] = _itemID;\n        request.disputed = true;\n        request.rounds.length++;\n        round.feeRewards = round.feeRewards.subCap(arbitrationCost);\n\n        uint evidenceGroupID = uint(keccak256(abi.encodePacked(_itemID, item.requests.length - 1)));\n        emit Dispute(\n            request.arbitrator,\n            request.disputeID,\n            request.metaEvidenceID,\n            evidenceGroupID\n        );\n\n        if (bytes(_evidence).length > 0) {\n            emit Evidence(request.arbitrator, evidenceGroupID, msg.sender, _evidence);\n        }\n    }\n\n    /** @dev Takes up to the total amount required to fund a side of an appeal. Reimburses the rest. Creates an appeal if both sides are fully funded.\n     *  @param _itemID The ID of the item which request to fund.\n     *  @param _side The recipient of the contribution.\n     */\n    function fundAppeal(bytes32 _itemID, Party _side) external payable {\n        require(_side == Party.Requester || _side == Party.Challenger, \"Invalid side.\");\n        require(\n            items[_itemID].status == Status.RegistrationRequested || items[_itemID].status == Status.ClearingRequested,\n            \"The item must have a pending request.\"\n        );\n        Request storage request = items[_itemID].requests[items[_itemID].requests.length - 1];\n        require(request.disputed, \"A dispute must have been raised to fund an appeal.\");\n        (uint appealPeriodStart, uint appealPeriodEnd) = request.arbitrator.appealPeriod(request.disputeID);\n        require(\n            now >= appealPeriodStart && now < appealPeriodEnd,\n            \"Contributions must be made within the appeal period.\"\n        );\n\n        /* solium-disable indentation */\n        uint multiplier;\n        {\n            Party winner = Party(request.arbitrator.currentRuling(request.disputeID));\n            Party loser;\n            if (winner == Party.Requester)\n                loser = Party.Challenger;\n            else if (winner == Party.Challenger)\n                loser = Party.Requester;\n            require(_side != loser || (now-appealPeriodStart < (appealPeriodEnd-appealPeriodStart)/2), \"The loser must contribute during the first half of the appeal period.\");\n\n\n            if (_side == winner)\n                multiplier = winnerStakeMultiplier;\n            else if (_side == loser)\n                multiplier = loserStakeMultiplier;\n            else\n                multiplier = sharedStakeMultiplier;\n        }\n        /* solium-enable indentation */\n\n        Round storage round = request.rounds[request.rounds.length - 1];\n        uint appealCost = request.arbitrator.appealCost(request.disputeID, request.arbitratorExtraData);\n        uint totalCost = appealCost.addCap((appealCost.mulCap(multiplier)) / MULTIPLIER_DIVISOR);\n        uint contribution = contribute(round, _side, msg.sender, msg.value, totalCost);\n\n        emit AppealContribution(\n            _itemID,\n            msg.sender,\n            items[_itemID].requests.length - 1,\n            request.rounds.length - 1,\n            contribution,\n            _side\n        );\n\n        if (round.amountPaid[uint(_side)] >= totalCost) {\n            round.hasPaid[uint(_side)] = true;\n            emit HasPaidAppealFee(_itemID, items[_itemID].requests.length - 1, request.rounds.length - 1, _side);\n        }\n\n        // Raise appeal if both sides are fully funded.\n        if (round.hasPaid[uint(Party.Challenger)] && round.hasPaid[uint(Party.Requester)]) {\n            request.arbitrator.appeal.value(appealCost)(request.disputeID, request.arbitratorExtraData);\n            request.rounds.length++;\n            round.feeRewards = round.feeRewards.subCap(appealCost);\n        }\n    }\n\n    /** @dev Reimburses contributions if no disputes were raised. If a dispute was raised, sends the fee stake rewards and reimbursements proportionally to the contributions made to the winner of a dispute.\n     *  @param _beneficiary The address that made contributions to a request.\n     *  @param _itemID The ID of the item submission to withdraw from.\n     *  @param _request The request from which to withdraw from.\n     *  @param _round The round from which to withdraw from.\n     */\n    function withdrawFeesAndRewards(address payable _beneficiary, bytes32 _itemID, uint _request, uint _round) public {\n        Item storage item = items[_itemID];\n        Request storage request = item.requests[_request];\n        Round storage round = request.rounds[_round];\n        require(request.resolved, \"Request must be resolved.\");\n\n        uint reward;\n        if (!round.hasPaid[uint(Party.Requester)] || !round.hasPaid[uint(Party.Challenger)]) {\n            // Reimburse if not enough fees were raised to appeal the ruling.\n            reward = round.contributions[_beneficiary][uint(Party.Requester)] + round.contributions[_beneficiary][uint(Party.Challenger)];\n        } else if (request.ruling == Party.None) {\n            // Reimburse unspent fees proportionally if there is no winner or loser.\n            uint rewardRequester = round.amountPaid[uint(Party.Requester)] > 0\n                ? (round.contributions[_beneficiary][uint(Party.Requester)] * round.feeRewards) / (round.amountPaid[uint(Party.Challenger)] + round.amountPaid[uint(Party.Requester)])\n                : 0;\n            uint rewardChallenger = round.amountPaid[uint(Party.Challenger)] > 0\n                ? (round.contributions[_beneficiary][uint(Party.Challenger)] * round.feeRewards) / (round.amountPaid[uint(Party.Challenger)] + round.amountPaid[uint(Party.Requester)])\n                : 0;\n\n            reward = rewardRequester + rewardChallenger;\n        } else {\n            // Reward the winner.\n            reward = round.amountPaid[uint(request.ruling)] > 0\n                ? (round.contributions[_beneficiary][uint(request.ruling)] * round.feeRewards) / round.amountPaid[uint(request.ruling)]\n                : 0;\n\n        }\n        round.contributions[_beneficiary][uint(Party.Requester)] = 0;\n        round.contributions[_beneficiary][uint(Party.Challenger)] = 0;\n\n        _beneficiary.send(reward);\n    }\n\n    /** @dev Executes an unchallenged request if the challenge period has passed.\n     *  @param _itemID The ID of the item to execute.\n     */\n    function executeRequest(bytes32 _itemID) external {\n        Item storage item = items[_itemID];\n        Request storage request = item.requests[item.requests.length - 1];\n        require(\n            now - request.submissionTime > challengePeriodDuration,\n            \"Time to challenge the request must pass.\"\n        );\n        require(!request.disputed, \"The request should not be disputed.\");\n\n        if (item.status == Status.RegistrationRequested)\n            item.status = Status.Registered;\n        else if (item.status == Status.ClearingRequested)\n            item.status = Status.Absent;\n        else\n            revert(\"There must be a request.\");\n\n        request.resolved = true;\n        emit ItemStatusChange(_itemID, item.requests.length - 1, request.rounds.length - 1, false, true);\n\n        withdrawFeesAndRewards(request.parties[uint(Party.Requester)], _itemID, item.requests.length - 1, 0); // Automatically withdraw for the requester.\n    }\n\n    /** @dev Give a ruling for a dispute. Can only be called by the arbitrator. TRUSTED.\n     *  Accounts for the situation where the winner loses a case due to paying less appeal fees than expected.\n     *  @param _disputeID ID of the dispute in the arbitrator contract.\n     *  @param _ruling Ruling given by the arbitrator. Note that 0 is reserved for \"Refused to arbitrate\".\n     */\n    function rule(uint _disputeID, uint _ruling) public {\n        Party resultRuling = Party(_ruling);\n        bytes32 itemID = arbitratorDisputeIDToItem[msg.sender][_disputeID];\n        Item storage item = items[itemID];\n\n        Request storage request = item.requests[item.requests.length - 1];\n        Round storage round = request.rounds[request.rounds.length - 1];\n        require(_ruling <= RULING_OPTIONS, \"Invalid ruling option\");\n        require(address(request.arbitrator) == msg.sender, \"Only the arbitrator can give a ruling\");\n        require(!request.resolved, \"The request must not be resolved.\");\n\n        // The ruling is inverted if the loser paid its fees.\n        if (round.hasPaid[uint(Party.Requester)] == true) // If one side paid its fees, the ruling is in its favor. Note that if the other side had also paid, an appeal would have been created.\n            resultRuling = Party.Requester;\n        else if (round.hasPaid[uint(Party.Challenger)] == true)\n            resultRuling = Party.Challenger;\n\n        emit Ruling(IArbitrator(msg.sender), _disputeID, uint(resultRuling));\n        executeRuling(_disputeID, uint(resultRuling));\n    }\n\n    /** @dev Submit a reference to evidence. EVENT.\n     *  @param _itemID The ID of the item which the evidence is related to.\n     *  @param _evidence A link to an evidence using its URI.\n     */\n    function submitEvidence(bytes32 _itemID, string calldata _evidence) external {\n        Item storage item = items[_itemID];\n        Request storage request = item.requests[item.requests.length - 1];\n        require(!request.resolved, \"The dispute must not already be resolved.\");\n\n        uint evidenceGroupID = uint(keccak256(abi.encodePacked(_itemID, item.requests.length - 1)));\n        emit Evidence(request.arbitrator, evidenceGroupID, msg.sender, _evidence);\n    }\n\n    // ************************ //\n    // *      Governance      * //\n    // ************************ //\n\n    /** @dev Change the duration of the challenge period.\n     *  @param _challengePeriodDuration The new duration of the challenge period.\n     */\n    function changeTimeToChallenge(uint _challengePeriodDuration) external onlyGovernor {\n        challengePeriodDuration = _challengePeriodDuration;\n    }\n\n    /** @dev Change the base amount required as a deposit to submit an item.\n     *  @param _submissionBaseDeposit The new base amount of wei required to submit an item.\n     */\n    function changeSubmissionBaseDeposit(uint _submissionBaseDeposit) external onlyGovernor {\n        submissionBaseDeposit = _submissionBaseDeposit;\n    }\n\n    /** @dev Change the base amount required as a deposit to remove an item.\n     *  @param _removalBaseDeposit The new base amount of wei required to remove an item.\n     */\n    function changeRemovalBaseDeposit(uint _removalBaseDeposit) external onlyGovernor {\n        removalBaseDeposit = _removalBaseDeposit;\n    }\n\n    /** @dev Change the base amount required as a deposit to challenge a submission.\n     *  @param _submissionChallengeBaseDeposit The new base amount of wei required to challenge a submission.\n     */\n    function changeSubmissionChallengeBaseDeposit(uint _submissionChallengeBaseDeposit) external onlyGovernor {\n        submissionChallengeBaseDeposit = _submissionChallengeBaseDeposit;\n    }\n\n    /** @dev Change the base amount required as a deposit to challenge a removal request.\n     *  @param _removalChallengeBaseDeposit The new base amount of wei required to challenge a removal request.\n     */\n    function changeRemovalChallengeBaseDeposit(uint _removalChallengeBaseDeposit) external onlyGovernor {\n        removalChallengeBaseDeposit = _removalChallengeBaseDeposit;\n    }\n\n    /** @dev Change the governor of the curated registry.\n     *  @param _governor The address of the new governor.\n     */\n    function changeGovernor(address _governor) external onlyGovernor {\n        governor = _governor;\n    }\n\n    /** @dev Change the proportion of arbitration fees that must be paid as fee stake by parties when there is no winner or loser.\n     *  @param _sharedStakeMultiplier Multiplier of arbitration fees that must be paid as fee stake. In basis points.\n     */\n    function changeSharedStakeMultiplier(uint _sharedStakeMultiplier) external onlyGovernor {\n        sharedStakeMultiplier = _sharedStakeMultiplier;\n    }\n\n    /** @dev Change the proportion of arbitration fees that must be paid as fee stake by the winner of the previous round.\n     *  @param _winnerStakeMultiplier Multiplier of arbitration fees that must be paid as fee stake. In basis points.\n     */\n    function changeWinnerStakeMultiplier(uint _winnerStakeMultiplier) external onlyGovernor {\n        winnerStakeMultiplier = _winnerStakeMultiplier;\n    }\n\n    /** @dev Change the proportion of arbitration fees that must be paid as fee stake by the party that lost the previous round.\n     *  @param _loserStakeMultiplier Multiplier of arbitration fees that must be paid as fee stake. In basis points.\n     */\n    function changeLoserStakeMultiplier(uint _loserStakeMultiplier) external onlyGovernor {\n        loserStakeMultiplier = _loserStakeMultiplier;\n    }\n\n    /** @dev Change the arbitrator to be used for disputes that may be raised. The arbitrator is trusted to support appeal periods and not reenter.\n     *  @param _arbitrator The new trusted arbitrator to be used in disputes.\n     *  @param _arbitratorExtraData The extra data used by the new arbitrator.\n     */\n    function changeArbitrator(IArbitrator _arbitrator, bytes calldata _arbitratorExtraData) external onlyGovernor {\n        arbitrator = _arbitrator;\n        arbitratorExtraData = _arbitratorExtraData;\n    }\n\n    /** @dev Change the address of connectedTCR, the Generalized TCR instance that stores addresses of TCRs related to this one.\n     *  @param _connectedTCR The address of the connectedTCR contract to use.\n     */\n    function changeConnectedTCR(address _connectedTCR) external onlyGovernor {\n        emit ConnectedTCRSet(_connectedTCR);\n    }\n\n    /** @dev Update the meta evidence used for disputes.\n     *  @param _registrationMetaEvidence The meta evidence to be used for future registration request disputes.\n     *  @param _clearingMetaEvidence The meta evidence to be used for future clearing request disputes.\n     */\n    function changeMetaEvidence(string calldata _registrationMetaEvidence, string calldata _clearingMetaEvidence) external onlyGovernor {\n        metaEvidenceUpdates++;\n        emit MetaEvidence(2 * metaEvidenceUpdates, _registrationMetaEvidence);\n        emit MetaEvidence(2 * metaEvidenceUpdates + 1, _clearingMetaEvidence);\n    }\n\n    /* Internal */\n\n    /** @dev Submit a request to change item's status. Accepts enough ETH to cover the deposit, reimburses the rest.\n     *  @param _item The data describing the item.\n     *  @param _baseDeposit The base deposit for the request.\n     */\n    function requestStatusChange(bytes memory _item, uint _baseDeposit) internal {\n        bytes32 itemID = keccak256(_item);\n        Item storage item = items[itemID];\n\n        // Using `length` instead of `length - 1` as index because a new request will be added.\n        uint evidenceGroupID = uint(keccak256(abi.encodePacked(itemID, item.requests.length)));\n        if (item.requests.length == 0) {\n            item.data = _item;\n            itemList.push(itemID);\n            itemIDtoIndex[itemID] = itemList.length - 1;\n\n            emit ItemSubmitted(itemID, msg.sender, evidenceGroupID, item.data);\n        }\n\n        Request storage request = item.requests[item.requests.length++];\n        if (item.status == Status.Absent) {\n            item.status = Status.RegistrationRequested;\n            request.metaEvidenceID = 2 * metaEvidenceUpdates;\n        } else if (item.status == Status.Registered) {\n            item.status = Status.ClearingRequested;\n            request.metaEvidenceID = 2 * metaEvidenceUpdates + 1;\n        }\n\n        request.parties[uint(Party.Requester)] = msg.sender;\n        request.submissionTime = now;\n        request.arbitrator = arbitrator;\n        request.arbitratorExtraData = arbitratorExtraData;\n\n        Round storage round = request.rounds[request.rounds.length++];\n\n        uint arbitrationCost = request.arbitrator.arbitrationCost(request.arbitratorExtraData);\n        uint totalCost = arbitrationCost.addCap(_baseDeposit);\n        contribute(round, Party.Requester, msg.sender, msg.value, totalCost);\n        require(round.amountPaid[uint(Party.Requester)] >= totalCost, \"You must fully fund your side.\");\n        round.hasPaid[uint(Party.Requester)] = true;\n\n        emit ItemStatusChange(itemID, item.requests.length - 1, request.rounds.length - 1, false, false);\n        emit RequestSubmitted(itemID, item.requests.length - 1, item.status);\n        emit RequestEvidenceGroupID(itemID, item.requests.length - 1, evidenceGroupID);\n    }\n\n    /** @dev Returns the contribution value and remainder from available ETH and required amount.\n     *  @param _available The amount of ETH available for the contribution.\n     *  @param _requiredAmount The amount of ETH required for the contribution.\n     *  @return taken The amount of ETH taken.\n     *  @return remainder The amount of ETH left from the contribution.\n     */\n    function calculateContribution(uint _available, uint _requiredAmount)\n        internal\n        pure\n        returns(uint taken, uint remainder)\n    {\n        if (_requiredAmount > _available)\n            return (_available, 0); // Take whatever is available, return 0 as leftover ETH.\n        else\n            return (_requiredAmount, _available - _requiredAmount);\n    }\n\n    /** @dev Make a fee contribution.\n     *  @param _round The round to contribute.\n     *  @param _side The side for which to contribute.\n     *  @param _contributor The contributor.\n     *  @param _amount The amount contributed.\n     *  @param _totalRequired The total amount required for this side.\n     *  @return The amount of appeal fees contributed.\n     */\n    function contribute(Round storage _round, Party _side, address payable _contributor, uint _amount, uint _totalRequired) internal returns (uint) {\n        // Take up to the amount necessary to fund the current round at the current costs.\n        uint contribution; // Amount contributed.\n        uint remainingETH; // Remaining ETH to send back.\n        (contribution, remainingETH) = calculateContribution(_amount, _totalRequired.subCap(_round.amountPaid[uint(_side)]));\n        _round.contributions[_contributor][uint(_side)] += contribution;\n        _round.amountPaid[uint(_side)] += contribution;\n        _round.feeRewards += contribution;\n\n        // Reimburse leftover ETH.\n        _contributor.send(remainingETH); // Deliberate use of send in order to not block the contract in case of reverting fallback.\n\n        return contribution;\n    }\n\n    /** @dev Execute the ruling of a dispute.\n     *  @param _disputeID ID of the dispute in the arbitrator contract.\n     *  @param _ruling Ruling given by the arbitrator. Note that 0 is reserved for \"Refused to arbitrate\".\n     */\n    function executeRuling(uint _disputeID, uint _ruling) internal {\n        bytes32 itemID = arbitratorDisputeIDToItem[msg.sender][_disputeID];\n        Item storage item = items[itemID];\n        Request storage request = item.requests[item.requests.length - 1];\n\n        Party winner = Party(_ruling);\n\n        if (winner == Party.Requester) { // Execute Request.\n            if (item.status == Status.RegistrationRequested)\n                item.status = Status.Registered;\n            else if (item.status == Status.ClearingRequested)\n                item.status = Status.Absent;\n        } else {\n            if (item.status == Status.RegistrationRequested)\n                item.status = Status.Absent;\n            else if (item.status == Status.ClearingRequested)\n                item.status = Status.Registered;\n        }\n\n        request.resolved = true;\n        request.ruling = Party(_ruling);\n\n        emit ItemStatusChange(itemID, item.requests.length - 1, request.rounds.length - 1, true, true);\n\n        // Automatically withdraw first deposits and reimbursements (first round only).\n        if (winner == Party.None) {\n            withdrawFeesAndRewards(request.parties[uint(Party.Requester)], itemID, item.requests.length - 1, 0);\n            withdrawFeesAndRewards(request.parties[uint(Party.Challenger)], itemID, item.requests.length - 1, 0);\n        } else {\n            withdrawFeesAndRewards(request.parties[uint(winner)], itemID, item.requests.length - 1, 0);\n        }\n    }\n\n    // ************************ //\n    // *       Getters        * //\n    // ************************ //\n\n    /** @dev Returns the number of items that were submitted. Includes items that never made it to the list or were later removed.\n     *  @return count The number of items on the list.\n     */\n    function itemCount() external view returns (uint count) {\n        return itemList.length;\n    }\n\n    /** @dev Gets the contributions made by a party for a given round of a request.\n     *  @param _itemID The ID of the item.\n     *  @param _request The request to query.\n     *  @param _round The round to query.\n     *  @param _contributor The address of the contributor.\n     *  @return contributions The contributions.\n     */\n    function getContributions(\n        bytes32 _itemID,\n        uint _request,\n        uint _round,\n        address _contributor\n    ) external view returns(uint[3] memory contributions) {\n        Item storage item = items[_itemID];\n        Request storage request = item.requests[_request];\n        Round storage round = request.rounds[_round];\n        contributions = round.contributions[_contributor];\n    }\n\n    /** @dev Returns item's information. Includes length of requests array.\n     *  @param _itemID The ID of the queried item.\n     *  @return data The data describing the item.\n     *  @return status The current status of the item.\n     *  @return numberOfRequests Length of list of status change requests made for the item.\n     */\n    function getItemInfo(bytes32 _itemID)\n        external\n        view\n        returns (\n            bytes memory data,\n            Status status,\n            uint numberOfRequests\n        )\n    {\n        Item storage item = items[_itemID];\n        return (\n            item.data,\n            item.status,\n            item.requests.length\n        );\n    }\n\n    /** @dev Gets information on a request made for the item.\n     *  @param _itemID The ID of the queried item.\n     *  @param _request The request to be queried.\n     *  @return disputed True if a dispute was raised.\n     *  @return disputeID ID of the dispute, if any..\n     *  @return submissionTime Time when the request was made.\n     *  @return resolved True if the request was executed and/or any raised disputes were resolved.\n     *  @return parties Address of requester and challenger, if any.\n     *  @return numberOfRounds Number of rounds of dispute.\n     *  @return ruling The final ruling given, if any.\n     *  @return arbitrator The arbitrator trusted to solve disputes for this request.\n     *  @return arbitratorExtraData The extra data for the trusted arbitrator of this request.\n     *  @return metaEvidenceID The meta evidence to be used in a dispute for this case.\n     */\n    function getRequestInfo(bytes32 _itemID, uint _request)\n        external\n        view\n        returns (\n            bool disputed,\n            uint disputeID,\n            uint submissionTime,\n            bool resolved,\n            address payable[3] memory parties,\n            uint numberOfRounds,\n            Party ruling,\n            IArbitrator arbitrator,\n            bytes memory arbitratorExtraData,\n            uint metaEvidenceID\n        )\n    {\n        Request storage request = items[_itemID].requests[_request];\n        return (\n            request.disputed,\n            request.disputeID,\n            request.submissionTime,\n            request.resolved,\n            request.parties,\n            request.rounds.length,\n            request.ruling,\n            request.arbitrator,\n            request.arbitratorExtraData,\n            request.metaEvidenceID\n        );\n    }\n\n    /** @dev Gets the information of a round of a request.\n     *  @param _itemID The ID of the queried item.\n     *  @param _request The request to be queried.\n     *  @param _round The round to be queried.\n     *  @return appealed Whether appealed or not.\n     *  @return amountPaid Tracks the sum paid for each Party in this round.\n     *  @return hasPaid True if the Party has fully paid its fee in this round.\n     *  @return feeRewards Sum of reimbursable fees and stake rewards available to the parties that made contributions to the side that ultimately wins a dispute.\n     */\n    function getRoundInfo(bytes32 _itemID, uint _request, uint _round)\n        external\n        view\n        returns (\n            bool appealed,\n            uint[3] memory amountPaid,\n            bool[3] memory hasPaid,\n            uint feeRewards\n        )\n    {\n        Item storage item = items[_itemID];\n        Request storage request = item.requests[_request];\n        Round storage round = request.rounds[_round];\n        return (\n            _round != (request.rounds.length - 1),\n            round.amountPaid,\n            round.hasPaid,\n            round.feeRewards\n        );\n    }\n}\n",
  "sourcePath": "@kleros/tcr/contracts/GeneralizedTCR.sol",
  "compiler": {
    "name": "solc",
    "version": "0.5.16+commit.9c3226ce.Emscripten.clang"
  },
  "schemaVersion": "3.3.2",
  "updatedAt": "2021-05-21T17:19:25.284Z",
  "networkType": "ethereum",
  "devdoc": {
    "methods": {
      "addItem(bytes)": {
        "details": "Submit a request to register an item. Accepts enough ETH to cover the deposit, reimburses the rest.",
        "params": {
          "_item": "The data describing the item."
        }
      },
      "challengeRequest(bytes32,string)": {
        "details": "Challenges the request of the item. Accepts enough ETH to cover the deposit, reimburses the rest.",
        "params": {
          "_evidence": "A link to an evidence using its URI. Ignored if not provided.",
          "_itemID": "The ID of the item which request to challenge."
        }
      },
      "changeArbitrator(address,bytes)": {
        "details": "Change the arbitrator to be used for disputes that may be raised. The arbitrator is trusted to support appeal periods and not reenter.",
        "params": {
          "_arbitrator": "The new trusted arbitrator to be used in disputes.",
          "_arbitratorExtraData": "The extra data used by the new arbitrator."
        }
      },
      "changeConnectedTCR(address)": {
        "details": "Change the address of connectedTCR, the Generalized TCR instance that stores addresses of TCRs related to this one.",
        "params": {
          "_connectedTCR": "The address of the connectedTCR contract to use."
        }
      },
      "changeGovernor(address)": {
        "details": "Change the governor of the curated registry.",
        "params": {
          "_governor": "The address of the new governor."
        }
      },
      "changeLoserStakeMultiplier(uint256)": {
        "details": "Change the proportion of arbitration fees that must be paid as fee stake by the party that lost the previous round.",
        "params": {
          "_loserStakeMultiplier": "Multiplier of arbitration fees that must be paid as fee stake. In basis points."
        }
      },
      "changeMetaEvidence(string,string)": {
        "details": "Update the meta evidence used for disputes.",
        "params": {
          "_clearingMetaEvidence": "The meta evidence to be used for future clearing request disputes.",
          "_registrationMetaEvidence": "The meta evidence to be used for future registration request disputes."
        }
      },
      "changeRemovalBaseDeposit(uint256)": {
        "details": "Change the base amount required as a deposit to remove an item.",
        "params": {
          "_removalBaseDeposit": "The new base amount of wei required to remove an item."
        }
      },
      "changeRemovalChallengeBaseDeposit(uint256)": {
        "details": "Change the base amount required as a deposit to challenge a removal request.",
        "params": {
          "_removalChallengeBaseDeposit": "The new base amount of wei required to challenge a removal request."
        }
      },
      "changeSharedStakeMultiplier(uint256)": {
        "details": "Change the proportion of arbitration fees that must be paid as fee stake by parties when there is no winner or loser.",
        "params": {
          "_sharedStakeMultiplier": "Multiplier of arbitration fees that must be paid as fee stake. In basis points."
        }
      },
      "changeSubmissionBaseDeposit(uint256)": {
        "details": "Change the base amount required as a deposit to submit an item.",
        "params": {
          "_submissionBaseDeposit": "The new base amount of wei required to submit an item."
        }
      },
      "changeSubmissionChallengeBaseDeposit(uint256)": {
        "details": "Change the base amount required as a deposit to challenge a submission.",
        "params": {
          "_submissionChallengeBaseDeposit": "The new base amount of wei required to challenge a submission."
        }
      },
      "changeTimeToChallenge(uint256)": {
        "details": "Change the duration of the challenge period.",
        "params": {
          "_challengePeriodDuration": "The new duration of the challenge period."
        }
      },
      "changeWinnerStakeMultiplier(uint256)": {
        "details": "Change the proportion of arbitration fees that must be paid as fee stake by the winner of the previous round.",
        "params": {
          "_winnerStakeMultiplier": "Multiplier of arbitration fees that must be paid as fee stake. In basis points."
        }
      },
      "constructor": {
        "details": "Deploy the arbitrable curated registry.",
        "params": {
          "_arbitrator": "Arbitrator to resolve potential disputes. The arbitrator is trusted to support appeal periods and not reenter.",
          "_arbitratorExtraData": "Extra data for the trusted arbitrator contract.",
          "_challengePeriodDuration": "The time in seconds parties have to challenge a request.",
          "_clearingMetaEvidence": "The URI of the meta evidence object for clearing requests.",
          "_connectedTCR": "The address of the TCR that stores related TCR addresses. This parameter can be left empty.",
          "_governor": "The trusted governor of this contract.",
          "_registrationMetaEvidence": "The URI of the meta evidence object for registration requests.",
          "_removalBaseDeposit": "The base deposit to remove an item.",
          "_removalChallengeBaseDeposit": "The base deposit to challenge a removal request.",
          "_stakeMultipliers": "Multipliers of the arbitration cost in basis points (see MULTIPLIER_DIVISOR) as follows: - The multiplier applied to each party's fee stake for a round when there is no winner/loser in the previous round (e.g. when the arbitrator refused to arbitrate). - The multiplier applied to the winner's fee stake for the subsequent round. - The multiplier applied to the loser's fee stake for the subsequent round.",
          "_submissionBaseDeposit": "The base deposit to submit an item.",
          "_submissionChallengeBaseDeposit": "The base deposit to challenge a submission."
        }
      },
      "executeRequest(bytes32)": {
        "details": "Executes an unchallenged request if the challenge period has passed.",
        "params": {
          "_itemID": "The ID of the item to execute."
        }
      },
      "fundAppeal(bytes32,uint8)": {
        "details": "Takes up to the total amount required to fund a side of an appeal. Reimburses the rest. Creates an appeal if both sides are fully funded.",
        "params": {
          "_itemID": "The ID of the item which request to fund.",
          "_side": "The recipient of the contribution."
        }
      },
      "getContributions(bytes32,uint256,uint256,address)": {
        "details": "Gets the contributions made by a party for a given round of a request.",
        "params": {
          "_contributor": "The address of the contributor.",
          "_itemID": "The ID of the item.",
          "_request": "The request to query.",
          "_round": "The round to query."
        },
        "return": "contributions The contributions."
      },
      "getItemInfo(bytes32)": {
        "details": "Returns item's information. Includes length of requests array.",
        "params": {
          "_itemID": "The ID of the queried item."
        },
        "return": "data The data describing the item.status The current status of the item.numberOfRequests Length of list of status change requests made for the item."
      },
      "getRequestInfo(bytes32,uint256)": {
        "details": "Gets information on a request made for the item.",
        "params": {
          "_itemID": "The ID of the queried item.",
          "_request": "The request to be queried."
        },
        "return": "disputed True if a dispute was raised.disputeID ID of the dispute, if any..submissionTime Time when the request was made.resolved True if the request was executed and/or any raised disputes were resolved.parties Address of requester and challenger, if any.numberOfRounds Number of rounds of dispute.ruling The final ruling given, if any.arbitrator The arbitrator trusted to solve disputes for this request.arbitratorExtraData The extra data for the trusted arbitrator of this request.metaEvidenceID The meta evidence to be used in a dispute for this case."
      },
      "getRoundInfo(bytes32,uint256,uint256)": {
        "details": "Gets the information of a round of a request.",
        "params": {
          "_itemID": "The ID of the queried item.",
          "_request": "The request to be queried.",
          "_round": "The round to be queried."
        },
        "return": "appealed Whether appealed or not.amountPaid Tracks the sum paid for each Party in this round.hasPaid True if the Party has fully paid its fee in this round.feeRewards Sum of reimbursable fees and stake rewards available to the parties that made contributions to the side that ultimately wins a dispute."
      },
      "itemCount()": {
        "details": "Returns the number of items that were submitted. Includes items that never made it to the list or were later removed.",
        "return": "count The number of items on the list."
      },
      "removeItem(bytes32,string)": {
        "details": "Submit a request to remove an item from the list. Accepts enough ETH to cover the deposit, reimburses the rest.",
        "params": {
          "_evidence": "A link to an evidence using its URI. Ignored if not provided.",
          "_itemID": "The ID of the item to remove."
        }
      },
      "rule(uint256,uint256)": {
        "details": "Give a ruling for a dispute. Can only be called by the arbitrator. TRUSTED. Accounts for the situation where the winner loses a case due to paying less appeal fees than expected.",
        "params": {
          "_disputeID": "ID of the dispute in the arbitrator contract.",
          "_ruling": "Ruling given by the arbitrator. Note that 0 is reserved for \"Refused to arbitrate\"."
        }
      },
      "submitEvidence(bytes32,string)": {
        "details": "Submit a reference to evidence. EVENT.",
        "params": {
          "_evidence": "A link to an evidence using its URI.",
          "_itemID": "The ID of the item which the evidence is related to."
        }
      },
      "withdrawFeesAndRewards(address,bytes32,uint256,uint256)": {
        "details": "Reimburses contributions if no disputes were raised. If a dispute was raised, sends the fee stake rewards and reimbursements proportionally to the contributions made to the winner of a dispute.",
        "params": {
          "_beneficiary": "The address that made contributions to a request.",
          "_itemID": "The ID of the item submission to withdraw from.",
          "_request": "The request from which to withdraw from.",
          "_round": "The round from which to withdraw from."
        }
      }
    },
    "title": "GeneralizedTCR This contract is a curated registry for any types of items. Just like a TCR contract it features the request-challenge protocol and appeal fees crowdfunding."
  },
  "userdoc": {
    "methods": {}
  }
}