{
  "contractName": "SimpleCentralizedArbitrator",
  "abi": [
    {
      "anonymous": false,
      "inputs": [
        {
          "indexed": true,
          "internalType": "uint256",
          "name": "_disputeID",
          "type": "uint256"
        },
        {
          "indexed": true,
          "internalType": "contract IArbitrable",
          "name": "_arbitrable",
          "type": "address"
        }
      ],
      "name": "AppealDecision",
      "type": "event"
    },
    {
      "anonymous": false,
      "inputs": [
        {
          "indexed": true,
          "internalType": "uint256",
          "name": "_disputeID",
          "type": "uint256"
        },
        {
          "indexed": true,
          "internalType": "contract IArbitrable",
          "name": "_arbitrable",
          "type": "address"
        }
      ],
      "name": "AppealPossible",
      "type": "event"
    },
    {
      "anonymous": false,
      "inputs": [
        {
          "indexed": true,
          "internalType": "uint256",
          "name": "_disputeID",
          "type": "uint256"
        },
        {
          "indexed": true,
          "internalType": "contract IArbitrable",
          "name": "_arbitrable",
          "type": "address"
        }
      ],
      "name": "DisputeCreation",
      "type": "event"
    },
    {
      "constant": true,
      "inputs": [
        {
          "internalType": "uint256",
          "name": "",
          "type": "uint256"
        }
      ],
      "name": "disputes",
      "outputs": [
        {
          "internalType": "contract IArbitrable",
          "name": "arbitrated",
          "type": "address"
        },
        {
          "internalType": "uint256",
          "name": "choices",
          "type": "uint256"
        },
        {
          "internalType": "uint256",
          "name": "ruling",
          "type": "uint256"
        },
        {
          "internalType": "enum IArbitrator.DisputeStatus",
          "name": "status",
          "type": "uint8"
        }
      ],
      "payable": false,
      "stateMutability": "view",
      "type": "function"
    },
    {
      "constant": true,
      "inputs": [],
      "name": "owner",
      "outputs": [
        {
          "internalType": "address",
          "name": "",
          "type": "address"
        }
      ],
      "payable": false,
      "stateMutability": "view",
      "type": "function"
    },
    {
      "constant": true,
      "inputs": [
        {
          "internalType": "bytes",
          "name": "_extraData",
          "type": "bytes"
        }
      ],
      "name": "arbitrationCost",
      "outputs": [
        {
          "internalType": "uint256",
          "name": "fee",
          "type": "uint256"
        }
      ],
      "payable": false,
      "stateMutability": "view",
      "type": "function"
    },
    {
      "constant": true,
      "inputs": [
        {
          "internalType": "uint256",
          "name": "_disputeID",
          "type": "uint256"
        },
        {
          "internalType": "bytes",
          "name": "_extraData",
          "type": "bytes"
        }
      ],
      "name": "appealCost",
      "outputs": [
        {
          "internalType": "uint256",
          "name": "fee",
          "type": "uint256"
        }
      ],
      "payable": false,
      "stateMutability": "view",
      "type": "function"
    },
    {
      "constant": false,
      "inputs": [
        {
          "internalType": "uint256",
          "name": "_choices",
          "type": "uint256"
        },
        {
          "internalType": "bytes",
          "name": "_extraData",
          "type": "bytes"
        }
      ],
      "name": "createDispute",
      "outputs": [
        {
          "internalType": "uint256",
          "name": "disputeID",
          "type": "uint256"
        }
      ],
      "payable": true,
      "stateMutability": "payable",
      "type": "function"
    },
    {
      "constant": true,
      "inputs": [
        {
          "internalType": "uint256",
          "name": "_disputeID",
          "type": "uint256"
        }
      ],
      "name": "disputeStatus",
      "outputs": [
        {
          "internalType": "enum IArbitrator.DisputeStatus",
          "name": "status",
          "type": "uint8"
        }
      ],
      "payable": false,
      "stateMutability": "view",
      "type": "function"
    },
    {
      "constant": true,
      "inputs": [
        {
          "internalType": "uint256",
          "name": "_disputeID",
          "type": "uint256"
        }
      ],
      "name": "currentRuling",
      "outputs": [
        {
          "internalType": "uint256",
          "name": "ruling",
          "type": "uint256"
        }
      ],
      "payable": false,
      "stateMutability": "view",
      "type": "function"
    },
    {
      "constant": false,
      "inputs": [
        {
          "internalType": "uint256",
          "name": "_disputeID",
          "type": "uint256"
        },
        {
          "internalType": "uint256",
          "name": "_ruling",
          "type": "uint256"
        }
      ],
      "name": "rule",
      "outputs": [],
      "payable": false,
      "stateMutability": "nonpayable",
      "type": "function"
    },
    {
      "constant": false,
      "inputs": [
        {
          "internalType": "uint256",
          "name": "_disputeID",
          "type": "uint256"
        },
        {
          "internalType": "bytes",
          "name": "_extraData",
          "type": "bytes"
        }
      ],
      "name": "appeal",
      "outputs": [],
      "payable": true,
      "stateMutability": "payable",
      "type": "function"
    },
    {
      "constant": true,
      "inputs": [
        {
          "internalType": "uint256",
          "name": "_disputeID",
          "type": "uint256"
        }
      ],
      "name": "appealPeriod",
      "outputs": [
        {
          "internalType": "uint256",
          "name": "start",
          "type": "uint256"
        },
        {
          "internalType": "uint256",
          "name": "end",
          "type": "uint256"
        }
      ],
      "payable": false,
      "stateMutability": "view",
      "type": "function"
    }
  ],
  "bytecode": "0x6080604052336000806101000a81548173ffffffffffffffffffffffffffffffffffffffff021916908373ffffffffffffffffffffffffffffffffffffffff16021790555034801561005057600080fd5b50610d30806100606000396000f3fe6080604052600436106100915760003560e01c80638da5cb5b116100595780638da5cb5b146102ea578063afe15cfb14610341578063c13517e114610397578063f23f16e614610470578063f7434ea91461055657610091565b806310f169e8146100965780631c3db16d146100f3578063311a6c561461014257806349912f8814610187578063564a565d1461024c575b600080fd5b3480156100a257600080fd5b506100cf600480360360208110156100b957600080fd5b8101908080359060200190929190505050610632565b604051808260028111156100df57fe5b60ff16815260200191505060405180910390f35b3480156100ff57600080fd5b5061012c6004803603602081101561011657600080fd5b8101908080359060200190929190505050610667565b6040518082815260200191505060405180910390f35b34801561014e57600080fd5b506101856004803603604081101561016557600080fd5b81019080803590602001909291908035906020019092919050505061068f565b005b61024a6004803603604081101561019d57600080fd5b8101908080359060200190929190803590602001906401000000008111156101c457600080fd5b8201836020820111156101d657600080fd5b803590602001918460018302840111640100000000831117156101f857600080fd5b91908080601f016020809104026020016040519081016040528093929190818152602001838380828437600081840152601f19601f820116905080830192505050505050509192919290505050610965565b005b34801561025857600080fd5b506102856004803603602081101561026f57600080fd5b81019080803590602001909291905050506109cb565b604051808573ffffffffffffffffffffffffffffffffffffffff1673ffffffffffffffffffffffffffffffffffffffff1681526020018481526020018381526020018260028111156102d357fe5b60ff16815260200194505050505060405180910390f35b3480156102f657600080fd5b506102ff610a35565b604051808273ffffffffffffffffffffffffffffffffffffffff1673ffffffffffffffffffffffffffffffffffffffff16815260200191505060405180910390f35b34801561034d57600080fd5b5061037a6004803603602081101561036457600080fd5b8101908080359060200190929190505050610a5a565b604051808381526020018281526020019250505060405180910390f35b61045a600480360360408110156103ad57600080fd5b8101908080359060200190929190803590602001906401000000008111156103d457600080fd5b8201836020820111156103e657600080fd5b8035906020019184600183028401116401000000008311171561040857600080fd5b91908080601f016020809104026020016040519081016040528093929190818152602001838380828437600081840152601f19601f820116905080830192505050505050509192919290505050610a6f565b6040518082815260200191505060405180910390f35b34801561047c57600080fd5b506105406004803603604081101561049357600080fd5b8101908080359060200190929190803590602001906401000000008111156104ba57600080fd5b8201836020820111156104cc57600080fd5b803590602001918460018302840111640100000000831117156104ee57600080fd5b91908080601f016020809104026020016040519081016040528093929190818152602001838380828437600081840152601f19601f820116905080830192505050505050509192919290505050610c36565b6040518082815260200191505060405180910390f35b34801561056257600080fd5b5061061c6004803603602081101561057957600080fd5b810190808035906020019064010000000081111561059657600080fd5b8201836020820111156105a857600080fd5b803590602001918460018302840111640100000000831117156105ca57600080fd5b91908080601f016020809104026020016040519081016040528093929190818152602001838380828437600081840152601f19601f820116905080830192505050505050509192919290505050610c61565b6040518082815260200191505060405180910390f35b60006001828154811061064157fe5b906000526020600020906004020160030160009054906101000a900460ff169050919050565b60006001828154811061067657fe5b9060005260206000209060040201600201549050919050565b6000809054906101000a900473ffffffffffffffffffffffffffffffffffffffff1673ffffffffffffffffffffffffffffffffffffffff163373ffffffffffffffffffffffffffffffffffffffff1614610734576040517f08c379a000000000000000000000000000000000000000000000000000000000815260040180806020018281038252603a815260200180610c74603a913960400191505060405180910390fd5b60006001838154811061074357fe5b9060005260206000209060040201905080600101548211156107cd576040517f08c379a00000000000000000000000000000000000000000000000000000000081526004018080602001828103825260158152602001807f52756c696e67206f7574206f6620626f756e647321000000000000000000000081525060200191505060405180910390fd5b600060028111156107da57fe5b8160030160009054906101000a900460ff1660028111156107f757fe5b1461084d576040517f08c379a0000000000000000000000000000000000000000000000000000000008152600401808060200182810382526024815260200180610cae6024913960400191505060405180910390fd5b81816002018190555060028160030160006101000a81548160ff0219169083600281111561087757fe5b02179055503373ffffffffffffffffffffffffffffffffffffffff166108fc6108ae60405180602001604052806000815250610c61565b9081150290604051600060405180830381858888f19350505050508060000160009054906101000a900473ffffffffffffffffffffffffffffffffffffffff1673ffffffffffffffffffffffffffffffffffffffff1663311a6c5684846040518363ffffffff1660e01b81526004018083815260200182815260200192505050600060405180830381600087803b15801561094857600080fd5b505af115801561095c573d6000803e3d6000fd5b50505050505050565b61096f8282610c36565b3410156109c7576040517f08c379a000000000000000000000000000000000000000000000000000000000815260040180806020018281038252602a815260200180610cd2602a913960400191505060405180910390fd5b5050565b600181815481106109d857fe5b90600052602060002090600402016000915090508060000160009054906101000a900473ffffffffffffffffffffffffffffffffffffffff16908060010154908060020154908060030160009054906101000a900460ff16905084565b6000809054906101000a900473ffffffffffffffffffffffffffffffffffffffff1681565b60008060008081915080905091509150915091565b6000610a7a82610c61565b341015610ad2576040517f08c379a000000000000000000000000000000000000000000000000000000000815260040180806020018281038252602a815260200180610cd2602a913960400191505060405180910390fd5b60018060405180608001604052803373ffffffffffffffffffffffffffffffffffffffff1681526020018681526020017fffffffffffffffffffffffffffffffffffffffffffffffffffffffffffffffff815260200160006002811115610b3557fe5b8152509080600181540180825580915050906001820390600052602060002090600402016000909192909190915060008201518160000160006101000a81548173ffffffffffffffffffffffffffffffffffffffff021916908373ffffffffffffffffffffffffffffffffffffffff160217905550602082015181600101556040820151816002015560608201518160030160006101000a81548160ff02191690836002811115610be257fe5b021790555050500390503373ffffffffffffffffffffffffffffffffffffffff16817f141dfc18aa6a56fc816f44f0e9e2f1ebc92b15ab167770e17db5b084c10ed99560405160405180910390a392915050565b60007f0400000000000000000000000000000000000000000000000000000000000000905092915050565b600067016345785d8a0000905091905056fe4f6e6c7920746865206f776e6572206f66207468697320636f6e74726163742063616e20657865637574652072756c652066756e6374696f6e2e44697370757465206973206e6f74206177616974696e67206172626974726174696f6e2e4e6f7420656e6f7567682045544820746f20636f766572206172626974726174696f6e20636f7374732ea265627a7a723158205a36556506ded3567c99d930f2721a61e8bff1529ed8a97d901950dc8e77321164736f6c63430005100032",
  "source": "pragma solidity ^0.5;\n\nimport \"../IArbitrator.sol\";\n\ncontract SimpleCentralizedArbitrator is IArbitrator {\n\n    address public owner = msg.sender;\n\n    struct Dispute {\n        IArbitrable arbitrated;\n        uint choices;\n        uint ruling;\n        DisputeStatus status;\n    }\n\n    Dispute[] public disputes;\n\n    function arbitrationCost(bytes memory _extraData) public view returns(uint fee) {\n        fee = 0.1 ether;\n    }\n\n    function appealCost(uint _disputeID, bytes memory _extraData) public view returns(uint fee) {\n        fee = 2**250; // An unaffordable amount which practically avoids appeals.\n    }\n\n    function createDispute(uint _choices, bytes memory _extraData) public payable returns(uint disputeID) {\n        require(msg.value >= arbitrationCost(_extraData), \"Not enough ETH to cover arbitration costs.\");\n\n        disputeID = disputes.push(Dispute({\n          arbitrated: IArbitrable(msg.sender),\n          choices: _choices,\n          ruling: uint(-1),\n          status: DisputeStatus.Waiting\n          })) -1;\n\n        emit DisputeCreation(disputeID, IArbitrable(msg.sender));\n    }\n\n    function disputeStatus(uint _disputeID) public view returns(DisputeStatus status) {\n        status = disputes[_disputeID].status;\n    }\n\n    function currentRuling(uint _disputeID) public view returns(uint ruling) {\n        ruling = disputes[_disputeID].ruling;\n    }\n\n    function rule(uint _disputeID, uint _ruling) public {\n        require(msg.sender == owner, \"Only the owner of this contract can execute rule function.\");\n\n        Dispute storage dispute = disputes[_disputeID];\n\n        require(_ruling <= dispute.choices, \"Ruling out of bounds!\");\n        require(dispute.status == DisputeStatus.Waiting, \"Dispute is not awaiting arbitration.\");\n\n        dispute.ruling = _ruling;\n        dispute.status = DisputeStatus.Solved;\n\n        msg.sender.send(arbitrationCost(\"\"));\n        dispute.arbitrated.rule(_disputeID, _ruling);\n    }\n\n    function appeal(uint _disputeID, bytes memory _extraData) public payable {\n        require(msg.value >= appealCost(_disputeID, _extraData), \"Not enough ETH to cover arbitration costs.\");\n    }\n\n    function appealPeriod(uint _disputeID) public view returns(uint start, uint end) {\n        return (0,0);\n    }\n}\n",
  "sourcePath": "@kleros/erc-792/contracts/examples/SimpleCentralizedArbitrator.sol",
  "compiler": {
    "name": "solc",
    "version": "0.5.16+commit.9c3226ce.Emscripten.clang"
  },
  "schemaVersion": "3.3.2",
  "updatedAt": "2021-05-21T17:19:25.313Z",
  "networkType": "ethereum",
  "devdoc": {
    "methods": {}
  },
  "userdoc": {
    "methods": {}
  }
}